{"project/contracts/CTBALToken.sol":{"CTBALToken":{"abi":[{"inputs":[{"internalType":"string","name":"name","type":"string"},{"internalType":"string","name":"symbol","type":"string"},{"internalType":"uint256","name":"initialSupply","type":"uint256"}],"stateMutability":"nonpayable","type":"constructor"},{"inputs":[],"name":"AccessControlBadConfirmation","type":"error"},{"inputs":[{"internalType":"address","name":"account","type":"address"},{"internalType":"bytes32","name":"neededRole","type":"bytes32"}],"name":"AccessControlUnauthorizedAccount","type":"error"},{"inputs":[{"internalType":"address","name":"spender","type":"address"},{"internalType":"uint256","name":"allowance","type":"uint256"},{"internalType":"uint256","name":"needed","type":"uint256"}],"name":"ERC20InsufficientAllowance","type":"error"},{"inputs":[{"internalType":"address","name":"sender","type":"address"},{"internalType":"uint256","name":"balance","type":"uint256"},{"internalType":"uint256","name":"needed","type":"uint256"}],"name":"ERC20InsufficientBalance","type":"error"},{"inputs":[{"internalType":"address","name":"approver","type":"address"}],"name":"ERC20InvalidApprover","type":"error"},{"inputs":[{"internalType":"address","name":"receiver","type":"address"}],"name":"ERC20InvalidReceiver","type":"error"},{"inputs":[{"internalType":"address","name":"sender","type":"address"}],"name":"ERC20InvalidSender","type":"error"},{"inputs":[{"internalType":"address","name":"spender","type":"address"}],"name":"ERC20InvalidSpender","type":"error"},{"inputs":[],"name":"EnforcedPause","type":"error"},{"inputs":[],"name":"ExpectedPause","type":"error"},{"inputs":[],"name":"ReentrancyGuardReentrantCall","type":"error"},{"anonymous":false,"inputs":[{"indexed":true,"internalType":"address","name":"owner","type":"address"},{"indexed":true,"internalType":"address","name":"spender","type":"address"},{"indexed":false,"internalType":"uint256","name":"value","type":"uint256"}],"name":"Approval","type":"event"},{"anonymous":false,"inputs":[{"indexed":true,"internalType":"address","name":"account","type":"address"},{"indexed":false,"internalType":"uint256","name":"previousBalance","type":"uint256"},{"indexed":false,"internalType":"uint256","name":"newBalance","type":"uint256"},{"indexed":false,"internalType":"string","name":"operation","type":"string"},{"indexed":true,"internalType":"address","name":"authorizer","type":"address"}],"name":"AuditRecorded","type":"event"},{"anonymous":false,"inputs":[{"indexed":true,"internalType":"uint256","name":"testId","type":"uint256"},{"indexed":true,"internalType":"address","name":"clinician","type":"address"},{"indexed":false,"internalType":"uint256","name":"timestamp","type":"uint256"}],"name":"ClinicalTestCompleted","type":"event"},{"anonymous":false,"inputs":[{"indexed":true,"internalType":"uint256","name":"testId","type":"uint256"},{"indexed":true,"internalType":"address","name":"clinician","type":"address"},{"indexed":true,"internalType":"address","name":"patient","type":"address"},{"indexed":false,"internalType":"string","name":"testType","type":"string"},{"indexed":false,"internalType":"uint256","name":"associatedTokens","type":"uint256"},{"indexed":false,"internalType":"string","name":"dataHash","type":"string"}],"name":"ClinicalTestCreated","type":"event"},{"anonymous":false,"inputs":[{"indexed":true,"internalType":"uint256","name":"testId","type":"uint256"},{"indexed":true,"internalType":"address","name":"validator","type":"address"},{"indexed":false,"internalType":"uint256","name":"timestamp","type":"uint256"}],"name":"ClinicalTestValidated","type":"event"},{"anonymous":false,"inputs":[{"indexed":false,"internalType":"address","name":"account","type":"address"}],"name":"Paused","type":"event"},{"anonymous":false,"inputs":[{"indexed":true,"internalType":"bytes32","name":"role","type":"bytes32"},{"indexed":true,"internalType":"bytes32","name":"previousAdminRole","type":"bytes32"},{"indexed":true,"internalType":"bytes32","name":"newAdminRole","type":"bytes32"}],"name":"RoleAdminChanged","type":"event"},{"anonymous":false,"inputs":[{"indexed":true,"internalType":"bytes32","name":"role","type":"bytes32"},{"indexed":true,"internalType":"address","name":"account","type":"address"},{"indexed":true,"internalType":"address","name":"sender","type":"address"}],"name":"RoleGranted","type":"event"},{"anonymous":false,"inputs":[{"indexed":true,"internalType":"bytes32","name":"role","type":"bytes32"},{"indexed":true,"internalType":"address","name":"account","type":"address"},{"indexed":true,"internalType":"address","name":"sender","type":"address"}],"name":"RoleRevoked","type":"event"},{"anonymous":false,"inputs":[{"indexed":true,"internalType":"uint256","name":"testId","type":"uint256"},{"indexed":true,"internalType":"address","name":"approver","type":"address"},{"indexed":false,"internalType":"uint256","name":"approvalCount","type":"uint256"}],"name":"TestApprovalReceived","type":"event"},{"anonymous":false,"inputs":[{"indexed":true,"internalType":"address","name":"from","type":"address"},{"indexed":true,"internalType":"address","name":"to","type":"address"},{"indexed":false,"internalType":"uint256","name":"value","type":"uint256"}],"name":"Transfer","type":"event"},{"anonymous":false,"inputs":[{"indexed":false,"internalType":"address","name":"account","type":"address"}],"name":"Unpaused","type":"event"},{"inputs":[],"name":"AUDITOR_ROLE","outputs":[{"internalType":"bytes32","name":"","type":"bytes32"}],"stateMutability":"view","type":"function"},{"inputs":[],"name":"CLINICAL_ADMIN_ROLE","outputs":[{"internalType":"bytes32","name":"","type":"bytes32"}],"stateMutability":"view","type":"function"},{"inputs":[],"name":"CLINICIAN_ROLE","outputs":[{"internalType":"bytes32","name":"","type":"bytes32"}],"stateMutability":"view","type":"function"},{"inputs":[],"name":"DEFAULT_ADMIN_ROLE","outputs":[{"internalType":"bytes32","name":"","type":"bytes32"}],"stateMutability":"view","type":"function"},{"inputs":[],"name":"VALIDATOR_ROLE","outputs":[{"internalType":"bytes32","name":"","type":"bytes32"}],"stateMutability":"view","type":"function"},{"inputs":[{"internalType":"address","name":"owner","type":"address"},{"internalType":"address","name":"spender","type":"address"}],"name":"allowance","outputs":[{"internalType":"uint256","name":"","type":"uint256"}],"stateMutability":"view","type":"function"},{"inputs":[{"internalType":"address","name":"spender","type":"address"},{"internalType":"uint256","name":"value","type":"uint256"}],"name":"approve","outputs":[{"internalType":"bool","name":"","type":"bool"}],"stateMutability":"nonpayable","type":"function"},{"inputs":[{"internalType":"uint256","name":"testId","type":"uint256"}],"name":"approveClinicalTest","outputs":[],"stateMutability":"nonpayable","type":"function"},{"inputs":[{"internalType":"uint256","name":"","type":"uint256"}],"name":"auditTrail","outputs":[{"internalType":"address","name":"account","type":"address"},{"internalType":"uint256","name":"previousBalance","type":"uint256"},{"internalType":"uint256","name":"newBalance","type":"uint256"},{"internalType":"uint256","name":"timestamp","type":"uint256"},{"internalType":"string","name":"operation","type":"string"},{"internalType":"address","name":"authorizer","type":"address"},{"internalType":"uint256","name":"testId","type":"uint256"}],"stateMutability":"view","type":"function"},{"inputs":[{"internalType":"address","name":"account","type":"address"}],"name":"balanceOf","outputs":[{"internalType":"uint256","name":"","type":"uint256"}],"stateMutability":"view","type":"function"},{"inputs":[{"internalType":"uint256","name":"","type":"uint256"}],"name":"clinicalTests","outputs":[{"internalType":"uint256","name":"testId","type":"uint256"},{"internalType":"string","name":"testType","type":"string"},{"internalType":"address","name":"clinician","type":"address"},{"internalType":"address","name":"patient","type":"address"},{"internalType":"uint256","name":"timestamp","type":"uint256"},{"internalType":"string","name":"dataHash","type":"string"},{"internalType":"string","name":"metadataHash","type":"string"},{"internalType":"bool","name":"validated","type":"bool"},{"internalType":"bool","name":"completed","type":"bool"},{"internalType":"uint256","name":"associatedTokens","type":"uint256"},{"internalType":"uint256","name":"approvalCount","type":"uint256"}],"stateMutability":"view","type":"function"},{"inputs":[{"internalType":"address","name":"","type":"address"},{"internalType":"uint256","name":"","type":"uint256"}],"name":"clinicianTests","outputs":[{"internalType":"uint256","name":"","type":"uint256"}],"stateMutability":"view","type":"function"},{"inputs":[{"internalType":"uint256","name":"testId","type":"uint256"}],"name":"completeClinicalTest","outputs":[],"stateMutability":"nonpayable","type":"function"},{"inputs":[{"internalType":"string","name":"testType","type":"string"},{"internalType":"address","name":"patient","type":"address"},{"internalType":"string","name":"dataHash","type":"string"},{"internalType":"string","name":"metadataHash","type":"string"},{"internalType":"uint256","name":"tokenAllocation","type":"uint256"}],"name":"createClinicalTest","outputs":[{"internalType":"uint256","name":"","type":"uint256"}],"stateMutability":"nonpayable","type":"function"},{"inputs":[],"name":"decimals","outputs":[{"internalType":"uint8","name":"","type":"uint8"}],"stateMutability":"view","type":"function"},{"inputs":[{"internalType":"uint256","name":"index","type":"uint256"}],"name":"getAuditRecord","outputs":[{"components":[{"internalType":"address","name":"account","type":"address"},{"internalType":"uint256","name":"previousBalance","type":"uint256"},{"internalType":"uint256","name":"newBalance","type":"uint256"},{"internalType":"uint256","name":"timestamp","type":"uint256"},{"internalType":"string","name":"operation","type":"string"},{"internalType":"address","name":"authorizer","type":"address"},{"internalType":"uint256","name":"testId","type":"uint256"}],"internalType":"struct CTBALToken.AuditRecord","name":"","type":"tuple"}],"stateMutability":"view","type":"function"},{"inputs":[],"name":"getAuditTrailLength","outputs":[{"internalType":"uint256","name":"","type":"uint256"}],"stateMutability":"view","type":"function"},{"inputs":[{"internalType":"uint256","name":"testId","type":"uint256"}],"name":"getClinicalTest","outputs":[{"internalType":"uint256","name":"id","type":"uint256"},{"internalType":"string","name":"testType","type":"string"},{"internalType":"address","name":"clinician","type":"address"},{"internalType":"address","name":"patient","type":"address"},{"internalType":"uint256","name":"timestamp","type":"uint256"},{"internalType":"string","name":"dataHash","type":"string"},{"internalType":"string","name":"metadataHash","type":"string"},{"internalType":"bool","name":"validated","type":"bool"},{"internalType":"bool","name":"completed","type":"bool"},{"internalType":"uint256","name":"associatedTokens","type":"uint256"},{"internalType":"uint256","name":"approvalCount","type":"uint256"}],"stateMutability":"view","type":"function"},{"inputs":[{"internalType":"address","name":"clinician","type":"address"}],"name":"getClinicianTests","outputs":[{"internalType":"uint256[]","name":"","type":"uint256[]"}],"stateMutability":"view","type":"function"},{"inputs":[{"internalType":"address","name":"patient","type":"address"}],"name":"getPatientTests","outputs":[{"internalType":"uint256[]","name":"","type":"uint256[]"}],"stateMutability":"view","type":"function"},{"inputs":[{"internalType":"bytes32","name":"role","type":"bytes32"}],"name":"getRoleAdmin","outputs":[{"internalType":"bytes32","name":"","type":"bytes32"}],"stateMutability":"view","type":"function"},{"inputs":[{"internalType":"bytes32","name":"role","type":"bytes32"},{"internalType":"address","name":"account","type":"address"}],"name":"grantRole","outputs":[],"stateMutability":"nonpayable","type":"function"},{"inputs":[{"internalType":"bytes32","name":"role","type":"bytes32"},{"internalType":"address","name":"account","type":"address"}],"name":"hasRole","outputs":[{"internalType":"bool","name":"","type":"bool"}],"stateMutability":"view","type":"function"},{"inputs":[{"internalType":"address","name":"to","type":"address"},{"internalType":"uint256","name":"amount","type":"uint256"}],"name":"mint","outputs":[],"stateMutability":"nonpayable","type":"function"},{"inputs":[],"name":"name","outputs":[{"internalType":"string","name":"","type":"string"}],"stateMutability":"view","type":"function"},{"inputs":[{"internalType":"address","name":"","type":"address"},{"internalType":"uint256","name":"","type":"uint256"}],"name":"patientTests","outputs":[{"internalType":"uint256","name":"","type":"uint256"}],"stateMutability":"view","type":"function"},{"inputs":[],"name":"pause","outputs":[],"stateMutability":"nonpayable","type":"function"},{"inputs":[],"name":"paused","outputs":[{"internalType":"bool","name":"","type":"bool"}],"stateMutability":"view","type":"function"},{"inputs":[{"internalType":"bytes32","name":"role","type":"bytes32"},{"internalType":"address","name":"callerConfirmation","type":"address"}],"name":"renounceRole","outputs":[],"stateMutability":"nonpayable","type":"function"},{"inputs":[{"internalType":"bytes32","name":"role","type":"bytes32"},{"internalType":"address","name":"account","type":"address"}],"name":"revokeRole","outputs":[],"stateMutability":"nonpayable","type":"function"},{"inputs":[{"internalType":"bytes4","name":"interfaceId","type":"bytes4"}],"name":"supportsInterface","outputs":[{"internalType":"bool","name":"","type":"bool"}],"stateMutability":"view","type":"function"},{"inputs":[],"name":"symbol","outputs":[{"internalType":"string","name":"","type":"string"}],"stateMutability":"view","type":"function"},{"inputs":[{"internalType":"string","name":"","type":"string"}],"name":"testTypeCount","outputs":[{"internalType":"uint256","name":"","type":"uint256"}],"stateMutability":"view","type":"function"},{"inputs":[],"name":"totalClinicalTests","outputs":[{"internalType":"uint256","name":"","type":"uint256"}],"stateMutability":"view","type":"function"},{"inputs":[],"name":"totalSupply","outputs":[{"internalType":"uint256","name":"","type":"uint256"}],"stateMutability":"view","type":"function"},{"inputs":[{"internalType":"address","name":"to","type":"address"},{"internalType":"uint256","name":"amount","type":"uint256"}],"name":"transfer","outputs":[{"internalType":"bool","name":"","type":"bool"}],"stateMutability":"nonpayable","type":"function"},{"inputs":[{"internalType":"address","name":"from","type":"address"},{"internalType":"address","name":"to","type":"address"},{"internalType":"uint256","name":"value","type":"uint256"}],"name":"transferFrom","outputs":[{"internalType":"bool","name":"","type":"bool"}],"stateMutability":"nonpayable","type":"function"},{"inputs":[],"name":"unpause","outputs":[],"stateMutability":"nonpayable","type":"function"},{"inputs":[{"internalType":"uint256","name":"testId","type":"uint256"}],"name":"validateClinicalTest","outputs":[],"stateMutability":"nonpayable","type":"function"},{"inputs":[],"name":"validatedTests","outputs":[{"internalType":"uint256","name":"","type":"uint256"}],"stateMutability":"view","type":"function"}],"evm":{"bytecode":{"linkReferences":{},"object":"60406080815234620003cf5762002cb7803803806200001e81620003d3565b9283398101606082820312620003cf5781516001600160401b039190828111620003cf578162000050918501620003f9565b9260209182820151848111620003cf5786916200006f918401620003f9565b910151928451818111620002da576003908154906001978883811c93168015620003c4575b87841014620003b0578190601f938481116200035d575b508790848311600114620002fa575f92620002ee575b50505f1982851b1c191690881b1782555b8351928311620002da5760049384548881811c91168015620002cf575b87821014620002bc57908183869594931162000265575b5086918411600114620001fe575f93620001f2575b505082871b925f19911b1c19161781555b836007556200013b3362000469565b506200014733620004e8565b50670de0b6b3a764000092838102938185041490151715620001c9573315620001dc5760025490838201809211620001c957505f917fddf252ad1be2c89b69c2b068fc378daa952ba7f163c4a11628f55a4df523b3ef9160025533835282815285832084815401905585519384523393a3600d555161270d90816200058a8239f35b601190634e487b7160e01b5f525260245ffd5b6024905f86519163ec442f0560e01b8352820152fd5b015191505f806200011b565b9190889450601f19841692865f52875f20935f5b898282106200024e575050851162000234575b50505050811b0181556200012c565b01519060f8845f19921b161c191690555f80808062000225565b8385015187558c9890960195938401930162000212565b9091929350855f52865f208380870160051c820192898810620002b2575b918b918897969594930160051c01915b828110620002a357505062000106565b5f81558796508b910162000293565b9250819262000283565b602286634e487b7160e01b5f525260245ffd5b90607f1690620000ef565b634e487b7160e01b5f52604160045260245ffd5b015190505f80620000c1565b908a9350601f19831691865f52895f20925f5b8b8282106200034657505084116200032e575b505050811b018255620000d2565b01515f1983871b60f8161c191690555f808062000320565b8385015186558e979095019493840193016200030d565b909150845f52875f208480850160051c8201928a8610620003a6575b918c91869594930160051c01915b82811062000397575050620000ab565b5f81558594508c910162000387565b9250819262000379565b634e487b7160e01b5f52602260045260245ffd5b92607f169262000094565b5f80fd5b6040519190601f01601f191682016001600160401b03811183821017620002da57604052565b919080601f84011215620003cf5782516001600160401b038111620002da576020906200042f601f8201601f19168301620003d3565b92818452828287010111620003cf575f5b818110620004555750825f9394955001015290565b858101830151848201840152820162000440565b6001600160a01b03165f8181527f05b8ccbb9d4d8fb16ea74ce3c29a41f1b461fbdaff4714a0d9a8eb05499746bc602052604081205490919060ff16620004e45781805260056020526040822081835260205260408220600160ff1982541617905533915f8051602062002c978339815191528180a4600190565b5090565b6001600160a01b03165f8181527f5156c5787db8cb3319a1ea1d3d3c9fc3f8685ebe48d47f9d8eb5dc680beb702360205260408120549091907f4b346d9ac223184c8768fae9f0f9cc7825dd24f5ba7c8c677c34451ba15eca649060ff16620005845780835260056020526040832082845260205260408320600160ff198254161790555f8051602062002c97833981519152339380a4600190565b50509056fe6080806040526004361015610012575f80fd5b5f3560e01c90816301ffc9a714611af55750806306fdde0314611a52578063095ea7b3146119d057806318160ddd146119b357806323b872dd146118be578063248a9ca3146118915780632f2ff15d14611854578063313ce5671461183957806336568abe146117f25780633f4ba83a1461178957806340c10f19146116885780634417da29146115dc57806349270315146115bf5780634a3b17b1146115765780634a84e1041461151f5780634e6f13d3146113345780634f7f6831146113175780635b2801a4146112a45780635c975abb1461128257806365143195146111715780636e1d616e146111375780636f17c8b4146110a857806370a0823114611068578063783b8bd014610f1a5780638456cb5914610ec15780638f37a90f14610e8757806391d1485414610e3e57806395d89b4114610d5f5780639a2e6b8414610645578063a217fddf1461062b578063a5817e13146105f1578063a9059cbb1461053b578063b213cb9d146104b8578063b3649a7e1461049b578063b9f838011461043f578063c49baebe14610405578063cbf37100146102fd578063d547741f146102be578063dd62ed3e146102715763ddaf0929146101d4575f80fd5b3461026d57602036600319011261026d57600435600c5481101561026d576101fb90611e21565b5060018060a01b0390818154169060018101549261025e6002830154916003840154600661022b60048701611d2b565b9260058701541695015493604051978897885260208801526040870152606086015260e0608086015260e0850190611b69565b9160a084015260c08301520390f35b5f80fd5b3461026d57604036600319011261026d5761028a611b8e565b610292611ba4565b9060018060a01b038091165f52600160205260405f2091165f52602052602060405f2054604051908152f35b3461026d57604036600319011261026d576102fb6004356102dd611ba4565b90805f5260056020526102f6600160405f200154611f89565b612029565b005b3461026d5760208060031936011261026d5760043561031a611f2e565b6103226121b0565b801515806103fa575b610334906121ce565b805f526008825260ff600760405f200154166103bc57805f526008825261036860ff600760405f20015460081c161561220c565b805f5260088252600760405f2001600160ff1982541617905561038c600f54612161565b600f557ff0c06490c8fa424ac367bbedd8bc523e3a79283e498efb24c1be92b329662be8604051924284523393a3005b60405162461bcd60e51b815260048101839052601660248201527515195cdd08185b1c9958591e481d985b1a59185d195960521b6044820152606490fd5b50600d54811061032b565b3461026d575f36600319011261026d5760206040517f21702c8af46127c7fa207f89d0b0a8441bb32959a0ac7df790e9ab1a25c989268152f35b3461026d57602036600319011261026d576004356001600160401b03811161026d57610488602061047581933690600401611dcc565b8160405193828580945193849201611b48565b8101600b81520301902054604051908152f35b3461026d575f36600319011261026d576020600f54604051908152f35b3461026d5760208060031936011261026d576001600160a01b036104da611b8e565b165f52600a815260405f209060405190818184549182815201935f52815f20915f905b828210610524576105208561051481890382611d0a565b60405191829182611c62565b0390f35b8354865294850194600193840193909101906104fd565b3461026d57604036600319011261026d57610554611b8e565b6002600754146105df576105cf90600260075561056f6121b0565b6001600160a01b0381165f8181526020819052604090205490610595602435843361209e565b5f525f60205260405f2054604051916105ad83611cef565b600e83526d2a37b5b2b7103a3930b739b332b960911b60208401523393612251565b6001600755602060405160018152f35b604051633ee5aeb560e01b8152600490fd5b3461026d575f36600319011261026d5760206040517fe497b4ad79a67650fca774cf0812e4505f07dd6d87a3c1afc29076ccc8bbcefe8152f35b3461026d575f36600319011261026d5760206040515f8152f35b3461026d5760a036600319011261026d576004356001600160401b03811161026d57610675903690600401611dcc565b61067d611ba4565b60449081356001600160401b03811161026d5761069e903690600401611dcc565b606480356001600160401b03811161026d576106be903690600401611dcc565b936106c7611ed3565b6106cf6121b0565b6001600160a01b03841615610d1e57855115610ce857825115610cb25760843515610c6657335f525f60205260843560405f205410610c2f575050600d549261071784612161565b600d55835f52600860205260405f209084825585516001600160401b038111610aa9576107476001840154611c9c565b601f8111610beb575b50806020601f8211600114610b80575f91610b75575b508160011b915f199060031b1c19161760018301555b6002820180546001600160a01b031990811633179091556003830180549091166001600160a01b03861617905542600483015582516001600160401b038111610aa9576107cc6005840154611c9c565b601f8111610b31575b50806020601f8211600114610ac8575f91610abd575b508160011b915f199060031b1c19161760058301555b8051906001600160401b038211610aa95761081f6006840154611c9c565b601f8111610a61575b50916020969186938890601f83116001146109cb5761099393837f7e7721f707738e432843dbd16824401362df6792b22783dc84f559fa5b71b02096945f94600a9486926109c0575b50508160011b9185199060031b1c19161760068201555b60078101805461ffff19169055608435600882015501556001600160a01b0386165f90815260098952604090206108c090859061216f565b335f52600a88526108d48460405f2061216f565b604051888183516108e88183858801611b48565b8101600b8152030190206108fc8154612161565b9055610909600e54612161565b600e55610919608435303361209e565b305f525f885261097c8461093360843560405f20546121a3565b305f525f8b5260405f20546040519061094b82611cef565b601a82527f436c696e6963616c207465737420746f6b656e20657363726f770000000000008d8301523392306124ae565b6109b5604051928392606084526060840190611b69565b608435838b015282810360408401526001600160a01b03909716963396611b69565b0390a4604051908152f35b015190508d80610871565b90600684015f52895f20915f5b601f1985168110610a475750936001845f94600a94610993987f7e7721f707738e432843dbd16824401362df6792b22783dc84f559fa5b71b0209a98601f19811610610a2f575b505050811b016006820155610888565b0151861960f88460031b161c191690558d8080610a1f565b8183015184558a9750600190930192918b01918b016109d8565b600684015f5260205f20601f840160051c81019160208510610a9f575b601f0160051c01905b818110610a945750610828565b5f8155600101610a87565b9091508190610a7e565b634e487b7160e01b5f52604160045260245ffd5b9050840151886107eb565b9150600584015f5260205f205f925b601f1983168410610b19576001935082601f19811610610b01575b5050811b016005830155610801565b8601515f1960f88460031b161c191690558880610af2565b86810151825560209384019360019092019101610ad7565b600584015f5260205f20601f830160051c810160208410610b6e575b601f830160051c82018110610b635750506107d5565b5f8155600101610b4d565b5080610b4d565b905087015188610766565b600185015f908152602081209250601f198416905b8a828210610bd35750509083600194939210610bbb575b5050811b01600183015561077c565b8901515f1960f88460031b161c191690558880610bac565b60018495602093958493015181550194019201610b95565b600184015f5260205f20601f830160051c810160208410610c28575b601f830160051c82018110610c1d575050610750565b5f8155600101610c07565b5080610c07565b72496e73756666696369656e7420746f6b656e7360681b6040519162461bcd60e51b83526020600484015260136024840152820152fd5b606560f81b6084927f546f6b656e20616c6c6f636174696f6e206d75737420626520706f73697469766040519362461bcd60e51b85526020600486015260216024860152840152820152fd5b7111185d18481a185cda081c995c5d5a5c995960721b6040519162461bcd60e51b83526020600484015260126024840152820152fd5b7115195cdd081d1e5c19481c995c5d5a5c995960721b6040519162461bcd60e51b83526020600484015260126024840152820152fd5b7f496e76616c69642070617469656e7420616464726573730000000000000000006040519162461bcd60e51b83526020600484015260176024840152820152fd5b3461026d575f36600319011261026d576040515f600454610d7f81611c9c565b80845290600190818116908115610e175750600114610dbd575b61052084610da981860382611d0a565b604051918291602083526020830190611b69565b60045f90815292507f8a35acfbc15ff81a39ae7d344fd709f28e8600b4aa8c65c6b64bfe7fe36bd19b5b828410610dff575050508101602001610da982610d99565b80546020858701810191909152909301928101610de7565b60ff191660208087019190915292151560051b85019092019250610da99150839050610d99565b3461026d57604036600319011261026d57610e57611ba4565b6004355f52600560205260405f209060018060a01b03165f52602052602060ff60405f2054166040519015158152f35b3461026d575f36600319011261026d5760206040517f4b346d9ac223184c8768fae9f0f9cc7825dd24f5ba7c8c677c34451ba15eca648152f35b3461026d575f36600319011261026d57610ed9611e5a565b610ee16121b0565b600160ff1960065416176006557f62e78cea01bee320cd4e420270b5ea74000d11b0c9f74754ebdbfc544b05a2586020604051338152a1005b3461026d5760208060031936011261026d576004355f60c0604051610f3e81611cd4565b8281528285820152826040820152826060820152606060808201528260a08201520152600c5481101561102d57610f7490611e21565b5060405190610f8282611cd4565b60018060a01b03928382541683528361101b600184015483860190815260028501546040870190815260038601549060608801918252610fc460048801611d2b565b926080890193845260068660058a0154169860a08b01998a5201549660c08a019788526040519a8b9a828c525116908a01525160408901525160608801525160808701525160e060a0870152610100860190611b69565b92511660c08401525160e08301520390f35b60405162461bcd60e51b8152600481018390526013602482015272092dcecc2d8d2c840c2eac8d2e840d2dcc8caf606b1b6044820152606490fd5b3461026d57602036600319011261026d5760206110a0611086611b8e565b6001600160a01b03165f9081526020819052604090205490565b604051908152f35b3461026d57602036600319011261026d576004355f52600860205260405f2080546105206110d860018401611d2b565b9160018060a01b039384600282015416946003820154169160048201549061110260058401611d2b565b61110e60068501611d2b565b90600785015493600a6008870154960154966040519a8b9a60ff808960081c169816968c611bba565b3461026d575f36600319011261026d5760206040517f59a1c48e5837ad7a7f3dcedcbe129bf3249ec4fbf651fd4f5e2600ead39fe2f58152f35b3461026d5760208060031936011261026d5760043561118e611f2e565b6111966121b0565b80151580611277575b6111a8906121ce565b805f5260088252600960405f2001335f52825260ff60405f20541661123f57805f5260088252600960405f2001335f52825260405f20600160ff19825416179055805f5260088252600a60405f20016112018154612161565b9055805f52600882527fbfa63a3fd1a533e040d9abbba71dad5bd30ae49ba7650b37708bfd5968260747600a60405f200154926040519384523393a3005b60405162461bcd60e51b815260048101839052601060248201526f105b1c9958591e48185c1c1c9bdd995960821b6044820152606490fd5b50600d54811061119f565b3461026d575f36600319011261026d57602060ff600654166040519015158152f35b3461026d5760208060031936011261026d576001600160a01b036112c6611b8e565b165f526009815260405f209060405190818184549182815201935f52815f20915f905b828210611300576105208561051481890382611d0a565b8354865294850194600193840193909101906112e9565b3461026d575f36600319011261026d576020600e54604051908152f35b3461026d5760208060031936011261026d57600435611351611ed3565b6113596121b0565b80151580611514575b61136b906121ce565b5f81815260088084526040909120600201546001600160a01b0390811633036114de57825f5281845260ff600760405f20015416156114a457611477916114228492835f528287526113c960ff600760405f200154851c161561220c565b835f5282875260405f20926007840161010061ff00198254161790556113fd6003850191838354169501948554903061209e565b54169161141a8360018060a01b03165f525f60205260405f205490565b9054906121a3565b6001600160a01b0382165f908152602081905260409020546040519161144783611cef565b601883527f436c696e6963616c207465737420636f6d706c6574696f6e00000000000000008884015233936124ae565b7ffbf860a58bb486670a4ab1d426433f88cf08e59ca817a52d7050d5cd6f7eee5c604051924284523393a3005b60405162461bcd60e51b815260048101859052601260248201527115195cdd081b9bdd081d985b1a59185d195960721b6044820152606490fd5b60405162461bcd60e51b815260048101859052600e60248201526d2737ba103a32b9ba1037bbb732b960911b6044820152606490fd5b50600d548110611362565b3461026d57604036600319011261026d57611538611b8e565b6001600160a01b03165f9081526009602052604090208054602435919082101561026d5760209161156891611c39565b90546040519160031b1c8152f35b3461026d57604036600319011261026d5761158f611b8e565b6001600160a01b03165f908152600a602052604090208054602435919082101561026d5760209161156891611c39565b3461026d575f36600319011261026d576020600c54604051908152f35b3461026d57602036600319011261026d576004358015158061167d575b611602906121ce565b5f52600860205260405f20805461052060018060a01b03928360028201541693600382015416600482015493600783015490600884015492600a8501549461164c60018201611d2b565b97611665600661165e60058501611d2b565b9301611d2b565b926040519a8b9a60ff808960081c169816968c611bba565b50600d5481106115f9565b3461026d57604036600319011261026d576116a1611b8e565b602435906116ad611e5a565b6001600160a01b03811680156117715760025483810180911161175d576102fb9361172391600255825f525f60205260405f20818154019055825f7fddf252ad1be2c89b69c2b068fc378daa952ba7f163c4a11628f55a4df523b3ef6020604051858152a3825f525f60205260405f20546121a3565b905f525f60205260405f20546040519161173c83611cef565b600d83526c546f6b656e206d696e74696e6760981b60208401523393612251565b634e487b7160e01b5f52601160045260245ffd5b60405163ec442f0560e01b81525f6004820152602490fd5b3461026d575f36600319011261026d576117a1611e5a565b60065460ff8116156117e05760ff19166006557f5db9ee0a495bf2e6ff9c91a7834c1ba4fdd244a5e8aa4e537bd38aeae4b073aa6020604051338152a1005b604051638dfc202b60e01b8152600490fd5b3461026d57604036600319011261026d5761180b611ba4565b336001600160a01b03821603611827576102fb90600435612029565b60405163334bd91960e11b8152600490fd5b3461026d575f36600319011261026d57602060405160128152f35b3461026d57604036600319011261026d576102fb600435611873611ba4565b90805f52600560205261188c600160405f200154611f89565b611fab565b3461026d57602036600319011261026d576004355f5260056020526020600160405f200154604051908152f35b3461026d57606036600319011261026d576118d7611b8e565b6118df611ba4565b6001600160a01b0382165f8181526001602090815260408083203384529091529020549260443592915f198510611927575b5061191c935061209e565b602060405160018152f35b83851061198d57801561197557331561195d5761191c9484915f52600160205260405f20335f526020520360405f205584611911565b604051634a1406b160e11b81525f6004820152602490fd5b60405163e602df0560e01b81525f6004820152602490fd5b604051637dc7a0d960e11b81523360048201526024810186905260448101859052606490fd5b3461026d575f36600319011261026d576020600254604051908152f35b3461026d57604036600319011261026d576119e9611b8e565b602435903315611975576001600160a01b031690811561195d57335f52600160205260405f20825f526020528060405f20556040519081527f8c5be1e5ebec7d5bd14f71427d1e84f3dd0314c0f7b2291e5b200ac8c7c3b92560203392a3602060405160018152f35b3461026d575f36600319011261026d576040515f600354611a7281611c9c565b80845290600190818116908115610e175750600114611a9b5761052084610da981860382611d0a565b60035f90815292507fc2575a0e9e593c00f959f8c92f12db2869c3395a3b0502d05e2516446f71f85b5b828410611add575050508101602001610da982610d99565b80546020858701810191909152909301928101611ac5565b3461026d57602036600319011261026d576004359063ffffffff60e01b821680920361026d57602091637965db0b60e01b8114908115611b37575b5015158152f35b6301ffc9a760e01b14905083611b30565b5f5b838110611b595750505f910152565b8181015183820152602001611b4a565b90602091611b8281518092818552858086019101611b48565b601f01601f1916010190565b600435906001600160a01b038216820361026d57565b602435906001600160a01b038216820361026d57565b979b9a9996939194611c1193611be8611c1f976101409c99948c5260208c61016091829101528c0190611b69565b6001600160a01b0391821660408c0152931660608a0152608089015287820360a0890152611b69565b9085820360c0870152611b69565b96151560e084015215156101008301526101208201520152565b8054821015611c4e575f5260205f2001905f90565b634e487b7160e01b5f52603260045260245ffd5b602090816040818301928281528551809452019301915f5b828110611c88575050505090565b835185529381019392810192600101611c7a565b90600182811c92168015611cca575b6020831014611cb657565b634e487b7160e01b5f52602260045260245ffd5b91607f1691611cab565b60e081019081106001600160401b03821117610aa957604052565b604081019081106001600160401b03821117610aa957604052565b90601f801991011681019081106001600160401b03821117610aa957604052565b9060405191825f825492611d3e84611c9c565b9081845260019485811690815f14611da95750600114611d69575b5050611d6792500383611d0a565b565b909391505f52602090815f20935f915b818310611d91575050611d6793508201015f80611d59565b85548884018501529485019487945091830191611d79565b915050611d6794506020925060ff191682840152151560051b8201015f80611d59565b81601f8201121561026d578035906001600160401b038211610aa95760405192611e00601f8401601f191660200185611d0a565b8284526020838301011161026d57815f926020809301838601378301015290565b600c54811015611c4e57600790600c5f52027fdf6966c971051c3d54ec59162606531493a51404a002842f56009d7e5cf4a8c701905f90565b335f9081527f5156c5787db8cb3319a1ea1d3d3c9fc3f8685ebe48d47f9d8eb5dc680beb702360205260409020547f4b346d9ac223184c8768fae9f0f9cc7825dd24f5ba7c8c677c34451ba15eca649060ff1615611eb55750565b6044906040519063e2517d3f60e01b82523360048301526024820152fd5b335f9081527fc04886c9ced86fa4732e601744dac02bac838fddb3fa03ce1eda88644b9edf6b60205260409020547fe497b4ad79a67650fca774cf0812e4505f07dd6d87a3c1afc29076ccc8bbcefe9060ff1615611eb55750565b335f9081527f79563398ede65821e586930347c7bf645b17f9037c6bf4a0371b4966e689846960205260409020547f21702c8af46127c7fa207f89d0b0a8441bb32959a0ac7df790e9ab1a25c989269060ff1615611eb55750565b805f52600560205260405f20335f5260205260ff60405f20541615611eb55750565b905f918083526005602052604083209160018060a01b03169182845260205260ff604084205416155f146120245780835260056020526040832082845260205260408320600160ff198254161790557f2f8788117e7eff1d82e926ec794901d17c78024a50270940304540a733656f0d339380a4600190565b505090565b905f918083526005602052604083209160018060a01b03169182845260205260ff6040842054165f14612024578083526005602052604083208284526020526040832060ff1981541690557ff6391f5c32d9c69d2a47ea670b442974b53935d1edc7fd64eb21e047a839171b339380a4600190565b916001600160a01b038084169283156121495716928315611771575f9083825281602052604082205490838210612117575091604082827fddf252ad1be2c89b69c2b068fc378daa952ba7f163c4a11628f55a4df523b3ef958760209652828652038282205586815220818154019055604051908152a3565b60405163391434e360e21b81526001600160a01b03919091166004820152602481019190915260448101839052606490fd5b604051634b637e8f60e11b81525f6004820152602490fd5b5f19811461175d5760010190565b8054600160401b811015610aa95761218c91600182018155611c39565b819291549060031b91821b915f19901b1916179055565b9190820391821161175d57565b60ff600654166121bc57565b60405163d93c066560e01b8152600490fd5b156121d557565b60405162461bcd60e51b815260206004820152600f60248201526e125b9d985b1a59081d195cdd081251608a1b6044820152606490fd5b1561221357565b60405162461bcd60e51b815260206004820152601660248201527515195cdd08185b1c9958591e4818dbdb5c1b195d195960521b6044820152606490fd5b91926040519361226085611cd4565b60018060a01b0380941694858152602094858201978589526040830198848a526060840192428452608085018781528160a0870194169b8c855260c08701955f91828852600c54600160401b81101561249a578060016122c39201600c55611e21565b9990996124865785905116956bffffffffffffffffffffffff60a01b96878b5416178a555160018a0155516002890155516003880155600487019151908151916001600160401b038311612472578c61231c8554611c9c565b601f811161242d575b50508c91601f84116001146123ae57928061239e9b9996935f805160206126b88339815191529f9e9d9b99969360069996926123a3575b50508160011b915f199060031b1c19161790555b6005860192511690825416179055519101556040519485948552840152606060408401526060830190611b69565b0390a3565b015190505f8061235c565b8481528d8120929190601f198516905b81811061241657509361239e9b9996935f805160206126b88339815191529f9e9d9b9996936001938360069b98106123fe575b505050811b019055612370565b01515f1960f88460031b161c191690555f80806123f1565b92938f6001819287860151815501950193016123be565b85845281842090601f860160051c8201928610612468575b601f0160051c01905b81811061245d578e9150612325565b83815560010161244e565b9091508190612445565b634e487b7160e01b82526041600452602482fd5b634e487b7160e01b84526004849052602484fd5b634e487b7160e01b84526041600452602484fd5b94939290916040516124bf81611cd4565b60018060a01b03809716958682526020958683018681526040840199858b526060850142815260808601908882528260a0880195169c8d865260c08801968752600c54600160401b811015610aa95780600161251e9201600c55611e21565b9890986126a45784905116946bffffffffffffffffffffffff60a01b95868a54161789555160018901555160028801555160038701556004860190518051906001600160401b038211610aa9578b6125768454611c9c565b601f811161265c575b50508b90601f83116001146125f65792826006969361239e9b9996935f805160206126b88339815191529f9e9d9b99965f926123a35750508160011b915f199060031b1c19161790556005860192511690825416179055519101556040519485948552840152606060408401526060830190611b69565b90601f19831691845f528d5f20925f5b81811061264557509361239e9b9996935f805160206126b88339815191529f9e9d9b9996936001938360069b98106123fe57505050811b019055612370565b92938f600181928786015181550195019301612606565b5f9085825282822090601f860160051c820193861061269a575b601f0160051c01915b82811061268f57508d915061257f565b81815560010161267f565b9092508290612676565b634e487b7160e01b5f525f60045260245ffdfec70319605514c5368595995aef04a7403e90efc691d1b99058f1e817241cbbd8a2646970667358221220b54f13436ea1af1f17187da293986ffe7c3baf1c13df04d66bb9970ebc1e154e64736f6c634300081400332f8788117e7eff1d82e926ec794901d17c78024a50270940304540a733656f0d","opcodes":"PUSH1 0x40 PUSH1 0x80 DUP2 MSTORE CALLVALUE PUSH3 0x3CF JUMPI PUSH3 0x2CB7 DUP1 CODESIZE SUB DUP1 PUSH3 0x1E DUP2 PUSH3 0x3D3 JUMP JUMPDEST SWAP3 DUP4 CODECOPY DUP2 ADD PUSH1 0x60 DUP3 DUP3 SUB SLT PUSH3 0x3CF JUMPI DUP2 MLOAD PUSH1 0x1 PUSH1 0x1 PUSH1 0x40 SHL SUB SWAP2 SWAP1 DUP3 DUP2 GT PUSH3 0x3CF JUMPI DUP2 PUSH3 0x50 SWAP2 DUP6 ADD PUSH3 0x3F9 JUMP JUMPDEST SWAP3 PUSH1 0x20 SWAP2 DUP3 DUP3 ADD MLOAD DUP5 DUP2 GT PUSH3 0x3CF JUMPI DUP7 SWAP2 PUSH3 0x6F SWAP2 DUP5 ADD PUSH3 0x3F9 JUMP JUMPDEST SWAP2 ADD MLOAD SWAP3 DUP5 MLOAD DUP2 DUP2 GT PUSH3 0x2DA JUMPI PUSH1 0x3 SWAP1 DUP2 SLOAD SWAP1 PUSH1 0x1 SWAP8 DUP9 DUP4 DUP2 SHR SWAP4 AND DUP1 ISZERO PUSH3 0x3C4 JUMPI JUMPDEST DUP8 DUP5 LT EQ PUSH3 0x3B0 JUMPI DUP2 SWAP1 PUSH1 0x1F SWAP4 DUP5 DUP2 GT PUSH3 0x35D JUMPI JUMPDEST POP DUP8 SWAP1 DUP5 DUP4 GT PUSH1 0x1 EQ PUSH3 0x2FA JUMPI PUSH0 SWAP3 PUSH3 0x2EE JUMPI JUMPDEST POP POP PUSH0 NOT DUP3 DUP6 SHL SHR NOT AND SWAP1 DUP9 SHL OR DUP3 SSTORE JUMPDEST DUP4 MLOAD SWAP3 DUP4 GT PUSH3 0x2DA JUMPI PUSH1 0x4 SWAP4 DUP5 SLOAD DUP9 DUP2 DUP2 SHR SWAP2 AND DUP1 ISZERO PUSH3 0x2CF JUMPI JUMPDEST DUP8 DUP3 LT EQ PUSH3 0x2BC JUMPI SWAP1 DUP2 DUP4 DUP7 SWAP6 SWAP5 SWAP4 GT PUSH3 0x265 JUMPI JUMPDEST POP DUP7 SWAP2 DUP5 GT PUSH1 0x1 EQ PUSH3 0x1FE JUMPI PUSH0 SWAP4 PUSH3 0x1F2 JUMPI JUMPDEST POP POP DUP3 DUP8 SHL SWAP3 PUSH0 NOT SWAP2 SHL SHR NOT AND OR DUP2 SSTORE JUMPDEST DUP4 PUSH1 0x7 SSTORE PUSH3 0x13B CALLER PUSH3 0x469 JUMP JUMPDEST POP PUSH3 0x147 CALLER PUSH3 0x4E8 JUMP JUMPDEST POP PUSH8 0xDE0B6B3A7640000 SWAP3 DUP4 DUP2 MUL SWAP4 DUP2 DUP6 DIV EQ SWAP1 ISZERO OR ISZERO PUSH3 0x1C9 JUMPI CALLER ISZERO PUSH3 0x1DC JUMPI PUSH1 0x2 SLOAD SWAP1 DUP4 DUP3 ADD DUP1 SWAP3 GT PUSH3 0x1C9 JUMPI POP PUSH0 SWAP2 PUSH32 0xDDF252AD1BE2C89B69C2B068FC378DAA952BA7F163C4A11628F55A4DF523B3EF SWAP2 PUSH1 0x2 SSTORE CALLER DUP4 MSTORE DUP3 DUP2 MSTORE DUP6 DUP4 KECCAK256 DUP5 DUP2 SLOAD ADD SWAP1 SSTORE DUP6 MLOAD SWAP4 DUP5 MSTORE CALLER SWAP4 LOG3 PUSH1 0xD SSTORE MLOAD PUSH2 0x270D SWAP1 DUP2 PUSH3 0x58A DUP3 CODECOPY RETURN JUMPDEST PUSH1 0x11 SWAP1 PUSH4 0x4E487B71 PUSH1 0xE0 SHL PUSH0 MSTORE MSTORE PUSH1 0x24 PUSH0 REVERT JUMPDEST PUSH1 0x24 SWAP1 PUSH0 DUP7 MLOAD SWAP2 PUSH4 0xEC442F05 PUSH1 0xE0 SHL DUP4 MSTORE DUP3 ADD MSTORE REVERT JUMPDEST ADD MLOAD SWAP2 POP PUSH0 DUP1 PUSH3 0x11B JUMP JUMPDEST SWAP2 SWAP1 DUP9 SWAP5 POP PUSH1 0x1F NOT DUP5 AND SWAP3 DUP7 PUSH0 MSTORE DUP8 PUSH0 KECCAK256 SWAP4 PUSH0 JUMPDEST DUP10 DUP3 DUP3 LT PUSH3 0x24E JUMPI POP POP DUP6 GT PUSH3 0x234 JUMPI JUMPDEST POP POP POP POP DUP2 SHL ADD DUP2 SSTORE PUSH3 0x12C JUMP JUMPDEST ADD MLOAD SWAP1 PUSH1 0xF8 DUP5 PUSH0 NOT SWAP3 SHL AND SHR NOT AND SWAP1 SSTORE PUSH0 DUP1 DUP1 DUP1 PUSH3 0x225 JUMP JUMPDEST DUP4 DUP6 ADD MLOAD DUP8 SSTORE DUP13 SWAP9 SWAP1 SWAP7 ADD SWAP6 SWAP4 DUP5 ADD SWAP4 ADD PUSH3 0x212 JUMP JUMPDEST SWAP1 SWAP2 SWAP3 SWAP4 POP DUP6 PUSH0 MSTORE DUP7 PUSH0 KECCAK256 DUP4 DUP1 DUP8 ADD PUSH1 0x5 SHR DUP3 ADD SWAP3 DUP10 DUP9 LT PUSH3 0x2B2 JUMPI JUMPDEST SWAP2 DUP12 SWAP2 DUP9 SWAP8 SWAP7 SWAP6 SWAP5 SWAP4 ADD PUSH1 0x5 SHR ADD SWAP2 JUMPDEST DUP3 DUP2 LT PUSH3 0x2A3 JUMPI POP POP PUSH3 0x106 JUMP JUMPDEST PUSH0 DUP2 SSTORE DUP8 SWAP7 POP DUP12 SWAP2 ADD PUSH3 0x293 JUMP JUMPDEST SWAP3 POP DUP2 SWAP3 PUSH3 0x283 JUMP JUMPDEST PUSH1 0x22 DUP7 PUSH4 0x4E487B71 PUSH1 0xE0 SHL PUSH0 MSTORE MSTORE PUSH1 0x24 PUSH0 REVERT JUMPDEST SWAP1 PUSH1 0x7F AND SWAP1 PUSH3 0xEF JUMP JUMPDEST PUSH4 0x4E487B71 PUSH1 0xE0 SHL PUSH0 MSTORE PUSH1 0x41 PUSH1 0x4 MSTORE PUSH1 0x24 PUSH0 REVERT JUMPDEST ADD MLOAD SWAP1 POP PUSH0 DUP1 PUSH3 0xC1 JUMP JUMPDEST SWAP1 DUP11 SWAP4 POP PUSH1 0x1F NOT DUP4 AND SWAP2 DUP7 PUSH0 MSTORE DUP10 PUSH0 KECCAK256 SWAP3 PUSH0 JUMPDEST DUP12 DUP3 DUP3 LT PUSH3 0x346 JUMPI POP POP DUP5 GT PUSH3 0x32E JUMPI JUMPDEST POP POP POP DUP2 SHL ADD DUP3 SSTORE PUSH3 0xD2 JUMP JUMPDEST ADD MLOAD PUSH0 NOT DUP4 DUP8 SHL PUSH1 0xF8 AND SHR NOT AND SWAP1 SSTORE PUSH0 DUP1 DUP1 PUSH3 0x320 JUMP JUMPDEST DUP4 DUP6 ADD MLOAD DUP7 SSTORE DUP15 SWAP8 SWAP1 SWAP6 ADD SWAP5 SWAP4 DUP5 ADD SWAP4 ADD PUSH3 0x30D JUMP JUMPDEST SWAP1 SWAP2 POP DUP5 PUSH0 MSTORE DUP8 PUSH0 KECCAK256 DUP5 DUP1 DUP6 ADD PUSH1 0x5 SHR DUP3 ADD SWAP3 DUP11 DUP7 LT PUSH3 0x3A6 JUMPI JUMPDEST SWAP2 DUP13 SWAP2 DUP7 SWAP6 SWAP5 SWAP4 ADD PUSH1 0x5 SHR ADD SWAP2 JUMPDEST DUP3 DUP2 LT PUSH3 0x397 JUMPI POP POP PUSH3 0xAB JUMP JUMPDEST PUSH0 DUP2 SSTORE DUP6 SWAP5 POP DUP13 SWAP2 ADD PUSH3 0x387 JUMP JUMPDEST SWAP3 POP DUP2 SWAP3 PUSH3 0x379 JUMP JUMPDEST PUSH4 0x4E487B71 PUSH1 0xE0 SHL PUSH0 MSTORE PUSH1 0x22 PUSH1 0x4 MSTORE PUSH1 0x24 PUSH0 REVERT JUMPDEST SWAP3 PUSH1 0x7F AND SWAP3 PUSH3 0x94 JUMP JUMPDEST PUSH0 DUP1 REVERT JUMPDEST PUSH1 0x40 MLOAD SWAP2 SWAP1 PUSH1 0x1F ADD PUSH1 0x1F NOT AND DUP3 ADD PUSH1 0x1 PUSH1 0x1 PUSH1 0x40 SHL SUB DUP2 GT DUP4 DUP3 LT OR PUSH3 0x2DA JUMPI PUSH1 0x40 MSTORE JUMP JUMPDEST SWAP2 SWAP1 DUP1 PUSH1 0x1F DUP5 ADD SLT ISZERO PUSH3 0x3CF JUMPI DUP3 MLOAD PUSH1 0x1 PUSH1 0x1 PUSH1 0x40 SHL SUB DUP2 GT PUSH3 0x2DA JUMPI PUSH1 0x20 SWAP1 PUSH3 0x42F PUSH1 0x1F DUP3 ADD PUSH1 0x1F NOT AND DUP4 ADD PUSH3 0x3D3 JUMP JUMPDEST SWAP3 DUP2 DUP5 MSTORE DUP3 DUP3 DUP8 ADD ADD GT PUSH3 0x3CF JUMPI PUSH0 JUMPDEST DUP2 DUP2 LT PUSH3 0x455 JUMPI POP DUP3 PUSH0 SWAP4 SWAP5 SWAP6 POP ADD ADD MSTORE SWAP1 JUMP JUMPDEST DUP6 DUP2 ADD DUP4 ADD MLOAD DUP5 DUP3 ADD DUP5 ADD MSTORE DUP3 ADD PUSH3 0x440 JUMP JUMPDEST PUSH1 0x1 PUSH1 0x1 PUSH1 0xA0 SHL SUB AND PUSH0 DUP2 DUP2 MSTORE PUSH32 0x5B8CCBB9D4D8FB16EA74CE3C29A41F1B461FBDAFF4714A0D9A8EB05499746BC PUSH1 0x20 MSTORE PUSH1 0x40 DUP2 KECCAK256 SLOAD SWAP1 SWAP2 SWAP1 PUSH1 0xFF AND PUSH3 0x4E4 JUMPI DUP2 DUP1 MSTORE PUSH1 0x5 PUSH1 0x20 MSTORE PUSH1 0x40 DUP3 KECCAK256 DUP2 DUP4 MSTORE PUSH1 0x20 MSTORE PUSH1 0x40 DUP3 KECCAK256 PUSH1 0x1 PUSH1 0xFF NOT DUP3 SLOAD AND OR SWAP1 SSTORE CALLER SWAP2 PUSH0 DUP1 MLOAD PUSH1 0x20 PUSH3 0x2C97 DUP4 CODECOPY DUP2 MLOAD SWAP2 MSTORE DUP2 DUP1 LOG4 PUSH1 0x1 SWAP1 JUMP JUMPDEST POP SWAP1 JUMP JUMPDEST PUSH1 0x1 PUSH1 0x1 PUSH1 0xA0 SHL SUB AND PUSH0 DUP2 DUP2 MSTORE PUSH32 0x5156C5787DB8CB3319A1EA1D3D3C9FC3F8685EBE48D47F9D8EB5DC680BEB7023 PUSH1 0x20 MSTORE PUSH1 0x40 DUP2 KECCAK256 SLOAD SWAP1 SWAP2 SWAP1 PUSH32 0x4B346D9AC223184C8768FAE9F0F9CC7825DD24F5BA7C8C677C34451BA15ECA64 SWAP1 PUSH1 0xFF AND PUSH3 0x584 JUMPI DUP1 DUP4 MSTORE PUSH1 0x5 PUSH1 0x20 MSTORE PUSH1 0x40 DUP4 KECCAK256 DUP3 DUP5 MSTORE PUSH1 0x20 MSTORE PUSH1 0x40 DUP4 KECCAK256 PUSH1 0x1 PUSH1 0xFF NOT DUP3 SLOAD AND OR SWAP1 SSTORE PUSH0 DUP1 MLOAD PUSH1 0x20 PUSH3 0x2C97 DUP4 CODECOPY DUP2 MLOAD SWAP2 MSTORE CALLER SWAP4 DUP1 LOG4 PUSH1 0x1 SWAP1 JUMP JUMPDEST POP POP SWAP1 JUMP INVALID PUSH1 0x80 DUP1 PUSH1 0x40 MSTORE PUSH1 0x4 CALLDATASIZE LT ISZERO PUSH2 0x12 JUMPI PUSH0 DUP1 REVERT JUMPDEST PUSH0 CALLDATALOAD PUSH1 0xE0 SHR SWAP1 DUP2 PUSH4 0x1FFC9A7 EQ PUSH2 0x1AF5 JUMPI POP DUP1 PUSH4 0x6FDDE03 EQ PUSH2 0x1A52 JUMPI DUP1 PUSH4 0x95EA7B3 EQ PUSH2 0x19D0 JUMPI DUP1 PUSH4 0x18160DDD EQ PUSH2 0x19B3 JUMPI DUP1 PUSH4 0x23B872DD EQ PUSH2 0x18BE JUMPI DUP1 PUSH4 0x248A9CA3 EQ PUSH2 0x1891 JUMPI DUP1 PUSH4 0x2F2FF15D EQ PUSH2 0x1854 JUMPI DUP1 PUSH4 0x313CE567 EQ PUSH2 0x1839 JUMPI DUP1 PUSH4 0x36568ABE EQ PUSH2 0x17F2 JUMPI DUP1 PUSH4 0x3F4BA83A EQ PUSH2 0x1789 JUMPI DUP1 PUSH4 0x40C10F19 EQ PUSH2 0x1688 JUMPI DUP1 PUSH4 0x4417DA29 EQ PUSH2 0x15DC JUMPI DUP1 PUSH4 0x49270315 EQ PUSH2 0x15BF JUMPI DUP1 PUSH4 0x4A3B17B1 EQ PUSH2 0x1576 JUMPI DUP1 PUSH4 0x4A84E104 EQ PUSH2 0x151F JUMPI DUP1 PUSH4 0x4E6F13D3 EQ PUSH2 0x1334 JUMPI DUP1 PUSH4 0x4F7F6831 EQ PUSH2 0x1317 JUMPI DUP1 PUSH4 0x5B2801A4 EQ PUSH2 0x12A4 JUMPI DUP1 PUSH4 0x5C975ABB EQ PUSH2 0x1282 JUMPI DUP1 PUSH4 0x65143195 EQ PUSH2 0x1171 JUMPI DUP1 PUSH4 0x6E1D616E EQ PUSH2 0x1137 JUMPI DUP1 PUSH4 0x6F17C8B4 EQ PUSH2 0x10A8 JUMPI DUP1 PUSH4 0x70A08231 EQ PUSH2 0x1068 JUMPI DUP1 PUSH4 0x783B8BD0 EQ PUSH2 0xF1A JUMPI DUP1 PUSH4 0x8456CB59 EQ PUSH2 0xEC1 JUMPI DUP1 PUSH4 0x8F37A90F EQ PUSH2 0xE87 JUMPI DUP1 PUSH4 0x91D14854 EQ PUSH2 0xE3E JUMPI DUP1 PUSH4 0x95D89B41 EQ PUSH2 0xD5F JUMPI DUP1 PUSH4 0x9A2E6B84 EQ PUSH2 0x645 JUMPI DUP1 PUSH4 0xA217FDDF EQ PUSH2 0x62B JUMPI DUP1 PUSH4 0xA5817E13 EQ PUSH2 0x5F1 JUMPI DUP1 PUSH4 0xA9059CBB EQ PUSH2 0x53B JUMPI DUP1 PUSH4 0xB213CB9D EQ PUSH2 0x4B8 JUMPI DUP1 PUSH4 0xB3649A7E EQ PUSH2 0x49B JUMPI DUP1 PUSH4 0xB9F83801 EQ PUSH2 0x43F JUMPI DUP1 PUSH4 0xC49BAEBE EQ PUSH2 0x405 JUMPI DUP1 PUSH4 0xCBF37100 EQ PUSH2 0x2FD JUMPI DUP1 PUSH4 0xD547741F EQ PUSH2 0x2BE JUMPI DUP1 PUSH4 0xDD62ED3E EQ PUSH2 0x271 JUMPI PUSH4 0xDDAF0929 EQ PUSH2 0x1D4 JUMPI PUSH0 DUP1 REVERT JUMPDEST CALLVALUE PUSH2 0x26D JUMPI PUSH1 0x20 CALLDATASIZE PUSH1 0x3 NOT ADD SLT PUSH2 0x26D JUMPI PUSH1 0x4 CALLDATALOAD PUSH1 0xC SLOAD DUP2 LT ISZERO PUSH2 0x26D JUMPI PUSH2 0x1FB SWAP1 PUSH2 0x1E21 JUMP JUMPDEST POP PUSH1 0x1 DUP1 PUSH1 0xA0 SHL SUB SWAP1 DUP2 DUP2 SLOAD AND SWAP1 PUSH1 0x1 DUP2 ADD SLOAD SWAP3 PUSH2 0x25E PUSH1 0x2 DUP4 ADD SLOAD SWAP2 PUSH1 0x3 DUP5 ADD SLOAD PUSH1 0x6 PUSH2 0x22B PUSH1 0x4 DUP8 ADD PUSH2 0x1D2B JUMP JUMPDEST SWAP3 PUSH1 0x5 DUP8 ADD SLOAD AND SWAP6 ADD SLOAD SWAP4 PUSH1 0x40 MLOAD SWAP8 DUP9 SWAP8 DUP9 MSTORE PUSH1 0x20 DUP9 ADD MSTORE PUSH1 0x40 DUP8 ADD MSTORE PUSH1 0x60 DUP7 ADD MSTORE PUSH1 0xE0 PUSH1 0x80 DUP7 ADD MSTORE PUSH1 0xE0 DUP6 ADD SWAP1 PUSH2 0x1B69 JUMP JUMPDEST SWAP2 PUSH1 0xA0 DUP5 ADD MSTORE PUSH1 0xC0 DUP4 ADD MSTORE SUB SWAP1 RETURN JUMPDEST PUSH0 DUP1 REVERT JUMPDEST CALLVALUE PUSH2 0x26D JUMPI PUSH1 0x40 CALLDATASIZE PUSH1 0x3 NOT ADD SLT PUSH2 0x26D JUMPI PUSH2 0x28A PUSH2 0x1B8E JUMP JUMPDEST PUSH2 0x292 PUSH2 0x1BA4 JUMP JUMPDEST SWAP1 PUSH1 0x1 DUP1 PUSH1 0xA0 SHL SUB DUP1 SWAP2 AND PUSH0 MSTORE PUSH1 0x1 PUSH1 0x20 MSTORE PUSH1 0x40 PUSH0 KECCAK256 SWAP2 AND PUSH0 MSTORE PUSH1 0x20 MSTORE PUSH1 0x20 PUSH1 0x40 PUSH0 KECCAK256 SLOAD PUSH1 0x40 MLOAD SWAP1 DUP2 MSTORE RETURN JUMPDEST CALLVALUE PUSH2 0x26D JUMPI PUSH1 0x40 CALLDATASIZE PUSH1 0x3 NOT ADD SLT PUSH2 0x26D JUMPI PUSH2 0x2FB PUSH1 0x4 CALLDATALOAD PUSH2 0x2DD PUSH2 0x1BA4 JUMP JUMPDEST SWAP1 DUP1 PUSH0 MSTORE PUSH1 0x5 PUSH1 0x20 MSTORE PUSH2 0x2F6 PUSH1 0x1 PUSH1 0x40 PUSH0 KECCAK256 ADD SLOAD PUSH2 0x1F89 JUMP JUMPDEST PUSH2 0x2029 JUMP JUMPDEST STOP JUMPDEST CALLVALUE PUSH2 0x26D JUMPI PUSH1 0x20 DUP1 PUSH1 0x3 NOT CALLDATASIZE ADD SLT PUSH2 0x26D JUMPI PUSH1 0x4 CALLDATALOAD PUSH2 0x31A PUSH2 0x1F2E JUMP JUMPDEST PUSH2 0x322 PUSH2 0x21B0 JUMP JUMPDEST DUP1 ISZERO ISZERO DUP1 PUSH2 0x3FA JUMPI JUMPDEST PUSH2 0x334 SWAP1 PUSH2 0x21CE JUMP JUMPDEST DUP1 PUSH0 MSTORE PUSH1 0x8 DUP3 MSTORE PUSH1 0xFF PUSH1 0x7 PUSH1 0x40 PUSH0 KECCAK256 ADD SLOAD AND PUSH2 0x3BC JUMPI DUP1 PUSH0 MSTORE PUSH1 0x8 DUP3 MSTORE PUSH2 0x368 PUSH1 0xFF PUSH1 0x7 PUSH1 0x40 PUSH0 KECCAK256 ADD SLOAD PUSH1 0x8 SHR AND ISZERO PUSH2 0x220C JUMP JUMPDEST DUP1 PUSH0 MSTORE PUSH1 0x8 DUP3 MSTORE PUSH1 0x7 PUSH1 0x40 PUSH0 KECCAK256 ADD PUSH1 0x1 PUSH1 0xFF NOT DUP3 SLOAD AND OR SWAP1 SSTORE PUSH2 0x38C PUSH1 0xF SLOAD PUSH2 0x2161 JUMP JUMPDEST PUSH1 0xF SSTORE PUSH32 0xF0C06490C8FA424AC367BBEDD8BC523E3A79283E498EFB24C1BE92B329662BE8 PUSH1 0x40 MLOAD SWAP3 TIMESTAMP DUP5 MSTORE CALLER SWAP4 LOG3 STOP JUMPDEST PUSH1 0x40 MLOAD PUSH3 0x461BCD PUSH1 0xE5 SHL DUP2 MSTORE PUSH1 0x4 DUP2 ADD DUP4 SWAP1 MSTORE PUSH1 0x16 PUSH1 0x24 DUP3 ADD MSTORE PUSH22 0x15195CDD08185B1C9958591E481D985B1A59185D1959 PUSH1 0x52 SHL PUSH1 0x44 DUP3 ADD MSTORE PUSH1 0x64 SWAP1 REVERT JUMPDEST POP PUSH1 0xD SLOAD DUP2 LT PUSH2 0x32B JUMP JUMPDEST CALLVALUE PUSH2 0x26D JUMPI PUSH0 CALLDATASIZE PUSH1 0x3 NOT ADD SLT PUSH2 0x26D JUMPI PUSH1 0x20 PUSH1 0x40 MLOAD PUSH32 0x21702C8AF46127C7FA207F89D0B0A8441BB32959A0AC7DF790E9AB1A25C98926 DUP2 MSTORE RETURN JUMPDEST CALLVALUE PUSH2 0x26D JUMPI PUSH1 0x20 CALLDATASIZE PUSH1 0x3 NOT ADD SLT PUSH2 0x26D JUMPI PUSH1 0x4 CALLDATALOAD PUSH1 0x1 PUSH1 0x1 PUSH1 0x40 SHL SUB DUP2 GT PUSH2 0x26D JUMPI PUSH2 0x488 PUSH1 0x20 PUSH2 0x475 DUP2 SWAP4 CALLDATASIZE SWAP1 PUSH1 0x4 ADD PUSH2 0x1DCC JUMP JUMPDEST DUP2 PUSH1 0x40 MLOAD SWAP4 DUP3 DUP6 DUP1 SWAP5 MLOAD SWAP4 DUP5 SWAP3 ADD PUSH2 0x1B48 JUMP JUMPDEST DUP2 ADD PUSH1 0xB DUP2 MSTORE SUB ADD SWAP1 KECCAK256 SLOAD PUSH1 0x40 MLOAD SWAP1 DUP2 MSTORE RETURN JUMPDEST CALLVALUE PUSH2 0x26D JUMPI PUSH0 CALLDATASIZE PUSH1 0x3 NOT ADD SLT PUSH2 0x26D JUMPI PUSH1 0x20 PUSH1 0xF SLOAD PUSH1 0x40 MLOAD SWAP1 DUP2 MSTORE RETURN JUMPDEST CALLVALUE PUSH2 0x26D JUMPI PUSH1 0x20 DUP1 PUSH1 0x3 NOT CALLDATASIZE ADD SLT PUSH2 0x26D JUMPI PUSH1 0x1 PUSH1 0x1 PUSH1 0xA0 SHL SUB PUSH2 0x4DA PUSH2 0x1B8E JUMP JUMPDEST AND PUSH0 MSTORE PUSH1 0xA DUP2 MSTORE PUSH1 0x40 PUSH0 KECCAK256 SWAP1 PUSH1 0x40 MLOAD SWAP1 DUP2 DUP2 DUP5 SLOAD SWAP2 DUP3 DUP2 MSTORE ADD SWAP4 PUSH0 MSTORE DUP2 PUSH0 KECCAK256 SWAP2 PUSH0 SWAP1 JUMPDEST DUP3 DUP3 LT PUSH2 0x524 JUMPI PUSH2 0x520 DUP6 PUSH2 0x514 DUP2 DUP10 SUB DUP3 PUSH2 0x1D0A JUMP JUMPDEST PUSH1 0x40 MLOAD SWAP2 DUP3 SWAP2 DUP3 PUSH2 0x1C62 JUMP JUMPDEST SUB SWAP1 RETURN JUMPDEST DUP4 SLOAD DUP7 MSTORE SWAP5 DUP6 ADD SWAP5 PUSH1 0x1 SWAP4 DUP5 ADD SWAP4 SWAP1 SWAP2 ADD SWAP1 PUSH2 0x4FD JUMP JUMPDEST CALLVALUE PUSH2 0x26D JUMPI PUSH1 0x40 CALLDATASIZE PUSH1 0x3 NOT ADD SLT PUSH2 0x26D JUMPI PUSH2 0x554 PUSH2 0x1B8E JUMP JUMPDEST PUSH1 0x2 PUSH1 0x7 SLOAD EQ PUSH2 0x5DF JUMPI PUSH2 0x5CF SWAP1 PUSH1 0x2 PUSH1 0x7 SSTORE PUSH2 0x56F PUSH2 0x21B0 JUMP JUMPDEST PUSH1 0x1 PUSH1 0x1 PUSH1 0xA0 SHL SUB DUP2 AND PUSH0 DUP2 DUP2 MSTORE PUSH1 0x20 DUP2 SWAP1 MSTORE PUSH1 0x40 SWAP1 KECCAK256 SLOAD SWAP1 PUSH2 0x595 PUSH1 0x24 CALLDATALOAD DUP5 CALLER PUSH2 0x209E JUMP JUMPDEST PUSH0 MSTORE PUSH0 PUSH1 0x20 MSTORE PUSH1 0x40 PUSH0 KECCAK256 SLOAD PUSH1 0x40 MLOAD SWAP2 PUSH2 0x5AD DUP4 PUSH2 0x1CEF JUMP JUMPDEST PUSH1 0xE DUP4 MSTORE PUSH14 0x2A37B5B2B7103A3930B739B332B9 PUSH1 0x91 SHL PUSH1 0x20 DUP5 ADD MSTORE CALLER SWAP4 PUSH2 0x2251 JUMP JUMPDEST PUSH1 0x1 PUSH1 0x7 SSTORE PUSH1 0x20 PUSH1 0x40 MLOAD PUSH1 0x1 DUP2 MSTORE RETURN JUMPDEST PUSH1 0x40 MLOAD PUSH4 0x3EE5AEB5 PUSH1 0xE0 SHL DUP2 MSTORE PUSH1 0x4 SWAP1 REVERT JUMPDEST CALLVALUE PUSH2 0x26D JUMPI PUSH0 CALLDATASIZE PUSH1 0x3 NOT ADD SLT PUSH2 0x26D JUMPI PUSH1 0x20 PUSH1 0x40 MLOAD PUSH32 0xE497B4AD79A67650FCA774CF0812E4505F07DD6D87A3C1AFC29076CCC8BBCEFE DUP2 MSTORE RETURN JUMPDEST CALLVALUE PUSH2 0x26D JUMPI PUSH0 CALLDATASIZE PUSH1 0x3 NOT ADD SLT PUSH2 0x26D JUMPI PUSH1 0x20 PUSH1 0x40 MLOAD PUSH0 DUP2 MSTORE RETURN JUMPDEST CALLVALUE PUSH2 0x26D JUMPI PUSH1 0xA0 CALLDATASIZE PUSH1 0x3 NOT ADD SLT PUSH2 0x26D JUMPI PUSH1 0x4 CALLDATALOAD PUSH1 0x1 PUSH1 0x1 PUSH1 0x40 SHL SUB DUP2 GT PUSH2 0x26D JUMPI PUSH2 0x675 SWAP1 CALLDATASIZE SWAP1 PUSH1 0x4 ADD PUSH2 0x1DCC JUMP JUMPDEST PUSH2 0x67D PUSH2 0x1BA4 JUMP JUMPDEST PUSH1 0x44 SWAP1 DUP2 CALLDATALOAD PUSH1 0x1 PUSH1 0x1 PUSH1 0x40 SHL SUB DUP2 GT PUSH2 0x26D JUMPI PUSH2 0x69E SWAP1 CALLDATASIZE SWAP1 PUSH1 0x4 ADD PUSH2 0x1DCC JUMP JUMPDEST PUSH1 0x64 DUP1 CALLDATALOAD PUSH1 0x1 PUSH1 0x1 PUSH1 0x40 SHL SUB DUP2 GT PUSH2 0x26D JUMPI PUSH2 0x6BE SWAP1 CALLDATASIZE SWAP1 PUSH1 0x4 ADD PUSH2 0x1DCC JUMP JUMPDEST SWAP4 PUSH2 0x6C7 PUSH2 0x1ED3 JUMP JUMPDEST PUSH2 0x6CF PUSH2 0x21B0 JUMP JUMPDEST PUSH1 0x1 PUSH1 0x1 PUSH1 0xA0 SHL SUB DUP5 AND ISZERO PUSH2 0xD1E JUMPI DUP6 MLOAD ISZERO PUSH2 0xCE8 JUMPI DUP3 MLOAD ISZERO PUSH2 0xCB2 JUMPI PUSH1 0x84 CALLDATALOAD ISZERO PUSH2 0xC66 JUMPI CALLER PUSH0 MSTORE PUSH0 PUSH1 0x20 MSTORE PUSH1 0x84 CALLDATALOAD PUSH1 0x40 PUSH0 KECCAK256 SLOAD LT PUSH2 0xC2F JUMPI POP POP PUSH1 0xD SLOAD SWAP3 PUSH2 0x717 DUP5 PUSH2 0x2161 JUMP JUMPDEST PUSH1 0xD SSTORE DUP4 PUSH0 MSTORE PUSH1 0x8 PUSH1 0x20 MSTORE PUSH1 0x40 PUSH0 KECCAK256 SWAP1 DUP5 DUP3 SSTORE DUP6 MLOAD PUSH1 0x1 PUSH1 0x1 PUSH1 0x40 SHL SUB DUP2 GT PUSH2 0xAA9 JUMPI PUSH2 0x747 PUSH1 0x1 DUP5 ADD SLOAD PUSH2 0x1C9C JUMP JUMPDEST PUSH1 0x1F DUP2 GT PUSH2 0xBEB JUMPI JUMPDEST POP DUP1 PUSH1 0x20 PUSH1 0x1F DUP3 GT PUSH1 0x1 EQ PUSH2 0xB80 JUMPI PUSH0 SWAP2 PUSH2 0xB75 JUMPI JUMPDEST POP DUP2 PUSH1 0x1 SHL SWAP2 PUSH0 NOT SWAP1 PUSH1 0x3 SHL SHR NOT AND OR PUSH1 0x1 DUP4 ADD SSTORE JUMPDEST PUSH1 0x2 DUP3 ADD DUP1 SLOAD PUSH1 0x1 PUSH1 0x1 PUSH1 0xA0 SHL SUB NOT SWAP1 DUP2 AND CALLER OR SWAP1 SWAP2 SSTORE PUSH1 0x3 DUP4 ADD DUP1 SLOAD SWAP1 SWAP2 AND PUSH1 0x1 PUSH1 0x1 PUSH1 0xA0 SHL SUB DUP7 AND OR SWAP1 SSTORE TIMESTAMP PUSH1 0x4 DUP4 ADD SSTORE DUP3 MLOAD PUSH1 0x1 PUSH1 0x1 PUSH1 0x40 SHL SUB DUP2 GT PUSH2 0xAA9 JUMPI PUSH2 0x7CC PUSH1 0x5 DUP5 ADD SLOAD PUSH2 0x1C9C JUMP JUMPDEST PUSH1 0x1F DUP2 GT PUSH2 0xB31 JUMPI JUMPDEST POP DUP1 PUSH1 0x20 PUSH1 0x1F DUP3 GT PUSH1 0x1 EQ PUSH2 0xAC8 JUMPI PUSH0 SWAP2 PUSH2 0xABD JUMPI JUMPDEST POP DUP2 PUSH1 0x1 SHL SWAP2 PUSH0 NOT SWAP1 PUSH1 0x3 SHL SHR NOT AND OR PUSH1 0x5 DUP4 ADD SSTORE JUMPDEST DUP1 MLOAD SWAP1 PUSH1 0x1 PUSH1 0x1 PUSH1 0x40 SHL SUB DUP3 GT PUSH2 0xAA9 JUMPI PUSH2 0x81F PUSH1 0x6 DUP5 ADD SLOAD PUSH2 0x1C9C JUMP JUMPDEST PUSH1 0x1F DUP2 GT PUSH2 0xA61 JUMPI JUMPDEST POP SWAP2 PUSH1 0x20 SWAP7 SWAP2 DUP7 SWAP4 DUP9 SWAP1 PUSH1 0x1F DUP4 GT PUSH1 0x1 EQ PUSH2 0x9CB JUMPI PUSH2 0x993 SWAP4 DUP4 PUSH32 0x7E7721F707738E432843DBD16824401362DF6792B22783DC84F559FA5B71B020 SWAP7 SWAP5 PUSH0 SWAP5 PUSH1 0xA SWAP5 DUP7 SWAP3 PUSH2 0x9C0 JUMPI JUMPDEST POP POP DUP2 PUSH1 0x1 SHL SWAP2 DUP6 NOT SWAP1 PUSH1 0x3 SHL SHR NOT AND OR PUSH1 0x6 DUP3 ADD SSTORE JUMPDEST PUSH1 0x7 DUP2 ADD DUP1 SLOAD PUSH2 0xFFFF NOT AND SWAP1 SSTORE PUSH1 0x84 CALLDATALOAD PUSH1 0x8 DUP3 ADD SSTORE ADD SSTORE PUSH1 0x1 PUSH1 0x1 PUSH1 0xA0 SHL SUB DUP7 AND PUSH0 SWAP1 DUP2 MSTORE PUSH1 0x9 DUP10 MSTORE PUSH1 0x40 SWAP1 KECCAK256 PUSH2 0x8C0 SWAP1 DUP6 SWAP1 PUSH2 0x216F JUMP JUMPDEST CALLER PUSH0 MSTORE PUSH1 0xA DUP9 MSTORE PUSH2 0x8D4 DUP5 PUSH1 0x40 PUSH0 KECCAK256 PUSH2 0x216F JUMP JUMPDEST PUSH1 0x40 MLOAD DUP9 DUP2 DUP4 MLOAD PUSH2 0x8E8 DUP2 DUP4 DUP6 DUP9 ADD PUSH2 0x1B48 JUMP JUMPDEST DUP2 ADD PUSH1 0xB DUP2 MSTORE SUB ADD SWAP1 KECCAK256 PUSH2 0x8FC DUP2 SLOAD PUSH2 0x2161 JUMP JUMPDEST SWAP1 SSTORE PUSH2 0x909 PUSH1 0xE SLOAD PUSH2 0x2161 JUMP JUMPDEST PUSH1 0xE SSTORE PUSH2 0x919 PUSH1 0x84 CALLDATALOAD ADDRESS CALLER PUSH2 0x209E JUMP JUMPDEST ADDRESS PUSH0 MSTORE PUSH0 DUP9 MSTORE PUSH2 0x97C DUP5 PUSH2 0x933 PUSH1 0x84 CALLDATALOAD PUSH1 0x40 PUSH0 KECCAK256 SLOAD PUSH2 0x21A3 JUMP JUMPDEST ADDRESS PUSH0 MSTORE PUSH0 DUP12 MSTORE PUSH1 0x40 PUSH0 KECCAK256 SLOAD PUSH1 0x40 MLOAD SWAP1 PUSH2 0x94B DUP3 PUSH2 0x1CEF JUMP JUMPDEST PUSH1 0x1A DUP3 MSTORE PUSH32 0x436C696E6963616C207465737420746F6B656E20657363726F77000000000000 DUP14 DUP4 ADD MSTORE CALLER SWAP3 ADDRESS PUSH2 0x24AE JUMP JUMPDEST PUSH2 0x9B5 PUSH1 0x40 MLOAD SWAP3 DUP4 SWAP3 PUSH1 0x60 DUP5 MSTORE PUSH1 0x60 DUP5 ADD SWAP1 PUSH2 0x1B69 JUMP JUMPDEST PUSH1 0x84 CALLDATALOAD DUP4 DUP12 ADD MSTORE DUP3 DUP2 SUB PUSH1 0x40 DUP5 ADD MSTORE PUSH1 0x1 PUSH1 0x1 PUSH1 0xA0 SHL SUB SWAP1 SWAP8 AND SWAP7 CALLER SWAP7 PUSH2 0x1B69 JUMP JUMPDEST SUB SWAP1 LOG4 PUSH1 0x40 MLOAD SWAP1 DUP2 MSTORE RETURN JUMPDEST ADD MLOAD SWAP1 POP DUP14 DUP1 PUSH2 0x871 JUMP JUMPDEST SWAP1 PUSH1 0x6 DUP5 ADD PUSH0 MSTORE DUP10 PUSH0 KECCAK256 SWAP2 PUSH0 JUMPDEST PUSH1 0x1F NOT DUP6 AND DUP2 LT PUSH2 0xA47 JUMPI POP SWAP4 PUSH1 0x1 DUP5 PUSH0 SWAP5 PUSH1 0xA SWAP5 PUSH2 0x993 SWAP9 PUSH32 0x7E7721F707738E432843DBD16824401362DF6792B22783DC84F559FA5B71B020 SWAP11 SWAP9 PUSH1 0x1F NOT DUP2 AND LT PUSH2 0xA2F JUMPI JUMPDEST POP POP POP DUP2 SHL ADD PUSH1 0x6 DUP3 ADD SSTORE PUSH2 0x888 JUMP JUMPDEST ADD MLOAD DUP7 NOT PUSH1 0xF8 DUP5 PUSH1 0x3 SHL AND SHR NOT AND SWAP1 SSTORE DUP14 DUP1 DUP1 PUSH2 0xA1F JUMP JUMPDEST DUP2 DUP4 ADD MLOAD DUP5 SSTORE DUP11 SWAP8 POP PUSH1 0x1 SWAP1 SWAP4 ADD SWAP3 SWAP2 DUP12 ADD SWAP2 DUP12 ADD PUSH2 0x9D8 JUMP JUMPDEST PUSH1 0x6 DUP5 ADD PUSH0 MSTORE PUSH1 0x20 PUSH0 KECCAK256 PUSH1 0x1F DUP5 ADD PUSH1 0x5 SHR DUP2 ADD SWAP2 PUSH1 0x20 DUP6 LT PUSH2 0xA9F JUMPI JUMPDEST PUSH1 0x1F ADD PUSH1 0x5 SHR ADD SWAP1 JUMPDEST DUP2 DUP2 LT PUSH2 0xA94 JUMPI POP PUSH2 0x828 JUMP JUMPDEST PUSH0 DUP2 SSTORE PUSH1 0x1 ADD PUSH2 0xA87 JUMP JUMPDEST SWAP1 SWAP2 POP DUP2 SWAP1 PUSH2 0xA7E JUMP JUMPDEST PUSH4 0x4E487B71 PUSH1 0xE0 SHL PUSH0 MSTORE PUSH1 0x41 PUSH1 0x4 MSTORE PUSH1 0x24 PUSH0 REVERT JUMPDEST SWAP1 POP DUP5 ADD MLOAD DUP9 PUSH2 0x7EB JUMP JUMPDEST SWAP2 POP PUSH1 0x5 DUP5 ADD PUSH0 MSTORE PUSH1 0x20 PUSH0 KECCAK256 PUSH0 SWAP3 JUMPDEST PUSH1 0x1F NOT DUP4 AND DUP5 LT PUSH2 0xB19 JUMPI PUSH1 0x1 SWAP4 POP DUP3 PUSH1 0x1F NOT DUP2 AND LT PUSH2 0xB01 JUMPI JUMPDEST POP POP DUP2 SHL ADD PUSH1 0x5 DUP4 ADD SSTORE PUSH2 0x801 JUMP JUMPDEST DUP7 ADD MLOAD PUSH0 NOT PUSH1 0xF8 DUP5 PUSH1 0x3 SHL AND SHR NOT AND SWAP1 SSTORE DUP9 DUP1 PUSH2 0xAF2 JUMP JUMPDEST DUP7 DUP2 ADD MLOAD DUP3 SSTORE PUSH1 0x20 SWAP4 DUP5 ADD SWAP4 PUSH1 0x1 SWAP1 SWAP3 ADD SWAP2 ADD PUSH2 0xAD7 JUMP JUMPDEST PUSH1 0x5 DUP5 ADD PUSH0 MSTORE PUSH1 0x20 PUSH0 KECCAK256 PUSH1 0x1F DUP4 ADD PUSH1 0x5 SHR DUP2 ADD PUSH1 0x20 DUP5 LT PUSH2 0xB6E JUMPI JUMPDEST PUSH1 0x1F DUP4 ADD PUSH1 0x5 SHR DUP3 ADD DUP2 LT PUSH2 0xB63 JUMPI POP POP PUSH2 0x7D5 JUMP JUMPDEST PUSH0 DUP2 SSTORE PUSH1 0x1 ADD PUSH2 0xB4D JUMP JUMPDEST POP DUP1 PUSH2 0xB4D JUMP JUMPDEST SWAP1 POP DUP8 ADD MLOAD DUP9 PUSH2 0x766 JUMP JUMPDEST PUSH1 0x1 DUP6 ADD PUSH0 SWAP1 DUP2 MSTORE PUSH1 0x20 DUP2 KECCAK256 SWAP3 POP PUSH1 0x1F NOT DUP5 AND SWAP1 JUMPDEST DUP11 DUP3 DUP3 LT PUSH2 0xBD3 JUMPI POP POP SWAP1 DUP4 PUSH1 0x1 SWAP5 SWAP4 SWAP3 LT PUSH2 0xBBB JUMPI JUMPDEST POP POP DUP2 SHL ADD PUSH1 0x1 DUP4 ADD SSTORE PUSH2 0x77C JUMP JUMPDEST DUP10 ADD MLOAD PUSH0 NOT PUSH1 0xF8 DUP5 PUSH1 0x3 SHL AND SHR NOT AND SWAP1 SSTORE DUP9 DUP1 PUSH2 0xBAC JUMP JUMPDEST PUSH1 0x1 DUP5 SWAP6 PUSH1 0x20 SWAP4 SWAP6 DUP5 SWAP4 ADD MLOAD DUP2 SSTORE ADD SWAP5 ADD SWAP3 ADD PUSH2 0xB95 JUMP JUMPDEST PUSH1 0x1 DUP5 ADD PUSH0 MSTORE PUSH1 0x20 PUSH0 KECCAK256 PUSH1 0x1F DUP4 ADD PUSH1 0x5 SHR DUP2 ADD PUSH1 0x20 DUP5 LT PUSH2 0xC28 JUMPI JUMPDEST PUSH1 0x1F DUP4 ADD PUSH1 0x5 SHR DUP3 ADD DUP2 LT PUSH2 0xC1D JUMPI POP POP PUSH2 0x750 JUMP JUMPDEST PUSH0 DUP2 SSTORE PUSH1 0x1 ADD PUSH2 0xC07 JUMP JUMPDEST POP DUP1 PUSH2 0xC07 JUMP JUMPDEST PUSH19 0x496E73756666696369656E7420746F6B656E73 PUSH1 0x68 SHL PUSH1 0x40 MLOAD SWAP2 PUSH3 0x461BCD PUSH1 0xE5 SHL DUP4 MSTORE PUSH1 0x20 PUSH1 0x4 DUP5 ADD MSTORE PUSH1 0x13 PUSH1 0x24 DUP5 ADD MSTORE DUP3 ADD MSTORE REVERT JUMPDEST PUSH1 0x65 PUSH1 0xF8 SHL PUSH1 0x84 SWAP3 PUSH32 0x546F6B656E20616C6C6F636174696F6E206D75737420626520706F7369746976 PUSH1 0x40 MLOAD SWAP4 PUSH3 0x461BCD PUSH1 0xE5 SHL DUP6 MSTORE PUSH1 0x20 PUSH1 0x4 DUP7 ADD MSTORE PUSH1 0x21 PUSH1 0x24 DUP7 ADD MSTORE DUP5 ADD MSTORE DUP3 ADD MSTORE REVERT JUMPDEST PUSH18 0x11185D18481A185CDA081C995C5D5A5C9959 PUSH1 0x72 SHL PUSH1 0x40 MLOAD SWAP2 PUSH3 0x461BCD PUSH1 0xE5 SHL DUP4 MSTORE PUSH1 0x20 PUSH1 0x4 DUP5 ADD MSTORE PUSH1 0x12 PUSH1 0x24 DUP5 ADD MSTORE DUP3 ADD MSTORE REVERT JUMPDEST PUSH18 0x15195CDD081D1E5C19481C995C5D5A5C9959 PUSH1 0x72 SHL PUSH1 0x40 MLOAD SWAP2 PUSH3 0x461BCD PUSH1 0xE5 SHL DUP4 MSTORE PUSH1 0x20 PUSH1 0x4 DUP5 ADD MSTORE PUSH1 0x12 PUSH1 0x24 DUP5 ADD MSTORE DUP3 ADD MSTORE REVERT JUMPDEST PUSH32 0x496E76616C69642070617469656E742061646472657373000000000000000000 PUSH1 0x40 MLOAD SWAP2 PUSH3 0x461BCD PUSH1 0xE5 SHL DUP4 MSTORE PUSH1 0x20 PUSH1 0x4 DUP5 ADD MSTORE PUSH1 0x17 PUSH1 0x24 DUP5 ADD MSTORE DUP3 ADD MSTORE REVERT JUMPDEST CALLVALUE PUSH2 0x26D JUMPI PUSH0 CALLDATASIZE PUSH1 0x3 NOT ADD SLT PUSH2 0x26D JUMPI PUSH1 0x40 MLOAD PUSH0 PUSH1 0x4 SLOAD PUSH2 0xD7F DUP2 PUSH2 0x1C9C JUMP JUMPDEST DUP1 DUP5 MSTORE SWAP1 PUSH1 0x1 SWAP1 DUP2 DUP2 AND SWAP1 DUP2 ISZERO PUSH2 0xE17 JUMPI POP PUSH1 0x1 EQ PUSH2 0xDBD JUMPI JUMPDEST PUSH2 0x520 DUP5 PUSH2 0xDA9 DUP2 DUP7 SUB DUP3 PUSH2 0x1D0A JUMP JUMPDEST PUSH1 0x40 MLOAD SWAP2 DUP3 SWAP2 PUSH1 0x20 DUP4 MSTORE PUSH1 0x20 DUP4 ADD SWAP1 PUSH2 0x1B69 JUMP JUMPDEST PUSH1 0x4 PUSH0 SWAP1 DUP2 MSTORE SWAP3 POP PUSH32 0x8A35ACFBC15FF81A39AE7D344FD709F28E8600B4AA8C65C6B64BFE7FE36BD19B JUMPDEST DUP3 DUP5 LT PUSH2 0xDFF JUMPI POP POP POP DUP2 ADD PUSH1 0x20 ADD PUSH2 0xDA9 DUP3 PUSH2 0xD99 JUMP JUMPDEST DUP1 SLOAD PUSH1 0x20 DUP6 DUP8 ADD DUP2 ADD SWAP2 SWAP1 SWAP2 MSTORE SWAP1 SWAP4 ADD SWAP3 DUP2 ADD PUSH2 0xDE7 JUMP JUMPDEST PUSH1 0xFF NOT AND PUSH1 0x20 DUP1 DUP8 ADD SWAP2 SWAP1 SWAP2 MSTORE SWAP3 ISZERO ISZERO PUSH1 0x5 SHL DUP6 ADD SWAP1 SWAP3 ADD SWAP3 POP PUSH2 0xDA9 SWAP2 POP DUP4 SWAP1 POP PUSH2 0xD99 JUMP JUMPDEST CALLVALUE PUSH2 0x26D JUMPI PUSH1 0x40 CALLDATASIZE PUSH1 0x3 NOT ADD SLT PUSH2 0x26D JUMPI PUSH2 0xE57 PUSH2 0x1BA4 JUMP JUMPDEST PUSH1 0x4 CALLDATALOAD PUSH0 MSTORE PUSH1 0x5 PUSH1 0x20 MSTORE PUSH1 0x40 PUSH0 KECCAK256 SWAP1 PUSH1 0x1 DUP1 PUSH1 0xA0 SHL SUB AND PUSH0 MSTORE PUSH1 0x20 MSTORE PUSH1 0x20 PUSH1 0xFF PUSH1 0x40 PUSH0 KECCAK256 SLOAD AND PUSH1 0x40 MLOAD SWAP1 ISZERO ISZERO DUP2 MSTORE RETURN JUMPDEST CALLVALUE PUSH2 0x26D JUMPI PUSH0 CALLDATASIZE PUSH1 0x3 NOT ADD SLT PUSH2 0x26D JUMPI PUSH1 0x20 PUSH1 0x40 MLOAD PUSH32 0x4B346D9AC223184C8768FAE9F0F9CC7825DD24F5BA7C8C677C34451BA15ECA64 DUP2 MSTORE RETURN JUMPDEST CALLVALUE PUSH2 0x26D JUMPI PUSH0 CALLDATASIZE PUSH1 0x3 NOT ADD SLT PUSH2 0x26D JUMPI PUSH2 0xED9 PUSH2 0x1E5A JUMP JUMPDEST PUSH2 0xEE1 PUSH2 0x21B0 JUMP JUMPDEST PUSH1 0x1 PUSH1 0xFF NOT PUSH1 0x6 SLOAD AND OR PUSH1 0x6 SSTORE PUSH32 0x62E78CEA01BEE320CD4E420270B5EA74000D11B0C9F74754EBDBFC544B05A258 PUSH1 0x20 PUSH1 0x40 MLOAD CALLER DUP2 MSTORE LOG1 STOP JUMPDEST CALLVALUE PUSH2 0x26D JUMPI PUSH1 0x20 DUP1 PUSH1 0x3 NOT CALLDATASIZE ADD SLT PUSH2 0x26D JUMPI PUSH1 0x4 CALLDATALOAD PUSH0 PUSH1 0xC0 PUSH1 0x40 MLOAD PUSH2 0xF3E DUP2 PUSH2 0x1CD4 JUMP JUMPDEST DUP3 DUP2 MSTORE DUP3 DUP6 DUP3 ADD MSTORE DUP3 PUSH1 0x40 DUP3 ADD MSTORE DUP3 PUSH1 0x60 DUP3 ADD MSTORE PUSH1 0x60 PUSH1 0x80 DUP3 ADD MSTORE DUP3 PUSH1 0xA0 DUP3 ADD MSTORE ADD MSTORE PUSH1 0xC SLOAD DUP2 LT ISZERO PUSH2 0x102D JUMPI PUSH2 0xF74 SWAP1 PUSH2 0x1E21 JUMP JUMPDEST POP PUSH1 0x40 MLOAD SWAP1 PUSH2 0xF82 DUP3 PUSH2 0x1CD4 JUMP JUMPDEST PUSH1 0x1 DUP1 PUSH1 0xA0 SHL SUB SWAP3 DUP4 DUP3 SLOAD AND DUP4 MSTORE DUP4 PUSH2 0x101B PUSH1 0x1 DUP5 ADD SLOAD DUP4 DUP7 ADD SWAP1 DUP2 MSTORE PUSH1 0x2 DUP6 ADD SLOAD PUSH1 0x40 DUP8 ADD SWAP1 DUP2 MSTORE PUSH1 0x3 DUP7 ADD SLOAD SWAP1 PUSH1 0x60 DUP9 ADD SWAP2 DUP3 MSTORE PUSH2 0xFC4 PUSH1 0x4 DUP9 ADD PUSH2 0x1D2B JUMP JUMPDEST SWAP3 PUSH1 0x80 DUP10 ADD SWAP4 DUP5 MSTORE PUSH1 0x6 DUP7 PUSH1 0x5 DUP11 ADD SLOAD AND SWAP9 PUSH1 0xA0 DUP12 ADD SWAP10 DUP11 MSTORE ADD SLOAD SWAP7 PUSH1 0xC0 DUP11 ADD SWAP8 DUP9 MSTORE PUSH1 0x40 MLOAD SWAP11 DUP12 SWAP11 DUP3 DUP13 MSTORE MLOAD AND SWAP1 DUP11 ADD MSTORE MLOAD PUSH1 0x40 DUP10 ADD MSTORE MLOAD PUSH1 0x60 DUP9 ADD MSTORE MLOAD PUSH1 0x80 DUP8 ADD MSTORE MLOAD PUSH1 0xE0 PUSH1 0xA0 DUP8 ADD MSTORE PUSH2 0x100 DUP7 ADD SWAP1 PUSH2 0x1B69 JUMP JUMPDEST SWAP3 MLOAD AND PUSH1 0xC0 DUP5 ADD MSTORE MLOAD PUSH1 0xE0 DUP4 ADD MSTORE SUB SWAP1 RETURN JUMPDEST PUSH1 0x40 MLOAD PUSH3 0x461BCD PUSH1 0xE5 SHL DUP2 MSTORE PUSH1 0x4 DUP2 ADD DUP4 SWAP1 MSTORE PUSH1 0x13 PUSH1 0x24 DUP3 ADD MSTORE PUSH19 0x92DCECC2D8D2C840C2EAC8D2E840D2DCC8CAF PUSH1 0x6B SHL PUSH1 0x44 DUP3 ADD MSTORE PUSH1 0x64 SWAP1 REVERT JUMPDEST CALLVALUE PUSH2 0x26D JUMPI PUSH1 0x20 CALLDATASIZE PUSH1 0x3 NOT ADD SLT PUSH2 0x26D JUMPI PUSH1 0x20 PUSH2 0x10A0 PUSH2 0x1086 PUSH2 0x1B8E JUMP JUMPDEST PUSH1 0x1 PUSH1 0x1 PUSH1 0xA0 SHL SUB AND PUSH0 SWAP1 DUP2 MSTORE PUSH1 0x20 DUP2 SWAP1 MSTORE PUSH1 0x40 SWAP1 KECCAK256 SLOAD SWAP1 JUMP JUMPDEST PUSH1 0x40 MLOAD SWAP1 DUP2 MSTORE RETURN JUMPDEST CALLVALUE PUSH2 0x26D JUMPI PUSH1 0x20 CALLDATASIZE PUSH1 0x3 NOT ADD SLT PUSH2 0x26D JUMPI PUSH1 0x4 CALLDATALOAD PUSH0 MSTORE PUSH1 0x8 PUSH1 0x20 MSTORE PUSH1 0x40 PUSH0 KECCAK256 DUP1 SLOAD PUSH2 0x520 PUSH2 0x10D8 PUSH1 0x1 DUP5 ADD PUSH2 0x1D2B JUMP JUMPDEST SWAP2 PUSH1 0x1 DUP1 PUSH1 0xA0 SHL SUB SWAP4 DUP5 PUSH1 0x2 DUP3 ADD SLOAD AND SWAP5 PUSH1 0x3 DUP3 ADD SLOAD AND SWAP2 PUSH1 0x4 DUP3 ADD SLOAD SWAP1 PUSH2 0x1102 PUSH1 0x5 DUP5 ADD PUSH2 0x1D2B JUMP JUMPDEST PUSH2 0x110E PUSH1 0x6 DUP6 ADD PUSH2 0x1D2B JUMP JUMPDEST SWAP1 PUSH1 0x7 DUP6 ADD SLOAD SWAP4 PUSH1 0xA PUSH1 0x8 DUP8 ADD SLOAD SWAP7 ADD SLOAD SWAP7 PUSH1 0x40 MLOAD SWAP11 DUP12 SWAP11 PUSH1 0xFF DUP1 DUP10 PUSH1 0x8 SHR AND SWAP9 AND SWAP7 DUP13 PUSH2 0x1BBA JUMP JUMPDEST CALLVALUE PUSH2 0x26D JUMPI PUSH0 CALLDATASIZE PUSH1 0x3 NOT ADD SLT PUSH2 0x26D JUMPI PUSH1 0x20 PUSH1 0x40 MLOAD PUSH32 0x59A1C48E5837AD7A7F3DCEDCBE129BF3249EC4FBF651FD4F5E2600EAD39FE2F5 DUP2 MSTORE RETURN JUMPDEST CALLVALUE PUSH2 0x26D JUMPI PUSH1 0x20 DUP1 PUSH1 0x3 NOT CALLDATASIZE ADD SLT PUSH2 0x26D JUMPI PUSH1 0x4 CALLDATALOAD PUSH2 0x118E PUSH2 0x1F2E JUMP JUMPDEST PUSH2 0x1196 PUSH2 0x21B0 JUMP JUMPDEST DUP1 ISZERO ISZERO DUP1 PUSH2 0x1277 JUMPI JUMPDEST PUSH2 0x11A8 SWAP1 PUSH2 0x21CE JUMP JUMPDEST DUP1 PUSH0 MSTORE PUSH1 0x8 DUP3 MSTORE PUSH1 0x9 PUSH1 0x40 PUSH0 KECCAK256 ADD CALLER PUSH0 MSTORE DUP3 MSTORE PUSH1 0xFF PUSH1 0x40 PUSH0 KECCAK256 SLOAD AND PUSH2 0x123F JUMPI DUP1 PUSH0 MSTORE PUSH1 0x8 DUP3 MSTORE PUSH1 0x9 PUSH1 0x40 PUSH0 KECCAK256 ADD CALLER PUSH0 MSTORE DUP3 MSTORE PUSH1 0x40 PUSH0 KECCAK256 PUSH1 0x1 PUSH1 0xFF NOT DUP3 SLOAD AND OR SWAP1 SSTORE DUP1 PUSH0 MSTORE PUSH1 0x8 DUP3 MSTORE PUSH1 0xA PUSH1 0x40 PUSH0 KECCAK256 ADD PUSH2 0x1201 DUP2 SLOAD PUSH2 0x2161 JUMP JUMPDEST SWAP1 SSTORE DUP1 PUSH0 MSTORE PUSH1 0x8 DUP3 MSTORE PUSH32 0xBFA63A3FD1A533E040D9ABBBA71DAD5BD30AE49BA7650B37708BFD5968260747 PUSH1 0xA PUSH1 0x40 PUSH0 KECCAK256 ADD SLOAD SWAP3 PUSH1 0x40 MLOAD SWAP4 DUP5 MSTORE CALLER SWAP4 LOG3 STOP JUMPDEST PUSH1 0x40 MLOAD PUSH3 0x461BCD PUSH1 0xE5 SHL DUP2 MSTORE PUSH1 0x4 DUP2 ADD DUP4 SWAP1 MSTORE PUSH1 0x10 PUSH1 0x24 DUP3 ADD MSTORE PUSH16 0x105B1C9958591E48185C1C1C9BDD9959 PUSH1 0x82 SHL PUSH1 0x44 DUP3 ADD MSTORE PUSH1 0x64 SWAP1 REVERT JUMPDEST POP PUSH1 0xD SLOAD DUP2 LT PUSH2 0x119F JUMP JUMPDEST CALLVALUE PUSH2 0x26D JUMPI PUSH0 CALLDATASIZE PUSH1 0x3 NOT ADD SLT PUSH2 0x26D JUMPI PUSH1 0x20 PUSH1 0xFF PUSH1 0x6 SLOAD AND PUSH1 0x40 MLOAD SWAP1 ISZERO ISZERO DUP2 MSTORE RETURN JUMPDEST CALLVALUE PUSH2 0x26D JUMPI PUSH1 0x20 DUP1 PUSH1 0x3 NOT CALLDATASIZE ADD SLT PUSH2 0x26D JUMPI PUSH1 0x1 PUSH1 0x1 PUSH1 0xA0 SHL SUB PUSH2 0x12C6 PUSH2 0x1B8E JUMP JUMPDEST AND PUSH0 MSTORE PUSH1 0x9 DUP2 MSTORE PUSH1 0x40 PUSH0 KECCAK256 SWAP1 PUSH1 0x40 MLOAD SWAP1 DUP2 DUP2 DUP5 SLOAD SWAP2 DUP3 DUP2 MSTORE ADD SWAP4 PUSH0 MSTORE DUP2 PUSH0 KECCAK256 SWAP2 PUSH0 SWAP1 JUMPDEST DUP3 DUP3 LT PUSH2 0x1300 JUMPI PUSH2 0x520 DUP6 PUSH2 0x514 DUP2 DUP10 SUB DUP3 PUSH2 0x1D0A JUMP JUMPDEST DUP4 SLOAD DUP7 MSTORE SWAP5 DUP6 ADD SWAP5 PUSH1 0x1 SWAP4 DUP5 ADD SWAP4 SWAP1 SWAP2 ADD SWAP1 PUSH2 0x12E9 JUMP JUMPDEST CALLVALUE PUSH2 0x26D JUMPI PUSH0 CALLDATASIZE PUSH1 0x3 NOT ADD SLT PUSH2 0x26D JUMPI PUSH1 0x20 PUSH1 0xE SLOAD PUSH1 0x40 MLOAD SWAP1 DUP2 MSTORE RETURN JUMPDEST CALLVALUE PUSH2 0x26D JUMPI PUSH1 0x20 DUP1 PUSH1 0x3 NOT CALLDATASIZE ADD SLT PUSH2 0x26D JUMPI PUSH1 0x4 CALLDATALOAD PUSH2 0x1351 PUSH2 0x1ED3 JUMP JUMPDEST PUSH2 0x1359 PUSH2 0x21B0 JUMP JUMPDEST DUP1 ISZERO ISZERO DUP1 PUSH2 0x1514 JUMPI JUMPDEST PUSH2 0x136B SWAP1 PUSH2 0x21CE JUMP JUMPDEST PUSH0 DUP2 DUP2 MSTORE PUSH1 0x8 DUP1 DUP5 MSTORE PUSH1 0x40 SWAP1 SWAP2 KECCAK256 PUSH1 0x2 ADD SLOAD PUSH1 0x1 PUSH1 0x1 PUSH1 0xA0 SHL SUB SWAP1 DUP2 AND CALLER SUB PUSH2 0x14DE JUMPI DUP3 PUSH0 MSTORE DUP2 DUP5 MSTORE PUSH1 0xFF PUSH1 0x7 PUSH1 0x40 PUSH0 KECCAK256 ADD SLOAD AND ISZERO PUSH2 0x14A4 JUMPI PUSH2 0x1477 SWAP2 PUSH2 0x1422 DUP5 SWAP3 DUP4 PUSH0 MSTORE DUP3 DUP8 MSTORE PUSH2 0x13C9 PUSH1 0xFF PUSH1 0x7 PUSH1 0x40 PUSH0 KECCAK256 ADD SLOAD DUP6 SHR AND ISZERO PUSH2 0x220C JUMP JUMPDEST DUP4 PUSH0 MSTORE DUP3 DUP8 MSTORE PUSH1 0x40 PUSH0 KECCAK256 SWAP3 PUSH1 0x7 DUP5 ADD PUSH2 0x100 PUSH2 0xFF00 NOT DUP3 SLOAD AND OR SWAP1 SSTORE PUSH2 0x13FD PUSH1 0x3 DUP6 ADD SWAP2 DUP4 DUP4 SLOAD AND SWAP6 ADD SWAP5 DUP6 SLOAD SWAP1 ADDRESS PUSH2 0x209E JUMP JUMPDEST SLOAD AND SWAP2 PUSH2 0x141A DUP4 PUSH1 0x1 DUP1 PUSH1 0xA0 SHL SUB AND PUSH0 MSTORE PUSH0 PUSH1 0x20 MSTORE PUSH1 0x40 PUSH0 KECCAK256 SLOAD SWAP1 JUMP JUMPDEST SWAP1 SLOAD SWAP1 PUSH2 0x21A3 JUMP JUMPDEST PUSH1 0x1 PUSH1 0x1 PUSH1 0xA0 SHL SUB DUP3 AND PUSH0 SWAP1 DUP2 MSTORE PUSH1 0x20 DUP2 SWAP1 MSTORE PUSH1 0x40 SWAP1 KECCAK256 SLOAD PUSH1 0x40 MLOAD SWAP2 PUSH2 0x1447 DUP4 PUSH2 0x1CEF JUMP JUMPDEST PUSH1 0x18 DUP4 MSTORE PUSH32 0x436C696E6963616C207465737420636F6D706C6574696F6E0000000000000000 DUP9 DUP5 ADD MSTORE CALLER SWAP4 PUSH2 0x24AE JUMP JUMPDEST PUSH32 0xFBF860A58BB486670A4AB1D426433F88CF08E59CA817A52D7050D5CD6F7EEE5C PUSH1 0x40 MLOAD SWAP3 TIMESTAMP DUP5 MSTORE CALLER SWAP4 LOG3 STOP JUMPDEST PUSH1 0x40 MLOAD PUSH3 0x461BCD PUSH1 0xE5 SHL DUP2 MSTORE PUSH1 0x4 DUP2 ADD DUP6 SWAP1 MSTORE PUSH1 0x12 PUSH1 0x24 DUP3 ADD MSTORE PUSH18 0x15195CDD081B9BDD081D985B1A59185D1959 PUSH1 0x72 SHL PUSH1 0x44 DUP3 ADD MSTORE PUSH1 0x64 SWAP1 REVERT JUMPDEST PUSH1 0x40 MLOAD PUSH3 0x461BCD PUSH1 0xE5 SHL DUP2 MSTORE PUSH1 0x4 DUP2 ADD DUP6 SWAP1 MSTORE PUSH1 0xE PUSH1 0x24 DUP3 ADD MSTORE PUSH14 0x2737BA103A32B9BA1037BBB732B9 PUSH1 0x91 SHL PUSH1 0x44 DUP3 ADD MSTORE PUSH1 0x64 SWAP1 REVERT JUMPDEST POP PUSH1 0xD SLOAD DUP2 LT PUSH2 0x1362 JUMP JUMPDEST CALLVALUE PUSH2 0x26D JUMPI PUSH1 0x40 CALLDATASIZE PUSH1 0x3 NOT ADD SLT PUSH2 0x26D JUMPI PUSH2 0x1538 PUSH2 0x1B8E JUMP JUMPDEST PUSH1 0x1 PUSH1 0x1 PUSH1 0xA0 SHL SUB AND PUSH0 SWAP1 DUP2 MSTORE PUSH1 0x9 PUSH1 0x20 MSTORE PUSH1 0x40 SWAP1 KECCAK256 DUP1 SLOAD PUSH1 0x24 CALLDATALOAD SWAP2 SWAP1 DUP3 LT ISZERO PUSH2 0x26D JUMPI PUSH1 0x20 SWAP2 PUSH2 0x1568 SWAP2 PUSH2 0x1C39 JUMP JUMPDEST SWAP1 SLOAD PUSH1 0x40 MLOAD SWAP2 PUSH1 0x3 SHL SHR DUP2 MSTORE RETURN JUMPDEST CALLVALUE PUSH2 0x26D JUMPI PUSH1 0x40 CALLDATASIZE PUSH1 0x3 NOT ADD SLT PUSH2 0x26D JUMPI PUSH2 0x158F PUSH2 0x1B8E JUMP JUMPDEST PUSH1 0x1 PUSH1 0x1 PUSH1 0xA0 SHL SUB AND PUSH0 SWAP1 DUP2 MSTORE PUSH1 0xA PUSH1 0x20 MSTORE PUSH1 0x40 SWAP1 KECCAK256 DUP1 SLOAD PUSH1 0x24 CALLDATALOAD SWAP2 SWAP1 DUP3 LT ISZERO PUSH2 0x26D JUMPI PUSH1 0x20 SWAP2 PUSH2 0x1568 SWAP2 PUSH2 0x1C39 JUMP JUMPDEST CALLVALUE PUSH2 0x26D JUMPI PUSH0 CALLDATASIZE PUSH1 0x3 NOT ADD SLT PUSH2 0x26D JUMPI PUSH1 0x20 PUSH1 0xC SLOAD PUSH1 0x40 MLOAD SWAP1 DUP2 MSTORE RETURN JUMPDEST CALLVALUE PUSH2 0x26D JUMPI PUSH1 0x20 CALLDATASIZE PUSH1 0x3 NOT ADD SLT PUSH2 0x26D JUMPI PUSH1 0x4 CALLDATALOAD DUP1 ISZERO ISZERO DUP1 PUSH2 0x167D JUMPI JUMPDEST PUSH2 0x1602 SWAP1 PUSH2 0x21CE JUMP JUMPDEST PUSH0 MSTORE PUSH1 0x8 PUSH1 0x20 MSTORE PUSH1 0x40 PUSH0 KECCAK256 DUP1 SLOAD PUSH2 0x520 PUSH1 0x1 DUP1 PUSH1 0xA0 SHL SUB SWAP3 DUP4 PUSH1 0x2 DUP3 ADD SLOAD AND SWAP4 PUSH1 0x3 DUP3 ADD SLOAD AND PUSH1 0x4 DUP3 ADD SLOAD SWAP4 PUSH1 0x7 DUP4 ADD SLOAD SWAP1 PUSH1 0x8 DUP5 ADD SLOAD SWAP3 PUSH1 0xA DUP6 ADD SLOAD SWAP5 PUSH2 0x164C PUSH1 0x1 DUP3 ADD PUSH2 0x1D2B JUMP JUMPDEST SWAP8 PUSH2 0x1665 PUSH1 0x6 PUSH2 0x165E PUSH1 0x5 DUP6 ADD PUSH2 0x1D2B JUMP JUMPDEST SWAP4 ADD PUSH2 0x1D2B JUMP JUMPDEST SWAP3 PUSH1 0x40 MLOAD SWAP11 DUP12 SWAP11 PUSH1 0xFF DUP1 DUP10 PUSH1 0x8 SHR AND SWAP9 AND SWAP7 DUP13 PUSH2 0x1BBA JUMP JUMPDEST POP PUSH1 0xD SLOAD DUP2 LT PUSH2 0x15F9 JUMP JUMPDEST CALLVALUE PUSH2 0x26D JUMPI PUSH1 0x40 CALLDATASIZE PUSH1 0x3 NOT ADD SLT PUSH2 0x26D JUMPI PUSH2 0x16A1 PUSH2 0x1B8E JUMP JUMPDEST PUSH1 0x24 CALLDATALOAD SWAP1 PUSH2 0x16AD PUSH2 0x1E5A JUMP JUMPDEST PUSH1 0x1 PUSH1 0x1 PUSH1 0xA0 SHL SUB DUP2 AND DUP1 ISZERO PUSH2 0x1771 JUMPI PUSH1 0x2 SLOAD DUP4 DUP2 ADD DUP1 SWAP2 GT PUSH2 0x175D JUMPI PUSH2 0x2FB SWAP4 PUSH2 0x1723 SWAP2 PUSH1 0x2 SSTORE DUP3 PUSH0 MSTORE PUSH0 PUSH1 0x20 MSTORE PUSH1 0x40 PUSH0 KECCAK256 DUP2 DUP2 SLOAD ADD SWAP1 SSTORE DUP3 PUSH0 PUSH32 0xDDF252AD1BE2C89B69C2B068FC378DAA952BA7F163C4A11628F55A4DF523B3EF PUSH1 0x20 PUSH1 0x40 MLOAD DUP6 DUP2 MSTORE LOG3 DUP3 PUSH0 MSTORE PUSH0 PUSH1 0x20 MSTORE PUSH1 0x40 PUSH0 KECCAK256 SLOAD PUSH2 0x21A3 JUMP JUMPDEST SWAP1 PUSH0 MSTORE PUSH0 PUSH1 0x20 MSTORE PUSH1 0x40 PUSH0 KECCAK256 SLOAD PUSH1 0x40 MLOAD SWAP2 PUSH2 0x173C DUP4 PUSH2 0x1CEF JUMP JUMPDEST PUSH1 0xD DUP4 MSTORE PUSH13 0x546F6B656E206D696E74696E67 PUSH1 0x98 SHL PUSH1 0x20 DUP5 ADD MSTORE CALLER SWAP4 PUSH2 0x2251 JUMP JUMPDEST PUSH4 0x4E487B71 PUSH1 0xE0 SHL PUSH0 MSTORE PUSH1 0x11 PUSH1 0x4 MSTORE PUSH1 0x24 PUSH0 REVERT JUMPDEST PUSH1 0x40 MLOAD PUSH4 0xEC442F05 PUSH1 0xE0 SHL DUP2 MSTORE PUSH0 PUSH1 0x4 DUP3 ADD MSTORE PUSH1 0x24 SWAP1 REVERT JUMPDEST CALLVALUE PUSH2 0x26D JUMPI PUSH0 CALLDATASIZE PUSH1 0x3 NOT ADD SLT PUSH2 0x26D JUMPI PUSH2 0x17A1 PUSH2 0x1E5A JUMP JUMPDEST PUSH1 0x6 SLOAD PUSH1 0xFF DUP2 AND ISZERO PUSH2 0x17E0 JUMPI PUSH1 0xFF NOT AND PUSH1 0x6 SSTORE PUSH32 0x5DB9EE0A495BF2E6FF9C91A7834C1BA4FDD244A5E8AA4E537BD38AEAE4B073AA PUSH1 0x20 PUSH1 0x40 MLOAD CALLER DUP2 MSTORE LOG1 STOP JUMPDEST PUSH1 0x40 MLOAD PUSH4 0x8DFC202B PUSH1 0xE0 SHL DUP2 MSTORE PUSH1 0x4 SWAP1 REVERT JUMPDEST CALLVALUE PUSH2 0x26D JUMPI PUSH1 0x40 CALLDATASIZE PUSH1 0x3 NOT ADD SLT PUSH2 0x26D JUMPI PUSH2 0x180B PUSH2 0x1BA4 JUMP JUMPDEST CALLER PUSH1 0x1 PUSH1 0x1 PUSH1 0xA0 SHL SUB DUP3 AND SUB PUSH2 0x1827 JUMPI PUSH2 0x2FB SWAP1 PUSH1 0x4 CALLDATALOAD PUSH2 0x2029 JUMP JUMPDEST PUSH1 0x40 MLOAD PUSH4 0x334BD919 PUSH1 0xE1 SHL DUP2 MSTORE PUSH1 0x4 SWAP1 REVERT JUMPDEST CALLVALUE PUSH2 0x26D JUMPI PUSH0 CALLDATASIZE PUSH1 0x3 NOT ADD SLT PUSH2 0x26D JUMPI PUSH1 0x20 PUSH1 0x40 MLOAD PUSH1 0x12 DUP2 MSTORE RETURN JUMPDEST CALLVALUE PUSH2 0x26D JUMPI PUSH1 0x40 CALLDATASIZE PUSH1 0x3 NOT ADD SLT PUSH2 0x26D JUMPI PUSH2 0x2FB PUSH1 0x4 CALLDATALOAD PUSH2 0x1873 PUSH2 0x1BA4 JUMP JUMPDEST SWAP1 DUP1 PUSH0 MSTORE PUSH1 0x5 PUSH1 0x20 MSTORE PUSH2 0x188C PUSH1 0x1 PUSH1 0x40 PUSH0 KECCAK256 ADD SLOAD PUSH2 0x1F89 JUMP JUMPDEST PUSH2 0x1FAB JUMP JUMPDEST CALLVALUE PUSH2 0x26D JUMPI PUSH1 0x20 CALLDATASIZE PUSH1 0x3 NOT ADD SLT PUSH2 0x26D JUMPI PUSH1 0x4 CALLDATALOAD PUSH0 MSTORE PUSH1 0x5 PUSH1 0x20 MSTORE PUSH1 0x20 PUSH1 0x1 PUSH1 0x40 PUSH0 KECCAK256 ADD SLOAD PUSH1 0x40 MLOAD SWAP1 DUP2 MSTORE RETURN JUMPDEST CALLVALUE PUSH2 0x26D JUMPI PUSH1 0x60 CALLDATASIZE PUSH1 0x3 NOT ADD SLT PUSH2 0x26D JUMPI PUSH2 0x18D7 PUSH2 0x1B8E JUMP JUMPDEST PUSH2 0x18DF PUSH2 0x1BA4 JUMP JUMPDEST PUSH1 0x1 PUSH1 0x1 PUSH1 0xA0 SHL SUB DUP3 AND PUSH0 DUP2 DUP2 MSTORE PUSH1 0x1 PUSH1 0x20 SWAP1 DUP2 MSTORE PUSH1 0x40 DUP1 DUP4 KECCAK256 CALLER DUP5 MSTORE SWAP1 SWAP2 MSTORE SWAP1 KECCAK256 SLOAD SWAP3 PUSH1 0x44 CALLDATALOAD SWAP3 SWAP2 PUSH0 NOT DUP6 LT PUSH2 0x1927 JUMPI JUMPDEST POP PUSH2 0x191C SWAP4 POP PUSH2 0x209E JUMP JUMPDEST PUSH1 0x20 PUSH1 0x40 MLOAD PUSH1 0x1 DUP2 MSTORE RETURN JUMPDEST DUP4 DUP6 LT PUSH2 0x198D JUMPI DUP1 ISZERO PUSH2 0x1975 JUMPI CALLER ISZERO PUSH2 0x195D JUMPI PUSH2 0x191C SWAP5 DUP5 SWAP2 PUSH0 MSTORE PUSH1 0x1 PUSH1 0x20 MSTORE PUSH1 0x40 PUSH0 KECCAK256 CALLER PUSH0 MSTORE PUSH1 0x20 MSTORE SUB PUSH1 0x40 PUSH0 KECCAK256 SSTORE DUP5 PUSH2 0x1911 JUMP JUMPDEST PUSH1 0x40 MLOAD PUSH4 0x4A1406B1 PUSH1 0xE1 SHL DUP2 MSTORE PUSH0 PUSH1 0x4 DUP3 ADD MSTORE PUSH1 0x24 SWAP1 REVERT JUMPDEST PUSH1 0x40 MLOAD PUSH4 0xE602DF05 PUSH1 0xE0 SHL DUP2 MSTORE PUSH0 PUSH1 0x4 DUP3 ADD MSTORE PUSH1 0x24 SWAP1 REVERT JUMPDEST PUSH1 0x40 MLOAD PUSH4 0x7DC7A0D9 PUSH1 0xE1 SHL DUP2 MSTORE CALLER PUSH1 0x4 DUP3 ADD MSTORE PUSH1 0x24 DUP2 ADD DUP7 SWAP1 MSTORE PUSH1 0x44 DUP2 ADD DUP6 SWAP1 MSTORE PUSH1 0x64 SWAP1 REVERT JUMPDEST CALLVALUE PUSH2 0x26D JUMPI PUSH0 CALLDATASIZE PUSH1 0x3 NOT ADD SLT PUSH2 0x26D JUMPI PUSH1 0x20 PUSH1 0x2 SLOAD PUSH1 0x40 MLOAD SWAP1 DUP2 MSTORE RETURN JUMPDEST CALLVALUE PUSH2 0x26D JUMPI PUSH1 0x40 CALLDATASIZE PUSH1 0x3 NOT ADD SLT PUSH2 0x26D JUMPI PUSH2 0x19E9 PUSH2 0x1B8E JUMP JUMPDEST PUSH1 0x24 CALLDATALOAD SWAP1 CALLER ISZERO PUSH2 0x1975 JUMPI PUSH1 0x1 PUSH1 0x1 PUSH1 0xA0 SHL SUB AND SWAP1 DUP2 ISZERO PUSH2 0x195D JUMPI CALLER PUSH0 MSTORE PUSH1 0x1 PUSH1 0x20 MSTORE PUSH1 0x40 PUSH0 KECCAK256 DUP3 PUSH0 MSTORE PUSH1 0x20 MSTORE DUP1 PUSH1 0x40 PUSH0 KECCAK256 SSTORE PUSH1 0x40 MLOAD SWAP1 DUP2 MSTORE PUSH32 0x8C5BE1E5EBEC7D5BD14F71427D1E84F3DD0314C0F7B2291E5B200AC8C7C3B925 PUSH1 0x20 CALLER SWAP3 LOG3 PUSH1 0x20 PUSH1 0x40 MLOAD PUSH1 0x1 DUP2 MSTORE RETURN JUMPDEST CALLVALUE PUSH2 0x26D JUMPI PUSH0 CALLDATASIZE PUSH1 0x3 NOT ADD SLT PUSH2 0x26D JUMPI PUSH1 0x40 MLOAD PUSH0 PUSH1 0x3 SLOAD PUSH2 0x1A72 DUP2 PUSH2 0x1C9C JUMP JUMPDEST DUP1 DUP5 MSTORE SWAP1 PUSH1 0x1 SWAP1 DUP2 DUP2 AND SWAP1 DUP2 ISZERO PUSH2 0xE17 JUMPI POP PUSH1 0x1 EQ PUSH2 0x1A9B JUMPI PUSH2 0x520 DUP5 PUSH2 0xDA9 DUP2 DUP7 SUB DUP3 PUSH2 0x1D0A JUMP JUMPDEST PUSH1 0x3 PUSH0 SWAP1 DUP2 MSTORE SWAP3 POP PUSH32 0xC2575A0E9E593C00F959F8C92F12DB2869C3395A3B0502D05E2516446F71F85B JUMPDEST DUP3 DUP5 LT PUSH2 0x1ADD JUMPI POP POP POP DUP2 ADD PUSH1 0x20 ADD PUSH2 0xDA9 DUP3 PUSH2 0xD99 JUMP JUMPDEST DUP1 SLOAD PUSH1 0x20 DUP6 DUP8 ADD DUP2 ADD SWAP2 SWAP1 SWAP2 MSTORE SWAP1 SWAP4 ADD SWAP3 DUP2 ADD PUSH2 0x1AC5 JUMP JUMPDEST CALLVALUE PUSH2 0x26D JUMPI PUSH1 0x20 CALLDATASIZE PUSH1 0x3 NOT ADD SLT PUSH2 0x26D JUMPI PUSH1 0x4 CALLDATALOAD SWAP1 PUSH4 0xFFFFFFFF PUSH1 0xE0 SHL DUP3 AND DUP1 SWAP3 SUB PUSH2 0x26D JUMPI PUSH1 0x20 SWAP2 PUSH4 0x7965DB0B PUSH1 0xE0 SHL DUP2 EQ SWAP1 DUP2 ISZERO PUSH2 0x1B37 JUMPI JUMPDEST POP ISZERO ISZERO DUP2 MSTORE RETURN JUMPDEST PUSH4 0x1FFC9A7 PUSH1 0xE0 SHL EQ SWAP1 POP DUP4 PUSH2 0x1B30 JUMP JUMPDEST PUSH0 JUMPDEST DUP4 DUP2 LT PUSH2 0x1B59 JUMPI POP POP PUSH0 SWAP2 ADD MSTORE JUMP JUMPDEST DUP2 DUP2 ADD MLOAD DUP4 DUP3 ADD MSTORE PUSH1 0x20 ADD PUSH2 0x1B4A JUMP JUMPDEST SWAP1 PUSH1 0x20 SWAP2 PUSH2 0x1B82 DUP2 MLOAD DUP1 SWAP3 DUP2 DUP6 MSTORE DUP6 DUP1 DUP7 ADD SWAP2 ADD PUSH2 0x1B48 JUMP JUMPDEST PUSH1 0x1F ADD PUSH1 0x1F NOT AND ADD ADD SWAP1 JUMP JUMPDEST PUSH1 0x4 CALLDATALOAD SWAP1 PUSH1 0x1 PUSH1 0x1 PUSH1 0xA0 SHL SUB DUP3 AND DUP3 SUB PUSH2 0x26D JUMPI JUMP JUMPDEST PUSH1 0x24 CALLDATALOAD SWAP1 PUSH1 0x1 PUSH1 0x1 PUSH1 0xA0 SHL SUB DUP3 AND DUP3 SUB PUSH2 0x26D JUMPI JUMP JUMPDEST SWAP8 SWAP12 SWAP11 SWAP10 SWAP7 SWAP4 SWAP2 SWAP5 PUSH2 0x1C11 SWAP4 PUSH2 0x1BE8 PUSH2 0x1C1F SWAP8 PUSH2 0x140 SWAP13 SWAP10 SWAP5 DUP13 MSTORE PUSH1 0x20 DUP13 PUSH2 0x160 SWAP2 DUP3 SWAP2 ADD MSTORE DUP13 ADD SWAP1 PUSH2 0x1B69 JUMP JUMPDEST PUSH1 0x1 PUSH1 0x1 PUSH1 0xA0 SHL SUB SWAP2 DUP3 AND PUSH1 0x40 DUP13 ADD MSTORE SWAP4 AND PUSH1 0x60 DUP11 ADD MSTORE PUSH1 0x80 DUP10 ADD MSTORE DUP8 DUP3 SUB PUSH1 0xA0 DUP10 ADD MSTORE PUSH2 0x1B69 JUMP JUMPDEST SWAP1 DUP6 DUP3 SUB PUSH1 0xC0 DUP8 ADD MSTORE PUSH2 0x1B69 JUMP JUMPDEST SWAP7 ISZERO ISZERO PUSH1 0xE0 DUP5 ADD MSTORE ISZERO ISZERO PUSH2 0x100 DUP4 ADD MSTORE PUSH2 0x120 DUP3 ADD MSTORE ADD MSTORE JUMP JUMPDEST DUP1 SLOAD DUP3 LT ISZERO PUSH2 0x1C4E JUMPI PUSH0 MSTORE PUSH1 0x20 PUSH0 KECCAK256 ADD SWAP1 PUSH0 SWAP1 JUMP JUMPDEST PUSH4 0x4E487B71 PUSH1 0xE0 SHL PUSH0 MSTORE PUSH1 0x32 PUSH1 0x4 MSTORE PUSH1 0x24 PUSH0 REVERT JUMPDEST PUSH1 0x20 SWAP1 DUP2 PUSH1 0x40 DUP2 DUP4 ADD SWAP3 DUP3 DUP2 MSTORE DUP6 MLOAD DUP1 SWAP5 MSTORE ADD SWAP4 ADD SWAP2 PUSH0 JUMPDEST DUP3 DUP2 LT PUSH2 0x1C88 JUMPI POP POP POP POP SWAP1 JUMP JUMPDEST DUP4 MLOAD DUP6 MSTORE SWAP4 DUP2 ADD SWAP4 SWAP3 DUP2 ADD SWAP3 PUSH1 0x1 ADD PUSH2 0x1C7A JUMP JUMPDEST SWAP1 PUSH1 0x1 DUP3 DUP2 SHR SWAP3 AND DUP1 ISZERO PUSH2 0x1CCA JUMPI JUMPDEST PUSH1 0x20 DUP4 LT EQ PUSH2 0x1CB6 JUMPI JUMP JUMPDEST PUSH4 0x4E487B71 PUSH1 0xE0 SHL PUSH0 MSTORE PUSH1 0x22 PUSH1 0x4 MSTORE PUSH1 0x24 PUSH0 REVERT JUMPDEST SWAP2 PUSH1 0x7F AND SWAP2 PUSH2 0x1CAB JUMP JUMPDEST PUSH1 0xE0 DUP2 ADD SWAP1 DUP2 LT PUSH1 0x1 PUSH1 0x1 PUSH1 0x40 SHL SUB DUP3 GT OR PUSH2 0xAA9 JUMPI PUSH1 0x40 MSTORE JUMP JUMPDEST PUSH1 0x40 DUP2 ADD SWAP1 DUP2 LT PUSH1 0x1 PUSH1 0x1 PUSH1 0x40 SHL SUB DUP3 GT OR PUSH2 0xAA9 JUMPI PUSH1 0x40 MSTORE JUMP JUMPDEST SWAP1 PUSH1 0x1F DUP1 NOT SWAP2 ADD AND DUP2 ADD SWAP1 DUP2 LT PUSH1 0x1 PUSH1 0x1 PUSH1 0x40 SHL SUB DUP3 GT OR PUSH2 0xAA9 JUMPI PUSH1 0x40 MSTORE JUMP JUMPDEST SWAP1 PUSH1 0x40 MLOAD SWAP2 DUP3 PUSH0 DUP3 SLOAD SWAP3 PUSH2 0x1D3E DUP5 PUSH2 0x1C9C JUMP JUMPDEST SWAP1 DUP2 DUP5 MSTORE PUSH1 0x1 SWAP5 DUP6 DUP2 AND SWAP1 DUP2 PUSH0 EQ PUSH2 0x1DA9 JUMPI POP PUSH1 0x1 EQ PUSH2 0x1D69 JUMPI JUMPDEST POP POP PUSH2 0x1D67 SWAP3 POP SUB DUP4 PUSH2 0x1D0A JUMP JUMPDEST JUMP JUMPDEST SWAP1 SWAP4 SWAP2 POP PUSH0 MSTORE PUSH1 0x20 SWAP1 DUP2 PUSH0 KECCAK256 SWAP4 PUSH0 SWAP2 JUMPDEST DUP2 DUP4 LT PUSH2 0x1D91 JUMPI POP POP PUSH2 0x1D67 SWAP4 POP DUP3 ADD ADD PUSH0 DUP1 PUSH2 0x1D59 JUMP JUMPDEST DUP6 SLOAD DUP9 DUP5 ADD DUP6 ADD MSTORE SWAP5 DUP6 ADD SWAP5 DUP8 SWAP5 POP SWAP2 DUP4 ADD SWAP2 PUSH2 0x1D79 JUMP JUMPDEST SWAP2 POP POP PUSH2 0x1D67 SWAP5 POP PUSH1 0x20 SWAP3 POP PUSH1 0xFF NOT AND DUP3 DUP5 ADD MSTORE ISZERO ISZERO PUSH1 0x5 SHL DUP3 ADD ADD PUSH0 DUP1 PUSH2 0x1D59 JUMP JUMPDEST DUP2 PUSH1 0x1F DUP3 ADD SLT ISZERO PUSH2 0x26D JUMPI DUP1 CALLDATALOAD SWAP1 PUSH1 0x1 PUSH1 0x1 PUSH1 0x40 SHL SUB DUP3 GT PUSH2 0xAA9 JUMPI PUSH1 0x40 MLOAD SWAP3 PUSH2 0x1E00 PUSH1 0x1F DUP5 ADD PUSH1 0x1F NOT AND PUSH1 0x20 ADD DUP6 PUSH2 0x1D0A JUMP JUMPDEST DUP3 DUP5 MSTORE PUSH1 0x20 DUP4 DUP4 ADD ADD GT PUSH2 0x26D JUMPI DUP2 PUSH0 SWAP3 PUSH1 0x20 DUP1 SWAP4 ADD DUP4 DUP7 ADD CALLDATACOPY DUP4 ADD ADD MSTORE SWAP1 JUMP JUMPDEST PUSH1 0xC SLOAD DUP2 LT ISZERO PUSH2 0x1C4E JUMPI PUSH1 0x7 SWAP1 PUSH1 0xC PUSH0 MSTORE MUL PUSH32 0xDF6966C971051C3D54EC59162606531493A51404A002842F56009D7E5CF4A8C7 ADD SWAP1 PUSH0 SWAP1 JUMP JUMPDEST CALLER PUSH0 SWAP1 DUP2 MSTORE PUSH32 0x5156C5787DB8CB3319A1EA1D3D3C9FC3F8685EBE48D47F9D8EB5DC680BEB7023 PUSH1 0x20 MSTORE PUSH1 0x40 SWAP1 KECCAK256 SLOAD PUSH32 0x4B346D9AC223184C8768FAE9F0F9CC7825DD24F5BA7C8C677C34451BA15ECA64 SWAP1 PUSH1 0xFF AND ISZERO PUSH2 0x1EB5 JUMPI POP JUMP JUMPDEST PUSH1 0x44 SWAP1 PUSH1 0x40 MLOAD SWAP1 PUSH4 0xE2517D3F PUSH1 0xE0 SHL DUP3 MSTORE CALLER PUSH1 0x4 DUP4 ADD MSTORE PUSH1 0x24 DUP3 ADD MSTORE REVERT JUMPDEST CALLER PUSH0 SWAP1 DUP2 MSTORE PUSH32 0xC04886C9CED86FA4732E601744DAC02BAC838FDDB3FA03CE1EDA88644B9EDF6B PUSH1 0x20 MSTORE PUSH1 0x40 SWAP1 KECCAK256 SLOAD PUSH32 0xE497B4AD79A67650FCA774CF0812E4505F07DD6D87A3C1AFC29076CCC8BBCEFE SWAP1 PUSH1 0xFF AND ISZERO PUSH2 0x1EB5 JUMPI POP JUMP JUMPDEST CALLER PUSH0 SWAP1 DUP2 MSTORE PUSH32 0x79563398EDE65821E586930347C7BF645B17F9037C6BF4A0371B4966E6898469 PUSH1 0x20 MSTORE PUSH1 0x40 SWAP1 KECCAK256 SLOAD PUSH32 0x21702C8AF46127C7FA207F89D0B0A8441BB32959A0AC7DF790E9AB1A25C98926 SWAP1 PUSH1 0xFF AND ISZERO PUSH2 0x1EB5 JUMPI POP JUMP JUMPDEST DUP1 PUSH0 MSTORE PUSH1 0x5 PUSH1 0x20 MSTORE PUSH1 0x40 PUSH0 KECCAK256 CALLER PUSH0 MSTORE PUSH1 0x20 MSTORE PUSH1 0xFF PUSH1 0x40 PUSH0 KECCAK256 SLOAD AND ISZERO PUSH2 0x1EB5 JUMPI POP JUMP JUMPDEST SWAP1 PUSH0 SWAP2 DUP1 DUP4 MSTORE PUSH1 0x5 PUSH1 0x20 MSTORE PUSH1 0x40 DUP4 KECCAK256 SWAP2 PUSH1 0x1 DUP1 PUSH1 0xA0 SHL SUB AND SWAP2 DUP3 DUP5 MSTORE PUSH1 0x20 MSTORE PUSH1 0xFF PUSH1 0x40 DUP5 KECCAK256 SLOAD AND ISZERO PUSH0 EQ PUSH2 0x2024 JUMPI DUP1 DUP4 MSTORE PUSH1 0x5 PUSH1 0x20 MSTORE PUSH1 0x40 DUP4 KECCAK256 DUP3 DUP5 MSTORE PUSH1 0x20 MSTORE PUSH1 0x40 DUP4 KECCAK256 PUSH1 0x1 PUSH1 0xFF NOT DUP3 SLOAD AND OR SWAP1 SSTORE PUSH32 0x2F8788117E7EFF1D82E926EC794901D17C78024A50270940304540A733656F0D CALLER SWAP4 DUP1 LOG4 PUSH1 0x1 SWAP1 JUMP JUMPDEST POP POP SWAP1 JUMP JUMPDEST SWAP1 PUSH0 SWAP2 DUP1 DUP4 MSTORE PUSH1 0x5 PUSH1 0x20 MSTORE PUSH1 0x40 DUP4 KECCAK256 SWAP2 PUSH1 0x1 DUP1 PUSH1 0xA0 SHL SUB AND SWAP2 DUP3 DUP5 MSTORE PUSH1 0x20 MSTORE PUSH1 0xFF PUSH1 0x40 DUP5 KECCAK256 SLOAD AND PUSH0 EQ PUSH2 0x2024 JUMPI DUP1 DUP4 MSTORE PUSH1 0x5 PUSH1 0x20 MSTORE PUSH1 0x40 DUP4 KECCAK256 DUP3 DUP5 MSTORE PUSH1 0x20 MSTORE PUSH1 0x40 DUP4 KECCAK256 PUSH1 0xFF NOT DUP2 SLOAD AND SWAP1 SSTORE PUSH32 0xF6391F5C32D9C69D2A47EA670B442974B53935D1EDC7FD64EB21E047A839171B CALLER SWAP4 DUP1 LOG4 PUSH1 0x1 SWAP1 JUMP JUMPDEST SWAP2 PUSH1 0x1 PUSH1 0x1 PUSH1 0xA0 SHL SUB DUP1 DUP5 AND SWAP3 DUP4 ISZERO PUSH2 0x2149 JUMPI AND SWAP3 DUP4 ISZERO PUSH2 0x1771 JUMPI PUSH0 SWAP1 DUP4 DUP3 MSTORE DUP2 PUSH1 0x20 MSTORE PUSH1 0x40 DUP3 KECCAK256 SLOAD SWAP1 DUP4 DUP3 LT PUSH2 0x2117 JUMPI POP SWAP2 PUSH1 0x40 DUP3 DUP3 PUSH32 0xDDF252AD1BE2C89B69C2B068FC378DAA952BA7F163C4A11628F55A4DF523B3EF SWAP6 DUP8 PUSH1 0x20 SWAP7 MSTORE DUP3 DUP7 MSTORE SUB DUP3 DUP3 KECCAK256 SSTORE DUP7 DUP2 MSTORE KECCAK256 DUP2 DUP2 SLOAD ADD SWAP1 SSTORE PUSH1 0x40 MLOAD SWAP1 DUP2 MSTORE LOG3 JUMP JUMPDEST PUSH1 0x40 MLOAD PUSH4 0x391434E3 PUSH1 0xE2 SHL DUP2 MSTORE PUSH1 0x1 PUSH1 0x1 PUSH1 0xA0 SHL SUB SWAP2 SWAP1 SWAP2 AND PUSH1 0x4 DUP3 ADD MSTORE PUSH1 0x24 DUP2 ADD SWAP2 SWAP1 SWAP2 MSTORE PUSH1 0x44 DUP2 ADD DUP4 SWAP1 MSTORE PUSH1 0x64 SWAP1 REVERT JUMPDEST PUSH1 0x40 MLOAD PUSH4 0x4B637E8F PUSH1 0xE1 SHL DUP2 MSTORE PUSH0 PUSH1 0x4 DUP3 ADD MSTORE PUSH1 0x24 SWAP1 REVERT JUMPDEST PUSH0 NOT DUP2 EQ PUSH2 0x175D JUMPI PUSH1 0x1 ADD SWAP1 JUMP JUMPDEST DUP1 SLOAD PUSH1 0x1 PUSH1 0x40 SHL DUP2 LT ISZERO PUSH2 0xAA9 JUMPI PUSH2 0x218C SWAP2 PUSH1 0x1 DUP3 ADD DUP2 SSTORE PUSH2 0x1C39 JUMP JUMPDEST DUP2 SWAP3 SWAP2 SLOAD SWAP1 PUSH1 0x3 SHL SWAP2 DUP3 SHL SWAP2 PUSH0 NOT SWAP1 SHL NOT AND OR SWAP1 SSTORE JUMP JUMPDEST SWAP2 SWAP1 DUP3 SUB SWAP2 DUP3 GT PUSH2 0x175D JUMPI JUMP JUMPDEST PUSH1 0xFF PUSH1 0x6 SLOAD AND PUSH2 0x21BC JUMPI JUMP JUMPDEST PUSH1 0x40 MLOAD PUSH4 0xD93C0665 PUSH1 0xE0 SHL DUP2 MSTORE PUSH1 0x4 SWAP1 REVERT JUMPDEST ISZERO PUSH2 0x21D5 JUMPI JUMP JUMPDEST PUSH1 0x40 MLOAD PUSH3 0x461BCD PUSH1 0xE5 SHL DUP2 MSTORE PUSH1 0x20 PUSH1 0x4 DUP3 ADD MSTORE PUSH1 0xF PUSH1 0x24 DUP3 ADD MSTORE PUSH15 0x125B9D985B1A59081D195CDD081251 PUSH1 0x8A SHL PUSH1 0x44 DUP3 ADD MSTORE PUSH1 0x64 SWAP1 REVERT JUMPDEST ISZERO PUSH2 0x2213 JUMPI JUMP JUMPDEST PUSH1 0x40 MLOAD PUSH3 0x461BCD PUSH1 0xE5 SHL DUP2 MSTORE PUSH1 0x20 PUSH1 0x4 DUP3 ADD MSTORE PUSH1 0x16 PUSH1 0x24 DUP3 ADD MSTORE PUSH22 0x15195CDD08185B1C9958591E4818DBDB5C1B195D1959 PUSH1 0x52 SHL PUSH1 0x44 DUP3 ADD MSTORE PUSH1 0x64 SWAP1 REVERT JUMPDEST SWAP2 SWAP3 PUSH1 0x40 MLOAD SWAP4 PUSH2 0x2260 DUP6 PUSH2 0x1CD4 JUMP JUMPDEST PUSH1 0x1 DUP1 PUSH1 0xA0 SHL SUB DUP1 SWAP5 AND SWAP5 DUP6 DUP2 MSTORE PUSH1 0x20 SWAP5 DUP6 DUP3 ADD SWAP8 DUP6 DUP10 MSTORE PUSH1 0x40 DUP4 ADD SWAP9 DUP5 DUP11 MSTORE PUSH1 0x60 DUP5 ADD SWAP3 TIMESTAMP DUP5 MSTORE PUSH1 0x80 DUP6 ADD DUP8 DUP2 MSTORE DUP2 PUSH1 0xA0 DUP8 ADD SWAP5 AND SWAP12 DUP13 DUP6 MSTORE PUSH1 0xC0 DUP8 ADD SWAP6 PUSH0 SWAP2 DUP3 DUP9 MSTORE PUSH1 0xC SLOAD PUSH1 0x1 PUSH1 0x40 SHL DUP2 LT ISZERO PUSH2 0x249A JUMPI DUP1 PUSH1 0x1 PUSH2 0x22C3 SWAP3 ADD PUSH1 0xC SSTORE PUSH2 0x1E21 JUMP JUMPDEST SWAP10 SWAP1 SWAP10 PUSH2 0x2486 JUMPI DUP6 SWAP1 MLOAD AND SWAP6 PUSH12 0xFFFFFFFFFFFFFFFFFFFFFFFF PUSH1 0xA0 SHL SWAP7 DUP8 DUP12 SLOAD AND OR DUP11 SSTORE MLOAD PUSH1 0x1 DUP11 ADD SSTORE MLOAD PUSH1 0x2 DUP10 ADD SSTORE MLOAD PUSH1 0x3 DUP9 ADD SSTORE PUSH1 0x4 DUP8 ADD SWAP2 MLOAD SWAP1 DUP2 MLOAD SWAP2 PUSH1 0x1 PUSH1 0x1 PUSH1 0x40 SHL SUB DUP4 GT PUSH2 0x2472 JUMPI DUP13 PUSH2 0x231C DUP6 SLOAD PUSH2 0x1C9C JUMP JUMPDEST PUSH1 0x1F DUP2 GT PUSH2 0x242D JUMPI JUMPDEST POP POP DUP13 SWAP2 PUSH1 0x1F DUP5 GT PUSH1 0x1 EQ PUSH2 0x23AE JUMPI SWAP3 DUP1 PUSH2 0x239E SWAP12 SWAP10 SWAP7 SWAP4 PUSH0 DUP1 MLOAD PUSH1 0x20 PUSH2 0x26B8 DUP4 CODECOPY DUP2 MLOAD SWAP2 MSTORE SWAP16 SWAP15 SWAP14 SWAP12 SWAP10 SWAP7 SWAP4 PUSH1 0x6 SWAP10 SWAP7 SWAP3 PUSH2 0x23A3 JUMPI JUMPDEST POP POP DUP2 PUSH1 0x1 SHL SWAP2 PUSH0 NOT SWAP1 PUSH1 0x3 SHL SHR NOT AND OR SWAP1 SSTORE JUMPDEST PUSH1 0x5 DUP7 ADD SWAP3 MLOAD AND SWAP1 DUP3 SLOAD AND OR SWAP1 SSTORE MLOAD SWAP2 ADD SSTORE PUSH1 0x40 MLOAD SWAP5 DUP6 SWAP5 DUP6 MSTORE DUP5 ADD MSTORE PUSH1 0x60 PUSH1 0x40 DUP5 ADD MSTORE PUSH1 0x60 DUP4 ADD SWAP1 PUSH2 0x1B69 JUMP JUMPDEST SUB SWAP1 LOG3 JUMP JUMPDEST ADD MLOAD SWAP1 POP PUSH0 DUP1 PUSH2 0x235C JUMP JUMPDEST DUP5 DUP2 MSTORE DUP14 DUP2 KECCAK256 SWAP3 SWAP2 SWAP1 PUSH1 0x1F NOT DUP6 AND SWAP1 JUMPDEST DUP2 DUP2 LT PUSH2 0x2416 JUMPI POP SWAP4 PUSH2 0x239E SWAP12 SWAP10 SWAP7 SWAP4 PUSH0 DUP1 MLOAD PUSH1 0x20 PUSH2 0x26B8 DUP4 CODECOPY DUP2 MLOAD SWAP2 MSTORE SWAP16 SWAP15 SWAP14 SWAP12 SWAP10 SWAP7 SWAP4 PUSH1 0x1 SWAP4 DUP4 PUSH1 0x6 SWAP12 SWAP9 LT PUSH2 0x23FE JUMPI JUMPDEST POP POP POP DUP2 SHL ADD SWAP1 SSTORE PUSH2 0x2370 JUMP JUMPDEST ADD MLOAD PUSH0 NOT PUSH1 0xF8 DUP5 PUSH1 0x3 SHL AND SHR NOT AND SWAP1 SSTORE PUSH0 DUP1 DUP1 PUSH2 0x23F1 JUMP JUMPDEST SWAP3 SWAP4 DUP16 PUSH1 0x1 DUP2 SWAP3 DUP8 DUP7 ADD MLOAD DUP2 SSTORE ADD SWAP6 ADD SWAP4 ADD PUSH2 0x23BE JUMP JUMPDEST DUP6 DUP5 MSTORE DUP2 DUP5 KECCAK256 SWAP1 PUSH1 0x1F DUP7 ADD PUSH1 0x5 SHR DUP3 ADD SWAP3 DUP7 LT PUSH2 0x2468 JUMPI JUMPDEST PUSH1 0x1F ADD PUSH1 0x5 SHR ADD SWAP1 JUMPDEST DUP2 DUP2 LT PUSH2 0x245D JUMPI DUP15 SWAP2 POP PUSH2 0x2325 JUMP JUMPDEST DUP4 DUP2 SSTORE PUSH1 0x1 ADD PUSH2 0x244E JUMP JUMPDEST SWAP1 SWAP2 POP DUP2 SWAP1 PUSH2 0x2445 JUMP JUMPDEST PUSH4 0x4E487B71 PUSH1 0xE0 SHL DUP3 MSTORE PUSH1 0x41 PUSH1 0x4 MSTORE PUSH1 0x24 DUP3 REVERT JUMPDEST PUSH4 0x4E487B71 PUSH1 0xE0 SHL DUP5 MSTORE PUSH1 0x4 DUP5 SWAP1 MSTORE PUSH1 0x24 DUP5 REVERT JUMPDEST PUSH4 0x4E487B71 PUSH1 0xE0 SHL DUP5 MSTORE PUSH1 0x41 PUSH1 0x4 MSTORE PUSH1 0x24 DUP5 REVERT JUMPDEST SWAP5 SWAP4 SWAP3 SWAP1 SWAP2 PUSH1 0x40 MLOAD PUSH2 0x24BF DUP2 PUSH2 0x1CD4 JUMP JUMPDEST PUSH1 0x1 DUP1 PUSH1 0xA0 SHL SUB DUP1 SWAP8 AND SWAP6 DUP7 DUP3 MSTORE PUSH1 0x20 SWAP6 DUP7 DUP4 ADD DUP7 DUP2 MSTORE PUSH1 0x40 DUP5 ADD SWAP10 DUP6 DUP12 MSTORE PUSH1 0x60 DUP6 ADD TIMESTAMP DUP2 MSTORE PUSH1 0x80 DUP7 ADD SWAP1 DUP9 DUP3 MSTORE DUP3 PUSH1 0xA0 DUP9 ADD SWAP6 AND SWAP13 DUP14 DUP7 MSTORE PUSH1 0xC0 DUP9 ADD SWAP7 DUP8 MSTORE PUSH1 0xC SLOAD PUSH1 0x1 PUSH1 0x40 SHL DUP2 LT ISZERO PUSH2 0xAA9 JUMPI DUP1 PUSH1 0x1 PUSH2 0x251E SWAP3 ADD PUSH1 0xC SSTORE PUSH2 0x1E21 JUMP JUMPDEST SWAP9 SWAP1 SWAP9 PUSH2 0x26A4 JUMPI DUP5 SWAP1 MLOAD AND SWAP5 PUSH12 0xFFFFFFFFFFFFFFFFFFFFFFFF PUSH1 0xA0 SHL SWAP6 DUP7 DUP11 SLOAD AND OR DUP10 SSTORE MLOAD PUSH1 0x1 DUP10 ADD SSTORE MLOAD PUSH1 0x2 DUP9 ADD SSTORE MLOAD PUSH1 0x3 DUP8 ADD SSTORE PUSH1 0x4 DUP7 ADD SWAP1 MLOAD DUP1 MLOAD SWAP1 PUSH1 0x1 PUSH1 0x1 PUSH1 0x40 SHL SUB DUP3 GT PUSH2 0xAA9 JUMPI DUP12 PUSH2 0x2576 DUP5 SLOAD PUSH2 0x1C9C JUMP JUMPDEST PUSH1 0x1F DUP2 GT PUSH2 0x265C JUMPI JUMPDEST POP POP DUP12 SWAP1 PUSH1 0x1F DUP4 GT PUSH1 0x1 EQ PUSH2 0x25F6 JUMPI SWAP3 DUP3 PUSH1 0x6 SWAP7 SWAP4 PUSH2 0x239E SWAP12 SWAP10 SWAP7 SWAP4 PUSH0 DUP1 MLOAD PUSH1 0x20 PUSH2 0x26B8 DUP4 CODECOPY DUP2 MLOAD SWAP2 MSTORE SWAP16 SWAP15 SWAP14 SWAP12 SWAP10 SWAP7 PUSH0 SWAP3 PUSH2 0x23A3 JUMPI POP POP DUP2 PUSH1 0x1 SHL SWAP2 PUSH0 NOT SWAP1 PUSH1 0x3 SHL SHR NOT AND OR SWAP1 SSTORE PUSH1 0x5 DUP7 ADD SWAP3 MLOAD AND SWAP1 DUP3 SLOAD AND OR SWAP1 SSTORE MLOAD SWAP2 ADD SSTORE PUSH1 0x40 MLOAD SWAP5 DUP6 SWAP5 DUP6 MSTORE DUP5 ADD MSTORE PUSH1 0x60 PUSH1 0x40 DUP5 ADD MSTORE PUSH1 0x60 DUP4 ADD SWAP1 PUSH2 0x1B69 JUMP JUMPDEST SWAP1 PUSH1 0x1F NOT DUP4 AND SWAP2 DUP5 PUSH0 MSTORE DUP14 PUSH0 KECCAK256 SWAP3 PUSH0 JUMPDEST DUP2 DUP2 LT PUSH2 0x2645 JUMPI POP SWAP4 PUSH2 0x239E SWAP12 SWAP10 SWAP7 SWAP4 PUSH0 DUP1 MLOAD PUSH1 0x20 PUSH2 0x26B8 DUP4 CODECOPY DUP2 MLOAD SWAP2 MSTORE SWAP16 SWAP15 SWAP14 SWAP12 SWAP10 SWAP7 SWAP4 PUSH1 0x1 SWAP4 DUP4 PUSH1 0x6 SWAP12 SWAP9 LT PUSH2 0x23FE JUMPI POP POP POP DUP2 SHL ADD SWAP1 SSTORE PUSH2 0x2370 JUMP JUMPDEST SWAP3 SWAP4 DUP16 PUSH1 0x1 DUP2 SWAP3 DUP8 DUP7 ADD MLOAD DUP2 SSTORE ADD SWAP6 ADD SWAP4 ADD PUSH2 0x2606 JUMP JUMPDEST PUSH0 SWAP1 DUP6 DUP3 MSTORE DUP3 DUP3 KECCAK256 SWAP1 PUSH1 0x1F DUP7 ADD PUSH1 0x5 SHR DUP3 ADD SWAP4 DUP7 LT PUSH2 0x269A JUMPI JUMPDEST PUSH1 0x1F ADD PUSH1 0x5 SHR ADD SWAP2 JUMPDEST DUP3 DUP2 LT PUSH2 0x268F JUMPI POP DUP14 SWAP2 POP PUSH2 0x257F JUMP JUMPDEST DUP2 DUP2 SSTORE PUSH1 0x1 ADD PUSH2 0x267F JUMP JUMPDEST SWAP1 SWAP3 POP DUP3 SWAP1 PUSH2 0x2676 JUMP JUMPDEST PUSH4 0x4E487B71 PUSH1 0xE0 SHL PUSH0 MSTORE PUSH0 PUSH1 0x4 MSTORE PUSH1 0x24 PUSH0 REVERT INVALID 0xC7 SUB NOT PUSH1 0x55 EQ 0xC5 CALLDATASIZE DUP6 SWAP6 SWAP10 GAS 0xEF DIV 0xA7 BLOCKHASH RETURNDATACOPY SWAP1 0xEF 0xC6 SWAP2 0xD1 0xB9 SWAP1 PC CALL 0xE8 OR 0x24 SHR 0xBB 0xD8 LOG2 PUSH5 0x6970667358 0x22 SLT KECCAK256 0xB5 0x4F SGT NUMBER PUSH15 0xA1AF1F17187DA293986FFE7C3BAF1C SGT 0xDF DIV 0xD6 PUSH12 0xB9970EBC1E154E64736F6C63 NUMBER STOP ADDMOD EQ STOP CALLER 0x2F DUP8 DUP9 GT PUSH31 0x7EFF1D82E926EC794901D17C78024A50270940304540A733656F0D00000000 "},"methodIdentifiers":{"AUDITOR_ROLE()":"6e1d616e","CLINICAL_ADMIN_ROLE()":"8f37a90f","CLINICIAN_ROLE()":"a5817e13","DEFAULT_ADMIN_ROLE()":"a217fddf","VALIDATOR_ROLE()":"c49baebe","allowance(address,address)":"dd62ed3e","approve(address,uint256)":"095ea7b3","approveClinicalTest(uint256)":"65143195","auditTrail(uint256)":"ddaf0929","balanceOf(address)":"70a08231","clinicalTests(uint256)":"6f17c8b4","clinicianTests(address,uint256)":"4a3b17b1","completeClinicalTest(uint256)":"4e6f13d3","createClinicalTest(string,address,string,string,uint256)":"9a2e6b84","decimals()":"313ce567","getAuditRecord(uint256)":"783b8bd0","getAuditTrailLength()":"49270315","getClinicalTest(uint256)":"4417da29","getClinicianTests(address)":"b213cb9d","getPatientTests(address)":"5b2801a4","getRoleAdmin(bytes32)":"248a9ca3","grantRole(bytes32,address)":"2f2ff15d","hasRole(bytes32,address)":"91d14854","mint(address,uint256)":"40c10f19","name()":"06fdde03","patientTests(address,uint256)":"4a84e104","pause()":"8456cb59","paused()":"5c975abb","renounceRole(bytes32,address)":"36568abe","revokeRole(bytes32,address)":"d547741f","supportsInterface(bytes4)":"01ffc9a7","symbol()":"95d89b41","testTypeCount(string)":"b9f83801","totalClinicalTests()":"4f7f6831","totalSupply()":"18160ddd","transfer(address,uint256)":"a9059cbb","transferFrom(address,address,uint256)":"23b872dd","unpause()":"3f4ba83a","validateClinicalTest(uint256)":"cbf37100","validatedTests()":"b3649a7e"}}}}}