{"project/contracts/CTBALAnalytics.sol":{"CTBALAnalytics":{"abi":[{"inputs":[{"internalType":"address","name":"_ctbalToken","type":"address"}],"stateMutability":"nonpayable","type":"constructor"},{"inputs":[],"name":"AccessControlBadConfirmation","type":"error"},{"inputs":[{"internalType":"address","name":"account","type":"address"},{"internalType":"bytes32","name":"neededRole","type":"bytes32"}],"name":"AccessControlUnauthorizedAccount","type":"error"},{"inputs":[],"name":"ReentrancyGuardReentrantCall","type":"error"},{"anonymous":false,"inputs":[{"indexed":false,"internalType":"uint256","name":"timestamp","type":"uint256"},{"indexed":false,"internalType":"address","name":"updater","type":"address"}],"name":"MetricsUpdated","type":"event"},{"anonymous":false,"inputs":[{"indexed":true,"internalType":"bytes32","name":"role","type":"bytes32"},{"indexed":true,"internalType":"bytes32","name":"previousAdminRole","type":"bytes32"},{"indexed":true,"internalType":"bytes32","name":"newAdminRole","type":"bytes32"}],"name":"RoleAdminChanged","type":"event"},{"anonymous":false,"inputs":[{"indexed":true,"internalType":"bytes32","name":"role","type":"bytes32"},{"indexed":true,"internalType":"address","name":"account","type":"address"},{"indexed":true,"internalType":"address","name":"sender","type":"address"}],"name":"RoleGranted","type":"event"},{"anonymous":false,"inputs":[{"indexed":true,"internalType":"bytes32","name":"role","type":"bytes32"},{"indexed":true,"internalType":"address","name":"account","type":"address"},{"indexed":true,"internalType":"address","name":"sender","type":"address"}],"name":"RoleRevoked","type":"event"},{"anonymous":false,"inputs":[{"indexed":false,"internalType":"uint256","name":"timestamp","type":"uint256"},{"indexed":false,"internalType":"uint256","name":"testsCreated","type":"uint256"},{"indexed":false,"internalType":"uint256","name":"testsValidated","type":"uint256"}],"name":"TimeSeriesRecorded","type":"event"},{"inputs":[],"name":"ANALYST_ROLE","outputs":[{"internalType":"bytes32","name":"","type":"bytes32"}],"stateMutability":"view","type":"function"},{"inputs":[],"name":"DEFAULT_ADMIN_ROLE","outputs":[{"internalType":"bytes32","name":"","type":"bytes32"}],"stateMutability":"view","type":"function"},{"inputs":[],"name":"ctbalToken","outputs":[{"internalType":"contract CTBALToken","name":"","type":"address"}],"stateMutability":"view","type":"function"},{"inputs":[],"name":"getAllTestTypes","outputs":[{"internalType":"string[]","name":"","type":"string[]"}],"stateMutability":"view","type":"function"},{"inputs":[{"internalType":"address","name":"clinician","type":"address"}],"name":"getClinicianPerformance","outputs":[{"internalType":"uint256","name":"","type":"uint256"}],"stateMutability":"view","type":"function"},{"inputs":[],"name":"getCompletionRate","outputs":[{"internalType":"uint256","name":"","type":"uint256"}],"stateMutability":"view","type":"function"},{"inputs":[],"name":"getOverallMetrics","outputs":[{"internalType":"uint256","name":"totalTests","type":"uint256"},{"internalType":"uint256","name":"validatedTests","type":"uint256"},{"internalType":"uint256","name":"completedTests","type":"uint256"},{"internalType":"uint256","name":"totalTokensAllocated","type":"uint256"},{"internalType":"uint256","name":"totalTokensReleased","type":"uint256"}],"stateMutability":"view","type":"function"},{"inputs":[{"internalType":"address","name":"patient","type":"address"}],"name":"getPatientParticipation","outputs":[{"internalType":"uint256","name":"","type":"uint256"}],"stateMutability":"view","type":"function"},{"inputs":[{"internalType":"bytes32","name":"role","type":"bytes32"}],"name":"getRoleAdmin","outputs":[{"internalType":"bytes32","name":"","type":"bytes32"}],"stateMutability":"view","type":"function"},{"inputs":[{"internalType":"string","name":"testType","type":"string"}],"name":"getTestTypeMetrics","outputs":[{"internalType":"uint256","name":"","type":"uint256"}],"stateMutability":"view","type":"function"},{"inputs":[{"internalType":"uint256","name":"index","type":"uint256"}],"name":"getTimeSeriesData","outputs":[{"components":[{"internalType":"uint256","name":"timestamp","type":"uint256"},{"internalType":"uint256","name":"testsCreated","type":"uint256"},{"internalType":"uint256","name":"testsValidated","type":"uint256"},{"internalType":"uint256","name":"testsCompleted","type":"uint256"},{"internalType":"uint256","name":"tokensAllocated","type":"uint256"}],"internalType":"struct CTBALAnalytics.TimeSeriesData","name":"","type":"tuple"}],"stateMutability":"view","type":"function"},{"inputs":[],"name":"getTimeSeriesLength","outputs":[{"internalType":"uint256","name":"","type":"uint256"}],"stateMutability":"view","type":"function"},{"inputs":[],"name":"getValidationRate","outputs":[{"internalType":"uint256","name":"","type":"uint256"}],"stateMutability":"view","type":"function"},{"inputs":[{"internalType":"bytes32","name":"role","type":"bytes32"},{"internalType":"address","name":"account","type":"address"}],"name":"grantRole","outputs":[],"stateMutability":"nonpayable","type":"function"},{"inputs":[{"internalType":"bytes32","name":"role","type":"bytes32"},{"internalType":"address","name":"account","type":"address"}],"name":"hasRole","outputs":[{"internalType":"bool","name":"","type":"bool"}],"stateMutability":"view","type":"function"},{"inputs":[],"name":"metrics","outputs":[{"internalType":"uint256","name":"totalTests","type":"uint256"},{"internalType":"uint256","name":"validatedTests","type":"uint256"},{"internalType":"uint256","name":"completedTests","type":"uint256"},{"internalType":"uint256","name":"totalTokensAllocated","type":"uint256"},{"internalType":"uint256","name":"totalTokensReleased","type":"uint256"},{"internalType":"uint256","name":"averageTestDuration","type":"uint256"}],"stateMutability":"view","type":"function"},{"inputs":[{"internalType":"bytes32","name":"role","type":"bytes32"},{"internalType":"address","name":"callerConfirmation","type":"address"}],"name":"renounceRole","outputs":[],"stateMutability":"nonpayable","type":"function"},{"inputs":[{"internalType":"bytes32","name":"role","type":"bytes32"},{"internalType":"address","name":"account","type":"address"}],"name":"revokeRole","outputs":[],"stateMutability":"nonpayable","type":"function"},{"inputs":[{"internalType":"bytes4","name":"interfaceId","type":"bytes4"}],"name":"supportsInterface","outputs":[{"internalType":"bool","name":"","type":"bool"}],"stateMutability":"view","type":"function"},{"inputs":[{"internalType":"string","name":"","type":"string"}],"name":"testTypeExists","outputs":[{"internalType":"bool","name":"","type":"bool"}],"stateMutability":"view","type":"function"},{"inputs":[{"internalType":"uint256","name":"","type":"uint256"}],"name":"testTypes","outputs":[{"internalType":"string","name":"","type":"string"}],"stateMutability":"view","type":"function"},{"inputs":[{"internalType":"uint256","name":"","type":"uint256"}],"name":"timeSeriesData","outputs":[{"internalType":"uint256","name":"timestamp","type":"uint256"},{"internalType":"uint256","name":"testsCreated","type":"uint256"},{"internalType":"uint256","name":"testsValidated","type":"uint256"},{"internalType":"uint256","name":"testsCompleted","type":"uint256"},{"internalType":"uint256","name":"tokensAllocated","type":"uint256"}],"stateMutability":"view","type":"function"},{"inputs":[],"name":"updateMetrics","outputs":[],"stateMutability":"nonpayable","type":"function"}],"evm":{"bytecode":{"linkReferences":{},"object":"608060405234801562000010575f80fd5b50604051620015ca380380620015ca83398101604081905262000033916200013f565b60018055600280546001600160a01b0319166001600160a01b0383161790556200005e5f3362000093565b506200008b7f708c6b3a1a43063fcff2ed11fff0d3410f7a7ac561e651ec7a63ecde338f76723362000093565b50506200016e565b5f828152602081815260408083206001600160a01b038516845290915281205460ff1662000136575f838152602081815260408083206001600160a01b03861684529091529020805460ff19166001179055620000ed3390565b6001600160a01b0316826001600160a01b0316847f2f8788117e7eff1d82e926ec794901d17c78024a50270940304540a733656f0d60405160405180910390a450600162000139565b505f5b92915050565b5f6020828403121562000150575f80fd5b81516001600160a01b038116811462000167575f80fd5b9392505050565b61144e806200017c5f395ff3fe608060405234801561000f575f80fd5b5060043610610148575f3560e01c8063682b4860116100bf578063af89580011610079578063af8958001461033f578063bbbb0a8f14610367578063d547741f1461038e578063ddea88ff146103a1578063df527f01146103b4578063e205f3bf14610408575f80fd5b8063682b48601461027a5780638cb079db146102b257806391d14854146102ba578063a04748f6146102cd578063a217fddf14610318578063af07d6f31461031f575f80fd5b80632587cfe8116101105780632587cfe814610202578063283772741461020a5780632f2ff15d1461021257806336568abe146102275780633961498e1461023a5780635501e9c71461024f575f80fd5b806301ffc9a71461014c5780630cdaecc61461017457806319644f561461018a5780631c43f491146101b8578063248a9ca3146101e0575b5f80fd5b61015f61015a366004610e62565b61041b565b60405190151581526020015b60405180910390f35b61017c610451565b60405190815260200161016b565b61015f610198366004610efc565b8051602081830181018051600e8252928201919093012091525460ff1681565b61017c6101c6366004610f8a565b6001600160a01b03165f908152600b602052604090205490565b61017c6101ee366004610fa5565b5f9081526020819052604090206001015490565b600c5461017c565b61017c610481565b610225610220366004610fbc565b6104a2565b005b610225610235366004610fbc565b6104cc565b610242610504565b60405161016b9190611037565b600254610262906001600160a01b031681565b6040516001600160a01b03909116815260200161016b565b6003546004546005546006546007545b604080519586526020860194909452928401919091526060830152608082015260a00161016b565b6102256105d8565b61015f6102c8366004610fbc565b610ac9565b6003546004546005546006546007546008546102eb95949392919086565b604080519687526020870195909552938501929092526060840152608083015260a082015260c00161016b565b61017c5f81565b61033261032d366004610fa5565b610af1565b60405161016b9190611097565b61017c61034d366004610f8a565b6001600160a01b03165f908152600a602052604090205490565b61017c7f708c6b3a1a43063fcff2ed11fff0d3410f7a7ac561e651ec7a63ecde338f767281565b61022561039c366004610fbc565b610b97565b61028a6103af366004610fa5565b610bbb565b6103c76103c2366004610fa5565b610bfa565b60405161016b91905f60a082019050825182526020830151602083015260408301516040830152606083015160608301526080830151608083015292915050565b61017c610416366004610efc565b610ccf565b5f6001600160e01b03198216637965db0b60e01b148061044b57506301ffc9a760e01b6001600160e01b03198316145b92915050565b6003545f90810361046157505f90565b6003546005546104729060646110bd565b61047c91906110d4565b905090565b6003545f90810361049157505f90565b6003546004546104729060646110bd565b5f828152602081905260409020600101546104bc81610cf9565b6104c68383610d03565b50505050565b6001600160a01b03811633146104f55760405163334bd91960e11b815260040160405180910390fd5b6104ff8282610d92565b505050565b6060600d805480602002602001604051908101604052809291908181526020015f905b828210156105cf578382905f5260205f20018054610544906110f3565b80601f0160208091040260200160405190810160405280929190818152602001828054610570906110f3565b80156105bb5780601f10610592576101008083540402835291602001916105bb565b820191905f5260205f20905b81548152906001019060200180831161059e57829003601f168201915b505050505081526020019060010190610527565b50505050905090565b7f708c6b3a1a43063fcff2ed11fff0d3410f7a7ac561e651ec7a63ecde338f767261060281610cf9565b61060a610dfb565b60025460408051634f7f683160e01b815290515f926001600160a01b031691634f7f68319160048083019260209291908290030181865afa158015610651573d5f803e3d5ffd5b505050506040513d601f19601f82011682018060405250810190610675919061112b565b90505f60025f9054906101000a90046001600160a01b03166001600160a01b031663b3649a7e6040518163ffffffff1660e01b8152600401602060405180830381865afa1580156106c8573d5f803e3d5ffd5b505050506040513d601f19601f820116820180604052508101906106ec919061112b565b90505f8080808060015b87811161091057600254604051634417da2960e01b8152600481018390525f918291829182918291829182916001600160a01b031690634417da29906024015f60405180830381865afa15801561074f573d5f803e3d5ffd5b505050506040513d5f823e601f3d908101601f1916820160405261077691908101906111ab565b509950995099505050975097509750975050808c61079491906112a2565b9b5081156107de578c6107a6816112b5565b9d506107b49050818c6112a2565b9a505f6107c185426112cd565b90506107cd818c6112a2565b9a50896107d9816112b5565b9a5050505b600e876040516107ee91906112e0565b9081526040519081900360200190205460ff1661087457600d80546001810182555f919091527fd7b6990105719101dabeb77144f2a3385c8033acd3af97e9423a695e81ad1eb5016108408882611348565b506001600e8860405161085391906112e0565b908152604051908190036020019020805491151560ff199092169190911790555b6040516009906108859089906112e0565b9081526040519081900360200190208054905f6108a1836112b5565b90915550506001600160a01b0386165f908152600a602052604081208054916108c9836112b5565b90915550506001600160a01b0385165f908152600b602052604081208054916108f1836112b5565b9190505550505050505050508080610908906112b5565b9150506106f6565b5060038790556004869055600585905560068490556007839055801561093e5761093a81836110d4565b6008555b6040805160a0810182524280825260208083018b81528385018b8152606085018b8152608086018b8152600c80546001810182555f9190915296517fdf6966c971051c3d54ec59162606531493a51404a002842f56009d7e5cf4a8c760059098029788015592517fdf6966c971051c3d54ec59162606531493a51404a002842f56009d7e5cf4a8c887015590517fdf6966c971051c3d54ec59162606531493a51404a002842f56009d7e5cf4a8c9860155517fdf6966c971051c3d54ec59162606531493a51404a002842f56009d7e5cf4a8ca850155517fdf6966c971051c3d54ec59162606531493a51404a002842f56009d7e5cf4a8cb90930192909255825190815233918101919091527fc5fc980bb7ef8a93ef7973337803a4ef609c9df988d7f7b7967ffe8ada11ee65910160405180910390a160408051428152602081018990529081018790527fa6f0afa613569a5301ec725543afbd95bcc3d90ad5484654a60fe0af154a75bf9060600160405180910390a150505050505050610ac660018055565b50565b5f918252602082815260408084206001600160a01b0393909316845291905290205460ff1690565b600d8181548110610b00575f80fd5b905f5260205f20015f915090508054610b18906110f3565b80601f0160208091040260200160405190810160405280929190818152602001828054610b44906110f3565b8015610b8f5780601f10610b6657610100808354040283529160200191610b8f565b820191905f5260205f20905b815481529060010190602001808311610b7257829003601f168201915b505050505081565b5f82815260208190526040902060010154610bb181610cf9565b6104c68383610d92565b600c8181548110610bca575f80fd5b5f918252602090912060059091020180546001820154600283015460038401546004909401549294509092909185565b610c276040518060a001604052805f81526020015f81526020015f81526020015f81526020015f81525090565b600c548210610c6d5760405162461bcd60e51b815260206004820152600d60248201526c092dcecc2d8d2c840d2dcc8caf609b1b60448201526064015b60405180910390fd5b600c8281548110610c8057610c80611404565b905f5260205f2090600502016040518060a00160405290815f82015481526020016001820154815260200160028201548152602001600382015481526020016004820154815250509050919050565b5f600360060182604051610ce391906112e0565b9081526020016040518091039020549050919050565b610ac68133610e25565b5f610d0e8383610ac9565b610d8b575f838152602081815260408083206001600160a01b03861684529091529020805460ff19166001179055610d433390565b6001600160a01b0316826001600160a01b0316847f2f8788117e7eff1d82e926ec794901d17c78024a50270940304540a733656f0d60405160405180910390a450600161044b565b505f61044b565b5f610d9d8383610ac9565b15610d8b575f838152602081815260408083206001600160a01b0386168085529252808320805460ff1916905551339286917ff6391f5c32d9c69d2a47ea670b442974b53935d1edc7fd64eb21e047a839171b9190a450600161044b565b600260015403610e1e57604051633ee5aeb560e01b815260040160405180910390fd5b6002600155565b610e2f8282610ac9565b610e5e5760405163e2517d3f60e01b81526001600160a01b038216600482015260248101839052604401610c64565b5050565b5f60208284031215610e72575f80fd5b81356001600160e01b031981168114610e89575f80fd5b9392505050565b634e487b7160e01b5f52604160045260245ffd5b604051601f8201601f1916810167ffffffffffffffff81118282101715610ecd57610ecd610e90565b604052919050565b5f67ffffffffffffffff821115610eee57610eee610e90565b50601f01601f191660200190565b5f60208284031215610f0c575f80fd5b813567ffffffffffffffff811115610f22575f80fd5b8201601f81018413610f32575f80fd5b8035610f45610f4082610ed5565b610ea4565b818152856020838501011115610f59575f80fd5b816020840160208301375f91810160200191909152949350505050565b6001600160a01b0381168114610ac6575f80fd5b5f60208284031215610f9a575f80fd5b8135610e8981610f76565b5f60208284031215610fb5575f80fd5b5035919050565b5f8060408385031215610fcd575f80fd5b823591506020830135610fdf81610f76565b809150509250929050565b5f5b83811015611004578181015183820152602001610fec565b50505f910152565b5f8151808452611023816020860160208601610fea565b601f01601f19169290920160200192915050565b5f602080830181845280855180835260408601915060408160051b87010192508387015f5b8281101561108a57603f1988860301845261107885835161100c565b9450928501929085019060010161105c565b5092979650505050505050565b602081525f610e89602083018461100c565b634e487b7160e01b5f52601160045260245ffd5b808202811582820484141761044b5761044b6110a9565b5f826110ee57634e487b7160e01b5f52601260045260245ffd5b500490565b600181811c9082168061110757607f821691505b60208210810361112557634e487b7160e01b5f52602260045260245ffd5b50919050565b5f6020828403121561113b575f80fd5b5051919050565b5f82601f830112611151575f80fd5b815161115f610f4082610ed5565b818152846020838601011115611173575f80fd5b611184826020830160208701610fea565b949350505050565b805161119781610f76565b919050565b80518015158114611197575f80fd5b5f805f805f805f805f805f6101608c8e0312156111c6575f80fd5b8b519a5060208c015167ffffffffffffffff8111156111e3575f80fd5b6111ef8e828f01611142565b9a50506111fe60408d0161118c565b985061120c60608d0161118c565b975060808c0151965060a08c015167ffffffffffffffff81111561122e575f80fd5b61123a8e828f01611142565b96505060c08c015167ffffffffffffffff811115611256575f80fd5b6112628e828f01611142565b95505061127160e08d0161119c565b93506112806101008d0161119c565b92506101208c015191506101408c015190509295989b509295989b9093969950565b8082018082111561044b5761044b6110a9565b5f600182016112c6576112c66110a9565b5060010190565b8181038181111561044b5761044b6110a9565b5f82516112f1818460208701610fea565b9190910192915050565b601f8211156104ff575f81815260208120601f850160051c810160208610156113215750805b601f850160051c820191505b818110156113405782815560010161132d565b505050505050565b815167ffffffffffffffff81111561136257611362610e90565b6113768161137084546110f3565b846112fb565b602080601f8311600181146113a9575f84156113925750858301515b5f19600386901b1c1916600185901b178555611340565b5f85815260208120601f198616915b828110156113d7578886015182559484019460019091019084016113b8565b50858210156113f457878501515f19600388901b60f8161c191681555b5050505050600190811b01905550565b634e487b7160e01b5f52603260045260245ffdfea264697066735822122000c3afa200e429220e26022ecf40e94a966b7f55a5997117112efe4e61192d8564736f6c63430008140033","opcodes":"PUSH1 0x80 PUSH1 0x40 MSTORE CALLVALUE DUP1 ISZERO PUSH3 0x10 JUMPI PUSH0 DUP1 REVERT JUMPDEST POP PUSH1 0x40 MLOAD PUSH3 0x15CA CODESIZE SUB DUP1 PUSH3 0x15CA DUP4 CODECOPY DUP2 ADD PUSH1 0x40 DUP2 SWAP1 MSTORE PUSH3 0x33 SWAP2 PUSH3 0x13F JUMP JUMPDEST PUSH1 0x1 DUP1 SSTORE PUSH1 0x2 DUP1 SLOAD PUSH1 0x1 PUSH1 0x1 PUSH1 0xA0 SHL SUB NOT AND PUSH1 0x1 PUSH1 0x1 PUSH1 0xA0 SHL SUB DUP4 AND OR SWAP1 SSTORE PUSH3 0x5E PUSH0 CALLER PUSH3 0x93 JUMP JUMPDEST POP PUSH3 0x8B PUSH32 0x708C6B3A1A43063FCFF2ED11FFF0D3410F7A7AC561E651EC7A63ECDE338F7672 CALLER PUSH3 0x93 JUMP JUMPDEST POP POP PUSH3 0x16E JUMP JUMPDEST PUSH0 DUP3 DUP2 MSTORE PUSH1 0x20 DUP2 DUP2 MSTORE PUSH1 0x40 DUP1 DUP4 KECCAK256 PUSH1 0x1 PUSH1 0x1 PUSH1 0xA0 SHL SUB DUP6 AND DUP5 MSTORE SWAP1 SWAP2 MSTORE DUP2 KECCAK256 SLOAD PUSH1 0xFF AND PUSH3 0x136 JUMPI PUSH0 DUP4 DUP2 MSTORE PUSH1 0x20 DUP2 DUP2 MSTORE PUSH1 0x40 DUP1 DUP4 KECCAK256 PUSH1 0x1 PUSH1 0x1 PUSH1 0xA0 SHL SUB DUP7 AND DUP5 MSTORE SWAP1 SWAP2 MSTORE SWAP1 KECCAK256 DUP1 SLOAD PUSH1 0xFF NOT AND PUSH1 0x1 OR SWAP1 SSTORE PUSH3 0xED CALLER SWAP1 JUMP JUMPDEST PUSH1 0x1 PUSH1 0x1 PUSH1 0xA0 SHL SUB AND DUP3 PUSH1 0x1 PUSH1 0x1 PUSH1 0xA0 SHL SUB AND DUP5 PUSH32 0x2F8788117E7EFF1D82E926EC794901D17C78024A50270940304540A733656F0D PUSH1 0x40 MLOAD PUSH1 0x40 MLOAD DUP1 SWAP2 SUB SWAP1 LOG4 POP PUSH1 0x1 PUSH3 0x139 JUMP JUMPDEST POP PUSH0 JUMPDEST SWAP3 SWAP2 POP POP JUMP JUMPDEST PUSH0 PUSH1 0x20 DUP3 DUP5 SUB SLT ISZERO PUSH3 0x150 JUMPI PUSH0 DUP1 REVERT JUMPDEST DUP2 MLOAD PUSH1 0x1 PUSH1 0x1 PUSH1 0xA0 SHL SUB DUP2 AND DUP2 EQ PUSH3 0x167 JUMPI PUSH0 DUP1 REVERT JUMPDEST SWAP4 SWAP3 POP POP POP JUMP JUMPDEST PUSH2 0x144E DUP1 PUSH3 0x17C PUSH0 CODECOPY PUSH0 RETURN INVALID PUSH1 0x80 PUSH1 0x40 MSTORE CALLVALUE DUP1 ISZERO PUSH2 0xF JUMPI PUSH0 DUP1 REVERT JUMPDEST POP PUSH1 0x4 CALLDATASIZE LT PUSH2 0x148 JUMPI PUSH0 CALLDATALOAD PUSH1 0xE0 SHR DUP1 PUSH4 0x682B4860 GT PUSH2 0xBF JUMPI DUP1 PUSH4 0xAF895800 GT PUSH2 0x79 JUMPI DUP1 PUSH4 0xAF895800 EQ PUSH2 0x33F JUMPI DUP1 PUSH4 0xBBBB0A8F EQ PUSH2 0x367 JUMPI DUP1 PUSH4 0xD547741F EQ PUSH2 0x38E JUMPI DUP1 PUSH4 0xDDEA88FF EQ PUSH2 0x3A1 JUMPI DUP1 PUSH4 0xDF527F01 EQ PUSH2 0x3B4 JUMPI DUP1 PUSH4 0xE205F3BF EQ PUSH2 0x408 JUMPI PUSH0 DUP1 REVERT JUMPDEST DUP1 PUSH4 0x682B4860 EQ PUSH2 0x27A JUMPI DUP1 PUSH4 0x8CB079DB EQ PUSH2 0x2B2 JUMPI DUP1 PUSH4 0x91D14854 EQ PUSH2 0x2BA JUMPI DUP1 PUSH4 0xA04748F6 EQ PUSH2 0x2CD JUMPI DUP1 PUSH4 0xA217FDDF EQ PUSH2 0x318 JUMPI DUP1 PUSH4 0xAF07D6F3 EQ PUSH2 0x31F JUMPI PUSH0 DUP1 REVERT JUMPDEST DUP1 PUSH4 0x2587CFE8 GT PUSH2 0x110 JUMPI DUP1 PUSH4 0x2587CFE8 EQ PUSH2 0x202 JUMPI DUP1 PUSH4 0x28377274 EQ PUSH2 0x20A JUMPI DUP1 PUSH4 0x2F2FF15D EQ PUSH2 0x212 JUMPI DUP1 PUSH4 0x36568ABE EQ PUSH2 0x227 JUMPI DUP1 PUSH4 0x3961498E EQ PUSH2 0x23A JUMPI DUP1 PUSH4 0x5501E9C7 EQ PUSH2 0x24F JUMPI PUSH0 DUP1 REVERT JUMPDEST DUP1 PUSH4 0x1FFC9A7 EQ PUSH2 0x14C JUMPI DUP1 PUSH4 0xCDAECC6 EQ PUSH2 0x174 JUMPI DUP1 PUSH4 0x19644F56 EQ PUSH2 0x18A JUMPI DUP1 PUSH4 0x1C43F491 EQ PUSH2 0x1B8 JUMPI DUP1 PUSH4 0x248A9CA3 EQ PUSH2 0x1E0 JUMPI JUMPDEST PUSH0 DUP1 REVERT JUMPDEST PUSH2 0x15F PUSH2 0x15A CALLDATASIZE PUSH1 0x4 PUSH2 0xE62 JUMP JUMPDEST PUSH2 0x41B JUMP JUMPDEST PUSH1 0x40 MLOAD SWAP1 ISZERO ISZERO DUP2 MSTORE PUSH1 0x20 ADD JUMPDEST PUSH1 0x40 MLOAD DUP1 SWAP2 SUB SWAP1 RETURN JUMPDEST PUSH2 0x17C PUSH2 0x451 JUMP JUMPDEST PUSH1 0x40 MLOAD SWAP1 DUP2 MSTORE PUSH1 0x20 ADD PUSH2 0x16B JUMP JUMPDEST PUSH2 0x15F PUSH2 0x198 CALLDATASIZE PUSH1 0x4 PUSH2 0xEFC JUMP JUMPDEST DUP1 MLOAD PUSH1 0x20 DUP2 DUP4 ADD DUP2 ADD DUP1 MLOAD PUSH1 0xE DUP3 MSTORE SWAP3 DUP3 ADD SWAP2 SWAP1 SWAP4 ADD KECCAK256 SWAP2 MSTORE SLOAD PUSH1 0xFF AND DUP2 JUMP JUMPDEST PUSH2 0x17C PUSH2 0x1C6 CALLDATASIZE PUSH1 0x4 PUSH2 0xF8A JUMP JUMPDEST PUSH1 0x1 PUSH1 0x1 PUSH1 0xA0 SHL SUB AND PUSH0 SWAP1 DUP2 MSTORE PUSH1 0xB PUSH1 0x20 MSTORE PUSH1 0x40 SWAP1 KECCAK256 SLOAD SWAP1 JUMP JUMPDEST PUSH2 0x17C PUSH2 0x1EE CALLDATASIZE PUSH1 0x4 PUSH2 0xFA5 JUMP JUMPDEST PUSH0 SWAP1 DUP2 MSTORE PUSH1 0x20 DUP2 SWAP1 MSTORE PUSH1 0x40 SWAP1 KECCAK256 PUSH1 0x1 ADD SLOAD SWAP1 JUMP JUMPDEST PUSH1 0xC SLOAD PUSH2 0x17C JUMP JUMPDEST PUSH2 0x17C PUSH2 0x481 JUMP JUMPDEST PUSH2 0x225 PUSH2 0x220 CALLDATASIZE PUSH1 0x4 PUSH2 0xFBC JUMP JUMPDEST PUSH2 0x4A2 JUMP JUMPDEST STOP JUMPDEST PUSH2 0x225 PUSH2 0x235 CALLDATASIZE PUSH1 0x4 PUSH2 0xFBC JUMP JUMPDEST PUSH2 0x4CC JUMP JUMPDEST PUSH2 0x242 PUSH2 0x504 JUMP JUMPDEST PUSH1 0x40 MLOAD PUSH2 0x16B SWAP2 SWAP1 PUSH2 0x1037 JUMP JUMPDEST PUSH1 0x2 SLOAD PUSH2 0x262 SWAP1 PUSH1 0x1 PUSH1 0x1 PUSH1 0xA0 SHL SUB AND DUP2 JUMP JUMPDEST PUSH1 0x40 MLOAD PUSH1 0x1 PUSH1 0x1 PUSH1 0xA0 SHL SUB SWAP1 SWAP2 AND DUP2 MSTORE PUSH1 0x20 ADD PUSH2 0x16B JUMP JUMPDEST PUSH1 0x3 SLOAD PUSH1 0x4 SLOAD PUSH1 0x5 SLOAD PUSH1 0x6 SLOAD PUSH1 0x7 SLOAD JUMPDEST PUSH1 0x40 DUP1 MLOAD SWAP6 DUP7 MSTORE PUSH1 0x20 DUP7 ADD SWAP5 SWAP1 SWAP5 MSTORE SWAP3 DUP5 ADD SWAP2 SWAP1 SWAP2 MSTORE PUSH1 0x60 DUP4 ADD MSTORE PUSH1 0x80 DUP3 ADD MSTORE PUSH1 0xA0 ADD PUSH2 0x16B JUMP JUMPDEST PUSH2 0x225 PUSH2 0x5D8 JUMP JUMPDEST PUSH2 0x15F PUSH2 0x2C8 CALLDATASIZE PUSH1 0x4 PUSH2 0xFBC JUMP JUMPDEST PUSH2 0xAC9 JUMP JUMPDEST PUSH1 0x3 SLOAD PUSH1 0x4 SLOAD PUSH1 0x5 SLOAD PUSH1 0x6 SLOAD PUSH1 0x7 SLOAD PUSH1 0x8 SLOAD PUSH2 0x2EB SWAP6 SWAP5 SWAP4 SWAP3 SWAP2 SWAP1 DUP7 JUMP JUMPDEST PUSH1 0x40 DUP1 MLOAD SWAP7 DUP8 MSTORE PUSH1 0x20 DUP8 ADD SWAP6 SWAP1 SWAP6 MSTORE SWAP4 DUP6 ADD SWAP3 SWAP1 SWAP3 MSTORE PUSH1 0x60 DUP5 ADD MSTORE PUSH1 0x80 DUP4 ADD MSTORE PUSH1 0xA0 DUP3 ADD MSTORE PUSH1 0xC0 ADD PUSH2 0x16B JUMP JUMPDEST PUSH2 0x17C PUSH0 DUP2 JUMP JUMPDEST PUSH2 0x332 PUSH2 0x32D CALLDATASIZE PUSH1 0x4 PUSH2 0xFA5 JUMP JUMPDEST PUSH2 0xAF1 JUMP JUMPDEST PUSH1 0x40 MLOAD PUSH2 0x16B SWAP2 SWAP1 PUSH2 0x1097 JUMP JUMPDEST PUSH2 0x17C PUSH2 0x34D CALLDATASIZE PUSH1 0x4 PUSH2 0xF8A JUMP JUMPDEST PUSH1 0x1 PUSH1 0x1 PUSH1 0xA0 SHL SUB AND PUSH0 SWAP1 DUP2 MSTORE PUSH1 0xA PUSH1 0x20 MSTORE PUSH1 0x40 SWAP1 KECCAK256 SLOAD SWAP1 JUMP JUMPDEST PUSH2 0x17C PUSH32 0x708C6B3A1A43063FCFF2ED11FFF0D3410F7A7AC561E651EC7A63ECDE338F7672 DUP2 JUMP JUMPDEST PUSH2 0x225 PUSH2 0x39C CALLDATASIZE PUSH1 0x4 PUSH2 0xFBC JUMP JUMPDEST PUSH2 0xB97 JUMP JUMPDEST PUSH2 0x28A PUSH2 0x3AF CALLDATASIZE PUSH1 0x4 PUSH2 0xFA5 JUMP JUMPDEST PUSH2 0xBBB JUMP JUMPDEST PUSH2 0x3C7 PUSH2 0x3C2 CALLDATASIZE PUSH1 0x4 PUSH2 0xFA5 JUMP JUMPDEST PUSH2 0xBFA JUMP JUMPDEST PUSH1 0x40 MLOAD PUSH2 0x16B SWAP2 SWAP1 PUSH0 PUSH1 0xA0 DUP3 ADD SWAP1 POP DUP3 MLOAD DUP3 MSTORE PUSH1 0x20 DUP4 ADD MLOAD PUSH1 0x20 DUP4 ADD MSTORE PUSH1 0x40 DUP4 ADD MLOAD PUSH1 0x40 DUP4 ADD MSTORE PUSH1 0x60 DUP4 ADD MLOAD PUSH1 0x60 DUP4 ADD MSTORE PUSH1 0x80 DUP4 ADD MLOAD PUSH1 0x80 DUP4 ADD MSTORE SWAP3 SWAP2 POP POP JUMP JUMPDEST PUSH2 0x17C PUSH2 0x416 CALLDATASIZE PUSH1 0x4 PUSH2 0xEFC JUMP JUMPDEST PUSH2 0xCCF JUMP JUMPDEST PUSH0 PUSH1 0x1 PUSH1 0x1 PUSH1 0xE0 SHL SUB NOT DUP3 AND PUSH4 0x7965DB0B PUSH1 0xE0 SHL EQ DUP1 PUSH2 0x44B JUMPI POP PUSH4 0x1FFC9A7 PUSH1 0xE0 SHL PUSH1 0x1 PUSH1 0x1 PUSH1 0xE0 SHL SUB NOT DUP4 AND EQ JUMPDEST SWAP3 SWAP2 POP POP JUMP JUMPDEST PUSH1 0x3 SLOAD PUSH0 SWAP1 DUP2 SUB PUSH2 0x461 JUMPI POP PUSH0 SWAP1 JUMP JUMPDEST PUSH1 0x3 SLOAD PUSH1 0x5 SLOAD PUSH2 0x472 SWAP1 PUSH1 0x64 PUSH2 0x10BD JUMP JUMPDEST PUSH2 0x47C SWAP2 SWAP1 PUSH2 0x10D4 JUMP JUMPDEST SWAP1 POP SWAP1 JUMP JUMPDEST PUSH1 0x3 SLOAD PUSH0 SWAP1 DUP2 SUB PUSH2 0x491 JUMPI POP PUSH0 SWAP1 JUMP JUMPDEST PUSH1 0x3 SLOAD PUSH1 0x4 SLOAD PUSH2 0x472 SWAP1 PUSH1 0x64 PUSH2 0x10BD JUMP JUMPDEST PUSH0 DUP3 DUP2 MSTORE PUSH1 0x20 DUP2 SWAP1 MSTORE PUSH1 0x40 SWAP1 KECCAK256 PUSH1 0x1 ADD SLOAD PUSH2 0x4BC DUP2 PUSH2 0xCF9 JUMP JUMPDEST PUSH2 0x4C6 DUP4 DUP4 PUSH2 0xD03 JUMP JUMPDEST POP POP POP POP JUMP JUMPDEST PUSH1 0x1 PUSH1 0x1 PUSH1 0xA0 SHL SUB DUP2 AND CALLER EQ PUSH2 0x4F5 JUMPI PUSH1 0x40 MLOAD PUSH4 0x334BD919 PUSH1 0xE1 SHL DUP2 MSTORE PUSH1 0x4 ADD PUSH1 0x40 MLOAD DUP1 SWAP2 SUB SWAP1 REVERT JUMPDEST PUSH2 0x4FF DUP3 DUP3 PUSH2 0xD92 JUMP JUMPDEST POP POP POP JUMP JUMPDEST PUSH1 0x60 PUSH1 0xD DUP1 SLOAD DUP1 PUSH1 0x20 MUL PUSH1 0x20 ADD PUSH1 0x40 MLOAD SWAP1 DUP2 ADD PUSH1 0x40 MSTORE DUP1 SWAP3 SWAP2 SWAP1 DUP2 DUP2 MSTORE PUSH1 0x20 ADD PUSH0 SWAP1 JUMPDEST DUP3 DUP3 LT ISZERO PUSH2 0x5CF JUMPI DUP4 DUP3 SWAP1 PUSH0 MSTORE PUSH1 0x20 PUSH0 KECCAK256 ADD DUP1 SLOAD PUSH2 0x544 SWAP1 PUSH2 0x10F3 JUMP JUMPDEST DUP1 PUSH1 0x1F ADD PUSH1 0x20 DUP1 SWAP2 DIV MUL PUSH1 0x20 ADD PUSH1 0x40 MLOAD SWAP1 DUP2 ADD PUSH1 0x40 MSTORE DUP1 SWAP3 SWAP2 SWAP1 DUP2 DUP2 MSTORE PUSH1 0x20 ADD DUP3 DUP1 SLOAD PUSH2 0x570 SWAP1 PUSH2 0x10F3 JUMP JUMPDEST DUP1 ISZERO PUSH2 0x5BB JUMPI DUP1 PUSH1 0x1F LT PUSH2 0x592 JUMPI PUSH2 0x100 DUP1 DUP4 SLOAD DIV MUL DUP4 MSTORE SWAP2 PUSH1 0x20 ADD SWAP2 PUSH2 0x5BB JUMP JUMPDEST DUP3 ADD SWAP2 SWAP1 PUSH0 MSTORE PUSH1 0x20 PUSH0 KECCAK256 SWAP1 JUMPDEST DUP2 SLOAD DUP2 MSTORE SWAP1 PUSH1 0x1 ADD SWAP1 PUSH1 0x20 ADD DUP1 DUP4 GT PUSH2 0x59E JUMPI DUP3 SWAP1 SUB PUSH1 0x1F AND DUP3 ADD SWAP2 JUMPDEST POP POP POP POP POP DUP2 MSTORE PUSH1 0x20 ADD SWAP1 PUSH1 0x1 ADD SWAP1 PUSH2 0x527 JUMP JUMPDEST POP POP POP POP SWAP1 POP SWAP1 JUMP JUMPDEST PUSH32 0x708C6B3A1A43063FCFF2ED11FFF0D3410F7A7AC561E651EC7A63ECDE338F7672 PUSH2 0x602 DUP2 PUSH2 0xCF9 JUMP JUMPDEST PUSH2 0x60A PUSH2 0xDFB JUMP JUMPDEST PUSH1 0x2 SLOAD PUSH1 0x40 DUP1 MLOAD PUSH4 0x4F7F6831 PUSH1 0xE0 SHL DUP2 MSTORE SWAP1 MLOAD PUSH0 SWAP3 PUSH1 0x1 PUSH1 0x1 PUSH1 0xA0 SHL SUB AND SWAP2 PUSH4 0x4F7F6831 SWAP2 PUSH1 0x4 DUP1 DUP4 ADD SWAP3 PUSH1 0x20 SWAP3 SWAP2 SWAP1 DUP3 SWAP1 SUB ADD DUP2 DUP7 GAS STATICCALL ISZERO DUP1 ISZERO PUSH2 0x651 JUMPI RETURNDATASIZE PUSH0 DUP1 RETURNDATACOPY RETURNDATASIZE PUSH0 REVERT JUMPDEST POP POP POP POP PUSH1 0x40 MLOAD RETURNDATASIZE PUSH1 0x1F NOT PUSH1 0x1F DUP3 ADD AND DUP3 ADD DUP1 PUSH1 0x40 MSTORE POP DUP2 ADD SWAP1 PUSH2 0x675 SWAP2 SWAP1 PUSH2 0x112B JUMP JUMPDEST SWAP1 POP PUSH0 PUSH1 0x2 PUSH0 SWAP1 SLOAD SWAP1 PUSH2 0x100 EXP SWAP1 DIV PUSH1 0x1 PUSH1 0x1 PUSH1 0xA0 SHL SUB AND PUSH1 0x1 PUSH1 0x1 PUSH1 0xA0 SHL SUB AND PUSH4 0xB3649A7E PUSH1 0x40 MLOAD DUP2 PUSH4 0xFFFFFFFF AND PUSH1 0xE0 SHL DUP2 MSTORE PUSH1 0x4 ADD PUSH1 0x20 PUSH1 0x40 MLOAD DUP1 DUP4 SUB DUP2 DUP7 GAS STATICCALL ISZERO DUP1 ISZERO PUSH2 0x6C8 JUMPI RETURNDATASIZE PUSH0 DUP1 RETURNDATACOPY RETURNDATASIZE PUSH0 REVERT JUMPDEST POP POP POP POP PUSH1 0x40 MLOAD RETURNDATASIZE PUSH1 0x1F NOT PUSH1 0x1F DUP3 ADD AND DUP3 ADD DUP1 PUSH1 0x40 MSTORE POP DUP2 ADD SWAP1 PUSH2 0x6EC SWAP2 SWAP1 PUSH2 0x112B JUMP JUMPDEST SWAP1 POP PUSH0 DUP1 DUP1 DUP1 DUP1 PUSH1 0x1 JUMPDEST DUP8 DUP2 GT PUSH2 0x910 JUMPI PUSH1 0x2 SLOAD PUSH1 0x40 MLOAD PUSH4 0x4417DA29 PUSH1 0xE0 SHL DUP2 MSTORE PUSH1 0x4 DUP2 ADD DUP4 SWAP1 MSTORE PUSH0 SWAP2 DUP3 SWAP2 DUP3 SWAP2 DUP3 SWAP2 DUP3 SWAP2 DUP3 SWAP2 DUP3 SWAP2 PUSH1 0x1 PUSH1 0x1 PUSH1 0xA0 SHL SUB AND SWAP1 PUSH4 0x4417DA29 SWAP1 PUSH1 0x24 ADD PUSH0 PUSH1 0x40 MLOAD DUP1 DUP4 SUB DUP2 DUP7 GAS STATICCALL ISZERO DUP1 ISZERO PUSH2 0x74F JUMPI RETURNDATASIZE PUSH0 DUP1 RETURNDATACOPY RETURNDATASIZE PUSH0 REVERT JUMPDEST POP POP POP POP PUSH1 0x40 MLOAD RETURNDATASIZE PUSH0 DUP3 RETURNDATACOPY PUSH1 0x1F RETURNDATASIZE SWAP1 DUP2 ADD PUSH1 0x1F NOT AND DUP3 ADD PUSH1 0x40 MSTORE PUSH2 0x776 SWAP2 SWAP1 DUP2 ADD SWAP1 PUSH2 0x11AB JUMP JUMPDEST POP SWAP10 POP SWAP10 POP SWAP10 POP POP POP SWAP8 POP SWAP8 POP SWAP8 POP SWAP8 POP POP DUP1 DUP13 PUSH2 0x794 SWAP2 SWAP1 PUSH2 0x12A2 JUMP JUMPDEST SWAP12 POP DUP2 ISZERO PUSH2 0x7DE JUMPI DUP13 PUSH2 0x7A6 DUP2 PUSH2 0x12B5 JUMP JUMPDEST SWAP14 POP PUSH2 0x7B4 SWAP1 POP DUP2 DUP13 PUSH2 0x12A2 JUMP JUMPDEST SWAP11 POP PUSH0 PUSH2 0x7C1 DUP6 TIMESTAMP PUSH2 0x12CD JUMP JUMPDEST SWAP1 POP PUSH2 0x7CD DUP2 DUP13 PUSH2 0x12A2 JUMP JUMPDEST SWAP11 POP DUP10 PUSH2 0x7D9 DUP2 PUSH2 0x12B5 JUMP JUMPDEST SWAP11 POP POP POP JUMPDEST PUSH1 0xE DUP8 PUSH1 0x40 MLOAD PUSH2 0x7EE SWAP2 SWAP1 PUSH2 0x12E0 JUMP JUMPDEST SWAP1 DUP2 MSTORE PUSH1 0x40 MLOAD SWAP1 DUP2 SWAP1 SUB PUSH1 0x20 ADD SWAP1 KECCAK256 SLOAD PUSH1 0xFF AND PUSH2 0x874 JUMPI PUSH1 0xD DUP1 SLOAD PUSH1 0x1 DUP2 ADD DUP3 SSTORE PUSH0 SWAP2 SWAP1 SWAP2 MSTORE PUSH32 0xD7B6990105719101DABEB77144F2A3385C8033ACD3AF97E9423A695E81AD1EB5 ADD PUSH2 0x840 DUP9 DUP3 PUSH2 0x1348 JUMP JUMPDEST POP PUSH1 0x1 PUSH1 0xE DUP9 PUSH1 0x40 MLOAD PUSH2 0x853 SWAP2 SWAP1 PUSH2 0x12E0 JUMP JUMPDEST SWAP1 DUP2 MSTORE PUSH1 0x40 MLOAD SWAP1 DUP2 SWAP1 SUB PUSH1 0x20 ADD SWAP1 KECCAK256 DUP1 SLOAD SWAP2 ISZERO ISZERO PUSH1 0xFF NOT SWAP1 SWAP3 AND SWAP2 SWAP1 SWAP2 OR SWAP1 SSTORE JUMPDEST PUSH1 0x40 MLOAD PUSH1 0x9 SWAP1 PUSH2 0x885 SWAP1 DUP10 SWAP1 PUSH2 0x12E0 JUMP JUMPDEST SWAP1 DUP2 MSTORE PUSH1 0x40 MLOAD SWAP1 DUP2 SWAP1 SUB PUSH1 0x20 ADD SWAP1 KECCAK256 DUP1 SLOAD SWAP1 PUSH0 PUSH2 0x8A1 DUP4 PUSH2 0x12B5 JUMP JUMPDEST SWAP1 SWAP2 SSTORE POP POP PUSH1 0x1 PUSH1 0x1 PUSH1 0xA0 SHL SUB DUP7 AND PUSH0 SWAP1 DUP2 MSTORE PUSH1 0xA PUSH1 0x20 MSTORE PUSH1 0x40 DUP2 KECCAK256 DUP1 SLOAD SWAP2 PUSH2 0x8C9 DUP4 PUSH2 0x12B5 JUMP JUMPDEST SWAP1 SWAP2 SSTORE POP POP PUSH1 0x1 PUSH1 0x1 PUSH1 0xA0 SHL SUB DUP6 AND PUSH0 SWAP1 DUP2 MSTORE PUSH1 0xB PUSH1 0x20 MSTORE PUSH1 0x40 DUP2 KECCAK256 DUP1 SLOAD SWAP2 PUSH2 0x8F1 DUP4 PUSH2 0x12B5 JUMP JUMPDEST SWAP2 SWAP1 POP SSTORE POP POP POP POP POP POP POP POP DUP1 DUP1 PUSH2 0x908 SWAP1 PUSH2 0x12B5 JUMP JUMPDEST SWAP2 POP POP PUSH2 0x6F6 JUMP JUMPDEST POP PUSH1 0x3 DUP8 SWAP1 SSTORE PUSH1 0x4 DUP7 SWAP1 SSTORE PUSH1 0x5 DUP6 SWAP1 SSTORE PUSH1 0x6 DUP5 SWAP1 SSTORE PUSH1 0x7 DUP4 SWAP1 SSTORE DUP1 ISZERO PUSH2 0x93E JUMPI PUSH2 0x93A DUP2 DUP4 PUSH2 0x10D4 JUMP JUMPDEST PUSH1 0x8 SSTORE JUMPDEST PUSH1 0x40 DUP1 MLOAD PUSH1 0xA0 DUP2 ADD DUP3 MSTORE TIMESTAMP DUP1 DUP3 MSTORE PUSH1 0x20 DUP1 DUP4 ADD DUP12 DUP2 MSTORE DUP4 DUP6 ADD DUP12 DUP2 MSTORE PUSH1 0x60 DUP6 ADD DUP12 DUP2 MSTORE PUSH1 0x80 DUP7 ADD DUP12 DUP2 MSTORE PUSH1 0xC DUP1 SLOAD PUSH1 0x1 DUP2 ADD DUP3 SSTORE PUSH0 SWAP2 SWAP1 SWAP2 MSTORE SWAP7 MLOAD PUSH32 0xDF6966C971051C3D54EC59162606531493A51404A002842F56009D7E5CF4A8C7 PUSH1 0x5 SWAP1 SWAP9 MUL SWAP8 DUP9 ADD SSTORE SWAP3 MLOAD PUSH32 0xDF6966C971051C3D54EC59162606531493A51404A002842F56009D7E5CF4A8C8 DUP8 ADD SSTORE SWAP1 MLOAD PUSH32 0xDF6966C971051C3D54EC59162606531493A51404A002842F56009D7E5CF4A8C9 DUP7 ADD SSTORE MLOAD PUSH32 0xDF6966C971051C3D54EC59162606531493A51404A002842F56009D7E5CF4A8CA DUP6 ADD SSTORE MLOAD PUSH32 0xDF6966C971051C3D54EC59162606531493A51404A002842F56009D7E5CF4A8CB SWAP1 SWAP4 ADD SWAP3 SWAP1 SWAP3 SSTORE DUP3 MLOAD SWAP1 DUP2 MSTORE CALLER SWAP2 DUP2 ADD SWAP2 SWAP1 SWAP2 MSTORE PUSH32 0xC5FC980BB7EF8A93EF7973337803A4EF609C9DF988D7F7B7967FFE8ADA11EE65 SWAP2 ADD PUSH1 0x40 MLOAD DUP1 SWAP2 SUB SWAP1 LOG1 PUSH1 0x40 DUP1 MLOAD TIMESTAMP DUP2 MSTORE PUSH1 0x20 DUP2 ADD DUP10 SWAP1 MSTORE SWAP1 DUP2 ADD DUP8 SWAP1 MSTORE PUSH32 0xA6F0AFA613569A5301EC725543AFBD95BCC3D90AD5484654A60FE0AF154A75BF SWAP1 PUSH1 0x60 ADD PUSH1 0x40 MLOAD DUP1 SWAP2 SUB SWAP1 LOG1 POP POP POP POP POP POP POP PUSH2 0xAC6 PUSH1 0x1 DUP1 SSTORE JUMP JUMPDEST POP JUMP JUMPDEST PUSH0 SWAP2 DUP3 MSTORE PUSH1 0x20 DUP3 DUP2 MSTORE PUSH1 0x40 DUP1 DUP5 KECCAK256 PUSH1 0x1 PUSH1 0x1 PUSH1 0xA0 SHL SUB SWAP4 SWAP1 SWAP4 AND DUP5 MSTORE SWAP2 SWAP1 MSTORE SWAP1 KECCAK256 SLOAD PUSH1 0xFF AND SWAP1 JUMP JUMPDEST PUSH1 0xD DUP2 DUP2 SLOAD DUP2 LT PUSH2 0xB00 JUMPI PUSH0 DUP1 REVERT JUMPDEST SWAP1 PUSH0 MSTORE PUSH1 0x20 PUSH0 KECCAK256 ADD PUSH0 SWAP2 POP SWAP1 POP DUP1 SLOAD PUSH2 0xB18 SWAP1 PUSH2 0x10F3 JUMP JUMPDEST DUP1 PUSH1 0x1F ADD PUSH1 0x20 DUP1 SWAP2 DIV MUL PUSH1 0x20 ADD PUSH1 0x40 MLOAD SWAP1 DUP2 ADD PUSH1 0x40 MSTORE DUP1 SWAP3 SWAP2 SWAP1 DUP2 DUP2 MSTORE PUSH1 0x20 ADD DUP3 DUP1 SLOAD PUSH2 0xB44 SWAP1 PUSH2 0x10F3 JUMP JUMPDEST DUP1 ISZERO PUSH2 0xB8F JUMPI DUP1 PUSH1 0x1F LT PUSH2 0xB66 JUMPI PUSH2 0x100 DUP1 DUP4 SLOAD DIV MUL DUP4 MSTORE SWAP2 PUSH1 0x20 ADD SWAP2 PUSH2 0xB8F JUMP JUMPDEST DUP3 ADD SWAP2 SWAP1 PUSH0 MSTORE PUSH1 0x20 PUSH0 KECCAK256 SWAP1 JUMPDEST DUP2 SLOAD DUP2 MSTORE SWAP1 PUSH1 0x1 ADD SWAP1 PUSH1 0x20 ADD DUP1 DUP4 GT PUSH2 0xB72 JUMPI DUP3 SWAP1 SUB PUSH1 0x1F AND DUP3 ADD SWAP2 JUMPDEST POP POP POP POP POP DUP2 JUMP JUMPDEST PUSH0 DUP3 DUP2 MSTORE PUSH1 0x20 DUP2 SWAP1 MSTORE PUSH1 0x40 SWAP1 KECCAK256 PUSH1 0x1 ADD SLOAD PUSH2 0xBB1 DUP2 PUSH2 0xCF9 JUMP JUMPDEST PUSH2 0x4C6 DUP4 DUP4 PUSH2 0xD92 JUMP JUMPDEST PUSH1 0xC DUP2 DUP2 SLOAD DUP2 LT PUSH2 0xBCA JUMPI PUSH0 DUP1 REVERT JUMPDEST PUSH0 SWAP2 DUP3 MSTORE PUSH1 0x20 SWAP1 SWAP2 KECCAK256 PUSH1 0x5 SWAP1 SWAP2 MUL ADD DUP1 SLOAD PUSH1 0x1 DUP3 ADD SLOAD PUSH1 0x2 DUP4 ADD SLOAD PUSH1 0x3 DUP5 ADD SLOAD PUSH1 0x4 SWAP1 SWAP5 ADD SLOAD SWAP3 SWAP5 POP SWAP1 SWAP3 SWAP1 SWAP2 DUP6 JUMP JUMPDEST PUSH2 0xC27 PUSH1 0x40 MLOAD DUP1 PUSH1 0xA0 ADD PUSH1 0x40 MSTORE DUP1 PUSH0 DUP2 MSTORE PUSH1 0x20 ADD PUSH0 DUP2 MSTORE PUSH1 0x20 ADD PUSH0 DUP2 MSTORE PUSH1 0x20 ADD PUSH0 DUP2 MSTORE PUSH1 0x20 ADD PUSH0 DUP2 MSTORE POP SWAP1 JUMP JUMPDEST PUSH1 0xC SLOAD DUP3 LT PUSH2 0xC6D JUMPI PUSH1 0x40 MLOAD PUSH3 0x461BCD PUSH1 0xE5 SHL DUP2 MSTORE PUSH1 0x20 PUSH1 0x4 DUP3 ADD MSTORE PUSH1 0xD PUSH1 0x24 DUP3 ADD MSTORE PUSH13 0x92DCECC2D8D2C840D2DCC8CAF PUSH1 0x9B SHL PUSH1 0x44 DUP3 ADD MSTORE PUSH1 0x64 ADD JUMPDEST PUSH1 0x40 MLOAD DUP1 SWAP2 SUB SWAP1 REVERT JUMPDEST PUSH1 0xC DUP3 DUP2 SLOAD DUP2 LT PUSH2 0xC80 JUMPI PUSH2 0xC80 PUSH2 0x1404 JUMP JUMPDEST SWAP1 PUSH0 MSTORE PUSH1 0x20 PUSH0 KECCAK256 SWAP1 PUSH1 0x5 MUL ADD PUSH1 0x40 MLOAD DUP1 PUSH1 0xA0 ADD PUSH1 0x40 MSTORE SWAP1 DUP2 PUSH0 DUP3 ADD SLOAD DUP2 MSTORE PUSH1 0x20 ADD PUSH1 0x1 DUP3 ADD SLOAD DUP2 MSTORE PUSH1 0x20 ADD PUSH1 0x2 DUP3 ADD SLOAD DUP2 MSTORE PUSH1 0x20 ADD PUSH1 0x3 DUP3 ADD SLOAD DUP2 MSTORE PUSH1 0x20 ADD PUSH1 0x4 DUP3 ADD SLOAD DUP2 MSTORE POP POP SWAP1 POP SWAP2 SWAP1 POP JUMP JUMPDEST PUSH0 PUSH1 0x3 PUSH1 0x6 ADD DUP3 PUSH1 0x40 MLOAD PUSH2 0xCE3 SWAP2 SWAP1 PUSH2 0x12E0 JUMP JUMPDEST SWAP1 DUP2 MSTORE PUSH1 0x20 ADD PUSH1 0x40 MLOAD DUP1 SWAP2 SUB SWAP1 KECCAK256 SLOAD SWAP1 POP SWAP2 SWAP1 POP JUMP JUMPDEST PUSH2 0xAC6 DUP2 CALLER PUSH2 0xE25 JUMP JUMPDEST PUSH0 PUSH2 0xD0E DUP4 DUP4 PUSH2 0xAC9 JUMP JUMPDEST PUSH2 0xD8B JUMPI PUSH0 DUP4 DUP2 MSTORE PUSH1 0x20 DUP2 DUP2 MSTORE PUSH1 0x40 DUP1 DUP4 KECCAK256 PUSH1 0x1 PUSH1 0x1 PUSH1 0xA0 SHL SUB DUP7 AND DUP5 MSTORE SWAP1 SWAP2 MSTORE SWAP1 KECCAK256 DUP1 SLOAD PUSH1 0xFF NOT AND PUSH1 0x1 OR SWAP1 SSTORE PUSH2 0xD43 CALLER SWAP1 JUMP JUMPDEST PUSH1 0x1 PUSH1 0x1 PUSH1 0xA0 SHL SUB AND DUP3 PUSH1 0x1 PUSH1 0x1 PUSH1 0xA0 SHL SUB AND DUP5 PUSH32 0x2F8788117E7EFF1D82E926EC794901D17C78024A50270940304540A733656F0D PUSH1 0x40 MLOAD PUSH1 0x40 MLOAD DUP1 SWAP2 SUB SWAP1 LOG4 POP PUSH1 0x1 PUSH2 0x44B JUMP JUMPDEST POP PUSH0 PUSH2 0x44B JUMP JUMPDEST PUSH0 PUSH2 0xD9D DUP4 DUP4 PUSH2 0xAC9 JUMP JUMPDEST ISZERO PUSH2 0xD8B JUMPI PUSH0 DUP4 DUP2 MSTORE PUSH1 0x20 DUP2 DUP2 MSTORE PUSH1 0x40 DUP1 DUP4 KECCAK256 PUSH1 0x1 PUSH1 0x1 PUSH1 0xA0 SHL SUB DUP7 AND DUP1 DUP6 MSTORE SWAP3 MSTORE DUP1 DUP4 KECCAK256 DUP1 SLOAD PUSH1 0xFF NOT AND SWAP1 SSTORE MLOAD CALLER SWAP3 DUP7 SWAP2 PUSH32 0xF6391F5C32D9C69D2A47EA670B442974B53935D1EDC7FD64EB21E047A839171B SWAP2 SWAP1 LOG4 POP PUSH1 0x1 PUSH2 0x44B JUMP JUMPDEST PUSH1 0x2 PUSH1 0x1 SLOAD SUB PUSH2 0xE1E JUMPI PUSH1 0x40 MLOAD PUSH4 0x3EE5AEB5 PUSH1 0xE0 SHL DUP2 MSTORE PUSH1 0x4 ADD PUSH1 0x40 MLOAD DUP1 SWAP2 SUB SWAP1 REVERT JUMPDEST PUSH1 0x2 PUSH1 0x1 SSTORE JUMP JUMPDEST PUSH2 0xE2F DUP3 DUP3 PUSH2 0xAC9 JUMP JUMPDEST PUSH2 0xE5E JUMPI PUSH1 0x40 MLOAD PUSH4 0xE2517D3F PUSH1 0xE0 SHL DUP2 MSTORE PUSH1 0x1 PUSH1 0x1 PUSH1 0xA0 SHL SUB DUP3 AND PUSH1 0x4 DUP3 ADD MSTORE PUSH1 0x24 DUP2 ADD DUP4 SWAP1 MSTORE PUSH1 0x44 ADD PUSH2 0xC64 JUMP JUMPDEST POP POP JUMP JUMPDEST PUSH0 PUSH1 0x20 DUP3 DUP5 SUB SLT ISZERO PUSH2 0xE72 JUMPI PUSH0 DUP1 REVERT JUMPDEST DUP2 CALLDATALOAD PUSH1 0x1 PUSH1 0x1 PUSH1 0xE0 SHL SUB NOT DUP2 AND DUP2 EQ PUSH2 0xE89 JUMPI PUSH0 DUP1 REVERT JUMPDEST SWAP4 SWAP3 POP POP POP JUMP JUMPDEST PUSH4 0x4E487B71 PUSH1 0xE0 SHL PUSH0 MSTORE PUSH1 0x41 PUSH1 0x4 MSTORE PUSH1 0x24 PUSH0 REVERT JUMPDEST PUSH1 0x40 MLOAD PUSH1 0x1F DUP3 ADD PUSH1 0x1F NOT AND DUP2 ADD PUSH8 0xFFFFFFFFFFFFFFFF DUP2 GT DUP3 DUP3 LT OR ISZERO PUSH2 0xECD JUMPI PUSH2 0xECD PUSH2 0xE90 JUMP JUMPDEST PUSH1 0x40 MSTORE SWAP2 SWAP1 POP JUMP JUMPDEST PUSH0 PUSH8 0xFFFFFFFFFFFFFFFF DUP3 GT ISZERO PUSH2 0xEEE JUMPI PUSH2 0xEEE PUSH2 0xE90 JUMP JUMPDEST POP PUSH1 0x1F ADD PUSH1 0x1F NOT AND PUSH1 0x20 ADD SWAP1 JUMP JUMPDEST PUSH0 PUSH1 0x20 DUP3 DUP5 SUB SLT ISZERO PUSH2 0xF0C JUMPI PUSH0 DUP1 REVERT JUMPDEST DUP2 CALLDATALOAD PUSH8 0xFFFFFFFFFFFFFFFF DUP2 GT ISZERO PUSH2 0xF22 JUMPI PUSH0 DUP1 REVERT JUMPDEST DUP3 ADD PUSH1 0x1F DUP2 ADD DUP5 SGT PUSH2 0xF32 JUMPI PUSH0 DUP1 REVERT JUMPDEST DUP1 CALLDATALOAD PUSH2 0xF45 PUSH2 0xF40 DUP3 PUSH2 0xED5 JUMP JUMPDEST PUSH2 0xEA4 JUMP JUMPDEST DUP2 DUP2 MSTORE DUP6 PUSH1 0x20 DUP4 DUP6 ADD ADD GT ISZERO PUSH2 0xF59 JUMPI PUSH0 DUP1 REVERT JUMPDEST DUP2 PUSH1 0x20 DUP5 ADD PUSH1 0x20 DUP4 ADD CALLDATACOPY PUSH0 SWAP2 DUP2 ADD PUSH1 0x20 ADD SWAP2 SWAP1 SWAP2 MSTORE SWAP5 SWAP4 POP POP POP POP JUMP JUMPDEST PUSH1 0x1 PUSH1 0x1 PUSH1 0xA0 SHL SUB DUP2 AND DUP2 EQ PUSH2 0xAC6 JUMPI PUSH0 DUP1 REVERT JUMPDEST PUSH0 PUSH1 0x20 DUP3 DUP5 SUB SLT ISZERO PUSH2 0xF9A JUMPI PUSH0 DUP1 REVERT JUMPDEST DUP2 CALLDATALOAD PUSH2 0xE89 DUP2 PUSH2 0xF76 JUMP JUMPDEST PUSH0 PUSH1 0x20 DUP3 DUP5 SUB SLT ISZERO PUSH2 0xFB5 JUMPI PUSH0 DUP1 REVERT JUMPDEST POP CALLDATALOAD SWAP2 SWAP1 POP JUMP JUMPDEST PUSH0 DUP1 PUSH1 0x40 DUP4 DUP6 SUB SLT ISZERO PUSH2 0xFCD JUMPI PUSH0 DUP1 REVERT JUMPDEST DUP3 CALLDATALOAD SWAP2 POP PUSH1 0x20 DUP4 ADD CALLDATALOAD PUSH2 0xFDF DUP2 PUSH2 0xF76 JUMP JUMPDEST DUP1 SWAP2 POP POP SWAP3 POP SWAP3 SWAP1 POP JUMP JUMPDEST PUSH0 JUMPDEST DUP4 DUP2 LT ISZERO PUSH2 0x1004 JUMPI DUP2 DUP2 ADD MLOAD DUP4 DUP3 ADD MSTORE PUSH1 0x20 ADD PUSH2 0xFEC JUMP JUMPDEST POP POP PUSH0 SWAP2 ADD MSTORE JUMP JUMPDEST PUSH0 DUP2 MLOAD DUP1 DUP5 MSTORE PUSH2 0x1023 DUP2 PUSH1 0x20 DUP7 ADD PUSH1 0x20 DUP7 ADD PUSH2 0xFEA JUMP JUMPDEST PUSH1 0x1F ADD PUSH1 0x1F NOT AND SWAP3 SWAP1 SWAP3 ADD PUSH1 0x20 ADD SWAP3 SWAP2 POP POP JUMP JUMPDEST PUSH0 PUSH1 0x20 DUP1 DUP4 ADD DUP2 DUP5 MSTORE DUP1 DUP6 MLOAD DUP1 DUP4 MSTORE PUSH1 0x40 DUP7 ADD SWAP2 POP PUSH1 0x40 DUP2 PUSH1 0x5 SHL DUP8 ADD ADD SWAP3 POP DUP4 DUP8 ADD PUSH0 JUMPDEST DUP3 DUP2 LT ISZERO PUSH2 0x108A JUMPI PUSH1 0x3F NOT DUP9 DUP7 SUB ADD DUP5 MSTORE PUSH2 0x1078 DUP6 DUP4 MLOAD PUSH2 0x100C JUMP JUMPDEST SWAP5 POP SWAP3 DUP6 ADD SWAP3 SWAP1 DUP6 ADD SWAP1 PUSH1 0x1 ADD PUSH2 0x105C JUMP JUMPDEST POP SWAP3 SWAP8 SWAP7 POP POP POP POP POP POP POP JUMP JUMPDEST PUSH1 0x20 DUP2 MSTORE PUSH0 PUSH2 0xE89 PUSH1 0x20 DUP4 ADD DUP5 PUSH2 0x100C JUMP JUMPDEST PUSH4 0x4E487B71 PUSH1 0xE0 SHL PUSH0 MSTORE PUSH1 0x11 PUSH1 0x4 MSTORE PUSH1 0x24 PUSH0 REVERT JUMPDEST DUP1 DUP3 MUL DUP2 ISZERO DUP3 DUP3 DIV DUP5 EQ OR PUSH2 0x44B JUMPI PUSH2 0x44B PUSH2 0x10A9 JUMP JUMPDEST PUSH0 DUP3 PUSH2 0x10EE JUMPI PUSH4 0x4E487B71 PUSH1 0xE0 SHL PUSH0 MSTORE PUSH1 0x12 PUSH1 0x4 MSTORE PUSH1 0x24 PUSH0 REVERT JUMPDEST POP DIV SWAP1 JUMP JUMPDEST PUSH1 0x1 DUP2 DUP2 SHR SWAP1 DUP3 AND DUP1 PUSH2 0x1107 JUMPI PUSH1 0x7F DUP3 AND SWAP2 POP JUMPDEST PUSH1 0x20 DUP3 LT DUP2 SUB PUSH2 0x1125 JUMPI PUSH4 0x4E487B71 PUSH1 0xE0 SHL PUSH0 MSTORE PUSH1 0x22 PUSH1 0x4 MSTORE PUSH1 0x24 PUSH0 REVERT JUMPDEST POP SWAP2 SWAP1 POP JUMP JUMPDEST PUSH0 PUSH1 0x20 DUP3 DUP5 SUB SLT ISZERO PUSH2 0x113B JUMPI PUSH0 DUP1 REVERT JUMPDEST POP MLOAD SWAP2 SWAP1 POP JUMP JUMPDEST PUSH0 DUP3 PUSH1 0x1F DUP4 ADD SLT PUSH2 0x1151 JUMPI PUSH0 DUP1 REVERT JUMPDEST DUP2 MLOAD PUSH2 0x115F PUSH2 0xF40 DUP3 PUSH2 0xED5 JUMP JUMPDEST DUP2 DUP2 MSTORE DUP5 PUSH1 0x20 DUP4 DUP7 ADD ADD GT ISZERO PUSH2 0x1173 JUMPI PUSH0 DUP1 REVERT JUMPDEST PUSH2 0x1184 DUP3 PUSH1 0x20 DUP4 ADD PUSH1 0x20 DUP8 ADD PUSH2 0xFEA JUMP JUMPDEST SWAP5 SWAP4 POP POP POP POP JUMP JUMPDEST DUP1 MLOAD PUSH2 0x1197 DUP2 PUSH2 0xF76 JUMP JUMPDEST SWAP2 SWAP1 POP JUMP JUMPDEST DUP1 MLOAD DUP1 ISZERO ISZERO DUP2 EQ PUSH2 0x1197 JUMPI PUSH0 DUP1 REVERT JUMPDEST PUSH0 DUP1 PUSH0 DUP1 PUSH0 DUP1 PUSH0 DUP1 PUSH0 DUP1 PUSH0 PUSH2 0x160 DUP13 DUP15 SUB SLT ISZERO PUSH2 0x11C6 JUMPI PUSH0 DUP1 REVERT JUMPDEST DUP12 MLOAD SWAP11 POP PUSH1 0x20 DUP13 ADD MLOAD PUSH8 0xFFFFFFFFFFFFFFFF DUP2 GT ISZERO PUSH2 0x11E3 JUMPI PUSH0 DUP1 REVERT JUMPDEST PUSH2 0x11EF DUP15 DUP3 DUP16 ADD PUSH2 0x1142 JUMP JUMPDEST SWAP11 POP POP PUSH2 0x11FE PUSH1 0x40 DUP14 ADD PUSH2 0x118C JUMP JUMPDEST SWAP9 POP PUSH2 0x120C PUSH1 0x60 DUP14 ADD PUSH2 0x118C JUMP JUMPDEST SWAP8 POP PUSH1 0x80 DUP13 ADD MLOAD SWAP7 POP PUSH1 0xA0 DUP13 ADD MLOAD PUSH8 0xFFFFFFFFFFFFFFFF DUP2 GT ISZERO PUSH2 0x122E JUMPI PUSH0 DUP1 REVERT JUMPDEST PUSH2 0x123A DUP15 DUP3 DUP16 ADD PUSH2 0x1142 JUMP JUMPDEST SWAP7 POP POP PUSH1 0xC0 DUP13 ADD MLOAD PUSH8 0xFFFFFFFFFFFFFFFF DUP2 GT ISZERO PUSH2 0x1256 JUMPI PUSH0 DUP1 REVERT JUMPDEST PUSH2 0x1262 DUP15 DUP3 DUP16 ADD PUSH2 0x1142 JUMP JUMPDEST SWAP6 POP POP PUSH2 0x1271 PUSH1 0xE0 DUP14 ADD PUSH2 0x119C JUMP JUMPDEST SWAP4 POP PUSH2 0x1280 PUSH2 0x100 DUP14 ADD PUSH2 0x119C JUMP JUMPDEST SWAP3 POP PUSH2 0x120 DUP13 ADD MLOAD SWAP2 POP PUSH2 0x140 DUP13 ADD MLOAD SWAP1 POP SWAP3 SWAP6 SWAP9 SWAP12 POP SWAP3 SWAP6 SWAP9 SWAP12 SWAP1 SWAP4 SWAP7 SWAP10 POP JUMP JUMPDEST DUP1 DUP3 ADD DUP1 DUP3 GT ISZERO PUSH2 0x44B JUMPI PUSH2 0x44B PUSH2 0x10A9 JUMP JUMPDEST PUSH0 PUSH1 0x1 DUP3 ADD PUSH2 0x12C6 JUMPI PUSH2 0x12C6 PUSH2 0x10A9 JUMP JUMPDEST POP PUSH1 0x1 ADD SWAP1 JUMP JUMPDEST DUP2 DUP2 SUB DUP2 DUP2 GT ISZERO PUSH2 0x44B JUMPI PUSH2 0x44B PUSH2 0x10A9 JUMP JUMPDEST PUSH0 DUP3 MLOAD PUSH2 0x12F1 DUP2 DUP5 PUSH1 0x20 DUP8 ADD PUSH2 0xFEA JUMP JUMPDEST SWAP2 SWAP1 SWAP2 ADD SWAP3 SWAP2 POP POP JUMP JUMPDEST PUSH1 0x1F DUP3 GT ISZERO PUSH2 0x4FF JUMPI PUSH0 DUP2 DUP2 MSTORE PUSH1 0x20 DUP2 KECCAK256 PUSH1 0x1F DUP6 ADD PUSH1 0x5 SHR DUP2 ADD PUSH1 0x20 DUP7 LT ISZERO PUSH2 0x1321 JUMPI POP DUP1 JUMPDEST PUSH1 0x1F DUP6 ADD PUSH1 0x5 SHR DUP3 ADD SWAP2 POP JUMPDEST DUP2 DUP2 LT ISZERO PUSH2 0x1340 JUMPI DUP3 DUP2 SSTORE PUSH1 0x1 ADD PUSH2 0x132D JUMP JUMPDEST POP POP POP POP POP POP JUMP JUMPDEST DUP2 MLOAD PUSH8 0xFFFFFFFFFFFFFFFF DUP2 GT ISZERO PUSH2 0x1362 JUMPI PUSH2 0x1362 PUSH2 0xE90 JUMP JUMPDEST PUSH2 0x1376 DUP2 PUSH2 0x1370 DUP5 SLOAD PUSH2 0x10F3 JUMP JUMPDEST DUP5 PUSH2 0x12FB JUMP JUMPDEST PUSH1 0x20 DUP1 PUSH1 0x1F DUP4 GT PUSH1 0x1 DUP2 EQ PUSH2 0x13A9 JUMPI PUSH0 DUP5 ISZERO PUSH2 0x1392 JUMPI POP DUP6 DUP4 ADD MLOAD JUMPDEST PUSH0 NOT PUSH1 0x3 DUP7 SWAP1 SHL SHR NOT AND PUSH1 0x1 DUP6 SWAP1 SHL OR DUP6 SSTORE PUSH2 0x1340 JUMP JUMPDEST PUSH0 DUP6 DUP2 MSTORE PUSH1 0x20 DUP2 KECCAK256 PUSH1 0x1F NOT DUP7 AND SWAP2 JUMPDEST DUP3 DUP2 LT ISZERO PUSH2 0x13D7 JUMPI DUP9 DUP7 ADD MLOAD DUP3 SSTORE SWAP5 DUP5 ADD SWAP5 PUSH1 0x1 SWAP1 SWAP2 ADD SWAP1 DUP5 ADD PUSH2 0x13B8 JUMP JUMPDEST POP DUP6 DUP3 LT ISZERO PUSH2 0x13F4 JUMPI DUP8 DUP6 ADD MLOAD PUSH0 NOT PUSH1 0x3 DUP9 SWAP1 SHL PUSH1 0xF8 AND SHR NOT AND DUP2 SSTORE JUMPDEST POP POP POP POP POP PUSH1 0x1 SWAP1 DUP2 SHL ADD SWAP1 SSTORE POP JUMP JUMPDEST PUSH4 0x4E487B71 PUSH1 0xE0 SHL PUSH0 MSTORE PUSH1 0x32 PUSH1 0x4 MSTORE PUSH1 0x24 PUSH0 REVERT INVALID LOG2 PUSH5 0x6970667358 0x22 SLT KECCAK256 STOP 0xC3 0xAF LOG2 STOP 0xE4 0x29 0x22 0xE 0x26 MUL 0x2E 0xCF BLOCKHASH 0xE9 0x4A SWAP7 PUSH12 0x7F55A5997117112EFE4E6119 0x2D DUP6 PUSH5 0x736F6C6343 STOP ADDMOD EQ STOP CALLER "},"methodIdentifiers":{"ANALYST_ROLE()":"bbbb0a8f","DEFAULT_ADMIN_ROLE()":"a217fddf","ctbalToken()":"5501e9c7","getAllTestTypes()":"3961498e","getClinicianPerformance(address)":"af895800","getCompletionRate()":"0cdaecc6","getOverallMetrics()":"682b4860","getPatientParticipation(address)":"1c43f491","getRoleAdmin(bytes32)":"248a9ca3","getTestTypeMetrics(string)":"e205f3bf","getTimeSeriesData(uint256)":"df527f01","getTimeSeriesLength()":"2587cfe8","getValidationRate()":"28377274","grantRole(bytes32,address)":"2f2ff15d","hasRole(bytes32,address)":"91d14854","metrics()":"a04748f6","renounceRole(bytes32,address)":"36568abe","revokeRole(bytes32,address)":"d547741f","supportsInterface(bytes4)":"01ffc9a7","testTypeExists(string)":"19644f56","testTypes(uint256)":"af07d6f3","timeSeriesData(uint256)":"ddea88ff","updateMetrics()":"8cb079db"}}}}}