{"project/contracts/CTBALAnalytics.sol":{"CTBALAnalytics":{"abi":[{"inputs":[{"internalType":"address","name":"_ctbalToken","type":"address"}],"stateMutability":"nonpayable","type":"constructor"},{"inputs":[],"name":"AccessControlBadConfirmation","type":"error"},{"inputs":[{"internalType":"address","name":"account","type":"address"},{"internalType":"bytes32","name":"neededRole","type":"bytes32"}],"name":"AccessControlUnauthorizedAccount","type":"error"},{"inputs":[],"name":"ReentrancyGuardReentrantCall","type":"error"},{"anonymous":false,"inputs":[{"indexed":false,"internalType":"uint256","name":"timestamp","type":"uint256"},{"indexed":false,"internalType":"address","name":"updater","type":"address"}],"name":"MetricsUpdated","type":"event"},{"anonymous":false,"inputs":[{"indexed":true,"internalType":"bytes32","name":"role","type":"bytes32"},{"indexed":true,"internalType":"bytes32","name":"previousAdminRole","type":"bytes32"},{"indexed":true,"internalType":"bytes32","name":"newAdminRole","type":"bytes32"}],"name":"RoleAdminChanged","type":"event"},{"anonymous":false,"inputs":[{"indexed":true,"internalType":"bytes32","name":"role","type":"bytes32"},{"indexed":true,"internalType":"address","name":"account","type":"address"},{"indexed":true,"internalType":"address","name":"sender","type":"address"}],"name":"RoleGranted","type":"event"},{"anonymous":false,"inputs":[{"indexed":true,"internalType":"bytes32","name":"role","type":"bytes32"},{"indexed":true,"internalType":"address","name":"account","type":"address"},{"indexed":true,"internalType":"address","name":"sender","type":"address"}],"name":"RoleRevoked","type":"event"},{"anonymous":false,"inputs":[{"indexed":false,"internalType":"uint256","name":"timestamp","type":"uint256"},{"indexed":false,"internalType":"uint256","name":"testsCreated","type":"uint256"},{"indexed":false,"internalType":"uint256","name":"testsValidated","type":"uint256"}],"name":"TimeSeriesRecorded","type":"event"},{"inputs":[],"name":"ANALYST_ROLE","outputs":[{"internalType":"bytes32","name":"","type":"bytes32"}],"stateMutability":"view","type":"function"},{"inputs":[],"name":"DEFAULT_ADMIN_ROLE","outputs":[{"internalType":"bytes32","name":"","type":"bytes32"}],"stateMutability":"view","type":"function"},{"inputs":[],"name":"ctbalToken","outputs":[{"internalType":"contract CTBALToken","name":"","type":"address"}],"stateMutability":"view","type":"function"},{"inputs":[],"name":"getAllTestTypes","outputs":[{"internalType":"string[]","name":"","type":"string[]"}],"stateMutability":"view","type":"function"},{"inputs":[{"internalType":"address","name":"clinician","type":"address"}],"name":"getClinicianPerformance","outputs":[{"internalType":"uint256","name":"","type":"uint256"}],"stateMutability":"view","type":"function"},{"inputs":[],"name":"getCompletionRate","outputs":[{"internalType":"uint256","name":"","type":"uint256"}],"stateMutability":"view","type":"function"},{"inputs":[],"name":"getOverallMetrics","outputs":[{"internalType":"uint256","name":"totalTests","type":"uint256"},{"internalType":"uint256","name":"validatedTests","type":"uint256"},{"internalType":"uint256","name":"completedTests","type":"uint256"},{"internalType":"uint256","name":"totalTokensAllocated","type":"uint256"},{"internalType":"uint256","name":"totalTokensReleased","type":"uint256"}],"stateMutability":"view","type":"function"},{"inputs":[{"internalType":"address","name":"patient","type":"address"}],"name":"getPatientParticipation","outputs":[{"internalType":"uint256","name":"","type":"uint256"}],"stateMutability":"view","type":"function"},{"inputs":[{"internalType":"bytes32","name":"role","type":"bytes32"}],"name":"getRoleAdmin","outputs":[{"internalType":"bytes32","name":"","type":"bytes32"}],"stateMutability":"view","type":"function"},{"inputs":[{"internalType":"string","name":"testType","type":"string"}],"name":"getTestTypeMetrics","outputs":[{"internalType":"uint256","name":"","type":"uint256"}],"stateMutability":"view","type":"function"},{"inputs":[{"internalType":"uint256","name":"index","type":"uint256"}],"name":"getTimeSeriesData","outputs":[{"components":[{"internalType":"uint256","name":"timestamp","type":"uint256"},{"internalType":"uint256","name":"testsCreated","type":"uint256"},{"internalType":"uint256","name":"testsValidated","type":"uint256"},{"internalType":"uint256","name":"testsCompleted","type":"uint256"},{"internalType":"uint256","name":"tokensAllocated","type":"uint256"}],"internalType":"struct CTBALAnalytics.TimeSeriesData","name":"","type":"tuple"}],"stateMutability":"view","type":"function"},{"inputs":[],"name":"getTimeSeriesLength","outputs":[{"internalType":"uint256","name":"","type":"uint256"}],"stateMutability":"view","type":"function"},{"inputs":[],"name":"getValidationRate","outputs":[{"internalType":"uint256","name":"","type":"uint256"}],"stateMutability":"view","type":"function"},{"inputs":[{"internalType":"bytes32","name":"role","type":"bytes32"},{"internalType":"address","name":"account","type":"address"}],"name":"grantRole","outputs":[],"stateMutability":"nonpayable","type":"function"},{"inputs":[{"internalType":"bytes32","name":"role","type":"bytes32"},{"internalType":"address","name":"account","type":"address"}],"name":"hasRole","outputs":[{"internalType":"bool","name":"","type":"bool"}],"stateMutability":"view","type":"function"},{"inputs":[],"name":"metrics","outputs":[{"internalType":"uint256","name":"totalTests","type":"uint256"},{"internalType":"uint256","name":"validatedTests","type":"uint256"},{"internalType":"uint256","name":"completedTests","type":"uint256"},{"internalType":"uint256","name":"totalTokensAllocated","type":"uint256"},{"internalType":"uint256","name":"totalTokensReleased","type":"uint256"},{"internalType":"uint256","name":"averageTestDuration","type":"uint256"}],"stateMutability":"view","type":"function"},{"inputs":[{"internalType":"bytes32","name":"role","type":"bytes32"},{"internalType":"address","name":"callerConfirmation","type":"address"}],"name":"renounceRole","outputs":[],"stateMutability":"nonpayable","type":"function"},{"inputs":[{"internalType":"bytes32","name":"role","type":"bytes32"},{"internalType":"address","name":"account","type":"address"}],"name":"revokeRole","outputs":[],"stateMutability":"nonpayable","type":"function"},{"inputs":[{"internalType":"bytes4","name":"interfaceId","type":"bytes4"}],"name":"supportsInterface","outputs":[{"internalType":"bool","name":"","type":"bool"}],"stateMutability":"view","type":"function"},{"inputs":[{"internalType":"string","name":"","type":"string"}],"name":"testTypeExists","outputs":[{"internalType":"bool","name":"","type":"bool"}],"stateMutability":"view","type":"function"},{"inputs":[{"internalType":"uint256","name":"","type":"uint256"}],"name":"testTypes","outputs":[{"internalType":"string","name":"","type":"string"}],"stateMutability":"view","type":"function"},{"inputs":[{"internalType":"uint256","name":"","type":"uint256"}],"name":"timeSeriesData","outputs":[{"internalType":"uint256","name":"timestamp","type":"uint256"},{"internalType":"uint256","name":"testsCreated","type":"uint256"},{"internalType":"uint256","name":"testsValidated","type":"uint256"},{"internalType":"uint256","name":"testsCompleted","type":"uint256"},{"internalType":"uint256","name":"tokensAllocated","type":"uint256"}],"stateMutability":"view","type":"function"},{"inputs":[],"name":"updateMetrics","outputs":[],"stateMutability":"nonpayable","type":"function"}],"evm":{"bytecode":{"linkReferences":{},"object":"60803461008e57601f6200147a38819003918201601f19168301916001600160401b038311848410176100925780849260209460405283398101031261008e57516001600160a01b0381169081900361008e5760018055600280546001600160a01b031916919091179055610073336100a6565b5061007d33610123565b506040516112979081620001c38239f35b5f80fd5b634e487b7160e01b5f52604160045260245ffd5b6001600160a01b03165f8181527fad3228b676f7d3cd4284a5443f17f1962b36e491b30a40b2405849e597ba5fb5602052604081205490919060ff1661011f57818052816020526040822081835260205260408220600160ff1982541617905533915f805160206200145a8339815191528180a4600190565b5090565b6001600160a01b03165f8181527f98dc3f2ab2abb35f1439ac015b10fe7be3175ab2373074c232fd605d54a6581560205260408120549091907f708c6b3a1a43063fcff2ed11fff0d3410f7a7ac561e651ec7a63ecde338f76729060ff166101bd57808352826020526040832082845260205260408320600160ff198254161790555f805160206200145a833981519152339380a4600190565b50509056fe6080806040526004361015610012575f80fd5b5f3560e01c90816301ffc9a714610d79575080630cdaecc614610d5f57806319644f5614610d335780631c43f49114610cfb578063248a9ca314610ccf5780632587cfe814610cb25780632837727414610c905780632f2ff15d14610c5457806336568abe14610c0d5780633961498e14610b1d5780635501e9c714610af5578063682b486014610ab15780638cb079db1461046157806391d1485414610419578063a04748f6146103d2578063a217fddf146103b8578063af07d6f31461035a578063af89580014610322578063bbbb0a8f146102e8578063d547741f146102aa578063ddea88ff1461023f578063df527f01146101575763e205f3bf14610119575f80fd5b346101535760206101408161012d36610e26565b8160405193828580945193849201610e8e565b8101600981520301902054604051908152f35b5f80fd5b34610153576020366003190112610153576004355f608060405161017a81610dcc565b8281528260208201528260408201528260608201520152600c5481101561020a576101a660a091611022565b506040516101b381610dcc565b81549182825260018101546020830190815260028201549060408401918252608060046003850154946060870195865201549401938452604051948552516020850152516040840152516060830152516080820152f35b60405162461bcd60e51b815260206004820152600d60248201526c092dcecc2d8d2c840d2dcc8caf609b1b6044820152606490fd5b3461015357602036600319011261015357600435600c548110156101535761026690611022565b508054600182015460028301546003840154600490940154604080519485526020850193909352918301526060820192909252608081019190915260a090f35b0390f35b34610153576040366003190112610153576102e66004356102c9610ec5565b90805f525f6020526102e1600160405f20015461105b565b6110f8565b005b34610153575f3660031901126101535760206040517f708c6b3a1a43063fcff2ed11fff0d3410f7a7ac561e651ec7a63ecde338f76728152f35b34610153576020366003190112610153576001600160a01b03610343610eaf565b165f52600a602052602060405f2054604051908152f35b3461015357602036600319011261015357600435600d548110156101535761038190610f00565b6103a5576103916102a691610f81565b604051918291602083526020830190610edb565b634e487b7160e01b5f525f60045260245ffd5b34610153575f3660031901126101535760206040515f8152f35b34610153575f3660031901126101535760c06003546004546005546006546007549160085493604051958652602086015260408501526060840152608083015260a0820152f35b3461015357604036600319011261015357610432610ec5565b6004355f525f60205260405f209060018060a01b03165f52602052602060ff60405f2054166040519015158152f35b34610153575f36600319011261015357335f9081527f98dc3f2ab2abb35f1439ac015b10fe7be3175ab2373074c232fd605d54a6581560205260409020547f708c6b3a1a43063fcff2ed11fff0d3410f7a7ac561e651ec7a63ecde338f76729060ff1615610a9357600260015414610a81576002600181905554604051634f7f683160e01b8152906001600160a01b0316602082600481845afa918215610a0d575f92610a4c575b50906020600492604051938480926359b24d3f60e11b82525afa918215610a0d575f92610a18575b505f905f925f805f9060015b8581111561066457508460035583600455856005558660065560075580610651575b50506040519261056e84610dcc565b428452602084019383855260408101958387526060820192835260808201908152600c54600160401b81101561063d578060016105ae9201600c55611022565b9390936103a5577fa6f0afa613569a5301ec725543afbd95bcc3d90ad5484654a60fe0af154a75bf97606097600494518655516001860155516002850155516003840155519101557fc5fc980bb7ef8a93ef7973337803a4ef609c9df988d7f7b7967ffe8ada11ee6560408051428152336020820152a16040519142835260208301526040820152a160018055005b634e487b7160e01b5f52604160045260245ffd5b61065a916111ec565b600855848061055f565b600254604051634417da2960e01b81526004810183905298905f908a9060249082906001600160a01b03165afa908115610a0d575f80915f935f915f9d5f9261092d575b50816106b3916111df565b9c6108d9575b505060ff60405160208184516106d28183858901610e8e565b8101600e815203019020541615610769575b9061070360206107649594938160405193828580945193849201610e8e565b81016009815203019020610717815461116b565b90556001600160a01b03165f908152600a60205260409020805461073a9061116b565b90556001600160a01b03165f908152600b60205260409020805461075d9061116b565b905561116b565b61053d565b600d54600160401b81101561063d578060016107889201600d55610f00565b6103a557815167ffffffffffffffff811161063d576107a78254610f49565b601f8111610898575b506020601f821160011461082857926107039282602093610764999897965f9161081d575b508160011b915f199060031b1c19161790555b604051828183516107fc8183858801610e8e565b8101600e815203019020600160ff19825416179055929394955050506106e4565b90508301515f6107d5565b825f5260205f20905f5b601f1984168110610880575092600183610764999897969361070396602096601f19811610610868575b5050811b0190556107e8565b8501515f1960f88460031b161c191690555f8061085c565b90916020600181928589015181550193019101610832565b825f5260205f20601f830160051c8101602084106108d2575b601f830160051c820181106108c75750506107b0565b5f81556001016108b1565b50806108b1565b6108eb6108f192979c9993989961116b565b9b6111df565b944281420311610919576109119161090b914203906111df565b9661116b565b948b806106b9565b634e487b7160e01b5f52601160045260245ffd5b9d509450505050503d90815f8b3e610945828b610de8565b6101608a83810103126101535760208a015167ffffffffffffffff81116101535761097590838c01908c01611179565b99610982604082016111be565b9061098f606082016111be565b9260808201519460a083015167ffffffffffffffff8111610153576109b990828501908501611179565b5060c083015167ffffffffffffffff8111610153576109dc918401908401611179565b506109e960e083016111d2565b506106b36101206109fd61010085016111d2565b9301519d939495929d91906106a8565b6040513d5f823e3d90fd5b9091506020813d602011610a44575b81610a3460209383610de8565b8101031261015357519082610531565b3d9150610a27565b91506020823d602011610a79575b81610a6760209383610de8565b81010312610153579051906020610509565b3d9150610a5a565b604051633ee5aeb560e01b8152600490fd5b6044906040519063e2517d3f60e01b82523360048301526024820152fd5b34610153575f36600319011261015357600354600454600554600654600754604080519586526020860194909452928401919091526060830152608082015260a090f35b34610153575f366003190112610153576002546040516001600160a01b039091168152602090f35b34610153575f36600319011261015357600d5467ffffffffffffffff811161063d5760405190602090610b55828260051b0184610de8565b8083528183019081600d5f527fd7b6990105719101dabeb77144f2a3385c8033acd3af97e9423a695e81ad1eb55f915b838310610beb5750505050604051918083019381845251809452604083019360408160051b85010192915f955b828710610bbf5785850386f35b909192938280610bdb600193603f198a82030186528851610edb565b9601920196019592919092610bb2565b6001868192610bfc859a999a610f81565b815201920192019190959495610b85565b3461015357604036600319011261015357610c26610ec5565b336001600160a01b03821603610c42576102e6906004356110f8565b60405163334bd91960e11b8152600490fd5b34610153576040366003190112610153576102e6600435610c73610ec5565b90805f525f602052610c8b600160405f20015461105b565b61107c565b34610153575f366003190112610153576020610caa611238565b604051908152f35b34610153575f366003190112610153576020600c54604051908152f35b34610153576020366003190112610153576004355f525f6020526020600160405f200154604051908152f35b34610153576020366003190112610153576001600160a01b03610d1c610eaf565b165f52600b602052602060405f2054604051908152f35b3461015357602060ff610d498261012d36610e26565b8101600e81520301902054166040519015158152f35b34610153575f366003190112610153576020610caa61120a565b34610153576020366003190112610153576004359063ffffffff60e01b821680920361015357602091637965db0b60e01b8114908115610dbb575b5015158152f35b6301ffc9a760e01b14905083610db4565b60a0810190811067ffffffffffffffff82111761063d57604052565b90601f8019910116810190811067ffffffffffffffff82111761063d57604052565b67ffffffffffffffff811161063d57601f01601f191660200190565b60206003198201126101535760043567ffffffffffffffff8111610153578160238201121561015357806004013590610e5e82610e0a565b92610e6c6040519485610de8565b8284526024838301011161015357815f92602460209301838601378301015290565b5f5b838110610e9f5750505f910152565b8181015183820152602001610e90565b600435906001600160a01b038216820361015357565b602435906001600160a01b038216820361015357565b90602091610ef481518092818552858086019101610e8e565b601f01601f1916010190565b600d54811015610f3557600d5f527fd7b6990105719101dabeb77144f2a3385c8033acd3af97e9423a695e81ad1eb501905f90565b634e487b7160e01b5f52603260045260245ffd5b90600182811c92168015610f77575b6020831014610f6357565b634e487b7160e01b5f52602260045260245ffd5b91607f1691610f58565b9060405191825f825492610f9484610f49565b9081845260019485811690815f14610fff5750600114610fbf575b5050610fbd92500383610de8565b565b909391505f52602090815f20935f915b818310610fe7575050610fbd93508201015f80610faf565b85548884018501529485019487945091830191610fcf565b915050610fbd94506020925060ff191682840152151560051b8201015f80610faf565b600c54811015610f3557600590600c5f52027fdf6966c971051c3d54ec59162606531493a51404a002842f56009d7e5cf4a8c701905f90565b805f525f60205260405f20335f5260205260ff60405f20541615610a935750565b905f9180835282602052604083209160018060a01b03169182845260205260ff604084205416155f146110f357808352826020526040832082845260205260408320600160ff198254161790557f2f8788117e7eff1d82e926ec794901d17c78024a50270940304540a733656f0d339380a4600190565b505090565b905f9180835282602052604083209160018060a01b03169182845260205260ff6040842054165f146110f35780835282602052604083208284526020526040832060ff1981541690557ff6391f5c32d9c69d2a47ea670b442974b53935d1edc7fd64eb21e047a839171b339380a4600190565b5f1981146109195760010190565b81601f8201121561015357805161118f81610e0a565b9261119d6040519485610de8565b81845260208284010111610153576111bb9160208085019101610e8e565b90565b51906001600160a01b038216820361015357565b5190811515820361015357565b9190820180921161091957565b81156111f6570490565b634e487b7160e01b5f52601260045260245ffd5b60035480156112335760055490606482029180830460641490151715610919576111bb916111ec565b505f90565b60035480156112335760045490606482029180830460641490151715610919576111bb916111ec56fea2646970667358221220cad3fc81322e6ae1c8b826f13934130ed7cf70dca39226fea70ad4cf6b63b0f264736f6c634300081400332f8788117e7eff1d82e926ec794901d17c78024a50270940304540a733656f0d","opcodes":"PUSH1 0x80 CALLVALUE PUSH2 0x8E JUMPI PUSH1 0x1F PUSH3 0x147A CODESIZE DUP2 SWAP1 SUB SWAP2 DUP3 ADD PUSH1 0x1F NOT AND DUP4 ADD SWAP2 PUSH1 0x1 PUSH1 0x1 PUSH1 0x40 SHL SUB DUP4 GT DUP5 DUP5 LT OR PUSH2 0x92 JUMPI DUP1 DUP5 SWAP3 PUSH1 0x20 SWAP5 PUSH1 0x40 MSTORE DUP4 CODECOPY DUP2 ADD SUB SLT PUSH2 0x8E JUMPI MLOAD PUSH1 0x1 PUSH1 0x1 PUSH1 0xA0 SHL SUB DUP2 AND SWAP1 DUP2 SWAP1 SUB PUSH2 0x8E JUMPI PUSH1 0x1 DUP1 SSTORE PUSH1 0x2 DUP1 SLOAD PUSH1 0x1 PUSH1 0x1 PUSH1 0xA0 SHL SUB NOT AND SWAP2 SWAP1 SWAP2 OR SWAP1 SSTORE PUSH2 0x73 CALLER PUSH2 0xA6 JUMP JUMPDEST POP PUSH2 0x7D CALLER PUSH2 0x123 JUMP JUMPDEST POP PUSH1 0x40 MLOAD PUSH2 0x1297 SWAP1 DUP2 PUSH3 0x1C3 DUP3 CODECOPY RETURN JUMPDEST PUSH0 DUP1 REVERT JUMPDEST PUSH4 0x4E487B71 PUSH1 0xE0 SHL PUSH0 MSTORE PUSH1 0x41 PUSH1 0x4 MSTORE PUSH1 0x24 PUSH0 REVERT JUMPDEST PUSH1 0x1 PUSH1 0x1 PUSH1 0xA0 SHL SUB AND PUSH0 DUP2 DUP2 MSTORE PUSH32 0xAD3228B676F7D3CD4284A5443F17F1962B36E491B30A40B2405849E597BA5FB5 PUSH1 0x20 MSTORE PUSH1 0x40 DUP2 KECCAK256 SLOAD SWAP1 SWAP2 SWAP1 PUSH1 0xFF AND PUSH2 0x11F JUMPI DUP2 DUP1 MSTORE DUP2 PUSH1 0x20 MSTORE PUSH1 0x40 DUP3 KECCAK256 DUP2 DUP4 MSTORE PUSH1 0x20 MSTORE PUSH1 0x40 DUP3 KECCAK256 PUSH1 0x1 PUSH1 0xFF NOT DUP3 SLOAD AND OR SWAP1 SSTORE CALLER SWAP2 PUSH0 DUP1 MLOAD PUSH1 0x20 PUSH3 0x145A DUP4 CODECOPY DUP2 MLOAD SWAP2 MSTORE DUP2 DUP1 LOG4 PUSH1 0x1 SWAP1 JUMP JUMPDEST POP SWAP1 JUMP JUMPDEST PUSH1 0x1 PUSH1 0x1 PUSH1 0xA0 SHL SUB AND PUSH0 DUP2 DUP2 MSTORE PUSH32 0x98DC3F2AB2ABB35F1439AC015B10FE7BE3175AB2373074C232FD605D54A65815 PUSH1 0x20 MSTORE PUSH1 0x40 DUP2 KECCAK256 SLOAD SWAP1 SWAP2 SWAP1 PUSH32 0x708C6B3A1A43063FCFF2ED11FFF0D3410F7A7AC561E651EC7A63ECDE338F7672 SWAP1 PUSH1 0xFF AND PUSH2 0x1BD JUMPI DUP1 DUP4 MSTORE DUP3 PUSH1 0x20 MSTORE PUSH1 0x40 DUP4 KECCAK256 DUP3 DUP5 MSTORE PUSH1 0x20 MSTORE PUSH1 0x40 DUP4 KECCAK256 PUSH1 0x1 PUSH1 0xFF NOT DUP3 SLOAD AND OR SWAP1 SSTORE PUSH0 DUP1 MLOAD PUSH1 0x20 PUSH3 0x145A DUP4 CODECOPY DUP2 MLOAD SWAP2 MSTORE CALLER SWAP4 DUP1 LOG4 PUSH1 0x1 SWAP1 JUMP JUMPDEST POP POP SWAP1 JUMP INVALID PUSH1 0x80 DUP1 PUSH1 0x40 MSTORE PUSH1 0x4 CALLDATASIZE LT ISZERO PUSH2 0x12 JUMPI PUSH0 DUP1 REVERT JUMPDEST PUSH0 CALLDATALOAD PUSH1 0xE0 SHR SWAP1 DUP2 PUSH4 0x1FFC9A7 EQ PUSH2 0xD79 JUMPI POP DUP1 PUSH4 0xCDAECC6 EQ PUSH2 0xD5F JUMPI DUP1 PUSH4 0x19644F56 EQ PUSH2 0xD33 JUMPI DUP1 PUSH4 0x1C43F491 EQ PUSH2 0xCFB JUMPI DUP1 PUSH4 0x248A9CA3 EQ PUSH2 0xCCF JUMPI DUP1 PUSH4 0x2587CFE8 EQ PUSH2 0xCB2 JUMPI DUP1 PUSH4 0x28377274 EQ PUSH2 0xC90 JUMPI DUP1 PUSH4 0x2F2FF15D EQ PUSH2 0xC54 JUMPI DUP1 PUSH4 0x36568ABE EQ PUSH2 0xC0D JUMPI DUP1 PUSH4 0x3961498E EQ PUSH2 0xB1D JUMPI DUP1 PUSH4 0x5501E9C7 EQ PUSH2 0xAF5 JUMPI DUP1 PUSH4 0x682B4860 EQ PUSH2 0xAB1 JUMPI DUP1 PUSH4 0x8CB079DB EQ PUSH2 0x461 JUMPI DUP1 PUSH4 0x91D14854 EQ PUSH2 0x419 JUMPI DUP1 PUSH4 0xA04748F6 EQ PUSH2 0x3D2 JUMPI DUP1 PUSH4 0xA217FDDF EQ PUSH2 0x3B8 JUMPI DUP1 PUSH4 0xAF07D6F3 EQ PUSH2 0x35A JUMPI DUP1 PUSH4 0xAF895800 EQ PUSH2 0x322 JUMPI DUP1 PUSH4 0xBBBB0A8F EQ PUSH2 0x2E8 JUMPI DUP1 PUSH4 0xD547741F EQ PUSH2 0x2AA JUMPI DUP1 PUSH4 0xDDEA88FF EQ PUSH2 0x23F JUMPI DUP1 PUSH4 0xDF527F01 EQ PUSH2 0x157 JUMPI PUSH4 0xE205F3BF EQ PUSH2 0x119 JUMPI PUSH0 DUP1 REVERT JUMPDEST CALLVALUE PUSH2 0x153 JUMPI PUSH1 0x20 PUSH2 0x140 DUP2 PUSH2 0x12D CALLDATASIZE PUSH2 0xE26 JUMP JUMPDEST DUP2 PUSH1 0x40 MLOAD SWAP4 DUP3 DUP6 DUP1 SWAP5 MLOAD SWAP4 DUP5 SWAP3 ADD PUSH2 0xE8E JUMP JUMPDEST DUP2 ADD PUSH1 0x9 DUP2 MSTORE SUB ADD SWAP1 KECCAK256 SLOAD PUSH1 0x40 MLOAD SWAP1 DUP2 MSTORE RETURN JUMPDEST PUSH0 DUP1 REVERT JUMPDEST CALLVALUE PUSH2 0x153 JUMPI PUSH1 0x20 CALLDATASIZE PUSH1 0x3 NOT ADD SLT PUSH2 0x153 JUMPI PUSH1 0x4 CALLDATALOAD PUSH0 PUSH1 0x80 PUSH1 0x40 MLOAD PUSH2 0x17A DUP2 PUSH2 0xDCC JUMP JUMPDEST DUP3 DUP2 MSTORE DUP3 PUSH1 0x20 DUP3 ADD MSTORE DUP3 PUSH1 0x40 DUP3 ADD MSTORE DUP3 PUSH1 0x60 DUP3 ADD MSTORE ADD MSTORE PUSH1 0xC SLOAD DUP2 LT ISZERO PUSH2 0x20A JUMPI PUSH2 0x1A6 PUSH1 0xA0 SWAP2 PUSH2 0x1022 JUMP JUMPDEST POP PUSH1 0x40 MLOAD PUSH2 0x1B3 DUP2 PUSH2 0xDCC JUMP JUMPDEST DUP2 SLOAD SWAP2 DUP3 DUP3 MSTORE PUSH1 0x1 DUP2 ADD SLOAD PUSH1 0x20 DUP4 ADD SWAP1 DUP2 MSTORE PUSH1 0x2 DUP3 ADD SLOAD SWAP1 PUSH1 0x40 DUP5 ADD SWAP2 DUP3 MSTORE PUSH1 0x80 PUSH1 0x4 PUSH1 0x3 DUP6 ADD SLOAD SWAP5 PUSH1 0x60 DUP8 ADD SWAP6 DUP7 MSTORE ADD SLOAD SWAP5 ADD SWAP4 DUP5 MSTORE PUSH1 0x40 MLOAD SWAP5 DUP6 MSTORE MLOAD PUSH1 0x20 DUP6 ADD MSTORE MLOAD PUSH1 0x40 DUP5 ADD MSTORE MLOAD PUSH1 0x60 DUP4 ADD MSTORE MLOAD PUSH1 0x80 DUP3 ADD MSTORE RETURN JUMPDEST PUSH1 0x40 MLOAD PUSH3 0x461BCD PUSH1 0xE5 SHL DUP2 MSTORE PUSH1 0x20 PUSH1 0x4 DUP3 ADD MSTORE PUSH1 0xD PUSH1 0x24 DUP3 ADD MSTORE PUSH13 0x92DCECC2D8D2C840D2DCC8CAF PUSH1 0x9B SHL PUSH1 0x44 DUP3 ADD MSTORE PUSH1 0x64 SWAP1 REVERT JUMPDEST CALLVALUE PUSH2 0x153 JUMPI PUSH1 0x20 CALLDATASIZE PUSH1 0x3 NOT ADD SLT PUSH2 0x153 JUMPI PUSH1 0x4 CALLDATALOAD PUSH1 0xC SLOAD DUP2 LT ISZERO PUSH2 0x153 JUMPI PUSH2 0x266 SWAP1 PUSH2 0x1022 JUMP JUMPDEST POP DUP1 SLOAD PUSH1 0x1 DUP3 ADD SLOAD PUSH1 0x2 DUP4 ADD SLOAD PUSH1 0x3 DUP5 ADD SLOAD PUSH1 0x4 SWAP1 SWAP5 ADD SLOAD PUSH1 0x40 DUP1 MLOAD SWAP5 DUP6 MSTORE PUSH1 0x20 DUP6 ADD SWAP4 SWAP1 SWAP4 MSTORE SWAP2 DUP4 ADD MSTORE PUSH1 0x60 DUP3 ADD SWAP3 SWAP1 SWAP3 MSTORE PUSH1 0x80 DUP2 ADD SWAP2 SWAP1 SWAP2 MSTORE PUSH1 0xA0 SWAP1 RETURN JUMPDEST SUB SWAP1 RETURN JUMPDEST CALLVALUE PUSH2 0x153 JUMPI PUSH1 0x40 CALLDATASIZE PUSH1 0x3 NOT ADD SLT PUSH2 0x153 JUMPI PUSH2 0x2E6 PUSH1 0x4 CALLDATALOAD PUSH2 0x2C9 PUSH2 0xEC5 JUMP JUMPDEST SWAP1 DUP1 PUSH0 MSTORE PUSH0 PUSH1 0x20 MSTORE PUSH2 0x2E1 PUSH1 0x1 PUSH1 0x40 PUSH0 KECCAK256 ADD SLOAD PUSH2 0x105B JUMP JUMPDEST PUSH2 0x10F8 JUMP JUMPDEST STOP JUMPDEST CALLVALUE PUSH2 0x153 JUMPI PUSH0 CALLDATASIZE PUSH1 0x3 NOT ADD SLT PUSH2 0x153 JUMPI PUSH1 0x20 PUSH1 0x40 MLOAD PUSH32 0x708C6B3A1A43063FCFF2ED11FFF0D3410F7A7AC561E651EC7A63ECDE338F7672 DUP2 MSTORE RETURN JUMPDEST CALLVALUE PUSH2 0x153 JUMPI PUSH1 0x20 CALLDATASIZE PUSH1 0x3 NOT ADD SLT PUSH2 0x153 JUMPI PUSH1 0x1 PUSH1 0x1 PUSH1 0xA0 SHL SUB PUSH2 0x343 PUSH2 0xEAF JUMP JUMPDEST AND PUSH0 MSTORE PUSH1 0xA PUSH1 0x20 MSTORE PUSH1 0x20 PUSH1 0x40 PUSH0 KECCAK256 SLOAD PUSH1 0x40 MLOAD SWAP1 DUP2 MSTORE RETURN JUMPDEST CALLVALUE PUSH2 0x153 JUMPI PUSH1 0x20 CALLDATASIZE PUSH1 0x3 NOT ADD SLT PUSH2 0x153 JUMPI PUSH1 0x4 CALLDATALOAD PUSH1 0xD SLOAD DUP2 LT ISZERO PUSH2 0x153 JUMPI PUSH2 0x381 SWAP1 PUSH2 0xF00 JUMP JUMPDEST PUSH2 0x3A5 JUMPI PUSH2 0x391 PUSH2 0x2A6 SWAP2 PUSH2 0xF81 JUMP JUMPDEST PUSH1 0x40 MLOAD SWAP2 DUP3 SWAP2 PUSH1 0x20 DUP4 MSTORE PUSH1 0x20 DUP4 ADD SWAP1 PUSH2 0xEDB JUMP JUMPDEST PUSH4 0x4E487B71 PUSH1 0xE0 SHL PUSH0 MSTORE PUSH0 PUSH1 0x4 MSTORE PUSH1 0x24 PUSH0 REVERT JUMPDEST CALLVALUE PUSH2 0x153 JUMPI PUSH0 CALLDATASIZE PUSH1 0x3 NOT ADD SLT PUSH2 0x153 JUMPI PUSH1 0x20 PUSH1 0x40 MLOAD PUSH0 DUP2 MSTORE RETURN JUMPDEST CALLVALUE PUSH2 0x153 JUMPI PUSH0 CALLDATASIZE PUSH1 0x3 NOT ADD SLT PUSH2 0x153 JUMPI PUSH1 0xC0 PUSH1 0x3 SLOAD PUSH1 0x4 SLOAD PUSH1 0x5 SLOAD PUSH1 0x6 SLOAD PUSH1 0x7 SLOAD SWAP2 PUSH1 0x8 SLOAD SWAP4 PUSH1 0x40 MLOAD SWAP6 DUP7 MSTORE PUSH1 0x20 DUP7 ADD MSTORE PUSH1 0x40 DUP6 ADD MSTORE PUSH1 0x60 DUP5 ADD MSTORE PUSH1 0x80 DUP4 ADD MSTORE PUSH1 0xA0 DUP3 ADD MSTORE RETURN JUMPDEST CALLVALUE PUSH2 0x153 JUMPI PUSH1 0x40 CALLDATASIZE PUSH1 0x3 NOT ADD SLT PUSH2 0x153 JUMPI PUSH2 0x432 PUSH2 0xEC5 JUMP JUMPDEST PUSH1 0x4 CALLDATALOAD PUSH0 MSTORE PUSH0 PUSH1 0x20 MSTORE PUSH1 0x40 PUSH0 KECCAK256 SWAP1 PUSH1 0x1 DUP1 PUSH1 0xA0 SHL SUB AND PUSH0 MSTORE PUSH1 0x20 MSTORE PUSH1 0x20 PUSH1 0xFF PUSH1 0x40 PUSH0 KECCAK256 SLOAD AND PUSH1 0x40 MLOAD SWAP1 ISZERO ISZERO DUP2 MSTORE RETURN JUMPDEST CALLVALUE PUSH2 0x153 JUMPI PUSH0 CALLDATASIZE PUSH1 0x3 NOT ADD SLT PUSH2 0x153 JUMPI CALLER PUSH0 SWAP1 DUP2 MSTORE PUSH32 0x98DC3F2AB2ABB35F1439AC015B10FE7BE3175AB2373074C232FD605D54A65815 PUSH1 0x20 MSTORE PUSH1 0x40 SWAP1 KECCAK256 SLOAD PUSH32 0x708C6B3A1A43063FCFF2ED11FFF0D3410F7A7AC561E651EC7A63ECDE338F7672 SWAP1 PUSH1 0xFF AND ISZERO PUSH2 0xA93 JUMPI PUSH1 0x2 PUSH1 0x1 SLOAD EQ PUSH2 0xA81 JUMPI PUSH1 0x2 PUSH1 0x1 DUP2 SWAP1 SSTORE SLOAD PUSH1 0x40 MLOAD PUSH4 0x4F7F6831 PUSH1 0xE0 SHL DUP2 MSTORE SWAP1 PUSH1 0x1 PUSH1 0x1 PUSH1 0xA0 SHL SUB AND PUSH1 0x20 DUP3 PUSH1 0x4 DUP2 DUP5 GAS STATICCALL SWAP2 DUP3 ISZERO PUSH2 0xA0D JUMPI PUSH0 SWAP3 PUSH2 0xA4C JUMPI JUMPDEST POP SWAP1 PUSH1 0x20 PUSH1 0x4 SWAP3 PUSH1 0x40 MLOAD SWAP4 DUP5 DUP1 SWAP3 PUSH4 0x59B24D3F PUSH1 0xE1 SHL DUP3 MSTORE GAS STATICCALL SWAP2 DUP3 ISZERO PUSH2 0xA0D JUMPI PUSH0 SWAP3 PUSH2 0xA18 JUMPI JUMPDEST POP PUSH0 SWAP1 PUSH0 SWAP3 PUSH0 DUP1 PUSH0 SWAP1 PUSH1 0x1 JUMPDEST DUP6 DUP2 GT ISZERO PUSH2 0x664 JUMPI POP DUP5 PUSH1 0x3 SSTORE DUP4 PUSH1 0x4 SSTORE DUP6 PUSH1 0x5 SSTORE DUP7 PUSH1 0x6 SSTORE PUSH1 0x7 SSTORE DUP1 PUSH2 0x651 JUMPI JUMPDEST POP POP PUSH1 0x40 MLOAD SWAP3 PUSH2 0x56E DUP5 PUSH2 0xDCC JUMP JUMPDEST TIMESTAMP DUP5 MSTORE PUSH1 0x20 DUP5 ADD SWAP4 DUP4 DUP6 MSTORE PUSH1 0x40 DUP2 ADD SWAP6 DUP4 DUP8 MSTORE PUSH1 0x60 DUP3 ADD SWAP3 DUP4 MSTORE PUSH1 0x80 DUP3 ADD SWAP1 DUP2 MSTORE PUSH1 0xC SLOAD PUSH1 0x1 PUSH1 0x40 SHL DUP2 LT ISZERO PUSH2 0x63D JUMPI DUP1 PUSH1 0x1 PUSH2 0x5AE SWAP3 ADD PUSH1 0xC SSTORE PUSH2 0x1022 JUMP JUMPDEST SWAP4 SWAP1 SWAP4 PUSH2 0x3A5 JUMPI PUSH32 0xA6F0AFA613569A5301EC725543AFBD95BCC3D90AD5484654A60FE0AF154A75BF SWAP8 PUSH1 0x60 SWAP8 PUSH1 0x4 SWAP5 MLOAD DUP7 SSTORE MLOAD PUSH1 0x1 DUP7 ADD SSTORE MLOAD PUSH1 0x2 DUP6 ADD SSTORE MLOAD PUSH1 0x3 DUP5 ADD SSTORE MLOAD SWAP2 ADD SSTORE PUSH32 0xC5FC980BB7EF8A93EF7973337803A4EF609C9DF988D7F7B7967FFE8ADA11EE65 PUSH1 0x40 DUP1 MLOAD TIMESTAMP DUP2 MSTORE CALLER PUSH1 0x20 DUP3 ADD MSTORE LOG1 PUSH1 0x40 MLOAD SWAP2 TIMESTAMP DUP4 MSTORE PUSH1 0x20 DUP4 ADD MSTORE PUSH1 0x40 DUP3 ADD MSTORE LOG1 PUSH1 0x1 DUP1 SSTORE STOP JUMPDEST PUSH4 0x4E487B71 PUSH1 0xE0 SHL PUSH0 MSTORE PUSH1 0x41 PUSH1 0x4 MSTORE PUSH1 0x24 PUSH0 REVERT JUMPDEST PUSH2 0x65A SWAP2 PUSH2 0x11EC JUMP JUMPDEST PUSH1 0x8 SSTORE DUP5 DUP1 PUSH2 0x55F JUMP JUMPDEST PUSH1 0x2 SLOAD PUSH1 0x40 MLOAD PUSH4 0x4417DA29 PUSH1 0xE0 SHL DUP2 MSTORE PUSH1 0x4 DUP2 ADD DUP4 SWAP1 MSTORE SWAP9 SWAP1 PUSH0 SWAP1 DUP11 SWAP1 PUSH1 0x24 SWAP1 DUP3 SWAP1 PUSH1 0x1 PUSH1 0x1 PUSH1 0xA0 SHL SUB AND GAS STATICCALL SWAP1 DUP2 ISZERO PUSH2 0xA0D JUMPI PUSH0 DUP1 SWAP2 PUSH0 SWAP4 PUSH0 SWAP2 PUSH0 SWAP14 PUSH0 SWAP3 PUSH2 0x92D JUMPI JUMPDEST POP DUP2 PUSH2 0x6B3 SWAP2 PUSH2 0x11DF JUMP JUMPDEST SWAP13 PUSH2 0x8D9 JUMPI JUMPDEST POP POP PUSH1 0xFF PUSH1 0x40 MLOAD PUSH1 0x20 DUP2 DUP5 MLOAD PUSH2 0x6D2 DUP2 DUP4 DUP6 DUP10 ADD PUSH2 0xE8E JUMP JUMPDEST DUP2 ADD PUSH1 0xE DUP2 MSTORE SUB ADD SWAP1 KECCAK256 SLOAD AND ISZERO PUSH2 0x769 JUMPI JUMPDEST SWAP1 PUSH2 0x703 PUSH1 0x20 PUSH2 0x764 SWAP6 SWAP5 SWAP4 DUP2 PUSH1 0x40 MLOAD SWAP4 DUP3 DUP6 DUP1 SWAP5 MLOAD SWAP4 DUP5 SWAP3 ADD PUSH2 0xE8E JUMP JUMPDEST DUP2 ADD PUSH1 0x9 DUP2 MSTORE SUB ADD SWAP1 KECCAK256 PUSH2 0x717 DUP2 SLOAD PUSH2 0x116B JUMP JUMPDEST SWAP1 SSTORE PUSH1 0x1 PUSH1 0x1 PUSH1 0xA0 SHL SUB AND PUSH0 SWAP1 DUP2 MSTORE PUSH1 0xA PUSH1 0x20 MSTORE PUSH1 0x40 SWAP1 KECCAK256 DUP1 SLOAD PUSH2 0x73A SWAP1 PUSH2 0x116B JUMP JUMPDEST SWAP1 SSTORE PUSH1 0x1 PUSH1 0x1 PUSH1 0xA0 SHL SUB AND PUSH0 SWAP1 DUP2 MSTORE PUSH1 0xB PUSH1 0x20 MSTORE PUSH1 0x40 SWAP1 KECCAK256 DUP1 SLOAD PUSH2 0x75D SWAP1 PUSH2 0x116B JUMP JUMPDEST SWAP1 SSTORE PUSH2 0x116B JUMP JUMPDEST PUSH2 0x53D JUMP JUMPDEST PUSH1 0xD SLOAD PUSH1 0x1 PUSH1 0x40 SHL DUP2 LT ISZERO PUSH2 0x63D JUMPI DUP1 PUSH1 0x1 PUSH2 0x788 SWAP3 ADD PUSH1 0xD SSTORE PUSH2 0xF00 JUMP JUMPDEST PUSH2 0x3A5 JUMPI DUP2 MLOAD PUSH8 0xFFFFFFFFFFFFFFFF DUP2 GT PUSH2 0x63D JUMPI PUSH2 0x7A7 DUP3 SLOAD PUSH2 0xF49 JUMP JUMPDEST PUSH1 0x1F DUP2 GT PUSH2 0x898 JUMPI JUMPDEST POP PUSH1 0x20 PUSH1 0x1F DUP3 GT PUSH1 0x1 EQ PUSH2 0x828 JUMPI SWAP3 PUSH2 0x703 SWAP3 DUP3 PUSH1 0x20 SWAP4 PUSH2 0x764 SWAP10 SWAP9 SWAP8 SWAP7 PUSH0 SWAP2 PUSH2 0x81D JUMPI JUMPDEST POP DUP2 PUSH1 0x1 SHL SWAP2 PUSH0 NOT SWAP1 PUSH1 0x3 SHL SHR NOT AND OR SWAP1 SSTORE JUMPDEST PUSH1 0x40 MLOAD DUP3 DUP2 DUP4 MLOAD PUSH2 0x7FC DUP2 DUP4 DUP6 DUP9 ADD PUSH2 0xE8E JUMP JUMPDEST DUP2 ADD PUSH1 0xE DUP2 MSTORE SUB ADD SWAP1 KECCAK256 PUSH1 0x1 PUSH1 0xFF NOT DUP3 SLOAD AND OR SWAP1 SSTORE SWAP3 SWAP4 SWAP5 SWAP6 POP POP POP PUSH2 0x6E4 JUMP JUMPDEST SWAP1 POP DUP4 ADD MLOAD PUSH0 PUSH2 0x7D5 JUMP JUMPDEST DUP3 PUSH0 MSTORE PUSH1 0x20 PUSH0 KECCAK256 SWAP1 PUSH0 JUMPDEST PUSH1 0x1F NOT DUP5 AND DUP2 LT PUSH2 0x880 JUMPI POP SWAP3 PUSH1 0x1 DUP4 PUSH2 0x764 SWAP10 SWAP9 SWAP8 SWAP7 SWAP4 PUSH2 0x703 SWAP7 PUSH1 0x20 SWAP7 PUSH1 0x1F NOT DUP2 AND LT PUSH2 0x868 JUMPI JUMPDEST POP POP DUP2 SHL ADD SWAP1 SSTORE PUSH2 0x7E8 JUMP JUMPDEST DUP6 ADD MLOAD PUSH0 NOT PUSH1 0xF8 DUP5 PUSH1 0x3 SHL AND SHR NOT AND SWAP1 SSTORE PUSH0 DUP1 PUSH2 0x85C JUMP JUMPDEST SWAP1 SWAP2 PUSH1 0x20 PUSH1 0x1 DUP2 SWAP3 DUP6 DUP10 ADD MLOAD DUP2 SSTORE ADD SWAP4 ADD SWAP2 ADD PUSH2 0x832 JUMP JUMPDEST DUP3 PUSH0 MSTORE PUSH1 0x20 PUSH0 KECCAK256 PUSH1 0x1F DUP4 ADD PUSH1 0x5 SHR DUP2 ADD PUSH1 0x20 DUP5 LT PUSH2 0x8D2 JUMPI JUMPDEST PUSH1 0x1F DUP4 ADD PUSH1 0x5 SHR DUP3 ADD DUP2 LT PUSH2 0x8C7 JUMPI POP POP PUSH2 0x7B0 JUMP JUMPDEST PUSH0 DUP2 SSTORE PUSH1 0x1 ADD PUSH2 0x8B1 JUMP JUMPDEST POP DUP1 PUSH2 0x8B1 JUMP JUMPDEST PUSH2 0x8EB PUSH2 0x8F1 SWAP3 SWAP8 SWAP13 SWAP10 SWAP4 SWAP9 SWAP10 PUSH2 0x116B JUMP JUMPDEST SWAP12 PUSH2 0x11DF JUMP JUMPDEST SWAP5 TIMESTAMP DUP2 TIMESTAMP SUB GT PUSH2 0x919 JUMPI PUSH2 0x911 SWAP2 PUSH2 0x90B SWAP2 TIMESTAMP SUB SWAP1 PUSH2 0x11DF JUMP JUMPDEST SWAP7 PUSH2 0x116B JUMP JUMPDEST SWAP5 DUP12 DUP1 PUSH2 0x6B9 JUMP JUMPDEST PUSH4 0x4E487B71 PUSH1 0xE0 SHL PUSH0 MSTORE PUSH1 0x11 PUSH1 0x4 MSTORE PUSH1 0x24 PUSH0 REVERT JUMPDEST SWAP14 POP SWAP5 POP POP POP POP POP RETURNDATASIZE SWAP1 DUP2 PUSH0 DUP12 RETURNDATACOPY PUSH2 0x945 DUP3 DUP12 PUSH2 0xDE8 JUMP JUMPDEST PUSH2 0x160 DUP11 DUP4 DUP2 ADD SUB SLT PUSH2 0x153 JUMPI PUSH1 0x20 DUP11 ADD MLOAD PUSH8 0xFFFFFFFFFFFFFFFF DUP2 GT PUSH2 0x153 JUMPI PUSH2 0x975 SWAP1 DUP4 DUP13 ADD SWAP1 DUP13 ADD PUSH2 0x1179 JUMP JUMPDEST SWAP10 PUSH2 0x982 PUSH1 0x40 DUP3 ADD PUSH2 0x11BE JUMP JUMPDEST SWAP1 PUSH2 0x98F PUSH1 0x60 DUP3 ADD PUSH2 0x11BE JUMP JUMPDEST SWAP3 PUSH1 0x80 DUP3 ADD MLOAD SWAP5 PUSH1 0xA0 DUP4 ADD MLOAD PUSH8 0xFFFFFFFFFFFFFFFF DUP2 GT PUSH2 0x153 JUMPI PUSH2 0x9B9 SWAP1 DUP3 DUP6 ADD SWAP1 DUP6 ADD PUSH2 0x1179 JUMP JUMPDEST POP PUSH1 0xC0 DUP4 ADD MLOAD PUSH8 0xFFFFFFFFFFFFFFFF DUP2 GT PUSH2 0x153 JUMPI PUSH2 0x9DC SWAP2 DUP5 ADD SWAP1 DUP5 ADD PUSH2 0x1179 JUMP JUMPDEST POP PUSH2 0x9E9 PUSH1 0xE0 DUP4 ADD PUSH2 0x11D2 JUMP JUMPDEST POP PUSH2 0x6B3 PUSH2 0x120 PUSH2 0x9FD PUSH2 0x100 DUP6 ADD PUSH2 0x11D2 JUMP JUMPDEST SWAP4 ADD MLOAD SWAP14 SWAP4 SWAP5 SWAP6 SWAP3 SWAP14 SWAP2 SWAP1 PUSH2 0x6A8 JUMP JUMPDEST PUSH1 0x40 MLOAD RETURNDATASIZE PUSH0 DUP3 RETURNDATACOPY RETURNDATASIZE SWAP1 REVERT JUMPDEST SWAP1 SWAP2 POP PUSH1 0x20 DUP2 RETURNDATASIZE PUSH1 0x20 GT PUSH2 0xA44 JUMPI JUMPDEST DUP2 PUSH2 0xA34 PUSH1 0x20 SWAP4 DUP4 PUSH2 0xDE8 JUMP JUMPDEST DUP2 ADD SUB SLT PUSH2 0x153 JUMPI MLOAD SWAP1 DUP3 PUSH2 0x531 JUMP JUMPDEST RETURNDATASIZE SWAP2 POP PUSH2 0xA27 JUMP JUMPDEST SWAP2 POP PUSH1 0x20 DUP3 RETURNDATASIZE PUSH1 0x20 GT PUSH2 0xA79 JUMPI JUMPDEST DUP2 PUSH2 0xA67 PUSH1 0x20 SWAP4 DUP4 PUSH2 0xDE8 JUMP JUMPDEST DUP2 ADD SUB SLT PUSH2 0x153 JUMPI SWAP1 MLOAD SWAP1 PUSH1 0x20 PUSH2 0x509 JUMP JUMPDEST RETURNDATASIZE SWAP2 POP PUSH2 0xA5A JUMP JUMPDEST PUSH1 0x40 MLOAD PUSH4 0x3EE5AEB5 PUSH1 0xE0 SHL DUP2 MSTORE PUSH1 0x4 SWAP1 REVERT JUMPDEST PUSH1 0x44 SWAP1 PUSH1 0x40 MLOAD SWAP1 PUSH4 0xE2517D3F PUSH1 0xE0 SHL DUP3 MSTORE CALLER PUSH1 0x4 DUP4 ADD MSTORE PUSH1 0x24 DUP3 ADD MSTORE REVERT JUMPDEST CALLVALUE PUSH2 0x153 JUMPI PUSH0 CALLDATASIZE PUSH1 0x3 NOT ADD SLT PUSH2 0x153 JUMPI PUSH1 0x3 SLOAD PUSH1 0x4 SLOAD PUSH1 0x5 SLOAD PUSH1 0x6 SLOAD PUSH1 0x7 SLOAD PUSH1 0x40 DUP1 MLOAD SWAP6 DUP7 MSTORE PUSH1 0x20 DUP7 ADD SWAP5 SWAP1 SWAP5 MSTORE SWAP3 DUP5 ADD SWAP2 SWAP1 SWAP2 MSTORE PUSH1 0x60 DUP4 ADD MSTORE PUSH1 0x80 DUP3 ADD MSTORE PUSH1 0xA0 SWAP1 RETURN JUMPDEST CALLVALUE PUSH2 0x153 JUMPI PUSH0 CALLDATASIZE PUSH1 0x3 NOT ADD SLT PUSH2 0x153 JUMPI PUSH1 0x2 SLOAD PUSH1 0x40 MLOAD PUSH1 0x1 PUSH1 0x1 PUSH1 0xA0 SHL SUB SWAP1 SWAP2 AND DUP2 MSTORE PUSH1 0x20 SWAP1 RETURN JUMPDEST CALLVALUE PUSH2 0x153 JUMPI PUSH0 CALLDATASIZE PUSH1 0x3 NOT ADD SLT PUSH2 0x153 JUMPI PUSH1 0xD SLOAD PUSH8 0xFFFFFFFFFFFFFFFF DUP2 GT PUSH2 0x63D JUMPI PUSH1 0x40 MLOAD SWAP1 PUSH1 0x20 SWAP1 PUSH2 0xB55 DUP3 DUP3 PUSH1 0x5 SHL ADD DUP5 PUSH2 0xDE8 JUMP JUMPDEST DUP1 DUP4 MSTORE DUP2 DUP4 ADD SWAP1 DUP2 PUSH1 0xD PUSH0 MSTORE PUSH32 0xD7B6990105719101DABEB77144F2A3385C8033ACD3AF97E9423A695E81AD1EB5 PUSH0 SWAP2 JUMPDEST DUP4 DUP4 LT PUSH2 0xBEB JUMPI POP POP POP POP PUSH1 0x40 MLOAD SWAP2 DUP1 DUP4 ADD SWAP4 DUP2 DUP5 MSTORE MLOAD DUP1 SWAP5 MSTORE PUSH1 0x40 DUP4 ADD SWAP4 PUSH1 0x40 DUP2 PUSH1 0x5 SHL DUP6 ADD ADD SWAP3 SWAP2 PUSH0 SWAP6 JUMPDEST DUP3 DUP8 LT PUSH2 0xBBF JUMPI DUP6 DUP6 SUB DUP7 RETURN JUMPDEST SWAP1 SWAP2 SWAP3 SWAP4 DUP3 DUP1 PUSH2 0xBDB PUSH1 0x1 SWAP4 PUSH1 0x3F NOT DUP11 DUP3 SUB ADD DUP7 MSTORE DUP9 MLOAD PUSH2 0xEDB JUMP JUMPDEST SWAP7 ADD SWAP3 ADD SWAP7 ADD SWAP6 SWAP3 SWAP2 SWAP1 SWAP3 PUSH2 0xBB2 JUMP JUMPDEST PUSH1 0x1 DUP7 DUP2 SWAP3 PUSH2 0xBFC DUP6 SWAP11 SWAP10 SWAP11 PUSH2 0xF81 JUMP JUMPDEST DUP2 MSTORE ADD SWAP3 ADD SWAP3 ADD SWAP2 SWAP1 SWAP6 SWAP5 SWAP6 PUSH2 0xB85 JUMP JUMPDEST CALLVALUE PUSH2 0x153 JUMPI PUSH1 0x40 CALLDATASIZE PUSH1 0x3 NOT ADD SLT PUSH2 0x153 JUMPI PUSH2 0xC26 PUSH2 0xEC5 JUMP JUMPDEST CALLER PUSH1 0x1 PUSH1 0x1 PUSH1 0xA0 SHL SUB DUP3 AND SUB PUSH2 0xC42 JUMPI PUSH2 0x2E6 SWAP1 PUSH1 0x4 CALLDATALOAD PUSH2 0x10F8 JUMP JUMPDEST PUSH1 0x40 MLOAD PUSH4 0x334BD919 PUSH1 0xE1 SHL DUP2 MSTORE PUSH1 0x4 SWAP1 REVERT JUMPDEST CALLVALUE PUSH2 0x153 JUMPI PUSH1 0x40 CALLDATASIZE PUSH1 0x3 NOT ADD SLT PUSH2 0x153 JUMPI PUSH2 0x2E6 PUSH1 0x4 CALLDATALOAD PUSH2 0xC73 PUSH2 0xEC5 JUMP JUMPDEST SWAP1 DUP1 PUSH0 MSTORE PUSH0 PUSH1 0x20 MSTORE PUSH2 0xC8B PUSH1 0x1 PUSH1 0x40 PUSH0 KECCAK256 ADD SLOAD PUSH2 0x105B JUMP JUMPDEST PUSH2 0x107C JUMP JUMPDEST CALLVALUE PUSH2 0x153 JUMPI PUSH0 CALLDATASIZE PUSH1 0x3 NOT ADD SLT PUSH2 0x153 JUMPI PUSH1 0x20 PUSH2 0xCAA PUSH2 0x1238 JUMP JUMPDEST PUSH1 0x40 MLOAD SWAP1 DUP2 MSTORE RETURN JUMPDEST CALLVALUE PUSH2 0x153 JUMPI PUSH0 CALLDATASIZE PUSH1 0x3 NOT ADD SLT PUSH2 0x153 JUMPI PUSH1 0x20 PUSH1 0xC SLOAD PUSH1 0x40 MLOAD SWAP1 DUP2 MSTORE RETURN JUMPDEST CALLVALUE PUSH2 0x153 JUMPI PUSH1 0x20 CALLDATASIZE PUSH1 0x3 NOT ADD SLT PUSH2 0x153 JUMPI PUSH1 0x4 CALLDATALOAD PUSH0 MSTORE PUSH0 PUSH1 0x20 MSTORE PUSH1 0x20 PUSH1 0x1 PUSH1 0x40 PUSH0 KECCAK256 ADD SLOAD PUSH1 0x40 MLOAD SWAP1 DUP2 MSTORE RETURN JUMPDEST CALLVALUE PUSH2 0x153 JUMPI PUSH1 0x20 CALLDATASIZE PUSH1 0x3 NOT ADD SLT PUSH2 0x153 JUMPI PUSH1 0x1 PUSH1 0x1 PUSH1 0xA0 SHL SUB PUSH2 0xD1C PUSH2 0xEAF JUMP JUMPDEST AND PUSH0 MSTORE PUSH1 0xB PUSH1 0x20 MSTORE PUSH1 0x20 PUSH1 0x40 PUSH0 KECCAK256 SLOAD PUSH1 0x40 MLOAD SWAP1 DUP2 MSTORE RETURN JUMPDEST CALLVALUE PUSH2 0x153 JUMPI PUSH1 0x20 PUSH1 0xFF PUSH2 0xD49 DUP3 PUSH2 0x12D CALLDATASIZE PUSH2 0xE26 JUMP JUMPDEST DUP2 ADD PUSH1 0xE DUP2 MSTORE SUB ADD SWAP1 KECCAK256 SLOAD AND PUSH1 0x40 MLOAD SWAP1 ISZERO ISZERO DUP2 MSTORE RETURN JUMPDEST CALLVALUE PUSH2 0x153 JUMPI PUSH0 CALLDATASIZE PUSH1 0x3 NOT ADD SLT PUSH2 0x153 JUMPI PUSH1 0x20 PUSH2 0xCAA PUSH2 0x120A JUMP JUMPDEST CALLVALUE PUSH2 0x153 JUMPI PUSH1 0x20 CALLDATASIZE PUSH1 0x3 NOT ADD SLT PUSH2 0x153 JUMPI PUSH1 0x4 CALLDATALOAD SWAP1 PUSH4 0xFFFFFFFF PUSH1 0xE0 SHL DUP3 AND DUP1 SWAP3 SUB PUSH2 0x153 JUMPI PUSH1 0x20 SWAP2 PUSH4 0x7965DB0B PUSH1 0xE0 SHL DUP2 EQ SWAP1 DUP2 ISZERO PUSH2 0xDBB JUMPI JUMPDEST POP ISZERO ISZERO DUP2 MSTORE RETURN JUMPDEST PUSH4 0x1FFC9A7 PUSH1 0xE0 SHL EQ SWAP1 POP DUP4 PUSH2 0xDB4 JUMP JUMPDEST PUSH1 0xA0 DUP2 ADD SWAP1 DUP2 LT PUSH8 0xFFFFFFFFFFFFFFFF DUP3 GT OR PUSH2 0x63D JUMPI PUSH1 0x40 MSTORE JUMP JUMPDEST SWAP1 PUSH1 0x1F DUP1 NOT SWAP2 ADD AND DUP2 ADD SWAP1 DUP2 LT PUSH8 0xFFFFFFFFFFFFFFFF DUP3 GT OR PUSH2 0x63D JUMPI PUSH1 0x40 MSTORE JUMP JUMPDEST PUSH8 0xFFFFFFFFFFFFFFFF DUP2 GT PUSH2 0x63D JUMPI PUSH1 0x1F ADD PUSH1 0x1F NOT AND PUSH1 0x20 ADD SWAP1 JUMP JUMPDEST PUSH1 0x20 PUSH1 0x3 NOT DUP3 ADD SLT PUSH2 0x153 JUMPI PUSH1 0x4 CALLDATALOAD PUSH8 0xFFFFFFFFFFFFFFFF DUP2 GT PUSH2 0x153 JUMPI DUP2 PUSH1 0x23 DUP3 ADD SLT ISZERO PUSH2 0x153 JUMPI DUP1 PUSH1 0x4 ADD CALLDATALOAD SWAP1 PUSH2 0xE5E DUP3 PUSH2 0xE0A JUMP JUMPDEST SWAP3 PUSH2 0xE6C PUSH1 0x40 MLOAD SWAP5 DUP6 PUSH2 0xDE8 JUMP JUMPDEST DUP3 DUP5 MSTORE PUSH1 0x24 DUP4 DUP4 ADD ADD GT PUSH2 0x153 JUMPI DUP2 PUSH0 SWAP3 PUSH1 0x24 PUSH1 0x20 SWAP4 ADD DUP4 DUP7 ADD CALLDATACOPY DUP4 ADD ADD MSTORE SWAP1 JUMP JUMPDEST PUSH0 JUMPDEST DUP4 DUP2 LT PUSH2 0xE9F JUMPI POP POP PUSH0 SWAP2 ADD MSTORE JUMP JUMPDEST DUP2 DUP2 ADD MLOAD DUP4 DUP3 ADD MSTORE PUSH1 0x20 ADD PUSH2 0xE90 JUMP JUMPDEST PUSH1 0x4 CALLDATALOAD SWAP1 PUSH1 0x1 PUSH1 0x1 PUSH1 0xA0 SHL SUB DUP3 AND DUP3 SUB PUSH2 0x153 JUMPI JUMP JUMPDEST PUSH1 0x24 CALLDATALOAD SWAP1 PUSH1 0x1 PUSH1 0x1 PUSH1 0xA0 SHL SUB DUP3 AND DUP3 SUB PUSH2 0x153 JUMPI JUMP JUMPDEST SWAP1 PUSH1 0x20 SWAP2 PUSH2 0xEF4 DUP2 MLOAD DUP1 SWAP3 DUP2 DUP6 MSTORE DUP6 DUP1 DUP7 ADD SWAP2 ADD PUSH2 0xE8E JUMP JUMPDEST PUSH1 0x1F ADD PUSH1 0x1F NOT AND ADD ADD SWAP1 JUMP JUMPDEST PUSH1 0xD SLOAD DUP2 LT ISZERO PUSH2 0xF35 JUMPI PUSH1 0xD PUSH0 MSTORE PUSH32 0xD7B6990105719101DABEB77144F2A3385C8033ACD3AF97E9423A695E81AD1EB5 ADD SWAP1 PUSH0 SWAP1 JUMP JUMPDEST PUSH4 0x4E487B71 PUSH1 0xE0 SHL PUSH0 MSTORE PUSH1 0x32 PUSH1 0x4 MSTORE PUSH1 0x24 PUSH0 REVERT JUMPDEST SWAP1 PUSH1 0x1 DUP3 DUP2 SHR SWAP3 AND DUP1 ISZERO PUSH2 0xF77 JUMPI JUMPDEST PUSH1 0x20 DUP4 LT EQ PUSH2 0xF63 JUMPI JUMP JUMPDEST PUSH4 0x4E487B71 PUSH1 0xE0 SHL PUSH0 MSTORE PUSH1 0x22 PUSH1 0x4 MSTORE PUSH1 0x24 PUSH0 REVERT JUMPDEST SWAP2 PUSH1 0x7F AND SWAP2 PUSH2 0xF58 JUMP JUMPDEST SWAP1 PUSH1 0x40 MLOAD SWAP2 DUP3 PUSH0 DUP3 SLOAD SWAP3 PUSH2 0xF94 DUP5 PUSH2 0xF49 JUMP JUMPDEST SWAP1 DUP2 DUP5 MSTORE PUSH1 0x1 SWAP5 DUP6 DUP2 AND SWAP1 DUP2 PUSH0 EQ PUSH2 0xFFF JUMPI POP PUSH1 0x1 EQ PUSH2 0xFBF JUMPI JUMPDEST POP POP PUSH2 0xFBD SWAP3 POP SUB DUP4 PUSH2 0xDE8 JUMP JUMPDEST JUMP JUMPDEST SWAP1 SWAP4 SWAP2 POP PUSH0 MSTORE PUSH1 0x20 SWAP1 DUP2 PUSH0 KECCAK256 SWAP4 PUSH0 SWAP2 JUMPDEST DUP2 DUP4 LT PUSH2 0xFE7 JUMPI POP POP PUSH2 0xFBD SWAP4 POP DUP3 ADD ADD PUSH0 DUP1 PUSH2 0xFAF JUMP JUMPDEST DUP6 SLOAD DUP9 DUP5 ADD DUP6 ADD MSTORE SWAP5 DUP6 ADD SWAP5 DUP8 SWAP5 POP SWAP2 DUP4 ADD SWAP2 PUSH2 0xFCF JUMP JUMPDEST SWAP2 POP POP PUSH2 0xFBD SWAP5 POP PUSH1 0x20 SWAP3 POP PUSH1 0xFF NOT AND DUP3 DUP5 ADD MSTORE ISZERO ISZERO PUSH1 0x5 SHL DUP3 ADD ADD PUSH0 DUP1 PUSH2 0xFAF JUMP JUMPDEST PUSH1 0xC SLOAD DUP2 LT ISZERO PUSH2 0xF35 JUMPI PUSH1 0x5 SWAP1 PUSH1 0xC PUSH0 MSTORE MUL PUSH32 0xDF6966C971051C3D54EC59162606531493A51404A002842F56009D7E5CF4A8C7 ADD SWAP1 PUSH0 SWAP1 JUMP JUMPDEST DUP1 PUSH0 MSTORE PUSH0 PUSH1 0x20 MSTORE PUSH1 0x40 PUSH0 KECCAK256 CALLER PUSH0 MSTORE PUSH1 0x20 MSTORE PUSH1 0xFF PUSH1 0x40 PUSH0 KECCAK256 SLOAD AND ISZERO PUSH2 0xA93 JUMPI POP JUMP JUMPDEST SWAP1 PUSH0 SWAP2 DUP1 DUP4 MSTORE DUP3 PUSH1 0x20 MSTORE PUSH1 0x40 DUP4 KECCAK256 SWAP2 PUSH1 0x1 DUP1 PUSH1 0xA0 SHL SUB AND SWAP2 DUP3 DUP5 MSTORE PUSH1 0x20 MSTORE PUSH1 0xFF PUSH1 0x40 DUP5 KECCAK256 SLOAD AND ISZERO PUSH0 EQ PUSH2 0x10F3 JUMPI DUP1 DUP4 MSTORE DUP3 PUSH1 0x20 MSTORE PUSH1 0x40 DUP4 KECCAK256 DUP3 DUP5 MSTORE PUSH1 0x20 MSTORE PUSH1 0x40 DUP4 KECCAK256 PUSH1 0x1 PUSH1 0xFF NOT DUP3 SLOAD AND OR SWAP1 SSTORE PUSH32 0x2F8788117E7EFF1D82E926EC794901D17C78024A50270940304540A733656F0D CALLER SWAP4 DUP1 LOG4 PUSH1 0x1 SWAP1 JUMP JUMPDEST POP POP SWAP1 JUMP JUMPDEST SWAP1 PUSH0 SWAP2 DUP1 DUP4 MSTORE DUP3 PUSH1 0x20 MSTORE PUSH1 0x40 DUP4 KECCAK256 SWAP2 PUSH1 0x1 DUP1 PUSH1 0xA0 SHL SUB AND SWAP2 DUP3 DUP5 MSTORE PUSH1 0x20 MSTORE PUSH1 0xFF PUSH1 0x40 DUP5 KECCAK256 SLOAD AND PUSH0 EQ PUSH2 0x10F3 JUMPI DUP1 DUP4 MSTORE DUP3 PUSH1 0x20 MSTORE PUSH1 0x40 DUP4 KECCAK256 DUP3 DUP5 MSTORE PUSH1 0x20 MSTORE PUSH1 0x40 DUP4 KECCAK256 PUSH1 0xFF NOT DUP2 SLOAD AND SWAP1 SSTORE PUSH32 0xF6391F5C32D9C69D2A47EA670B442974B53935D1EDC7FD64EB21E047A839171B CALLER SWAP4 DUP1 LOG4 PUSH1 0x1 SWAP1 JUMP JUMPDEST PUSH0 NOT DUP2 EQ PUSH2 0x919 JUMPI PUSH1 0x1 ADD SWAP1 JUMP JUMPDEST DUP2 PUSH1 0x1F DUP3 ADD SLT ISZERO PUSH2 0x153 JUMPI DUP1 MLOAD PUSH2 0x118F DUP2 PUSH2 0xE0A JUMP JUMPDEST SWAP3 PUSH2 0x119D PUSH1 0x40 MLOAD SWAP5 DUP6 PUSH2 0xDE8 JUMP JUMPDEST DUP2 DUP5 MSTORE PUSH1 0x20 DUP3 DUP5 ADD ADD GT PUSH2 0x153 JUMPI PUSH2 0x11BB SWAP2 PUSH1 0x20 DUP1 DUP6 ADD SWAP2 ADD PUSH2 0xE8E JUMP JUMPDEST SWAP1 JUMP JUMPDEST MLOAD SWAP1 PUSH1 0x1 PUSH1 0x1 PUSH1 0xA0 SHL SUB DUP3 AND DUP3 SUB PUSH2 0x153 JUMPI JUMP JUMPDEST MLOAD SWAP1 DUP2 ISZERO ISZERO DUP3 SUB PUSH2 0x153 JUMPI JUMP JUMPDEST SWAP2 SWAP1 DUP3 ADD DUP1 SWAP3 GT PUSH2 0x919 JUMPI JUMP JUMPDEST DUP2 ISZERO PUSH2 0x11F6 JUMPI DIV SWAP1 JUMP JUMPDEST PUSH4 0x4E487B71 PUSH1 0xE0 SHL PUSH0 MSTORE PUSH1 0x12 PUSH1 0x4 MSTORE PUSH1 0x24 PUSH0 REVERT JUMPDEST PUSH1 0x3 SLOAD DUP1 ISZERO PUSH2 0x1233 JUMPI PUSH1 0x5 SLOAD SWAP1 PUSH1 0x64 DUP3 MUL SWAP2 DUP1 DUP4 DIV PUSH1 0x64 EQ SWAP1 ISZERO OR ISZERO PUSH2 0x919 JUMPI PUSH2 0x11BB SWAP2 PUSH2 0x11EC JUMP JUMPDEST POP PUSH0 SWAP1 JUMP JUMPDEST PUSH1 0x3 SLOAD DUP1 ISZERO PUSH2 0x1233 JUMPI PUSH1 0x4 SLOAD SWAP1 PUSH1 0x64 DUP3 MUL SWAP2 DUP1 DUP4 DIV PUSH1 0x64 EQ SWAP1 ISZERO OR ISZERO PUSH2 0x919 JUMPI PUSH2 0x11BB SWAP2 PUSH2 0x11EC JUMP INVALID LOG2 PUSH5 0x6970667358 0x22 SLT KECCAK256 0xCA 0xD3 0xFC DUP2 ORIGIN 0x2E PUSH11 0xE1C8B826F13934130ED7CF PUSH17 0xDCA39226FEA70AD4CF6B63B0F264736F6C PUSH4 0x43000814 STOP CALLER 0x2F DUP8 DUP9 GT PUSH31 0x7EFF1D82E926EC794901D17C78024A50270940304540A733656F0D00000000 "},"methodIdentifiers":{"ANALYST_ROLE()":"bbbb0a8f","DEFAULT_ADMIN_ROLE()":"a217fddf","ctbalToken()":"5501e9c7","getAllTestTypes()":"3961498e","getClinicianPerformance(address)":"af895800","getCompletionRate()":"0cdaecc6","getOverallMetrics()":"682b4860","getPatientParticipation(address)":"1c43f491","getRoleAdmin(bytes32)":"248a9ca3","getTestTypeMetrics(string)":"e205f3bf","getTimeSeriesData(uint256)":"df527f01","getTimeSeriesLength()":"2587cfe8","getValidationRate()":"28377274","grantRole(bytes32,address)":"2f2ff15d","hasRole(bytes32,address)":"91d14854","metrics()":"a04748f6","renounceRole(bytes32,address)":"36568abe","revokeRole(bytes32,address)":"d547741f","supportsInterface(bytes4)":"01ffc9a7","testTypeExists(string)":"19644f56","testTypes(uint256)":"af07d6f3","timeSeriesData(uint256)":"ddea88ff","updateMetrics()":"8cb079db"}}}}}