{"project/contracts/CTBALToken.sol":{"CTBALToken":{"abi":[{"inputs":[{"internalType":"string","name":"name","type":"string"},{"internalType":"string","name":"symbol","type":"string"},{"internalType":"uint256","name":"initialSupply","type":"uint256"}],"stateMutability":"nonpayable","type":"constructor"},{"inputs":[],"name":"AccessControlBadConfirmation","type":"error"},{"inputs":[{"internalType":"address","name":"account","type":"address"},{"internalType":"bytes32","name":"neededRole","type":"bytes32"}],"name":"AccessControlUnauthorizedAccount","type":"error"},{"inputs":[{"internalType":"address","name":"spender","type":"address"},{"internalType":"uint256","name":"allowance","type":"uint256"},{"internalType":"uint256","name":"needed","type":"uint256"}],"name":"ERC20InsufficientAllowance","type":"error"},{"inputs":[{"internalType":"address","name":"sender","type":"address"},{"internalType":"uint256","name":"balance","type":"uint256"},{"internalType":"uint256","name":"needed","type":"uint256"}],"name":"ERC20InsufficientBalance","type":"error"},{"inputs":[{"internalType":"address","name":"approver","type":"address"}],"name":"ERC20InvalidApprover","type":"error"},{"inputs":[{"internalType":"address","name":"receiver","type":"address"}],"name":"ERC20InvalidReceiver","type":"error"},{"inputs":[{"internalType":"address","name":"sender","type":"address"}],"name":"ERC20InvalidSender","type":"error"},{"inputs":[{"internalType":"address","name":"spender","type":"address"}],"name":"ERC20InvalidSpender","type":"error"},{"inputs":[],"name":"EnforcedPause","type":"error"},{"inputs":[],"name":"ExpectedPause","type":"error"},{"inputs":[],"name":"ReentrancyGuardReentrantCall","type":"error"},{"anonymous":false,"inputs":[{"indexed":true,"internalType":"address","name":"owner","type":"address"},{"indexed":true,"internalType":"address","name":"spender","type":"address"},{"indexed":false,"internalType":"uint256","name":"value","type":"uint256"}],"name":"Approval","type":"event"},{"anonymous":false,"inputs":[{"indexed":true,"internalType":"address","name":"account","type":"address"},{"indexed":false,"internalType":"uint256","name":"previousBalance","type":"uint256"},{"indexed":false,"internalType":"uint256","name":"newBalance","type":"uint256"},{"indexed":false,"internalType":"string","name":"operation","type":"string"},{"indexed":true,"internalType":"address","name":"authorizer","type":"address"}],"name":"AuditRecorded","type":"event"},{"anonymous":false,"inputs":[{"indexed":true,"internalType":"uint256","name":"testId","type":"uint256"},{"indexed":true,"internalType":"address","name":"clinician","type":"address"},{"indexed":false,"internalType":"uint256","name":"timestamp","type":"uint256"}],"name":"ClinicalTestCompleted","type":"event"},{"anonymous":false,"inputs":[{"indexed":true,"internalType":"uint256","name":"testId","type":"uint256"},{"indexed":true,"internalType":"address","name":"clinician","type":"address"},{"indexed":true,"internalType":"address","name":"patient","type":"address"},{"indexed":false,"internalType":"string","name":"testType","type":"string"},{"indexed":false,"internalType":"uint256","name":"associatedTokens","type":"uint256"},{"indexed":false,"internalType":"string","name":"dataHash","type":"string"}],"name":"ClinicalTestCreated","type":"event"},{"anonymous":false,"inputs":[{"indexed":true,"internalType":"uint256","name":"testId","type":"uint256"},{"indexed":true,"internalType":"address","name":"validator","type":"address"},{"indexed":false,"internalType":"uint256","name":"timestamp","type":"uint256"}],"name":"ClinicalTestValidated","type":"event"},{"anonymous":false,"inputs":[{"indexed":false,"internalType":"address","name":"account","type":"address"}],"name":"Paused","type":"event"},{"anonymous":false,"inputs":[{"indexed":true,"internalType":"bytes32","name":"role","type":"bytes32"},{"indexed":true,"internalType":"bytes32","name":"previousAdminRole","type":"bytes32"},{"indexed":true,"internalType":"bytes32","name":"newAdminRole","type":"bytes32"}],"name":"RoleAdminChanged","type":"event"},{"anonymous":false,"inputs":[{"indexed":true,"internalType":"bytes32","name":"role","type":"bytes32"},{"indexed":true,"internalType":"address","name":"account","type":"address"},{"indexed":true,"internalType":"address","name":"sender","type":"address"}],"name":"RoleGranted","type":"event"},{"anonymous":false,"inputs":[{"indexed":true,"internalType":"bytes32","name":"role","type":"bytes32"},{"indexed":true,"internalType":"address","name":"account","type":"address"},{"indexed":true,"internalType":"address","name":"sender","type":"address"}],"name":"RoleRevoked","type":"event"},{"anonymous":false,"inputs":[{"indexed":true,"internalType":"uint256","name":"testId","type":"uint256"},{"indexed":true,"internalType":"address","name":"approver","type":"address"},{"indexed":false,"internalType":"uint256","name":"approvalCount","type":"uint256"}],"name":"TestApprovalReceived","type":"event"},{"anonymous":false,"inputs":[{"indexed":true,"internalType":"address","name":"from","type":"address"},{"indexed":true,"internalType":"address","name":"to","type":"address"},{"indexed":false,"internalType":"uint256","name":"value","type":"uint256"}],"name":"Transfer","type":"event"},{"anonymous":false,"inputs":[{"indexed":false,"internalType":"address","name":"account","type":"address"}],"name":"Unpaused","type":"event"},{"inputs":[],"name":"AUDITOR_ROLE","outputs":[{"internalType":"bytes32","name":"","type":"bytes32"}],"stateMutability":"view","type":"function"},{"inputs":[],"name":"CLINICAL_ADMIN_ROLE","outputs":[{"internalType":"bytes32","name":"","type":"bytes32"}],"stateMutability":"view","type":"function"},{"inputs":[],"name":"CLINICIAN_ROLE","outputs":[{"internalType":"bytes32","name":"","type":"bytes32"}],"stateMutability":"view","type":"function"},{"inputs":[],"name":"DEFAULT_ADMIN_ROLE","outputs":[{"internalType":"bytes32","name":"","type":"bytes32"}],"stateMutability":"view","type":"function"},{"inputs":[],"name":"VALIDATOR_ROLE","outputs":[{"internalType":"bytes32","name":"","type":"bytes32"}],"stateMutability":"view","type":"function"},{"inputs":[{"internalType":"address","name":"owner","type":"address"},{"internalType":"address","name":"spender","type":"address"}],"name":"allowance","outputs":[{"internalType":"uint256","name":"","type":"uint256"}],"stateMutability":"view","type":"function"},{"inputs":[{"internalType":"address","name":"spender","type":"address"},{"internalType":"uint256","name":"value","type":"uint256"}],"name":"approve","outputs":[{"internalType":"bool","name":"","type":"bool"}],"stateMutability":"nonpayable","type":"function"},{"inputs":[{"internalType":"uint256","name":"testId","type":"uint256"}],"name":"approveClinicalTest","outputs":[],"stateMutability":"nonpayable","type":"function"},{"inputs":[{"internalType":"uint256","name":"","type":"uint256"}],"name":"auditTrail","outputs":[{"internalType":"address","name":"account","type":"address"},{"internalType":"uint256","name":"previousBalance","type":"uint256"},{"internalType":"uint256","name":"newBalance","type":"uint256"},{"internalType":"uint256","name":"timestamp","type":"uint256"},{"internalType":"string","name":"operation","type":"string"},{"internalType":"address","name":"authorizer","type":"address"},{"internalType":"uint256","name":"testId","type":"uint256"}],"stateMutability":"view","type":"function"},{"inputs":[{"internalType":"address","name":"account","type":"address"}],"name":"balanceOf","outputs":[{"internalType":"uint256","name":"","type":"uint256"}],"stateMutability":"view","type":"function"},{"inputs":[{"internalType":"uint256","name":"","type":"uint256"}],"name":"clinicalTests","outputs":[{"internalType":"uint256","name":"testId","type":"uint256"},{"internalType":"string","name":"testType","type":"string"},{"internalType":"address","name":"clinician","type":"address"},{"internalType":"address","name":"patient","type":"address"},{"internalType":"uint256","name":"timestamp","type":"uint256"},{"internalType":"string","name":"dataHash","type":"string"},{"internalType":"string","name":"metadataHash","type":"string"},{"internalType":"bool","name":"validated","type":"bool"},{"internalType":"bool","name":"completed","type":"bool"},{"internalType":"uint256","name":"associatedTokens","type":"uint256"},{"internalType":"uint256","name":"approvalCount","type":"uint256"}],"stateMutability":"view","type":"function"},{"inputs":[{"internalType":"address","name":"","type":"address"},{"internalType":"uint256","name":"","type":"uint256"}],"name":"clinicianTests","outputs":[{"internalType":"uint256","name":"","type":"uint256"}],"stateMutability":"view","type":"function"},{"inputs":[{"internalType":"uint256","name":"testId","type":"uint256"}],"name":"completeClinicalTest","outputs":[],"stateMutability":"nonpayable","type":"function"},{"inputs":[{"internalType":"string","name":"testType","type":"string"},{"internalType":"address","name":"patient","type":"address"},{"internalType":"string","name":"dataHash","type":"string"},{"internalType":"string","name":"metadataHash","type":"string"},{"internalType":"uint256","name":"tokenAllocation","type":"uint256"}],"name":"createClinicalTest","outputs":[{"internalType":"uint256","name":"","type":"uint256"}],"stateMutability":"nonpayable","type":"function"},{"inputs":[],"name":"decimals","outputs":[{"internalType":"uint8","name":"","type":"uint8"}],"stateMutability":"view","type":"function"},{"inputs":[{"internalType":"uint256","name":"index","type":"uint256"}],"name":"getAuditRecord","outputs":[{"components":[{"internalType":"address","name":"account","type":"address"},{"internalType":"uint256","name":"previousBalance","type":"uint256"},{"internalType":"uint256","name":"newBalance","type":"uint256"},{"internalType":"uint256","name":"timestamp","type":"uint256"},{"internalType":"string","name":"operation","type":"string"},{"internalType":"address","name":"authorizer","type":"address"},{"internalType":"uint256","name":"testId","type":"uint256"}],"internalType":"struct CTBALToken.AuditRecord","name":"","type":"tuple"}],"stateMutability":"view","type":"function"},{"inputs":[],"name":"getAuditTrailLength","outputs":[{"internalType":"uint256","name":"","type":"uint256"}],"stateMutability":"view","type":"function"},{"inputs":[{"internalType":"uint256","name":"testId","type":"uint256"}],"name":"getClinicalTest","outputs":[{"internalType":"uint256","name":"id","type":"uint256"},{"internalType":"string","name":"testType","type":"string"},{"internalType":"address","name":"clinician","type":"address"},{"internalType":"address","name":"patient","type":"address"},{"internalType":"uint256","name":"timestamp","type":"uint256"},{"internalType":"string","name":"dataHash","type":"string"},{"internalType":"string","name":"metadataHash","type":"string"},{"internalType":"bool","name":"validated","type":"bool"},{"internalType":"bool","name":"completed","type":"bool"},{"internalType":"uint256","name":"associatedTokens","type":"uint256"},{"internalType":"uint256","name":"approvalCount","type":"uint256"}],"stateMutability":"view","type":"function"},{"inputs":[{"internalType":"address","name":"clinician","type":"address"}],"name":"getClinicianTests","outputs":[{"internalType":"uint256[]","name":"","type":"uint256[]"}],"stateMutability":"view","type":"function"},{"inputs":[{"internalType":"address","name":"patient","type":"address"}],"name":"getPatientTests","outputs":[{"internalType":"uint256[]","name":"","type":"uint256[]"}],"stateMutability":"view","type":"function"},{"inputs":[{"internalType":"bytes32","name":"role","type":"bytes32"}],"name":"getRoleAdmin","outputs":[{"internalType":"bytes32","name":"","type":"bytes32"}],"stateMutability":"view","type":"function"},{"inputs":[{"internalType":"bytes32","name":"role","type":"bytes32"},{"internalType":"address","name":"account","type":"address"}],"name":"grantRole","outputs":[],"stateMutability":"nonpayable","type":"function"},{"inputs":[{"internalType":"bytes32","name":"role","type":"bytes32"},{"internalType":"address","name":"account","type":"address"}],"name":"hasRole","outputs":[{"internalType":"bool","name":"","type":"bool"}],"stateMutability":"view","type":"function"},{"inputs":[{"internalType":"address","name":"to","type":"address"},{"internalType":"uint256","name":"amount","type":"uint256"}],"name":"mint","outputs":[],"stateMutability":"nonpayable","type":"function"},{"inputs":[],"name":"name","outputs":[{"internalType":"string","name":"","type":"string"}],"stateMutability":"view","type":"function"},{"inputs":[{"internalType":"address","name":"","type":"address"},{"internalType":"uint256","name":"","type":"uint256"}],"name":"patientTests","outputs":[{"internalType":"uint256","name":"","type":"uint256"}],"stateMutability":"view","type":"function"},{"inputs":[],"name":"pause","outputs":[],"stateMutability":"nonpayable","type":"function"},{"inputs":[],"name":"paused","outputs":[{"internalType":"bool","name":"","type":"bool"}],"stateMutability":"view","type":"function"},{"inputs":[{"internalType":"bytes32","name":"role","type":"bytes32"},{"internalType":"address","name":"callerConfirmation","type":"address"}],"name":"renounceRole","outputs":[],"stateMutability":"nonpayable","type":"function"},{"inputs":[{"internalType":"bytes32","name":"role","type":"bytes32"},{"internalType":"address","name":"account","type":"address"}],"name":"revokeRole","outputs":[],"stateMutability":"nonpayable","type":"function"},{"inputs":[{"internalType":"bytes4","name":"interfaceId","type":"bytes4"}],"name":"supportsInterface","outputs":[{"internalType":"bool","name":"","type":"bool"}],"stateMutability":"view","type":"function"},{"inputs":[],"name":"symbol","outputs":[{"internalType":"string","name":"","type":"string"}],"stateMutability":"view","type":"function"},{"inputs":[{"internalType":"string","name":"","type":"string"}],"name":"testTypeCount","outputs":[{"internalType":"uint256","name":"","type":"uint256"}],"stateMutability":"view","type":"function"},{"inputs":[],"name":"totalClinicalTests","outputs":[{"internalType":"uint256","name":"","type":"uint256"}],"stateMutability":"view","type":"function"},{"inputs":[],"name":"totalSupply","outputs":[{"internalType":"uint256","name":"","type":"uint256"}],"stateMutability":"view","type":"function"},{"inputs":[{"internalType":"address","name":"to","type":"address"},{"internalType":"uint256","name":"amount","type":"uint256"}],"name":"transfer","outputs":[{"internalType":"bool","name":"","type":"bool"}],"stateMutability":"nonpayable","type":"function"},{"inputs":[{"internalType":"address","name":"from","type":"address"},{"internalType":"address","name":"to","type":"address"},{"internalType":"uint256","name":"value","type":"uint256"}],"name":"transferFrom","outputs":[{"internalType":"bool","name":"","type":"bool"}],"stateMutability":"nonpayable","type":"function"},{"inputs":[],"name":"unpause","outputs":[],"stateMutability":"nonpayable","type":"function"},{"inputs":[{"internalType":"uint256","name":"testId","type":"uint256"}],"name":"validateClinicalTest","outputs":[],"stateMutability":"nonpayable","type":"function"},{"inputs":[],"name":"validatedTests","outputs":[{"internalType":"uint256","name":"","type":"uint256"}],"stateMutability":"view","type":"function"}],"evm":{"bytecode":{"linkReferences":{},"object":"608060405234801562000010575f80fd5b5060405162002ea538038062002ea58339810160408190526200003391620003a4565b828260036200004383826200049e565b5060046200005282826200049e565b5050600160075550620000665f33620000c7565b50620000937f4b346d9ac223184c8768fae9f0f9cc7825dd24f5ba7c8c677c34451ba15eca6433620000c7565b50620000b933620000a76012600a62000673565b620000b390846200068a565b62000177565b50506001600d5550620006ba565b5f8281526005602090815260408083206001600160a01b038516845290915281205460ff166200016e575f8381526005602090815260408083206001600160a01b03861684529091529020805460ff19166001179055620001253390565b6001600160a01b0316826001600160a01b0316847f2f8788117e7eff1d82e926ec794901d17c78024a50270940304540a733656f0d60405160405180910390a450600162000171565b505f5b92915050565b6001600160a01b038216620001a65760405163ec442f0560e01b81525f60048201526024015b60405180910390fd5b620001b35f8383620001b7565b5050565b6001600160a01b038316620001e5578060025f828254620001d99190620006a4565b90915550620002579050565b6001600160a01b0383165f9081526020819052604090205481811015620002395760405163391434e360e21b81526001600160a01b038516600482015260248101829052604481018390526064016200019d565b6001600160a01b0384165f9081526020819052604090209082900390555b6001600160a01b038216620002755760028054829003905562000293565b6001600160a01b0382165f9081526020819052604090208054820190555b816001600160a01b0316836001600160a01b03167fddf252ad1be2c89b69c2b068fc378daa952ba7f163c4a11628f55a4df523b3ef83604051620002d991815260200190565b60405180910390a3505050565b634e487b7160e01b5f52604160045260245ffd5b5f82601f8301126200030a575f80fd5b81516001600160401b0380821115620003275762000327620002e6565b604051601f8301601f19908116603f01168101908282118183101715620003525762000352620002e6565b816040528381526020925086838588010111156200036e575f80fd5b5f91505b8382101562000391578582018301518183018401529082019062000372565b5f93810190920192909252949350505050565b5f805f60608486031215620003b7575f80fd5b83516001600160401b0380821115620003ce575f80fd5b620003dc87838801620002fa565b94506020860151915080821115620003f2575f80fd5b506200040186828701620002fa565b925050604084015190509250925092565b600181811c908216806200042757607f821691505b6020821081036200044657634e487b7160e01b5f52602260045260245ffd5b50919050565b601f82111562000499575f81815260208120601f850160051c81016020861015620004745750805b601f850160051c820191505b81811015620004955782815560010162000480565b5050505b505050565b81516001600160401b03811115620004ba57620004ba620002e6565b620004d281620004cb845462000412565b846200044c565b602080601f83116001811462000508575f8415620004f05750858301515b5f19600386901b1c1916600185901b17855562000495565b5f85815260208120601f198616915b82811015620005385788860151825594840194600190910190840162000517565b50858210156200055657878501515f19600388901b60f8161c191681555b5050505050600190811b01905550565b634e487b7160e01b5f52601160045260245ffd5b600181815b80851115620005ba57815f19048211156200059e576200059e62000566565b80851615620005ac57918102915b93841c93908002906200057f565b509250929050565b5f82620005d25750600162000171565b81620005e057505f62000171565b8160018114620005f95760028114620006045762000624565b600191505062000171565b60ff84111562000618576200061862000566565b50506001821b62000171565b5060208310610133831016604e8410600b841016171562000649575081810a62000171565b6200065583836200057a565b805f19048211156200066b576200066b62000566565b029392505050565b5f6200068360ff841683620005c2565b9392505050565b808202811582820484141762000171576200017162000566565b8082018082111562000171576200017162000566565b6127dd80620006c85f395ff3fe608060405234801561000f575f80fd5b506004361061023f575f3560e01c80636e1d616e11610135578063a5817e13116100b4578063c49baebe11610079578063c49baebe1461051d578063cbf3710014610544578063d547741f14610557578063dd62ed3e1461056a578063ddaf0929146105a2575f80fd5b8063a5817e131461049c578063a9059cbb146104c3578063b213cb9d146104d6578063b3649a7e146104e9578063b9f83801146104f2575f80fd5b80638f37a90f116100fa5780638f37a90f1461045357806391d148541461046757806395d89b411461047a5780639a2e6b8414610482578063a217fddf14610495575f80fd5b80636e1d616e146103de5780636f17c8b41461040557806370a0823114610418578063783b8bd01461042b5780638456cb591461044b575f80fd5b806340c10f19116101c15780634e6f13d3116101865780634e6f13d3146103845780634f7f6831146103975780635b2801a4146103a05780635c975abb146103c057806365143195146103cb575f80fd5b806340c10f19146103195780634417da291461032c57806349270315146103565780634a3b17b11461035e5780634a84e10414610371575f80fd5b8063248a9ca311610207578063248a9ca3146102b85780632f2ff15d146102da578063313ce567146102ef57806336568abe146102fe5780633f4ba83a14610311575f80fd5b806301ffc9a71461024357806306fdde031461026b578063095ea7b31461028057806318160ddd1461029357806323b872dd146102a5575b5f80fd5b6102566102513660046120bd565b6105c8565b60405190151581526020015b60405180910390f35b6102736105fe565b6040516102629190612138565b61025661028e366004612165565b61068e565b6002545b604051908152602001610262565b6102566102b336600461218d565b6106a5565b6102976102c63660046121c6565b5f9081526005602052604090206001015490565b6102ed6102e83660046121dd565b6106c8565b005b60405160128152602001610262565b6102ed61030c3660046121dd565b6106f2565b6102ed61072a565b6102ed610327366004612165565b61074c565b61033f61033a3660046121c6565b6107bb565b6040516102629b9a99989796959493929190612207565b600c54610297565b61029761036c366004612165565b610a23565b61029761037f366004612165565b610a4e565b6102ed6103923660046121c6565b610a67565b610297600e5481565b6103b36103ae366004612294565b610ccf565b60405161026291906122ad565b60065460ff16610256565b6102ed6103d93660046121c6565b610d38565b6102977f59a1c48e5837ad7a7f3dcedcbe129bf3249ec4fbf651fd4f5e2600ead39fe2f581565b61033f6104133660046121c6565b610e84565b610297610426366004612294565b611080565b61043e6104393660046121c6565b61109a565b60405161026291906122f0565b6102ed611256565b6102975f8051602061278883398151915281565b6102566104753660046121dd565b611275565b61027361129f565b6102976104903660046123fd565b6112ae565b6102975f81565b6102977fe497b4ad79a67650fca774cf0812e4505f07dd6d87a3c1afc29076ccc8bbcefe81565b6102566104d1366004612165565b611657565b6103b36104e4366004612294565b6116d0565b610297600f5481565b610297610500366004612497565b8051602081830181018051600b8252928201919093012091525481565b6102977f21702c8af46127c7fa207f89d0b0a8441bb32959a0ac7df790e9ab1a25c9892681565b6102ed6105523660046121c6565b611737565b6102ed6105653660046121dd565b6118b0565b6102976105783660046124d1565b6001600160a01b039182165f90815260016020908152604080832093909416825291909152205490565b6105b56105b03660046121c6565b6118d4565b60405161026297969594939291906124f9565b5f6001600160e01b03198216637965db0b60e01b14806105f857506301ffc9a760e01b6001600160e01b03198316145b92915050565b60606003805461060d90612541565b80601f016020809104026020016040519081016040528092919081815260200182805461063990612541565b80156106845780601f1061065b57610100808354040283529160200191610684565b820191905f5260205f20905b81548152906001019060200180831161066757829003601f168201915b5050505050905090565b5f3361069b8185856119bd565b5060019392505050565b5f336106b28582856119ca565b6106bd858585611a40565b506001949350505050565b5f828152600560205260409020600101546106e281611a9d565b6106ec8383611aa7565b50505050565b6001600160a01b038116331461071b5760405163334bd91960e11b815260040160405180910390fd5b6107258282611b38565b505050565b5f8051602061278883398151915261074181611a9d565b610749611ba3565b50565b5f8051602061278883398151915261076381611a9d565b61076d8383611bf5565b610725838361077b86611080565b610785919061258d565b61078e86611080565b6040518060400160405280600d81526020016c546f6b656e206d696e74696e6760981b815250335f611c2d565b5f60605f805f6060805f805f805f8c1180156107d85750600d548c105b6107fd5760405162461bcd60e51b81526004016107f4906125a0565b60405180910390fd5b5f8c81526008602081905260409091208054600282015460038301546004840154600785015495850154600a8601546001870180549798969790966001600160a01b03968716969095169460058a019360068b019360ff8084169461010090940416928a9061086b90612541565b80601f016020809104026020016040519081016040528092919081815260200182805461089790612541565b80156108e25780601f106108b9576101008083540402835291602001916108e2565b820191905f5260205f20905b8154815290600101906020018083116108c557829003601f168201915b505050505099508580546108f590612541565b80601f016020809104026020016040519081016040528092919081815260200182805461092190612541565b801561096c5780601f106109435761010080835404028352916020019161096c565b820191905f5260205f20905b81548152906001019060200180831161094f57829003601f168201915b5050505050955084805461097f90612541565b80601f01602080910402602001604051908101604052809291908181526020018280546109ab90612541565b80156109f65780601f106109cd576101008083540402835291602001916109f6565b820191905f5260205f20905b8154815290600101906020018083116109d957829003601f168201915b505050505094509b509b509b509b509b509b509b509b509b509b509b505091939597999b90929496989a50565b600a602052815f5260405f208181548110610a3c575f80fd5b905f5260205f20015f91509150505481565b6009602052815f5260405f208181548110610a3c575f80fd5b7fe497b4ad79a67650fca774cf0812e4505f07dd6d87a3c1afc29076ccc8bbcefe610a9181611a9d565b610a99611ddc565b5f82118015610aa95750600d5482105b610ac55760405162461bcd60e51b81526004016107f4906125a0565b5f828152600860205260409020600201546001600160a01b03163314610b1e5760405162461bcd60e51b815260206004820152600e60248201526d2737ba103a32b9ba1037bbb732b960911b60448201526064016107f4565b5f8281526008602052604090206007015460ff16610b735760405162461bcd60e51b815260206004820152601260248201527115195cdd081b9bdd081d985b1a59185d195960721b60448201526064016107f4565b5f82815260086020526040902060070154610100900460ff1615610bd25760405162461bcd60e51b815260206004820152601660248201527515195cdd08185b1c9958591e4818dbdb5c1b195d195960521b60448201526064016107f4565b5f82815260086020819052604090912060078101805461ff0019166101001790556003810154918101549091610c139130916001600160a01b031690611a40565b60038101546008820154610c92916001600160a01b031690610c3482611080565b610c3e919061258d565b6003840154610c55906001600160a01b0316611080565b6040518060400160405280601881526020017f436c696e6963616c207465737420636f6d706c6574696f6e00000000000000008152503388611c2d565b604051428152339084907ffbf860a58bb486670a4ab1d426433f88cf08e59ca817a52d7050d5cd6f7eee5c906020015b60405180910390a3505050565b6001600160a01b0381165f90815260096020908152604091829020805483518184028101840190945280845260609392830182828015610d2c57602002820191905f5260205f20905b815481526020019060010190808311610d18575b50505050509050919050565b7f21702c8af46127c7fa207f89d0b0a8441bb32959a0ac7df790e9ab1a25c98926610d6281611a9d565b610d6a611ddc565b5f82118015610d7a5750600d5482105b610d965760405162461bcd60e51b81526004016107f4906125a0565b5f82815260086020908152604080832033845260090190915290205460ff1615610df55760405162461bcd60e51b815260206004820152601060248201526f105b1c9958591e48185c1c1c9bdd995960821b60448201526064016107f4565b5f828152600860208181526040808420338552600981018352908420805460ff19166001179055858452919052600a01805491610e31836125c9565b90915550505f82815260086020908152604091829020600a01549151918252339184917fbfa63a3fd1a533e040d9abbba71dad5bd30ae49ba7650b37708bfd596826074791015b60405180910390a35050565b60086020525f908152604090208054600182018054919291610ea590612541565b80601f0160208091040260200160405190810160405280929190818152602001828054610ed190612541565b8015610f1c5780601f10610ef357610100808354040283529160200191610f1c565b820191905f5260205f20905b815481529060010190602001808311610eff57829003601f168201915b5050505060028301546003840154600485015460058601805495966001600160a01b03948516969490931694509092610f5490612541565b80601f0160208091040260200160405190810160405280929190818152602001828054610f8090612541565b8015610fcb5780601f10610fa257610100808354040283529160200191610fcb565b820191905f5260205f20905b815481529060010190602001808311610fae57829003601f168201915b505050505090806006018054610fe090612541565b80601f016020809104026020016040519081016040528092919081815260200182805461100c90612541565b80156110575780601f1061102e57610100808354040283529160200191611057565b820191905f5260205f20905b81548152906001019060200180831161103a57829003601f168201915b50505060078401546008850154600a90950154939460ff8083169561010090930416935091508b565b6001600160a01b03165f9081526020819052604090205490565b6110e66040518060e001604052805f6001600160a01b031681526020015f81526020015f81526020015f8152602001606081526020015f6001600160a01b031681526020015f81525090565b600c54821061112d5760405162461bcd60e51b8152602060048201526013602482015272092dcecc2d8d2c840c2eac8d2e840d2dcc8caf606b1b60448201526064016107f4565b600c8281548110611140576111406125e1565b905f5260205f2090600702016040518060e00160405290815f82015f9054906101000a90046001600160a01b03166001600160a01b03166001600160a01b031681526020016001820154815260200160028201548152602001600382015481526020016004820180546111b290612541565b80601f01602080910402602001604051908101604052809291908181526020018280546111de90612541565b80156112295780601f1061120057610100808354040283529160200191611229565b820191905f5260205f20905b81548152906001019060200180831161120c57829003601f168201915b505050918352505060058201546001600160a01b0316602082015260069091015460409091015292915050565b5f8051602061278883398151915261126d81611a9d565b610749611e02565b5f9182526005602090815260408084206001600160a01b0393909316845291905290205460ff1690565b60606004805461060d90612541565b5f7fe497b4ad79a67650fca774cf0812e4505f07dd6d87a3c1afc29076ccc8bbcefe6112d981611a9d565b6112e1611ddc565b6001600160a01b0386166113375760405162461bcd60e51b815260206004820152601760248201527f496e76616c69642070617469656e74206164647265737300000000000000000060448201526064016107f4565b5f87511161137c5760405162461bcd60e51b815260206004820152601260248201527115195cdd081d1e5c19481c995c5d5a5c995960721b60448201526064016107f4565b5f8551116113c15760405162461bcd60e51b815260206004820152601260248201527111185d18481a185cda081c995c5d5a5c995960721b60448201526064016107f4565b5f831161141a5760405162461bcd60e51b815260206004820152602160248201527f546f6b656e20616c6c6f636174696f6e206d75737420626520706f73697469766044820152606560f81b60648201526084016107f4565b8261142433611080565b10156114685760405162461bcd60e51b8152602060048201526013602482015272496e73756666696369656e7420746f6b656e7360681b60448201526064016107f4565b600d80549081905f611479836125c9565b90915550505f8181526008602052604090208181556001810161149c8a82612642565b50600281018054336001600160a01b0319918216179091556003820180549091166001600160a01b038a16179055426004820155600581016114de8882612642565b50600681016114ed8782612642565b5060078101805461ffff19169055600881018590555f600a8083018290556001600160a01b038a1682526009602090815260408084208054600181810183559186528386200187905533855292825280842080549384018155845292200183905551600b9061155d908b906126fe565b9081526040519081900360200190208054905f611579836125c9565b9091555050600e8054905f61158d836125c9565b919050555061159d333087611a40565b6115fb30866115ab30611080565b6115b5919061258d565b6115be30611080565b6040518060400160405280601a81526020017f436c696e6963616c207465737420746f6b656e20657363726f770000000000008152503387611c2d565b876001600160a01b0316336001600160a01b0316837f7e7721f707738e432843dbd16824401362df6792b22783dc84f559fa5b71b0208c898c60405161164393929190612719565b60405180910390a450979650505050505050565b5f611660611e3f565b611668611ddc565b5f61167284611080565b90505f61167f8585611e69565b905080156116c3576116c3858361169588611080565b6040518060400160405280600e81526020016d2a37b5b2b7103a3930b739b332b960911b815250335f611c2d565b9150506105f86001600755565b6001600160a01b0381165f908152600a6020908152604091829020805483518184028101840190945280845260609392830182828015610d2c57602002820191905f5260205f2090815481526020019060010190808311610d185750505050509050919050565b7f21702c8af46127c7fa207f89d0b0a8441bb32959a0ac7df790e9ab1a25c9892661176181611a9d565b611769611ddc565b5f821180156117795750600d5482105b6117955760405162461bcd60e51b81526004016107f4906125a0565b5f8281526008602052604090206007015460ff16156117ef5760405162461bcd60e51b815260206004820152601660248201527515195cdd08185b1c9958591e481d985b1a59185d195960521b60448201526064016107f4565b5f82815260086020526040902060070154610100900460ff161561184e5760405162461bcd60e51b815260206004820152601660248201527515195cdd08185b1c9958591e4818dbdb5c1b195d195960521b60448201526064016107f4565b5f828152600860205260408120600701805460ff19166001179055600f805491611877836125c9565b9091555050604051428152339083907ff0c06490c8fa424ac367bbedd8bc523e3a79283e498efb24c1be92b329662be890602001610e78565b5f828152600560205260409020600101546118ca81611a9d565b6106ec8383611b38565b600c81815481106118e3575f80fd5b5f918252602090912060079091020180546001820154600283015460038401546004850180546001600160a01b0390951696509294919390929061192690612541565b80601f016020809104026020016040519081016040528092919081815260200182805461195290612541565b801561199d5780601f106119745761010080835404028352916020019161199d565b820191905f5260205f20905b81548152906001019060200180831161198057829003601f168201915b50505050600583015460069093015491926001600160a01b031691905087565b6107258383836001611e76565b6001600160a01b038381165f908152600160209081526040808320938616835292905220545f198110156106ec5781811015611a3257604051637dc7a0d960e11b81526001600160a01b038416600482015260248101829052604481018390526064016107f4565b6106ec84848484035f611e76565b6001600160a01b038316611a6957604051634b637e8f60e11b81525f60048201526024016107f4565b6001600160a01b038216611a925760405163ec442f0560e01b81525f60048201526024016107f4565b610725838383611f48565b6107498133612061565b5f611ab28383611275565b611b31575f8381526005602090815260408083206001600160a01b03861684529091529020805460ff19166001179055611ae93390565b6001600160a01b0316826001600160a01b0316847f2f8788117e7eff1d82e926ec794901d17c78024a50270940304540a733656f0d60405160405180910390a45060016105f8565b505f6105f8565b5f611b438383611275565b15611b31575f8381526005602090815260408083206001600160a01b0386168085529252808320805460ff1916905551339286917ff6391f5c32d9c69d2a47ea670b442974b53935d1edc7fd64eb21e047a839171b9190a45060016105f8565b611bab61209a565b6006805460ff191690557f5db9ee0a495bf2e6ff9c91a7834c1ba4fdd244a5e8aa4e537bd38aeae4b073aa335b6040516001600160a01b03909116815260200160405180910390a1565b6001600160a01b038216611c1e5760405163ec442f0560e01b81525f60048201526024016107f4565b611c295f8383611f48565b5050565b6040805160e0810182526001600160a01b0388811682526020820188815292820187815242606084019081526080840188815287841660a086015260c08501879052600c80546001810182555f9190915285517fdf6966c971051c3d54ec59162606531493a51404a002842f56009d7e5cf4a8c7600790920291820180546001600160a01b0319169190961617855595517fdf6966c971051c3d54ec59162606531493a51404a002842f56009d7e5cf4a8c887015591517fdf6966c971051c3d54ec59162606531493a51404a002842f56009d7e5cf4a8c9860155517fdf6966c971051c3d54ec59162606531493a51404a002842f56009d7e5cf4a8ca85015551919290917fdf6966c971051c3d54ec59162606531493a51404a002842f56009d7e5cf4a8cb90910190611d619082612642565b5060a08201516005820180546001600160a01b0319166001600160a01b0392831617905560c090920151600690910155604051838216918816907fc70319605514c5368595995aef04a7403e90efc691d1b99058f1e817241cbbd890611dcc9089908990899061274d565b60405180910390a3505050505050565b60065460ff1615611e005760405163d93c066560e01b815260040160405180910390fd5b565b611e0a611ddc565b6006805460ff191660011790557f62e78cea01bee320cd4e420270b5ea74000d11b0c9f74754ebdbfc544b05a258611bd83390565b600260075403611e6257604051633ee5aeb560e01b815260040160405180910390fd5b6002600755565b5f3361069b818585611a40565b6001600160a01b038416611e9f5760405163e602df0560e01b81525f60048201526024016107f4565b6001600160a01b038316611ec857604051634a1406b160e11b81525f60048201526024016107f4565b6001600160a01b038085165f90815260016020908152604080832093871683529290522082905580156106ec57826001600160a01b0316846001600160a01b03167f8c5be1e5ebec7d5bd14f71427d1e84f3dd0314c0f7b2291e5b200ac8c7c3b92584604051611f3a91815260200190565b60405180910390a350505050565b6001600160a01b038316611f72578060025f828254611f679190612774565b90915550611fe29050565b6001600160a01b0383165f9081526020819052604090205481811015611fc45760405163391434e360e21b81526001600160a01b038516600482015260248101829052604481018390526064016107f4565b6001600160a01b0384165f9081526020819052604090209082900390555b6001600160a01b038216611ffe5760028054829003905561201c565b6001600160a01b0382165f9081526020819052604090208054820190555b816001600160a01b0316836001600160a01b03167fddf252ad1be2c89b69c2b068fc378daa952ba7f163c4a11628f55a4df523b3ef83604051610cc291815260200190565b61206b8282611275565b611c295760405163e2517d3f60e01b81526001600160a01b0382166004820152602481018390526044016107f4565b60065460ff16611e0057604051638dfc202b60e01b815260040160405180910390fd5b5f602082840312156120cd575f80fd5b81356001600160e01b0319811681146120e4575f80fd5b9392505050565b5f5b838110156121055781810151838201526020016120ed565b50505f910152565b5f81518084526121248160208601602086016120eb565b601f01601f19169290920160200192915050565b602081525f6120e4602083018461210d565b80356001600160a01b0381168114612160575f80fd5b919050565b5f8060408385031215612176575f80fd5b61217f8361214a565b946020939093013593505050565b5f805f6060848603121561219f575f80fd5b6121a88461214a565b92506121b66020850161214a565b9150604084013590509250925092565b5f602082840312156121d6575f80fd5b5035919050565b5f80604083850312156121ee575f80fd5b823591506121fe6020840161214a565b90509250929050565b5f6101608d83528060208401526122208184018e61210d565b6001600160a01b038d811660408601528c166060850152608084018b905283810360a08501529050612252818a61210d565b905082810360c0840152612266818961210d565b96151560e0840152505092151561010084015261012083019190915261014090910152979650505050505050565b5f602082840312156122a4575f80fd5b6120e48261214a565b602080825282518282018190525f9190848201906040850190845b818110156122e4578351835292840192918401916001016122c8565b50909695505050505050565b602081525f60018060a01b03808451166020840152602084015160408401526040840151606084015260608401516080840152608084015160e060a085015261233d61010085018261210d565b90508160a08601511660c085015260c085015160e0850152809250505092915050565b634e487b7160e01b5f52604160045260245ffd5b5f82601f830112612383575f80fd5b813567ffffffffffffffff8082111561239e5761239e612360565b604051601f8301601f19908116603f011681019082821181831017156123c6576123c6612360565b816040528381528660208588010111156123de575f80fd5b836020870160208301375f602085830101528094505050505092915050565b5f805f805f60a08688031215612411575f80fd5b853567ffffffffffffffff80821115612428575f80fd5b61243489838a01612374565b96506124426020890161214a565b95506040880135915080821115612457575f80fd5b61246389838a01612374565b94506060880135915080821115612478575f80fd5b5061248588828901612374565b95989497509295608001359392505050565b5f602082840312156124a7575f80fd5b813567ffffffffffffffff8111156124bd575f80fd5b6124c984828501612374565b949350505050565b5f80604083850312156124e2575f80fd5b6124eb8361214a565b91506121fe6020840161214a565b5f60018060a01b03808a16835288602084015287604084015286606084015260e0608084015261252c60e084018761210d565b941660a08301525060c0015295945050505050565b600181811c9082168061255557607f821691505b60208210810361257357634e487b7160e01b5f52602260045260245ffd5b50919050565b634e487b7160e01b5f52601160045260245ffd5b818103818111156105f8576105f8612579565b6020808252600f908201526e125b9d985b1a59081d195cdd081251608a1b604082015260600190565b5f600182016125da576125da612579565b5060010190565b634e487b7160e01b5f52603260045260245ffd5b601f821115610725575f81815260208120601f850160051c8101602086101561261b5750805b601f850160051c820191505b8181101561263a57828155600101612627565b505050505050565b815167ffffffffffffffff81111561265c5761265c612360565b6126708161266a8454612541565b846125f5565b602080601f8311600181146126a3575f841561268c5750858301515b5f19600386901b1c1916600185901b17855561263a565b5f85815260208120601f198616915b828110156126d1578886015182559484019460019091019084016126b2565b50858210156126ee57878501515f19600388901b60f8161c191681555b5050505050600190811b01905550565b5f825161270f8184602087016120eb565b9190910192915050565b606081525f61272b606083018661210d565b8460208401528281036040840152612743818561210d565b9695505050505050565b838152826020820152606060408201525f61276b606083018461210d565b95945050505050565b808201808211156105f8576105f861257956fe4b346d9ac223184c8768fae9f0f9cc7825dd24f5ba7c8c677c34451ba15eca64a2646970667358221220c2d6ac0b3e6f5015e741fe3c2e5e59df8904f23ecd9f8bfe1625e3bac60599d264736f6c63430008140033","opcodes":"PUSH1 0x80 PUSH1 0x40 MSTORE CALLVALUE DUP1 ISZERO PUSH3 0x10 JUMPI PUSH0 DUP1 REVERT JUMPDEST POP PUSH1 0x40 MLOAD PUSH3 0x2EA5 CODESIZE SUB DUP1 PUSH3 0x2EA5 DUP4 CODECOPY DUP2 ADD PUSH1 0x40 DUP2 SWAP1 MSTORE PUSH3 0x33 SWAP2 PUSH3 0x3A4 JUMP JUMPDEST DUP3 DUP3 PUSH1 0x3 PUSH3 0x43 DUP4 DUP3 PUSH3 0x49E JUMP JUMPDEST POP PUSH1 0x4 PUSH3 0x52 DUP3 DUP3 PUSH3 0x49E JUMP JUMPDEST POP POP PUSH1 0x1 PUSH1 0x7 SSTORE POP PUSH3 0x66 PUSH0 CALLER PUSH3 0xC7 JUMP JUMPDEST POP PUSH3 0x93 PUSH32 0x4B346D9AC223184C8768FAE9F0F9CC7825DD24F5BA7C8C677C34451BA15ECA64 CALLER PUSH3 0xC7 JUMP JUMPDEST POP PUSH3 0xB9 CALLER PUSH3 0xA7 PUSH1 0x12 PUSH1 0xA PUSH3 0x673 JUMP JUMPDEST PUSH3 0xB3 SWAP1 DUP5 PUSH3 0x68A JUMP JUMPDEST PUSH3 0x177 JUMP JUMPDEST POP POP PUSH1 0x1 PUSH1 0xD SSTORE POP PUSH3 0x6BA JUMP JUMPDEST PUSH0 DUP3 DUP2 MSTORE PUSH1 0x5 PUSH1 0x20 SWAP1 DUP2 MSTORE PUSH1 0x40 DUP1 DUP4 KECCAK256 PUSH1 0x1 PUSH1 0x1 PUSH1 0xA0 SHL SUB DUP6 AND DUP5 MSTORE SWAP1 SWAP2 MSTORE DUP2 KECCAK256 SLOAD PUSH1 0xFF AND PUSH3 0x16E JUMPI PUSH0 DUP4 DUP2 MSTORE PUSH1 0x5 PUSH1 0x20 SWAP1 DUP2 MSTORE PUSH1 0x40 DUP1 DUP4 KECCAK256 PUSH1 0x1 PUSH1 0x1 PUSH1 0xA0 SHL SUB DUP7 AND DUP5 MSTORE SWAP1 SWAP2 MSTORE SWAP1 KECCAK256 DUP1 SLOAD PUSH1 0xFF NOT AND PUSH1 0x1 OR SWAP1 SSTORE PUSH3 0x125 CALLER SWAP1 JUMP JUMPDEST PUSH1 0x1 PUSH1 0x1 PUSH1 0xA0 SHL SUB AND DUP3 PUSH1 0x1 PUSH1 0x1 PUSH1 0xA0 SHL SUB AND DUP5 PUSH32 0x2F8788117E7EFF1D82E926EC794901D17C78024A50270940304540A733656F0D PUSH1 0x40 MLOAD PUSH1 0x40 MLOAD DUP1 SWAP2 SUB SWAP1 LOG4 POP PUSH1 0x1 PUSH3 0x171 JUMP JUMPDEST POP PUSH0 JUMPDEST SWAP3 SWAP2 POP POP JUMP JUMPDEST PUSH1 0x1 PUSH1 0x1 PUSH1 0xA0 SHL SUB DUP3 AND PUSH3 0x1A6 JUMPI PUSH1 0x40 MLOAD PUSH4 0xEC442F05 PUSH1 0xE0 SHL DUP2 MSTORE PUSH0 PUSH1 0x4 DUP3 ADD MSTORE PUSH1 0x24 ADD JUMPDEST PUSH1 0x40 MLOAD DUP1 SWAP2 SUB SWAP1 REVERT JUMPDEST PUSH3 0x1B3 PUSH0 DUP4 DUP4 PUSH3 0x1B7 JUMP JUMPDEST POP POP JUMP JUMPDEST PUSH1 0x1 PUSH1 0x1 PUSH1 0xA0 SHL SUB DUP4 AND PUSH3 0x1E5 JUMPI DUP1 PUSH1 0x2 PUSH0 DUP3 DUP3 SLOAD PUSH3 0x1D9 SWAP2 SWAP1 PUSH3 0x6A4 JUMP JUMPDEST SWAP1 SWAP2 SSTORE POP PUSH3 0x257 SWAP1 POP JUMP JUMPDEST PUSH1 0x1 PUSH1 0x1 PUSH1 0xA0 SHL SUB DUP4 AND PUSH0 SWAP1 DUP2 MSTORE PUSH1 0x20 DUP2 SWAP1 MSTORE PUSH1 0x40 SWAP1 KECCAK256 SLOAD DUP2 DUP2 LT ISZERO PUSH3 0x239 JUMPI PUSH1 0x40 MLOAD PUSH4 0x391434E3 PUSH1 0xE2 SHL DUP2 MSTORE PUSH1 0x1 PUSH1 0x1 PUSH1 0xA0 SHL SUB DUP6 AND PUSH1 0x4 DUP3 ADD MSTORE PUSH1 0x24 DUP2 ADD DUP3 SWAP1 MSTORE PUSH1 0x44 DUP2 ADD DUP4 SWAP1 MSTORE PUSH1 0x64 ADD PUSH3 0x19D JUMP JUMPDEST PUSH1 0x1 PUSH1 0x1 PUSH1 0xA0 SHL SUB DUP5 AND PUSH0 SWAP1 DUP2 MSTORE PUSH1 0x20 DUP2 SWAP1 MSTORE PUSH1 0x40 SWAP1 KECCAK256 SWAP1 DUP3 SWAP1 SUB SWAP1 SSTORE JUMPDEST PUSH1 0x1 PUSH1 0x1 PUSH1 0xA0 SHL SUB DUP3 AND PUSH3 0x275 JUMPI PUSH1 0x2 DUP1 SLOAD DUP3 SWAP1 SUB SWAP1 SSTORE PUSH3 0x293 JUMP JUMPDEST PUSH1 0x1 PUSH1 0x1 PUSH1 0xA0 SHL SUB DUP3 AND PUSH0 SWAP1 DUP2 MSTORE PUSH1 0x20 DUP2 SWAP1 MSTORE PUSH1 0x40 SWAP1 KECCAK256 DUP1 SLOAD DUP3 ADD SWAP1 SSTORE JUMPDEST DUP2 PUSH1 0x1 PUSH1 0x1 PUSH1 0xA0 SHL SUB AND DUP4 PUSH1 0x1 PUSH1 0x1 PUSH1 0xA0 SHL SUB AND PUSH32 0xDDF252AD1BE2C89B69C2B068FC378DAA952BA7F163C4A11628F55A4DF523B3EF DUP4 PUSH1 0x40 MLOAD PUSH3 0x2D9 SWAP2 DUP2 MSTORE PUSH1 0x20 ADD SWAP1 JUMP JUMPDEST PUSH1 0x40 MLOAD DUP1 SWAP2 SUB SWAP1 LOG3 POP POP POP JUMP JUMPDEST PUSH4 0x4E487B71 PUSH1 0xE0 SHL PUSH0 MSTORE PUSH1 0x41 PUSH1 0x4 MSTORE PUSH1 0x24 PUSH0 REVERT JUMPDEST PUSH0 DUP3 PUSH1 0x1F DUP4 ADD SLT PUSH3 0x30A JUMPI PUSH0 DUP1 REVERT JUMPDEST DUP2 MLOAD PUSH1 0x1 PUSH1 0x1 PUSH1 0x40 SHL SUB DUP1 DUP3 GT ISZERO PUSH3 0x327 JUMPI PUSH3 0x327 PUSH3 0x2E6 JUMP JUMPDEST PUSH1 0x40 MLOAD PUSH1 0x1F DUP4 ADD PUSH1 0x1F NOT SWAP1 DUP2 AND PUSH1 0x3F ADD AND DUP2 ADD SWAP1 DUP3 DUP3 GT DUP2 DUP4 LT OR ISZERO PUSH3 0x352 JUMPI PUSH3 0x352 PUSH3 0x2E6 JUMP JUMPDEST DUP2 PUSH1 0x40 MSTORE DUP4 DUP2 MSTORE PUSH1 0x20 SWAP3 POP DUP7 DUP4 DUP6 DUP9 ADD ADD GT ISZERO PUSH3 0x36E JUMPI PUSH0 DUP1 REVERT JUMPDEST PUSH0 SWAP2 POP JUMPDEST DUP4 DUP3 LT ISZERO PUSH3 0x391 JUMPI DUP6 DUP3 ADD DUP4 ADD MLOAD DUP2 DUP4 ADD DUP5 ADD MSTORE SWAP1 DUP3 ADD SWAP1 PUSH3 0x372 JUMP JUMPDEST PUSH0 SWAP4 DUP2 ADD SWAP1 SWAP3 ADD SWAP3 SWAP1 SWAP3 MSTORE SWAP5 SWAP4 POP POP POP POP JUMP JUMPDEST PUSH0 DUP1 PUSH0 PUSH1 0x60 DUP5 DUP7 SUB SLT ISZERO PUSH3 0x3B7 JUMPI PUSH0 DUP1 REVERT JUMPDEST DUP4 MLOAD PUSH1 0x1 PUSH1 0x1 PUSH1 0x40 SHL SUB DUP1 DUP3 GT ISZERO PUSH3 0x3CE JUMPI PUSH0 DUP1 REVERT JUMPDEST PUSH3 0x3DC DUP8 DUP4 DUP9 ADD PUSH3 0x2FA JUMP JUMPDEST SWAP5 POP PUSH1 0x20 DUP7 ADD MLOAD SWAP2 POP DUP1 DUP3 GT ISZERO PUSH3 0x3F2 JUMPI PUSH0 DUP1 REVERT JUMPDEST POP PUSH3 0x401 DUP7 DUP3 DUP8 ADD PUSH3 0x2FA JUMP JUMPDEST SWAP3 POP POP PUSH1 0x40 DUP5 ADD MLOAD SWAP1 POP SWAP3 POP SWAP3 POP SWAP3 JUMP JUMPDEST PUSH1 0x1 DUP2 DUP2 SHR SWAP1 DUP3 AND DUP1 PUSH3 0x427 JUMPI PUSH1 0x7F DUP3 AND SWAP2 POP JUMPDEST PUSH1 0x20 DUP3 LT DUP2 SUB PUSH3 0x446 JUMPI PUSH4 0x4E487B71 PUSH1 0xE0 SHL PUSH0 MSTORE PUSH1 0x22 PUSH1 0x4 MSTORE PUSH1 0x24 PUSH0 REVERT JUMPDEST POP SWAP2 SWAP1 POP JUMP JUMPDEST PUSH1 0x1F DUP3 GT ISZERO PUSH3 0x499 JUMPI PUSH0 DUP2 DUP2 MSTORE PUSH1 0x20 DUP2 KECCAK256 PUSH1 0x1F DUP6 ADD PUSH1 0x5 SHR DUP2 ADD PUSH1 0x20 DUP7 LT ISZERO PUSH3 0x474 JUMPI POP DUP1 JUMPDEST PUSH1 0x1F DUP6 ADD PUSH1 0x5 SHR DUP3 ADD SWAP2 POP JUMPDEST DUP2 DUP2 LT ISZERO PUSH3 0x495 JUMPI DUP3 DUP2 SSTORE PUSH1 0x1 ADD PUSH3 0x480 JUMP JUMPDEST POP POP POP JUMPDEST POP POP POP JUMP JUMPDEST DUP2 MLOAD PUSH1 0x1 PUSH1 0x1 PUSH1 0x40 SHL SUB DUP2 GT ISZERO PUSH3 0x4BA JUMPI PUSH3 0x4BA PUSH3 0x2E6 JUMP JUMPDEST PUSH3 0x4D2 DUP2 PUSH3 0x4CB DUP5 SLOAD PUSH3 0x412 JUMP JUMPDEST DUP5 PUSH3 0x44C JUMP JUMPDEST PUSH1 0x20 DUP1 PUSH1 0x1F DUP4 GT PUSH1 0x1 DUP2 EQ PUSH3 0x508 JUMPI PUSH0 DUP5 ISZERO PUSH3 0x4F0 JUMPI POP DUP6 DUP4 ADD MLOAD JUMPDEST PUSH0 NOT PUSH1 0x3 DUP7 SWAP1 SHL SHR NOT AND PUSH1 0x1 DUP6 SWAP1 SHL OR DUP6 SSTORE PUSH3 0x495 JUMP JUMPDEST PUSH0 DUP6 DUP2 MSTORE PUSH1 0x20 DUP2 KECCAK256 PUSH1 0x1F NOT DUP7 AND SWAP2 JUMPDEST DUP3 DUP2 LT ISZERO PUSH3 0x538 JUMPI DUP9 DUP7 ADD MLOAD DUP3 SSTORE SWAP5 DUP5 ADD SWAP5 PUSH1 0x1 SWAP1 SWAP2 ADD SWAP1 DUP5 ADD PUSH3 0x517 JUMP JUMPDEST POP DUP6 DUP3 LT ISZERO PUSH3 0x556 JUMPI DUP8 DUP6 ADD MLOAD PUSH0 NOT PUSH1 0x3 DUP9 SWAP1 SHL PUSH1 0xF8 AND SHR NOT AND DUP2 SSTORE JUMPDEST POP POP POP POP POP PUSH1 0x1 SWAP1 DUP2 SHL ADD SWAP1 SSTORE POP JUMP JUMPDEST PUSH4 0x4E487B71 PUSH1 0xE0 SHL PUSH0 MSTORE PUSH1 0x11 PUSH1 0x4 MSTORE PUSH1 0x24 PUSH0 REVERT JUMPDEST PUSH1 0x1 DUP2 DUP2 JUMPDEST DUP1 DUP6 GT ISZERO PUSH3 0x5BA JUMPI DUP2 PUSH0 NOT DIV DUP3 GT ISZERO PUSH3 0x59E JUMPI PUSH3 0x59E PUSH3 0x566 JUMP JUMPDEST DUP1 DUP6 AND ISZERO PUSH3 0x5AC JUMPI SWAP2 DUP2 MUL SWAP2 JUMPDEST SWAP4 DUP5 SHR SWAP4 SWAP1 DUP1 MUL SWAP1 PUSH3 0x57F JUMP JUMPDEST POP SWAP3 POP SWAP3 SWAP1 POP JUMP JUMPDEST PUSH0 DUP3 PUSH3 0x5D2 JUMPI POP PUSH1 0x1 PUSH3 0x171 JUMP JUMPDEST DUP2 PUSH3 0x5E0 JUMPI POP PUSH0 PUSH3 0x171 JUMP JUMPDEST DUP2 PUSH1 0x1 DUP2 EQ PUSH3 0x5F9 JUMPI PUSH1 0x2 DUP2 EQ PUSH3 0x604 JUMPI PUSH3 0x624 JUMP JUMPDEST PUSH1 0x1 SWAP2 POP POP PUSH3 0x171 JUMP JUMPDEST PUSH1 0xFF DUP5 GT ISZERO PUSH3 0x618 JUMPI PUSH3 0x618 PUSH3 0x566 JUMP JUMPDEST POP POP PUSH1 0x1 DUP3 SHL PUSH3 0x171 JUMP JUMPDEST POP PUSH1 0x20 DUP4 LT PUSH2 0x133 DUP4 LT AND PUSH1 0x4E DUP5 LT PUSH1 0xB DUP5 LT AND OR ISZERO PUSH3 0x649 JUMPI POP DUP2 DUP2 EXP PUSH3 0x171 JUMP JUMPDEST PUSH3 0x655 DUP4 DUP4 PUSH3 0x57A JUMP JUMPDEST DUP1 PUSH0 NOT DIV DUP3 GT ISZERO PUSH3 0x66B JUMPI PUSH3 0x66B PUSH3 0x566 JUMP JUMPDEST MUL SWAP4 SWAP3 POP POP POP JUMP JUMPDEST PUSH0 PUSH3 0x683 PUSH1 0xFF DUP5 AND DUP4 PUSH3 0x5C2 JUMP JUMPDEST SWAP4 SWAP3 POP POP POP JUMP JUMPDEST DUP1 DUP3 MUL DUP2 ISZERO DUP3 DUP3 DIV DUP5 EQ OR PUSH3 0x171 JUMPI PUSH3 0x171 PUSH3 0x566 JUMP JUMPDEST DUP1 DUP3 ADD DUP1 DUP3 GT ISZERO PUSH3 0x171 JUMPI PUSH3 0x171 PUSH3 0x566 JUMP JUMPDEST PUSH2 0x27DD DUP1 PUSH3 0x6C8 PUSH0 CODECOPY PUSH0 RETURN INVALID PUSH1 0x80 PUSH1 0x40 MSTORE CALLVALUE DUP1 ISZERO PUSH2 0xF JUMPI PUSH0 DUP1 REVERT JUMPDEST POP PUSH1 0x4 CALLDATASIZE LT PUSH2 0x23F JUMPI PUSH0 CALLDATALOAD PUSH1 0xE0 SHR DUP1 PUSH4 0x6E1D616E GT PUSH2 0x135 JUMPI DUP1 PUSH4 0xA5817E13 GT PUSH2 0xB4 JUMPI DUP1 PUSH4 0xC49BAEBE GT PUSH2 0x79 JUMPI DUP1 PUSH4 0xC49BAEBE EQ PUSH2 0x51D JUMPI DUP1 PUSH4 0xCBF37100 EQ PUSH2 0x544 JUMPI DUP1 PUSH4 0xD547741F EQ PUSH2 0x557 JUMPI DUP1 PUSH4 0xDD62ED3E EQ PUSH2 0x56A JUMPI DUP1 PUSH4 0xDDAF0929 EQ PUSH2 0x5A2 JUMPI PUSH0 DUP1 REVERT JUMPDEST DUP1 PUSH4 0xA5817E13 EQ PUSH2 0x49C JUMPI DUP1 PUSH4 0xA9059CBB EQ PUSH2 0x4C3 JUMPI DUP1 PUSH4 0xB213CB9D EQ PUSH2 0x4D6 JUMPI DUP1 PUSH4 0xB3649A7E EQ PUSH2 0x4E9 JUMPI DUP1 PUSH4 0xB9F83801 EQ PUSH2 0x4F2 JUMPI PUSH0 DUP1 REVERT JUMPDEST DUP1 PUSH4 0x8F37A90F GT PUSH2 0xFA JUMPI DUP1 PUSH4 0x8F37A90F EQ PUSH2 0x453 JUMPI DUP1 PUSH4 0x91D14854 EQ PUSH2 0x467 JUMPI DUP1 PUSH4 0x95D89B41 EQ PUSH2 0x47A JUMPI DUP1 PUSH4 0x9A2E6B84 EQ PUSH2 0x482 JUMPI DUP1 PUSH4 0xA217FDDF EQ PUSH2 0x495 JUMPI PUSH0 DUP1 REVERT JUMPDEST DUP1 PUSH4 0x6E1D616E EQ PUSH2 0x3DE JUMPI DUP1 PUSH4 0x6F17C8B4 EQ PUSH2 0x405 JUMPI DUP1 PUSH4 0x70A08231 EQ PUSH2 0x418 JUMPI DUP1 PUSH4 0x783B8BD0 EQ PUSH2 0x42B JUMPI DUP1 PUSH4 0x8456CB59 EQ PUSH2 0x44B JUMPI PUSH0 DUP1 REVERT JUMPDEST DUP1 PUSH4 0x40C10F19 GT PUSH2 0x1C1 JUMPI DUP1 PUSH4 0x4E6F13D3 GT PUSH2 0x186 JUMPI DUP1 PUSH4 0x4E6F13D3 EQ PUSH2 0x384 JUMPI DUP1 PUSH4 0x4F7F6831 EQ PUSH2 0x397 JUMPI DUP1 PUSH4 0x5B2801A4 EQ PUSH2 0x3A0 JUMPI DUP1 PUSH4 0x5C975ABB EQ PUSH2 0x3C0 JUMPI DUP1 PUSH4 0x65143195 EQ PUSH2 0x3CB JUMPI PUSH0 DUP1 REVERT JUMPDEST DUP1 PUSH4 0x40C10F19 EQ PUSH2 0x319 JUMPI DUP1 PUSH4 0x4417DA29 EQ PUSH2 0x32C JUMPI DUP1 PUSH4 0x49270315 EQ PUSH2 0x356 JUMPI DUP1 PUSH4 0x4A3B17B1 EQ PUSH2 0x35E JUMPI DUP1 PUSH4 0x4A84E104 EQ PUSH2 0x371 JUMPI PUSH0 DUP1 REVERT JUMPDEST DUP1 PUSH4 0x248A9CA3 GT PUSH2 0x207 JUMPI DUP1 PUSH4 0x248A9CA3 EQ PUSH2 0x2B8 JUMPI DUP1 PUSH4 0x2F2FF15D EQ PUSH2 0x2DA JUMPI DUP1 PUSH4 0x313CE567 EQ PUSH2 0x2EF JUMPI DUP1 PUSH4 0x36568ABE EQ PUSH2 0x2FE JUMPI DUP1 PUSH4 0x3F4BA83A EQ PUSH2 0x311 JUMPI PUSH0 DUP1 REVERT JUMPDEST DUP1 PUSH4 0x1FFC9A7 EQ PUSH2 0x243 JUMPI DUP1 PUSH4 0x6FDDE03 EQ PUSH2 0x26B JUMPI DUP1 PUSH4 0x95EA7B3 EQ PUSH2 0x280 JUMPI DUP1 PUSH4 0x18160DDD EQ PUSH2 0x293 JUMPI DUP1 PUSH4 0x23B872DD EQ PUSH2 0x2A5 JUMPI JUMPDEST PUSH0 DUP1 REVERT JUMPDEST PUSH2 0x256 PUSH2 0x251 CALLDATASIZE PUSH1 0x4 PUSH2 0x20BD JUMP JUMPDEST PUSH2 0x5C8 JUMP JUMPDEST PUSH1 0x40 MLOAD SWAP1 ISZERO ISZERO DUP2 MSTORE PUSH1 0x20 ADD JUMPDEST PUSH1 0x40 MLOAD DUP1 SWAP2 SUB SWAP1 RETURN JUMPDEST PUSH2 0x273 PUSH2 0x5FE JUMP JUMPDEST PUSH1 0x40 MLOAD PUSH2 0x262 SWAP2 SWAP1 PUSH2 0x2138 JUMP JUMPDEST PUSH2 0x256 PUSH2 0x28E CALLDATASIZE PUSH1 0x4 PUSH2 0x2165 JUMP JUMPDEST PUSH2 0x68E JUMP JUMPDEST PUSH1 0x2 SLOAD JUMPDEST PUSH1 0x40 MLOAD SWAP1 DUP2 MSTORE PUSH1 0x20 ADD PUSH2 0x262 JUMP JUMPDEST PUSH2 0x256 PUSH2 0x2B3 CALLDATASIZE PUSH1 0x4 PUSH2 0x218D JUMP JUMPDEST PUSH2 0x6A5 JUMP JUMPDEST PUSH2 0x297 PUSH2 0x2C6 CALLDATASIZE PUSH1 0x4 PUSH2 0x21C6 JUMP JUMPDEST PUSH0 SWAP1 DUP2 MSTORE PUSH1 0x5 PUSH1 0x20 MSTORE PUSH1 0x40 SWAP1 KECCAK256 PUSH1 0x1 ADD SLOAD SWAP1 JUMP JUMPDEST PUSH2 0x2ED PUSH2 0x2E8 CALLDATASIZE PUSH1 0x4 PUSH2 0x21DD JUMP JUMPDEST PUSH2 0x6C8 JUMP JUMPDEST STOP JUMPDEST PUSH1 0x40 MLOAD PUSH1 0x12 DUP2 MSTORE PUSH1 0x20 ADD PUSH2 0x262 JUMP JUMPDEST PUSH2 0x2ED PUSH2 0x30C CALLDATASIZE PUSH1 0x4 PUSH2 0x21DD JUMP JUMPDEST PUSH2 0x6F2 JUMP JUMPDEST PUSH2 0x2ED PUSH2 0x72A JUMP JUMPDEST PUSH2 0x2ED PUSH2 0x327 CALLDATASIZE PUSH1 0x4 PUSH2 0x2165 JUMP JUMPDEST PUSH2 0x74C JUMP JUMPDEST PUSH2 0x33F PUSH2 0x33A CALLDATASIZE PUSH1 0x4 PUSH2 0x21C6 JUMP JUMPDEST PUSH2 0x7BB JUMP JUMPDEST PUSH1 0x40 MLOAD PUSH2 0x262 SWAP12 SWAP11 SWAP10 SWAP9 SWAP8 SWAP7 SWAP6 SWAP5 SWAP4 SWAP3 SWAP2 SWAP1 PUSH2 0x2207 JUMP JUMPDEST PUSH1 0xC SLOAD PUSH2 0x297 JUMP JUMPDEST PUSH2 0x297 PUSH2 0x36C CALLDATASIZE PUSH1 0x4 PUSH2 0x2165 JUMP JUMPDEST PUSH2 0xA23 JUMP JUMPDEST PUSH2 0x297 PUSH2 0x37F CALLDATASIZE PUSH1 0x4 PUSH2 0x2165 JUMP JUMPDEST PUSH2 0xA4E JUMP JUMPDEST PUSH2 0x2ED PUSH2 0x392 CALLDATASIZE PUSH1 0x4 PUSH2 0x21C6 JUMP JUMPDEST PUSH2 0xA67 JUMP JUMPDEST PUSH2 0x297 PUSH1 0xE SLOAD DUP2 JUMP JUMPDEST PUSH2 0x3B3 PUSH2 0x3AE CALLDATASIZE PUSH1 0x4 PUSH2 0x2294 JUMP JUMPDEST PUSH2 0xCCF JUMP JUMPDEST PUSH1 0x40 MLOAD PUSH2 0x262 SWAP2 SWAP1 PUSH2 0x22AD JUMP JUMPDEST PUSH1 0x6 SLOAD PUSH1 0xFF AND PUSH2 0x256 JUMP JUMPDEST PUSH2 0x2ED PUSH2 0x3D9 CALLDATASIZE PUSH1 0x4 PUSH2 0x21C6 JUMP JUMPDEST PUSH2 0xD38 JUMP JUMPDEST PUSH2 0x297 PUSH32 0x59A1C48E5837AD7A7F3DCEDCBE129BF3249EC4FBF651FD4F5E2600EAD39FE2F5 DUP2 JUMP JUMPDEST PUSH2 0x33F PUSH2 0x413 CALLDATASIZE PUSH1 0x4 PUSH2 0x21C6 JUMP JUMPDEST PUSH2 0xE84 JUMP JUMPDEST PUSH2 0x297 PUSH2 0x426 CALLDATASIZE PUSH1 0x4 PUSH2 0x2294 JUMP JUMPDEST PUSH2 0x1080 JUMP JUMPDEST PUSH2 0x43E PUSH2 0x439 CALLDATASIZE PUSH1 0x4 PUSH2 0x21C6 JUMP JUMPDEST PUSH2 0x109A JUMP JUMPDEST PUSH1 0x40 MLOAD PUSH2 0x262 SWAP2 SWAP1 PUSH2 0x22F0 JUMP JUMPDEST PUSH2 0x2ED PUSH2 0x1256 JUMP JUMPDEST PUSH2 0x297 PUSH0 DUP1 MLOAD PUSH1 0x20 PUSH2 0x2788 DUP4 CODECOPY DUP2 MLOAD SWAP2 MSTORE DUP2 JUMP JUMPDEST PUSH2 0x256 PUSH2 0x475 CALLDATASIZE PUSH1 0x4 PUSH2 0x21DD JUMP JUMPDEST PUSH2 0x1275 JUMP JUMPDEST PUSH2 0x273 PUSH2 0x129F JUMP JUMPDEST PUSH2 0x297 PUSH2 0x490 CALLDATASIZE PUSH1 0x4 PUSH2 0x23FD JUMP JUMPDEST PUSH2 0x12AE JUMP JUMPDEST PUSH2 0x297 PUSH0 DUP2 JUMP JUMPDEST PUSH2 0x297 PUSH32 0xE497B4AD79A67650FCA774CF0812E4505F07DD6D87A3C1AFC29076CCC8BBCEFE DUP2 JUMP JUMPDEST PUSH2 0x256 PUSH2 0x4D1 CALLDATASIZE PUSH1 0x4 PUSH2 0x2165 JUMP JUMPDEST PUSH2 0x1657 JUMP JUMPDEST PUSH2 0x3B3 PUSH2 0x4E4 CALLDATASIZE PUSH1 0x4 PUSH2 0x2294 JUMP JUMPDEST PUSH2 0x16D0 JUMP JUMPDEST PUSH2 0x297 PUSH1 0xF SLOAD DUP2 JUMP JUMPDEST PUSH2 0x297 PUSH2 0x500 CALLDATASIZE PUSH1 0x4 PUSH2 0x2497 JUMP JUMPDEST DUP1 MLOAD PUSH1 0x20 DUP2 DUP4 ADD DUP2 ADD DUP1 MLOAD PUSH1 0xB DUP3 MSTORE SWAP3 DUP3 ADD SWAP2 SWAP1 SWAP4 ADD KECCAK256 SWAP2 MSTORE SLOAD DUP2 JUMP JUMPDEST PUSH2 0x297 PUSH32 0x21702C8AF46127C7FA207F89D0B0A8441BB32959A0AC7DF790E9AB1A25C98926 DUP2 JUMP JUMPDEST PUSH2 0x2ED PUSH2 0x552 CALLDATASIZE PUSH1 0x4 PUSH2 0x21C6 JUMP JUMPDEST PUSH2 0x1737 JUMP JUMPDEST PUSH2 0x2ED PUSH2 0x565 CALLDATASIZE PUSH1 0x4 PUSH2 0x21DD JUMP JUMPDEST PUSH2 0x18B0 JUMP JUMPDEST PUSH2 0x297 PUSH2 0x578 CALLDATASIZE PUSH1 0x4 PUSH2 0x24D1 JUMP JUMPDEST PUSH1 0x1 PUSH1 0x1 PUSH1 0xA0 SHL SUB SWAP2 DUP3 AND PUSH0 SWAP1 DUP2 MSTORE PUSH1 0x1 PUSH1 0x20 SWAP1 DUP2 MSTORE PUSH1 0x40 DUP1 DUP4 KECCAK256 SWAP4 SWAP1 SWAP5 AND DUP3 MSTORE SWAP2 SWAP1 SWAP2 MSTORE KECCAK256 SLOAD SWAP1 JUMP JUMPDEST PUSH2 0x5B5 PUSH2 0x5B0 CALLDATASIZE PUSH1 0x4 PUSH2 0x21C6 JUMP JUMPDEST PUSH2 0x18D4 JUMP JUMPDEST PUSH1 0x40 MLOAD PUSH2 0x262 SWAP8 SWAP7 SWAP6 SWAP5 SWAP4 SWAP3 SWAP2 SWAP1 PUSH2 0x24F9 JUMP JUMPDEST PUSH0 PUSH1 0x1 PUSH1 0x1 PUSH1 0xE0 SHL SUB NOT DUP3 AND PUSH4 0x7965DB0B PUSH1 0xE0 SHL EQ DUP1 PUSH2 0x5F8 JUMPI POP PUSH4 0x1FFC9A7 PUSH1 0xE0 SHL PUSH1 0x1 PUSH1 0x1 PUSH1 0xE0 SHL SUB NOT DUP4 AND EQ JUMPDEST SWAP3 SWAP2 POP POP JUMP JUMPDEST PUSH1 0x60 PUSH1 0x3 DUP1 SLOAD PUSH2 0x60D SWAP1 PUSH2 0x2541 JUMP JUMPDEST DUP1 PUSH1 0x1F ADD PUSH1 0x20 DUP1 SWAP2 DIV MUL PUSH1 0x20 ADD PUSH1 0x40 MLOAD SWAP1 DUP2 ADD PUSH1 0x40 MSTORE DUP1 SWAP3 SWAP2 SWAP1 DUP2 DUP2 MSTORE PUSH1 0x20 ADD DUP3 DUP1 SLOAD PUSH2 0x639 SWAP1 PUSH2 0x2541 JUMP JUMPDEST DUP1 ISZERO PUSH2 0x684 JUMPI DUP1 PUSH1 0x1F LT PUSH2 0x65B JUMPI PUSH2 0x100 DUP1 DUP4 SLOAD DIV MUL DUP4 MSTORE SWAP2 PUSH1 0x20 ADD SWAP2 PUSH2 0x684 JUMP JUMPDEST DUP3 ADD SWAP2 SWAP1 PUSH0 MSTORE PUSH1 0x20 PUSH0 KECCAK256 SWAP1 JUMPDEST DUP2 SLOAD DUP2 MSTORE SWAP1 PUSH1 0x1 ADD SWAP1 PUSH1 0x20 ADD DUP1 DUP4 GT PUSH2 0x667 JUMPI DUP3 SWAP1 SUB PUSH1 0x1F AND DUP3 ADD SWAP2 JUMPDEST POP POP POP POP POP SWAP1 POP SWAP1 JUMP JUMPDEST PUSH0 CALLER PUSH2 0x69B DUP2 DUP6 DUP6 PUSH2 0x19BD JUMP JUMPDEST POP PUSH1 0x1 SWAP4 SWAP3 POP POP POP JUMP JUMPDEST PUSH0 CALLER PUSH2 0x6B2 DUP6 DUP3 DUP6 PUSH2 0x19CA JUMP JUMPDEST PUSH2 0x6BD DUP6 DUP6 DUP6 PUSH2 0x1A40 JUMP JUMPDEST POP PUSH1 0x1 SWAP5 SWAP4 POP POP POP POP JUMP JUMPDEST PUSH0 DUP3 DUP2 MSTORE PUSH1 0x5 PUSH1 0x20 MSTORE PUSH1 0x40 SWAP1 KECCAK256 PUSH1 0x1 ADD SLOAD PUSH2 0x6E2 DUP2 PUSH2 0x1A9D JUMP JUMPDEST PUSH2 0x6EC DUP4 DUP4 PUSH2 0x1AA7 JUMP JUMPDEST POP POP POP POP JUMP JUMPDEST PUSH1 0x1 PUSH1 0x1 PUSH1 0xA0 SHL SUB DUP2 AND CALLER EQ PUSH2 0x71B JUMPI PUSH1 0x40 MLOAD PUSH4 0x334BD919 PUSH1 0xE1 SHL DUP2 MSTORE PUSH1 0x4 ADD PUSH1 0x40 MLOAD DUP1 SWAP2 SUB SWAP1 REVERT JUMPDEST PUSH2 0x725 DUP3 DUP3 PUSH2 0x1B38 JUMP JUMPDEST POP POP POP JUMP JUMPDEST PUSH0 DUP1 MLOAD PUSH1 0x20 PUSH2 0x2788 DUP4 CODECOPY DUP2 MLOAD SWAP2 MSTORE PUSH2 0x741 DUP2 PUSH2 0x1A9D JUMP JUMPDEST PUSH2 0x749 PUSH2 0x1BA3 JUMP JUMPDEST POP JUMP JUMPDEST PUSH0 DUP1 MLOAD PUSH1 0x20 PUSH2 0x2788 DUP4 CODECOPY DUP2 MLOAD SWAP2 MSTORE PUSH2 0x763 DUP2 PUSH2 0x1A9D JUMP JUMPDEST PUSH2 0x76D DUP4 DUP4 PUSH2 0x1BF5 JUMP JUMPDEST PUSH2 0x725 DUP4 DUP4 PUSH2 0x77B DUP7 PUSH2 0x1080 JUMP JUMPDEST PUSH2 0x785 SWAP2 SWAP1 PUSH2 0x258D JUMP JUMPDEST PUSH2 0x78E DUP7 PUSH2 0x1080 JUMP JUMPDEST PUSH1 0x40 MLOAD DUP1 PUSH1 0x40 ADD PUSH1 0x40 MSTORE DUP1 PUSH1 0xD DUP2 MSTORE PUSH1 0x20 ADD PUSH13 0x546F6B656E206D696E74696E67 PUSH1 0x98 SHL DUP2 MSTORE POP CALLER PUSH0 PUSH2 0x1C2D JUMP JUMPDEST PUSH0 PUSH1 0x60 PUSH0 DUP1 PUSH0 PUSH1 0x60 DUP1 PUSH0 DUP1 PUSH0 DUP1 PUSH0 DUP13 GT DUP1 ISZERO PUSH2 0x7D8 JUMPI POP PUSH1 0xD SLOAD DUP13 LT JUMPDEST PUSH2 0x7FD JUMPI PUSH1 0x40 MLOAD PUSH3 0x461BCD PUSH1 0xE5 SHL DUP2 MSTORE PUSH1 0x4 ADD PUSH2 0x7F4 SWAP1 PUSH2 0x25A0 JUMP JUMPDEST PUSH1 0x40 MLOAD DUP1 SWAP2 SUB SWAP1 REVERT JUMPDEST PUSH0 DUP13 DUP2 MSTORE PUSH1 0x8 PUSH1 0x20 DUP2 SWAP1 MSTORE PUSH1 0x40 SWAP1 SWAP2 KECCAK256 DUP1 SLOAD PUSH1 0x2 DUP3 ADD SLOAD PUSH1 0x3 DUP4 ADD SLOAD PUSH1 0x4 DUP5 ADD SLOAD PUSH1 0x7 DUP6 ADD SLOAD SWAP6 DUP6 ADD SLOAD PUSH1 0xA DUP7 ADD SLOAD PUSH1 0x1 DUP8 ADD DUP1 SLOAD SWAP8 SWAP9 SWAP7 SWAP8 SWAP1 SWAP7 PUSH1 0x1 PUSH1 0x1 PUSH1 0xA0 SHL SUB SWAP7 DUP8 AND SWAP7 SWAP1 SWAP6 AND SWAP5 PUSH1 0x5 DUP11 ADD SWAP4 PUSH1 0x6 DUP12 ADD SWAP4 PUSH1 0xFF DUP1 DUP5 AND SWAP5 PUSH2 0x100 SWAP1 SWAP5 DIV AND SWAP3 DUP11 SWAP1 PUSH2 0x86B SWAP1 PUSH2 0x2541 JUMP JUMPDEST DUP1 PUSH1 0x1F ADD PUSH1 0x20 DUP1 SWAP2 DIV MUL PUSH1 0x20 ADD PUSH1 0x40 MLOAD SWAP1 DUP2 ADD PUSH1 0x40 MSTORE DUP1 SWAP3 SWAP2 SWAP1 DUP2 DUP2 MSTORE PUSH1 0x20 ADD DUP3 DUP1 SLOAD PUSH2 0x897 SWAP1 PUSH2 0x2541 JUMP JUMPDEST DUP1 ISZERO PUSH2 0x8E2 JUMPI DUP1 PUSH1 0x1F LT PUSH2 0x8B9 JUMPI PUSH2 0x100 DUP1 DUP4 SLOAD DIV MUL DUP4 MSTORE SWAP2 PUSH1 0x20 ADD SWAP2 PUSH2 0x8E2 JUMP JUMPDEST DUP3 ADD SWAP2 SWAP1 PUSH0 MSTORE PUSH1 0x20 PUSH0 KECCAK256 SWAP1 JUMPDEST DUP2 SLOAD DUP2 MSTORE SWAP1 PUSH1 0x1 ADD SWAP1 PUSH1 0x20 ADD DUP1 DUP4 GT PUSH2 0x8C5 JUMPI DUP3 SWAP1 SUB PUSH1 0x1F AND DUP3 ADD SWAP2 JUMPDEST POP POP POP POP POP SWAP10 POP DUP6 DUP1 SLOAD PUSH2 0x8F5 SWAP1 PUSH2 0x2541 JUMP JUMPDEST DUP1 PUSH1 0x1F ADD PUSH1 0x20 DUP1 SWAP2 DIV MUL PUSH1 0x20 ADD PUSH1 0x40 MLOAD SWAP1 DUP2 ADD PUSH1 0x40 MSTORE DUP1 SWAP3 SWAP2 SWAP1 DUP2 DUP2 MSTORE PUSH1 0x20 ADD DUP3 DUP1 SLOAD PUSH2 0x921 SWAP1 PUSH2 0x2541 JUMP JUMPDEST DUP1 ISZERO PUSH2 0x96C JUMPI DUP1 PUSH1 0x1F LT PUSH2 0x943 JUMPI PUSH2 0x100 DUP1 DUP4 SLOAD DIV MUL DUP4 MSTORE SWAP2 PUSH1 0x20 ADD SWAP2 PUSH2 0x96C JUMP JUMPDEST DUP3 ADD SWAP2 SWAP1 PUSH0 MSTORE PUSH1 0x20 PUSH0 KECCAK256 SWAP1 JUMPDEST DUP2 SLOAD DUP2 MSTORE SWAP1 PUSH1 0x1 ADD SWAP1 PUSH1 0x20 ADD DUP1 DUP4 GT PUSH2 0x94F JUMPI DUP3 SWAP1 SUB PUSH1 0x1F AND DUP3 ADD SWAP2 JUMPDEST POP POP POP POP POP SWAP6 POP DUP5 DUP1 SLOAD PUSH2 0x97F SWAP1 PUSH2 0x2541 JUMP JUMPDEST DUP1 PUSH1 0x1F ADD PUSH1 0x20 DUP1 SWAP2 DIV MUL PUSH1 0x20 ADD PUSH1 0x40 MLOAD SWAP1 DUP2 ADD PUSH1 0x40 MSTORE DUP1 SWAP3 SWAP2 SWAP1 DUP2 DUP2 MSTORE PUSH1 0x20 ADD DUP3 DUP1 SLOAD PUSH2 0x9AB SWAP1 PUSH2 0x2541 JUMP JUMPDEST DUP1 ISZERO PUSH2 0x9F6 JUMPI DUP1 PUSH1 0x1F LT PUSH2 0x9CD JUMPI PUSH2 0x100 DUP1 DUP4 SLOAD DIV MUL DUP4 MSTORE SWAP2 PUSH1 0x20 ADD SWAP2 PUSH2 0x9F6 JUMP JUMPDEST DUP3 ADD SWAP2 SWAP1 PUSH0 MSTORE PUSH1 0x20 PUSH0 KECCAK256 SWAP1 JUMPDEST DUP2 SLOAD DUP2 MSTORE SWAP1 PUSH1 0x1 ADD SWAP1 PUSH1 0x20 ADD DUP1 DUP4 GT PUSH2 0x9D9 JUMPI DUP3 SWAP1 SUB PUSH1 0x1F AND DUP3 ADD SWAP2 JUMPDEST POP POP POP POP POP SWAP5 POP SWAP12 POP SWAP12 POP SWAP12 POP SWAP12 POP SWAP12 POP SWAP12 POP SWAP12 POP SWAP12 POP SWAP12 POP SWAP12 POP SWAP12 POP POP SWAP2 SWAP4 SWAP6 SWAP8 SWAP10 SWAP12 SWAP1 SWAP3 SWAP5 SWAP7 SWAP9 SWAP11 POP JUMP JUMPDEST PUSH1 0xA PUSH1 0x20 MSTORE DUP2 PUSH0 MSTORE PUSH1 0x40 PUSH0 KECCAK256 DUP2 DUP2 SLOAD DUP2 LT PUSH2 0xA3C JUMPI PUSH0 DUP1 REVERT JUMPDEST SWAP1 PUSH0 MSTORE PUSH1 0x20 PUSH0 KECCAK256 ADD PUSH0 SWAP2 POP SWAP2 POP POP SLOAD DUP2 JUMP JUMPDEST PUSH1 0x9 PUSH1 0x20 MSTORE DUP2 PUSH0 MSTORE PUSH1 0x40 PUSH0 KECCAK256 DUP2 DUP2 SLOAD DUP2 LT PUSH2 0xA3C JUMPI PUSH0 DUP1 REVERT JUMPDEST PUSH32 0xE497B4AD79A67650FCA774CF0812E4505F07DD6D87A3C1AFC29076CCC8BBCEFE PUSH2 0xA91 DUP2 PUSH2 0x1A9D JUMP JUMPDEST PUSH2 0xA99 PUSH2 0x1DDC JUMP JUMPDEST PUSH0 DUP3 GT DUP1 ISZERO PUSH2 0xAA9 JUMPI POP PUSH1 0xD SLOAD DUP3 LT JUMPDEST PUSH2 0xAC5 JUMPI PUSH1 0x40 MLOAD PUSH3 0x461BCD PUSH1 0xE5 SHL DUP2 MSTORE PUSH1 0x4 ADD PUSH2 0x7F4 SWAP1 PUSH2 0x25A0 JUMP JUMPDEST PUSH0 DUP3 DUP2 MSTORE PUSH1 0x8 PUSH1 0x20 MSTORE PUSH1 0x40 SWAP1 KECCAK256 PUSH1 0x2 ADD SLOAD PUSH1 0x1 PUSH1 0x1 PUSH1 0xA0 SHL SUB AND CALLER EQ PUSH2 0xB1E JUMPI PUSH1 0x40 MLOAD PUSH3 0x461BCD PUSH1 0xE5 SHL DUP2 MSTORE PUSH1 0x20 PUSH1 0x4 DUP3 ADD MSTORE PUSH1 0xE PUSH1 0x24 DUP3 ADD MSTORE PUSH14 0x2737BA103A32B9BA1037BBB732B9 PUSH1 0x91 SHL PUSH1 0x44 DUP3 ADD MSTORE PUSH1 0x64 ADD PUSH2 0x7F4 JUMP JUMPDEST PUSH0 DUP3 DUP2 MSTORE PUSH1 0x8 PUSH1 0x20 MSTORE PUSH1 0x40 SWAP1 KECCAK256 PUSH1 0x7 ADD SLOAD PUSH1 0xFF AND PUSH2 0xB73 JUMPI PUSH1 0x40 MLOAD PUSH3 0x461BCD PUSH1 0xE5 SHL DUP2 MSTORE PUSH1 0x20 PUSH1 0x4 DUP3 ADD MSTORE PUSH1 0x12 PUSH1 0x24 DUP3 ADD MSTORE PUSH18 0x15195CDD081B9BDD081D985B1A59185D1959 PUSH1 0x72 SHL PUSH1 0x44 DUP3 ADD MSTORE PUSH1 0x64 ADD PUSH2 0x7F4 JUMP JUMPDEST PUSH0 DUP3 DUP2 MSTORE PUSH1 0x8 PUSH1 0x20 MSTORE PUSH1 0x40 SWAP1 KECCAK256 PUSH1 0x7 ADD SLOAD PUSH2 0x100 SWAP1 DIV PUSH1 0xFF AND ISZERO PUSH2 0xBD2 JUMPI PUSH1 0x40 MLOAD PUSH3 0x461BCD PUSH1 0xE5 SHL DUP2 MSTORE PUSH1 0x20 PUSH1 0x4 DUP3 ADD MSTORE PUSH1 0x16 PUSH1 0x24 DUP3 ADD MSTORE PUSH22 0x15195CDD08185B1C9958591E4818DBDB5C1B195D1959 PUSH1 0x52 SHL PUSH1 0x44 DUP3 ADD MSTORE PUSH1 0x64 ADD PUSH2 0x7F4 JUMP JUMPDEST PUSH0 DUP3 DUP2 MSTORE PUSH1 0x8 PUSH1 0x20 DUP2 SWAP1 MSTORE PUSH1 0x40 SWAP1 SWAP2 KECCAK256 PUSH1 0x7 DUP2 ADD DUP1 SLOAD PUSH2 0xFF00 NOT AND PUSH2 0x100 OR SWAP1 SSTORE PUSH1 0x3 DUP2 ADD SLOAD SWAP2 DUP2 ADD SLOAD SWAP1 SWAP2 PUSH2 0xC13 SWAP2 ADDRESS SWAP2 PUSH1 0x1 PUSH1 0x1 PUSH1 0xA0 SHL SUB AND SWAP1 PUSH2 0x1A40 JUMP JUMPDEST PUSH1 0x3 DUP2 ADD SLOAD PUSH1 0x8 DUP3 ADD SLOAD PUSH2 0xC92 SWAP2 PUSH1 0x1 PUSH1 0x1 PUSH1 0xA0 SHL SUB AND SWAP1 PUSH2 0xC34 DUP3 PUSH2 0x1080 JUMP JUMPDEST PUSH2 0xC3E SWAP2 SWAP1 PUSH2 0x258D JUMP JUMPDEST PUSH1 0x3 DUP5 ADD SLOAD PUSH2 0xC55 SWAP1 PUSH1 0x1 PUSH1 0x1 PUSH1 0xA0 SHL SUB AND PUSH2 0x1080 JUMP JUMPDEST PUSH1 0x40 MLOAD DUP1 PUSH1 0x40 ADD PUSH1 0x40 MSTORE DUP1 PUSH1 0x18 DUP2 MSTORE PUSH1 0x20 ADD PUSH32 0x436C696E6963616C207465737420636F6D706C6574696F6E0000000000000000 DUP2 MSTORE POP CALLER DUP9 PUSH2 0x1C2D JUMP JUMPDEST PUSH1 0x40 MLOAD TIMESTAMP DUP2 MSTORE CALLER SWAP1 DUP5 SWAP1 PUSH32 0xFBF860A58BB486670A4AB1D426433F88CF08E59CA817A52D7050D5CD6F7EEE5C SWAP1 PUSH1 0x20 ADD JUMPDEST PUSH1 0x40 MLOAD DUP1 SWAP2 SUB SWAP1 LOG3 POP POP POP JUMP JUMPDEST PUSH1 0x1 PUSH1 0x1 PUSH1 0xA0 SHL SUB DUP2 AND PUSH0 SWAP1 DUP2 MSTORE PUSH1 0x9 PUSH1 0x20 SWAP1 DUP2 MSTORE PUSH1 0x40 SWAP2 DUP3 SWAP1 KECCAK256 DUP1 SLOAD DUP4 MLOAD DUP2 DUP5 MUL DUP2 ADD DUP5 ADD SWAP1 SWAP5 MSTORE DUP1 DUP5 MSTORE PUSH1 0x60 SWAP4 SWAP3 DUP4 ADD DUP3 DUP3 DUP1 ISZERO PUSH2 0xD2C JUMPI PUSH1 0x20 MUL DUP3 ADD SWAP2 SWAP1 PUSH0 MSTORE PUSH1 0x20 PUSH0 KECCAK256 SWAP1 JUMPDEST DUP2 SLOAD DUP2 MSTORE PUSH1 0x20 ADD SWAP1 PUSH1 0x1 ADD SWAP1 DUP1 DUP4 GT PUSH2 0xD18 JUMPI JUMPDEST POP POP POP POP POP SWAP1 POP SWAP2 SWAP1 POP JUMP JUMPDEST PUSH32 0x21702C8AF46127C7FA207F89D0B0A8441BB32959A0AC7DF790E9AB1A25C98926 PUSH2 0xD62 DUP2 PUSH2 0x1A9D JUMP JUMPDEST PUSH2 0xD6A PUSH2 0x1DDC JUMP JUMPDEST PUSH0 DUP3 GT DUP1 ISZERO PUSH2 0xD7A JUMPI POP PUSH1 0xD SLOAD DUP3 LT JUMPDEST PUSH2 0xD96 JUMPI PUSH1 0x40 MLOAD PUSH3 0x461BCD PUSH1 0xE5 SHL DUP2 MSTORE PUSH1 0x4 ADD PUSH2 0x7F4 SWAP1 PUSH2 0x25A0 JUMP JUMPDEST PUSH0 DUP3 DUP2 MSTORE PUSH1 0x8 PUSH1 0x20 SWAP1 DUP2 MSTORE PUSH1 0x40 DUP1 DUP4 KECCAK256 CALLER DUP5 MSTORE PUSH1 0x9 ADD SWAP1 SWAP2 MSTORE SWAP1 KECCAK256 SLOAD PUSH1 0xFF AND ISZERO PUSH2 0xDF5 JUMPI PUSH1 0x40 MLOAD PUSH3 0x461BCD PUSH1 0xE5 SHL DUP2 MSTORE PUSH1 0x20 PUSH1 0x4 DUP3 ADD MSTORE PUSH1 0x10 PUSH1 0x24 DUP3 ADD MSTORE PUSH16 0x105B1C9958591E48185C1C1C9BDD9959 PUSH1 0x82 SHL PUSH1 0x44 DUP3 ADD MSTORE PUSH1 0x64 ADD PUSH2 0x7F4 JUMP JUMPDEST PUSH0 DUP3 DUP2 MSTORE PUSH1 0x8 PUSH1 0x20 DUP2 DUP2 MSTORE PUSH1 0x40 DUP1 DUP5 KECCAK256 CALLER DUP6 MSTORE PUSH1 0x9 DUP2 ADD DUP4 MSTORE SWAP1 DUP5 KECCAK256 DUP1 SLOAD PUSH1 0xFF NOT AND PUSH1 0x1 OR SWAP1 SSTORE DUP6 DUP5 MSTORE SWAP2 SWAP1 MSTORE PUSH1 0xA ADD DUP1 SLOAD SWAP2 PUSH2 0xE31 DUP4 PUSH2 0x25C9 JUMP JUMPDEST SWAP1 SWAP2 SSTORE POP POP PUSH0 DUP3 DUP2 MSTORE PUSH1 0x8 PUSH1 0x20 SWAP1 DUP2 MSTORE PUSH1 0x40 SWAP2 DUP3 SWAP1 KECCAK256 PUSH1 0xA ADD SLOAD SWAP2 MLOAD SWAP2 DUP3 MSTORE CALLER SWAP2 DUP5 SWAP2 PUSH32 0xBFA63A3FD1A533E040D9ABBBA71DAD5BD30AE49BA7650B37708BFD5968260747 SWAP2 ADD JUMPDEST PUSH1 0x40 MLOAD DUP1 SWAP2 SUB SWAP1 LOG3 POP POP JUMP JUMPDEST PUSH1 0x8 PUSH1 0x20 MSTORE PUSH0 SWAP1 DUP2 MSTORE PUSH1 0x40 SWAP1 KECCAK256 DUP1 SLOAD PUSH1 0x1 DUP3 ADD DUP1 SLOAD SWAP2 SWAP3 SWAP2 PUSH2 0xEA5 SWAP1 PUSH2 0x2541 JUMP JUMPDEST DUP1 PUSH1 0x1F ADD PUSH1 0x20 DUP1 SWAP2 DIV MUL PUSH1 0x20 ADD PUSH1 0x40 MLOAD SWAP1 DUP2 ADD PUSH1 0x40 MSTORE DUP1 SWAP3 SWAP2 SWAP1 DUP2 DUP2 MSTORE PUSH1 0x20 ADD DUP3 DUP1 SLOAD PUSH2 0xED1 SWAP1 PUSH2 0x2541 JUMP JUMPDEST DUP1 ISZERO PUSH2 0xF1C JUMPI DUP1 PUSH1 0x1F LT PUSH2 0xEF3 JUMPI PUSH2 0x100 DUP1 DUP4 SLOAD DIV MUL DUP4 MSTORE SWAP2 PUSH1 0x20 ADD SWAP2 PUSH2 0xF1C JUMP JUMPDEST DUP3 ADD SWAP2 SWAP1 PUSH0 MSTORE PUSH1 0x20 PUSH0 KECCAK256 SWAP1 JUMPDEST DUP2 SLOAD DUP2 MSTORE SWAP1 PUSH1 0x1 ADD SWAP1 PUSH1 0x20 ADD DUP1 DUP4 GT PUSH2 0xEFF JUMPI DUP3 SWAP1 SUB PUSH1 0x1F AND DUP3 ADD SWAP2 JUMPDEST POP POP POP POP PUSH1 0x2 DUP4 ADD SLOAD PUSH1 0x3 DUP5 ADD SLOAD PUSH1 0x4 DUP6 ADD SLOAD PUSH1 0x5 DUP7 ADD DUP1 SLOAD SWAP6 SWAP7 PUSH1 0x1 PUSH1 0x1 PUSH1 0xA0 SHL SUB SWAP5 DUP6 AND SWAP7 SWAP5 SWAP1 SWAP4 AND SWAP5 POP SWAP1 SWAP3 PUSH2 0xF54 SWAP1 PUSH2 0x2541 JUMP JUMPDEST DUP1 PUSH1 0x1F ADD PUSH1 0x20 DUP1 SWAP2 DIV MUL PUSH1 0x20 ADD PUSH1 0x40 MLOAD SWAP1 DUP2 ADD PUSH1 0x40 MSTORE DUP1 SWAP3 SWAP2 SWAP1 DUP2 DUP2 MSTORE PUSH1 0x20 ADD DUP3 DUP1 SLOAD PUSH2 0xF80 SWAP1 PUSH2 0x2541 JUMP JUMPDEST DUP1 ISZERO PUSH2 0xFCB JUMPI DUP1 PUSH1 0x1F LT PUSH2 0xFA2 JUMPI PUSH2 0x100 DUP1 DUP4 SLOAD DIV MUL DUP4 MSTORE SWAP2 PUSH1 0x20 ADD SWAP2 PUSH2 0xFCB JUMP JUMPDEST DUP3 ADD SWAP2 SWAP1 PUSH0 MSTORE PUSH1 0x20 PUSH0 KECCAK256 SWAP1 JUMPDEST DUP2 SLOAD DUP2 MSTORE SWAP1 PUSH1 0x1 ADD SWAP1 PUSH1 0x20 ADD DUP1 DUP4 GT PUSH2 0xFAE JUMPI DUP3 SWAP1 SUB PUSH1 0x1F AND DUP3 ADD SWAP2 JUMPDEST POP POP POP POP POP SWAP1 DUP1 PUSH1 0x6 ADD DUP1 SLOAD PUSH2 0xFE0 SWAP1 PUSH2 0x2541 JUMP JUMPDEST DUP1 PUSH1 0x1F ADD PUSH1 0x20 DUP1 SWAP2 DIV MUL PUSH1 0x20 ADD PUSH1 0x40 MLOAD SWAP1 DUP2 ADD PUSH1 0x40 MSTORE DUP1 SWAP3 SWAP2 SWAP1 DUP2 DUP2 MSTORE PUSH1 0x20 ADD DUP3 DUP1 SLOAD PUSH2 0x100C SWAP1 PUSH2 0x2541 JUMP JUMPDEST DUP1 ISZERO PUSH2 0x1057 JUMPI DUP1 PUSH1 0x1F LT PUSH2 0x102E JUMPI PUSH2 0x100 DUP1 DUP4 SLOAD DIV MUL DUP4 MSTORE SWAP2 PUSH1 0x20 ADD SWAP2 PUSH2 0x1057 JUMP JUMPDEST DUP3 ADD SWAP2 SWAP1 PUSH0 MSTORE PUSH1 0x20 PUSH0 KECCAK256 SWAP1 JUMPDEST DUP2 SLOAD DUP2 MSTORE SWAP1 PUSH1 0x1 ADD SWAP1 PUSH1 0x20 ADD DUP1 DUP4 GT PUSH2 0x103A JUMPI DUP3 SWAP1 SUB PUSH1 0x1F AND DUP3 ADD SWAP2 JUMPDEST POP POP POP PUSH1 0x7 DUP5 ADD SLOAD PUSH1 0x8 DUP6 ADD SLOAD PUSH1 0xA SWAP1 SWAP6 ADD SLOAD SWAP4 SWAP5 PUSH1 0xFF DUP1 DUP4 AND SWAP6 PUSH2 0x100 SWAP1 SWAP4 DIV AND SWAP4 POP SWAP2 POP DUP12 JUMP JUMPDEST PUSH1 0x1 PUSH1 0x1 PUSH1 0xA0 SHL SUB AND PUSH0 SWAP1 DUP2 MSTORE PUSH1 0x20 DUP2 SWAP1 MSTORE PUSH1 0x40 SWAP1 KECCAK256 SLOAD SWAP1 JUMP JUMPDEST PUSH2 0x10E6 PUSH1 0x40 MLOAD DUP1 PUSH1 0xE0 ADD PUSH1 0x40 MSTORE DUP1 PUSH0 PUSH1 0x1 PUSH1 0x1 PUSH1 0xA0 SHL SUB AND DUP2 MSTORE PUSH1 0x20 ADD PUSH0 DUP2 MSTORE PUSH1 0x20 ADD PUSH0 DUP2 MSTORE PUSH1 0x20 ADD PUSH0 DUP2 MSTORE PUSH1 0x20 ADD PUSH1 0x60 DUP2 MSTORE PUSH1 0x20 ADD PUSH0 PUSH1 0x1 PUSH1 0x1 PUSH1 0xA0 SHL SUB AND DUP2 MSTORE PUSH1 0x20 ADD PUSH0 DUP2 MSTORE POP SWAP1 JUMP JUMPDEST PUSH1 0xC SLOAD DUP3 LT PUSH2 0x112D JUMPI PUSH1 0x40 MLOAD PUSH3 0x461BCD PUSH1 0xE5 SHL DUP2 MSTORE PUSH1 0x20 PUSH1 0x4 DUP3 ADD MSTORE PUSH1 0x13 PUSH1 0x24 DUP3 ADD MSTORE PUSH19 0x92DCECC2D8D2C840C2EAC8D2E840D2DCC8CAF PUSH1 0x6B SHL PUSH1 0x44 DUP3 ADD MSTORE PUSH1 0x64 ADD PUSH2 0x7F4 JUMP JUMPDEST PUSH1 0xC DUP3 DUP2 SLOAD DUP2 LT PUSH2 0x1140 JUMPI PUSH2 0x1140 PUSH2 0x25E1 JUMP JUMPDEST SWAP1 PUSH0 MSTORE PUSH1 0x20 PUSH0 KECCAK256 SWAP1 PUSH1 0x7 MUL ADD PUSH1 0x40 MLOAD DUP1 PUSH1 0xE0 ADD PUSH1 0x40 MSTORE SWAP1 DUP2 PUSH0 DUP3 ADD PUSH0 SWAP1 SLOAD SWAP1 PUSH2 0x100 EXP SWAP1 DIV PUSH1 0x1 PUSH1 0x1 PUSH1 0xA0 SHL SUB AND PUSH1 0x1 PUSH1 0x1 PUSH1 0xA0 SHL SUB AND PUSH1 0x1 PUSH1 0x1 PUSH1 0xA0 SHL SUB AND DUP2 MSTORE PUSH1 0x20 ADD PUSH1 0x1 DUP3 ADD SLOAD DUP2 MSTORE PUSH1 0x20 ADD PUSH1 0x2 DUP3 ADD SLOAD DUP2 MSTORE PUSH1 0x20 ADD PUSH1 0x3 DUP3 ADD SLOAD DUP2 MSTORE PUSH1 0x20 ADD PUSH1 0x4 DUP3 ADD DUP1 SLOAD PUSH2 0x11B2 SWAP1 PUSH2 0x2541 JUMP JUMPDEST DUP1 PUSH1 0x1F ADD PUSH1 0x20 DUP1 SWAP2 DIV MUL PUSH1 0x20 ADD PUSH1 0x40 MLOAD SWAP1 DUP2 ADD PUSH1 0x40 MSTORE DUP1 SWAP3 SWAP2 SWAP1 DUP2 DUP2 MSTORE PUSH1 0x20 ADD DUP3 DUP1 SLOAD PUSH2 0x11DE SWAP1 PUSH2 0x2541 JUMP JUMPDEST DUP1 ISZERO PUSH2 0x1229 JUMPI DUP1 PUSH1 0x1F LT PUSH2 0x1200 JUMPI PUSH2 0x100 DUP1 DUP4 SLOAD DIV MUL DUP4 MSTORE SWAP2 PUSH1 0x20 ADD SWAP2 PUSH2 0x1229 JUMP JUMPDEST DUP3 ADD SWAP2 SWAP1 PUSH0 MSTORE PUSH1 0x20 PUSH0 KECCAK256 SWAP1 JUMPDEST DUP2 SLOAD DUP2 MSTORE SWAP1 PUSH1 0x1 ADD SWAP1 PUSH1 0x20 ADD DUP1 DUP4 GT PUSH2 0x120C JUMPI DUP3 SWAP1 SUB PUSH1 0x1F AND DUP3 ADD SWAP2 JUMPDEST POP POP POP SWAP2 DUP4 MSTORE POP POP PUSH1 0x5 DUP3 ADD SLOAD PUSH1 0x1 PUSH1 0x1 PUSH1 0xA0 SHL SUB AND PUSH1 0x20 DUP3 ADD MSTORE PUSH1 0x6 SWAP1 SWAP2 ADD SLOAD PUSH1 0x40 SWAP1 SWAP2 ADD MSTORE SWAP3 SWAP2 POP POP JUMP JUMPDEST PUSH0 DUP1 MLOAD PUSH1 0x20 PUSH2 0x2788 DUP4 CODECOPY DUP2 MLOAD SWAP2 MSTORE PUSH2 0x126D DUP2 PUSH2 0x1A9D JUMP JUMPDEST PUSH2 0x749 PUSH2 0x1E02 JUMP JUMPDEST PUSH0 SWAP2 DUP3 MSTORE PUSH1 0x5 PUSH1 0x20 SWAP1 DUP2 MSTORE PUSH1 0x40 DUP1 DUP5 KECCAK256 PUSH1 0x1 PUSH1 0x1 PUSH1 0xA0 SHL SUB SWAP4 SWAP1 SWAP4 AND DUP5 MSTORE SWAP2 SWAP1 MSTORE SWAP1 KECCAK256 SLOAD PUSH1 0xFF AND SWAP1 JUMP JUMPDEST PUSH1 0x60 PUSH1 0x4 DUP1 SLOAD PUSH2 0x60D SWAP1 PUSH2 0x2541 JUMP JUMPDEST PUSH0 PUSH32 0xE497B4AD79A67650FCA774CF0812E4505F07DD6D87A3C1AFC29076CCC8BBCEFE PUSH2 0x12D9 DUP2 PUSH2 0x1A9D JUMP JUMPDEST PUSH2 0x12E1 PUSH2 0x1DDC JUMP JUMPDEST PUSH1 0x1 PUSH1 0x1 PUSH1 0xA0 SHL SUB DUP7 AND PUSH2 0x1337 JUMPI PUSH1 0x40 MLOAD PUSH3 0x461BCD PUSH1 0xE5 SHL DUP2 MSTORE PUSH1 0x20 PUSH1 0x4 DUP3 ADD MSTORE PUSH1 0x17 PUSH1 0x24 DUP3 ADD MSTORE PUSH32 0x496E76616C69642070617469656E742061646472657373000000000000000000 PUSH1 0x44 DUP3 ADD MSTORE PUSH1 0x64 ADD PUSH2 0x7F4 JUMP JUMPDEST PUSH0 DUP8 MLOAD GT PUSH2 0x137C JUMPI PUSH1 0x40 MLOAD PUSH3 0x461BCD PUSH1 0xE5 SHL DUP2 MSTORE PUSH1 0x20 PUSH1 0x4 DUP3 ADD MSTORE PUSH1 0x12 PUSH1 0x24 DUP3 ADD MSTORE PUSH18 0x15195CDD081D1E5C19481C995C5D5A5C9959 PUSH1 0x72 SHL PUSH1 0x44 DUP3 ADD MSTORE PUSH1 0x64 ADD PUSH2 0x7F4 JUMP JUMPDEST PUSH0 DUP6 MLOAD GT PUSH2 0x13C1 JUMPI PUSH1 0x40 MLOAD PUSH3 0x461BCD PUSH1 0xE5 SHL DUP2 MSTORE PUSH1 0x20 PUSH1 0x4 DUP3 ADD MSTORE PUSH1 0x12 PUSH1 0x24 DUP3 ADD MSTORE PUSH18 0x11185D18481A185CDA081C995C5D5A5C9959 PUSH1 0x72 SHL PUSH1 0x44 DUP3 ADD MSTORE PUSH1 0x64 ADD PUSH2 0x7F4 JUMP JUMPDEST PUSH0 DUP4 GT PUSH2 0x141A JUMPI PUSH1 0x40 MLOAD PUSH3 0x461BCD PUSH1 0xE5 SHL DUP2 MSTORE PUSH1 0x20 PUSH1 0x4 DUP3 ADD MSTORE PUSH1 0x21 PUSH1 0x24 DUP3 ADD MSTORE PUSH32 0x546F6B656E20616C6C6F636174696F6E206D75737420626520706F7369746976 PUSH1 0x44 DUP3 ADD MSTORE PUSH1 0x65 PUSH1 0xF8 SHL PUSH1 0x64 DUP3 ADD MSTORE PUSH1 0x84 ADD PUSH2 0x7F4 JUMP JUMPDEST DUP3 PUSH2 0x1424 CALLER PUSH2 0x1080 JUMP JUMPDEST LT ISZERO PUSH2 0x1468 JUMPI PUSH1 0x40 MLOAD PUSH3 0x461BCD PUSH1 0xE5 SHL DUP2 MSTORE PUSH1 0x20 PUSH1 0x4 DUP3 ADD MSTORE PUSH1 0x13 PUSH1 0x24 DUP3 ADD MSTORE PUSH19 0x496E73756666696369656E7420746F6B656E73 PUSH1 0x68 SHL PUSH1 0x44 DUP3 ADD MSTORE PUSH1 0x64 ADD PUSH2 0x7F4 JUMP JUMPDEST PUSH1 0xD DUP1 SLOAD SWAP1 DUP2 SWAP1 PUSH0 PUSH2 0x1479 DUP4 PUSH2 0x25C9 JUMP JUMPDEST SWAP1 SWAP2 SSTORE POP POP PUSH0 DUP2 DUP2 MSTORE PUSH1 0x8 PUSH1 0x20 MSTORE PUSH1 0x40 SWAP1 KECCAK256 DUP2 DUP2 SSTORE PUSH1 0x1 DUP2 ADD PUSH2 0x149C DUP11 DUP3 PUSH2 0x2642 JUMP JUMPDEST POP PUSH1 0x2 DUP2 ADD DUP1 SLOAD CALLER PUSH1 0x1 PUSH1 0x1 PUSH1 0xA0 SHL SUB NOT SWAP2 DUP3 AND OR SWAP1 SWAP2 SSTORE PUSH1 0x3 DUP3 ADD DUP1 SLOAD SWAP1 SWAP2 AND PUSH1 0x1 PUSH1 0x1 PUSH1 0xA0 SHL SUB DUP11 AND OR SWAP1 SSTORE TIMESTAMP PUSH1 0x4 DUP3 ADD SSTORE PUSH1 0x5 DUP2 ADD PUSH2 0x14DE DUP9 DUP3 PUSH2 0x2642 JUMP JUMPDEST POP PUSH1 0x6 DUP2 ADD PUSH2 0x14ED DUP8 DUP3 PUSH2 0x2642 JUMP JUMPDEST POP PUSH1 0x7 DUP2 ADD DUP1 SLOAD PUSH2 0xFFFF NOT AND SWAP1 SSTORE PUSH1 0x8 DUP2 ADD DUP6 SWAP1 SSTORE PUSH0 PUSH1 0xA DUP1 DUP4 ADD DUP3 SWAP1 SSTORE PUSH1 0x1 PUSH1 0x1 PUSH1 0xA0 SHL SUB DUP11 AND DUP3 MSTORE PUSH1 0x9 PUSH1 0x20 SWAP1 DUP2 MSTORE PUSH1 0x40 DUP1 DUP5 KECCAK256 DUP1 SLOAD PUSH1 0x1 DUP2 DUP2 ADD DUP4 SSTORE SWAP2 DUP7 MSTORE DUP4 DUP7 KECCAK256 ADD DUP8 SWAP1 SSTORE CALLER DUP6 MSTORE SWAP3 DUP3 MSTORE DUP1 DUP5 KECCAK256 DUP1 SLOAD SWAP4 DUP5 ADD DUP2 SSTORE DUP5 MSTORE SWAP3 KECCAK256 ADD DUP4 SWAP1 SSTORE MLOAD PUSH1 0xB SWAP1 PUSH2 0x155D SWAP1 DUP12 SWAP1 PUSH2 0x26FE JUMP JUMPDEST SWAP1 DUP2 MSTORE PUSH1 0x40 MLOAD SWAP1 DUP2 SWAP1 SUB PUSH1 0x20 ADD SWAP1 KECCAK256 DUP1 SLOAD SWAP1 PUSH0 PUSH2 0x1579 DUP4 PUSH2 0x25C9 JUMP JUMPDEST SWAP1 SWAP2 SSTORE POP POP PUSH1 0xE DUP1 SLOAD SWAP1 PUSH0 PUSH2 0x158D DUP4 PUSH2 0x25C9 JUMP JUMPDEST SWAP2 SWAP1 POP SSTORE POP PUSH2 0x159D CALLER ADDRESS DUP8 PUSH2 0x1A40 JUMP JUMPDEST PUSH2 0x15FB ADDRESS DUP7 PUSH2 0x15AB ADDRESS PUSH2 0x1080 JUMP JUMPDEST PUSH2 0x15B5 SWAP2 SWAP1 PUSH2 0x258D JUMP JUMPDEST PUSH2 0x15BE ADDRESS PUSH2 0x1080 JUMP JUMPDEST PUSH1 0x40 MLOAD DUP1 PUSH1 0x40 ADD PUSH1 0x40 MSTORE DUP1 PUSH1 0x1A DUP2 MSTORE PUSH1 0x20 ADD PUSH32 0x436C696E6963616C207465737420746F6B656E20657363726F77000000000000 DUP2 MSTORE POP CALLER DUP8 PUSH2 0x1C2D JUMP JUMPDEST DUP8 PUSH1 0x1 PUSH1 0x1 PUSH1 0xA0 SHL SUB AND CALLER PUSH1 0x1 PUSH1 0x1 PUSH1 0xA0 SHL SUB AND DUP4 PUSH32 0x7E7721F707738E432843DBD16824401362DF6792B22783DC84F559FA5B71B020 DUP13 DUP10 DUP13 PUSH1 0x40 MLOAD PUSH2 0x1643 SWAP4 SWAP3 SWAP2 SWAP1 PUSH2 0x2719 JUMP JUMPDEST PUSH1 0x40 MLOAD DUP1 SWAP2 SUB SWAP1 LOG4 POP SWAP8 SWAP7 POP POP POP POP POP POP POP JUMP JUMPDEST PUSH0 PUSH2 0x1660 PUSH2 0x1E3F JUMP JUMPDEST PUSH2 0x1668 PUSH2 0x1DDC JUMP JUMPDEST PUSH0 PUSH2 0x1672 DUP5 PUSH2 0x1080 JUMP JUMPDEST SWAP1 POP PUSH0 PUSH2 0x167F DUP6 DUP6 PUSH2 0x1E69 JUMP JUMPDEST SWAP1 POP DUP1 ISZERO PUSH2 0x16C3 JUMPI PUSH2 0x16C3 DUP6 DUP4 PUSH2 0x1695 DUP9 PUSH2 0x1080 JUMP JUMPDEST PUSH1 0x40 MLOAD DUP1 PUSH1 0x40 ADD PUSH1 0x40 MSTORE DUP1 PUSH1 0xE DUP2 MSTORE PUSH1 0x20 ADD PUSH14 0x2A37B5B2B7103A3930B739B332B9 PUSH1 0x91 SHL DUP2 MSTORE POP CALLER PUSH0 PUSH2 0x1C2D JUMP JUMPDEST SWAP2 POP POP PUSH2 0x5F8 PUSH1 0x1 PUSH1 0x7 SSTORE JUMP JUMPDEST PUSH1 0x1 PUSH1 0x1 PUSH1 0xA0 SHL SUB DUP2 AND PUSH0 SWAP1 DUP2 MSTORE PUSH1 0xA PUSH1 0x20 SWAP1 DUP2 MSTORE PUSH1 0x40 SWAP2 DUP3 SWAP1 KECCAK256 DUP1 SLOAD DUP4 MLOAD DUP2 DUP5 MUL DUP2 ADD DUP5 ADD SWAP1 SWAP5 MSTORE DUP1 DUP5 MSTORE PUSH1 0x60 SWAP4 SWAP3 DUP4 ADD DUP3 DUP3 DUP1 ISZERO PUSH2 0xD2C JUMPI PUSH1 0x20 MUL DUP3 ADD SWAP2 SWAP1 PUSH0 MSTORE PUSH1 0x20 PUSH0 KECCAK256 SWAP1 DUP2 SLOAD DUP2 MSTORE PUSH1 0x20 ADD SWAP1 PUSH1 0x1 ADD SWAP1 DUP1 DUP4 GT PUSH2 0xD18 JUMPI POP POP POP POP POP SWAP1 POP SWAP2 SWAP1 POP JUMP JUMPDEST PUSH32 0x21702C8AF46127C7FA207F89D0B0A8441BB32959A0AC7DF790E9AB1A25C98926 PUSH2 0x1761 DUP2 PUSH2 0x1A9D JUMP JUMPDEST PUSH2 0x1769 PUSH2 0x1DDC JUMP JUMPDEST PUSH0 DUP3 GT DUP1 ISZERO PUSH2 0x1779 JUMPI POP PUSH1 0xD SLOAD DUP3 LT JUMPDEST PUSH2 0x1795 JUMPI PUSH1 0x40 MLOAD PUSH3 0x461BCD PUSH1 0xE5 SHL DUP2 MSTORE PUSH1 0x4 ADD PUSH2 0x7F4 SWAP1 PUSH2 0x25A0 JUMP JUMPDEST PUSH0 DUP3 DUP2 MSTORE PUSH1 0x8 PUSH1 0x20 MSTORE PUSH1 0x40 SWAP1 KECCAK256 PUSH1 0x7 ADD SLOAD PUSH1 0xFF AND ISZERO PUSH2 0x17EF JUMPI PUSH1 0x40 MLOAD PUSH3 0x461BCD PUSH1 0xE5 SHL DUP2 MSTORE PUSH1 0x20 PUSH1 0x4 DUP3 ADD MSTORE PUSH1 0x16 PUSH1 0x24 DUP3 ADD MSTORE PUSH22 0x15195CDD08185B1C9958591E481D985B1A59185D1959 PUSH1 0x52 SHL PUSH1 0x44 DUP3 ADD MSTORE PUSH1 0x64 ADD PUSH2 0x7F4 JUMP JUMPDEST PUSH0 DUP3 DUP2 MSTORE PUSH1 0x8 PUSH1 0x20 MSTORE PUSH1 0x40 SWAP1 KECCAK256 PUSH1 0x7 ADD SLOAD PUSH2 0x100 SWAP1 DIV PUSH1 0xFF AND ISZERO PUSH2 0x184E JUMPI PUSH1 0x40 MLOAD PUSH3 0x461BCD PUSH1 0xE5 SHL DUP2 MSTORE PUSH1 0x20 PUSH1 0x4 DUP3 ADD MSTORE PUSH1 0x16 PUSH1 0x24 DUP3 ADD MSTORE PUSH22 0x15195CDD08185B1C9958591E4818DBDB5C1B195D1959 PUSH1 0x52 SHL PUSH1 0x44 DUP3 ADD MSTORE PUSH1 0x64 ADD PUSH2 0x7F4 JUMP JUMPDEST PUSH0 DUP3 DUP2 MSTORE PUSH1 0x8 PUSH1 0x20 MSTORE PUSH1 0x40 DUP2 KECCAK256 PUSH1 0x7 ADD DUP1 SLOAD PUSH1 0xFF NOT AND PUSH1 0x1 OR SWAP1 SSTORE PUSH1 0xF DUP1 SLOAD SWAP2 PUSH2 0x1877 DUP4 PUSH2 0x25C9 JUMP JUMPDEST SWAP1 SWAP2 SSTORE POP POP PUSH1 0x40 MLOAD TIMESTAMP DUP2 MSTORE CALLER SWAP1 DUP4 SWAP1 PUSH32 0xF0C06490C8FA424AC367BBEDD8BC523E3A79283E498EFB24C1BE92B329662BE8 SWAP1 PUSH1 0x20 ADD PUSH2 0xE78 JUMP JUMPDEST PUSH0 DUP3 DUP2 MSTORE PUSH1 0x5 PUSH1 0x20 MSTORE PUSH1 0x40 SWAP1 KECCAK256 PUSH1 0x1 ADD SLOAD PUSH2 0x18CA DUP2 PUSH2 0x1A9D JUMP JUMPDEST PUSH2 0x6EC DUP4 DUP4 PUSH2 0x1B38 JUMP JUMPDEST PUSH1 0xC DUP2 DUP2 SLOAD DUP2 LT PUSH2 0x18E3 JUMPI PUSH0 DUP1 REVERT JUMPDEST PUSH0 SWAP2 DUP3 MSTORE PUSH1 0x20 SWAP1 SWAP2 KECCAK256 PUSH1 0x7 SWAP1 SWAP2 MUL ADD DUP1 SLOAD PUSH1 0x1 DUP3 ADD SLOAD PUSH1 0x2 DUP4 ADD SLOAD PUSH1 0x3 DUP5 ADD SLOAD PUSH1 0x4 DUP6 ADD DUP1 SLOAD PUSH1 0x1 PUSH1 0x1 PUSH1 0xA0 SHL SUB SWAP1 SWAP6 AND SWAP7 POP SWAP3 SWAP5 SWAP2 SWAP4 SWAP1 SWAP3 SWAP1 PUSH2 0x1926 SWAP1 PUSH2 0x2541 JUMP JUMPDEST DUP1 PUSH1 0x1F ADD PUSH1 0x20 DUP1 SWAP2 DIV MUL PUSH1 0x20 ADD PUSH1 0x40 MLOAD SWAP1 DUP2 ADD PUSH1 0x40 MSTORE DUP1 SWAP3 SWAP2 SWAP1 DUP2 DUP2 MSTORE PUSH1 0x20 ADD DUP3 DUP1 SLOAD PUSH2 0x1952 SWAP1 PUSH2 0x2541 JUMP JUMPDEST DUP1 ISZERO PUSH2 0x199D JUMPI DUP1 PUSH1 0x1F LT PUSH2 0x1974 JUMPI PUSH2 0x100 DUP1 DUP4 SLOAD DIV MUL DUP4 MSTORE SWAP2 PUSH1 0x20 ADD SWAP2 PUSH2 0x199D JUMP JUMPDEST DUP3 ADD SWAP2 SWAP1 PUSH0 MSTORE PUSH1 0x20 PUSH0 KECCAK256 SWAP1 JUMPDEST DUP2 SLOAD DUP2 MSTORE SWAP1 PUSH1 0x1 ADD SWAP1 PUSH1 0x20 ADD DUP1 DUP4 GT PUSH2 0x1980 JUMPI DUP3 SWAP1 SUB PUSH1 0x1F AND DUP3 ADD SWAP2 JUMPDEST POP POP POP POP PUSH1 0x5 DUP4 ADD SLOAD PUSH1 0x6 SWAP1 SWAP4 ADD SLOAD SWAP2 SWAP3 PUSH1 0x1 PUSH1 0x1 PUSH1 0xA0 SHL SUB AND SWAP2 SWAP1 POP DUP8 JUMP JUMPDEST PUSH2 0x725 DUP4 DUP4 DUP4 PUSH1 0x1 PUSH2 0x1E76 JUMP JUMPDEST PUSH1 0x1 PUSH1 0x1 PUSH1 0xA0 SHL SUB DUP4 DUP2 AND PUSH0 SWAP1 DUP2 MSTORE PUSH1 0x1 PUSH1 0x20 SWAP1 DUP2 MSTORE PUSH1 0x40 DUP1 DUP4 KECCAK256 SWAP4 DUP7 AND DUP4 MSTORE SWAP3 SWAP1 MSTORE KECCAK256 SLOAD PUSH0 NOT DUP2 LT ISZERO PUSH2 0x6EC JUMPI DUP2 DUP2 LT ISZERO PUSH2 0x1A32 JUMPI PUSH1 0x40 MLOAD PUSH4 0x7DC7A0D9 PUSH1 0xE1 SHL DUP2 MSTORE PUSH1 0x1 PUSH1 0x1 PUSH1 0xA0 SHL SUB DUP5 AND PUSH1 0x4 DUP3 ADD MSTORE PUSH1 0x24 DUP2 ADD DUP3 SWAP1 MSTORE PUSH1 0x44 DUP2 ADD DUP4 SWAP1 MSTORE PUSH1 0x64 ADD PUSH2 0x7F4 JUMP JUMPDEST PUSH2 0x6EC DUP5 DUP5 DUP5 DUP5 SUB PUSH0 PUSH2 0x1E76 JUMP JUMPDEST PUSH1 0x1 PUSH1 0x1 PUSH1 0xA0 SHL SUB DUP4 AND PUSH2 0x1A69 JUMPI PUSH1 0x40 MLOAD PUSH4 0x4B637E8F PUSH1 0xE1 SHL DUP2 MSTORE PUSH0 PUSH1 0x4 DUP3 ADD MSTORE PUSH1 0x24 ADD PUSH2 0x7F4 JUMP JUMPDEST PUSH1 0x1 PUSH1 0x1 PUSH1 0xA0 SHL SUB DUP3 AND PUSH2 0x1A92 JUMPI PUSH1 0x40 MLOAD PUSH4 0xEC442F05 PUSH1 0xE0 SHL DUP2 MSTORE PUSH0 PUSH1 0x4 DUP3 ADD MSTORE PUSH1 0x24 ADD PUSH2 0x7F4 JUMP JUMPDEST PUSH2 0x725 DUP4 DUP4 DUP4 PUSH2 0x1F48 JUMP JUMPDEST PUSH2 0x749 DUP2 CALLER PUSH2 0x2061 JUMP JUMPDEST PUSH0 PUSH2 0x1AB2 DUP4 DUP4 PUSH2 0x1275 JUMP JUMPDEST PUSH2 0x1B31 JUMPI PUSH0 DUP4 DUP2 MSTORE PUSH1 0x5 PUSH1 0x20 SWAP1 DUP2 MSTORE PUSH1 0x40 DUP1 DUP4 KECCAK256 PUSH1 0x1 PUSH1 0x1 PUSH1 0xA0 SHL SUB DUP7 AND DUP5 MSTORE SWAP1 SWAP2 MSTORE SWAP1 KECCAK256 DUP1 SLOAD PUSH1 0xFF NOT AND PUSH1 0x1 OR SWAP1 SSTORE PUSH2 0x1AE9 CALLER SWAP1 JUMP JUMPDEST PUSH1 0x1 PUSH1 0x1 PUSH1 0xA0 SHL SUB AND DUP3 PUSH1 0x1 PUSH1 0x1 PUSH1 0xA0 SHL SUB AND DUP5 PUSH32 0x2F8788117E7EFF1D82E926EC794901D17C78024A50270940304540A733656F0D PUSH1 0x40 MLOAD PUSH1 0x40 MLOAD DUP1 SWAP2 SUB SWAP1 LOG4 POP PUSH1 0x1 PUSH2 0x5F8 JUMP JUMPDEST POP PUSH0 PUSH2 0x5F8 JUMP JUMPDEST PUSH0 PUSH2 0x1B43 DUP4 DUP4 PUSH2 0x1275 JUMP JUMPDEST ISZERO PUSH2 0x1B31 JUMPI PUSH0 DUP4 DUP2 MSTORE PUSH1 0x5 PUSH1 0x20 SWAP1 DUP2 MSTORE PUSH1 0x40 DUP1 DUP4 KECCAK256 PUSH1 0x1 PUSH1 0x1 PUSH1 0xA0 SHL SUB DUP7 AND DUP1 DUP6 MSTORE SWAP3 MSTORE DUP1 DUP4 KECCAK256 DUP1 SLOAD PUSH1 0xFF NOT AND SWAP1 SSTORE MLOAD CALLER SWAP3 DUP7 SWAP2 PUSH32 0xF6391F5C32D9C69D2A47EA670B442974B53935D1EDC7FD64EB21E047A839171B SWAP2 SWAP1 LOG4 POP PUSH1 0x1 PUSH2 0x5F8 JUMP JUMPDEST PUSH2 0x1BAB PUSH2 0x209A JUMP JUMPDEST PUSH1 0x6 DUP1 SLOAD PUSH1 0xFF NOT AND SWAP1 SSTORE PUSH32 0x5DB9EE0A495BF2E6FF9C91A7834C1BA4FDD244A5E8AA4E537BD38AEAE4B073AA CALLER JUMPDEST PUSH1 0x40 MLOAD PUSH1 0x1 PUSH1 0x1 PUSH1 0xA0 SHL SUB SWAP1 SWAP2 AND DUP2 MSTORE PUSH1 0x20 ADD PUSH1 0x40 MLOAD DUP1 SWAP2 SUB SWAP1 LOG1 JUMP JUMPDEST PUSH1 0x1 PUSH1 0x1 PUSH1 0xA0 SHL SUB DUP3 AND PUSH2 0x1C1E JUMPI PUSH1 0x40 MLOAD PUSH4 0xEC442F05 PUSH1 0xE0 SHL DUP2 MSTORE PUSH0 PUSH1 0x4 DUP3 ADD MSTORE PUSH1 0x24 ADD PUSH2 0x7F4 JUMP JUMPDEST PUSH2 0x1C29 PUSH0 DUP4 DUP4 PUSH2 0x1F48 JUMP JUMPDEST POP POP JUMP JUMPDEST PUSH1 0x40 DUP1 MLOAD PUSH1 0xE0 DUP2 ADD DUP3 MSTORE PUSH1 0x1 PUSH1 0x1 PUSH1 0xA0 SHL SUB DUP9 DUP2 AND DUP3 MSTORE PUSH1 0x20 DUP3 ADD DUP9 DUP2 MSTORE SWAP3 DUP3 ADD DUP8 DUP2 MSTORE TIMESTAMP PUSH1 0x60 DUP5 ADD SWAP1 DUP2 MSTORE PUSH1 0x80 DUP5 ADD DUP9 DUP2 MSTORE DUP8 DUP5 AND PUSH1 0xA0 DUP7 ADD MSTORE PUSH1 0xC0 DUP6 ADD DUP8 SWAP1 MSTORE PUSH1 0xC DUP1 SLOAD PUSH1 0x1 DUP2 ADD DUP3 SSTORE PUSH0 SWAP2 SWAP1 SWAP2 MSTORE DUP6 MLOAD PUSH32 0xDF6966C971051C3D54EC59162606531493A51404A002842F56009D7E5CF4A8C7 PUSH1 0x7 SWAP1 SWAP3 MUL SWAP2 DUP3 ADD DUP1 SLOAD PUSH1 0x1 PUSH1 0x1 PUSH1 0xA0 SHL SUB NOT AND SWAP2 SWAP1 SWAP7 AND OR DUP6 SSTORE SWAP6 MLOAD PUSH32 0xDF6966C971051C3D54EC59162606531493A51404A002842F56009D7E5CF4A8C8 DUP8 ADD SSTORE SWAP2 MLOAD PUSH32 0xDF6966C971051C3D54EC59162606531493A51404A002842F56009D7E5CF4A8C9 DUP7 ADD SSTORE MLOAD PUSH32 0xDF6966C971051C3D54EC59162606531493A51404A002842F56009D7E5CF4A8CA DUP6 ADD SSTORE MLOAD SWAP2 SWAP3 SWAP1 SWAP2 PUSH32 0xDF6966C971051C3D54EC59162606531493A51404A002842F56009D7E5CF4A8CB SWAP1 SWAP2 ADD SWAP1 PUSH2 0x1D61 SWAP1 DUP3 PUSH2 0x2642 JUMP JUMPDEST POP PUSH1 0xA0 DUP3 ADD MLOAD PUSH1 0x5 DUP3 ADD DUP1 SLOAD PUSH1 0x1 PUSH1 0x1 PUSH1 0xA0 SHL SUB NOT AND PUSH1 0x1 PUSH1 0x1 PUSH1 0xA0 SHL SUB SWAP3 DUP4 AND OR SWAP1 SSTORE PUSH1 0xC0 SWAP1 SWAP3 ADD MLOAD PUSH1 0x6 SWAP1 SWAP2 ADD SSTORE PUSH1 0x40 MLOAD DUP4 DUP3 AND SWAP2 DUP9 AND SWAP1 PUSH32 0xC70319605514C5368595995AEF04A7403E90EFC691D1B99058F1E817241CBBD8 SWAP1 PUSH2 0x1DCC SWAP1 DUP10 SWAP1 DUP10 SWAP1 DUP10 SWAP1 PUSH2 0x274D JUMP JUMPDEST PUSH1 0x40 MLOAD DUP1 SWAP2 SUB SWAP1 LOG3 POP POP POP POP POP POP JUMP JUMPDEST PUSH1 0x6 SLOAD PUSH1 0xFF AND ISZERO PUSH2 0x1E00 JUMPI PUSH1 0x40 MLOAD PUSH4 0xD93C0665 PUSH1 0xE0 SHL DUP2 MSTORE PUSH1 0x4 ADD PUSH1 0x40 MLOAD DUP1 SWAP2 SUB SWAP1 REVERT JUMPDEST JUMP JUMPDEST PUSH2 0x1E0A PUSH2 0x1DDC JUMP JUMPDEST PUSH1 0x6 DUP1 SLOAD PUSH1 0xFF NOT AND PUSH1 0x1 OR SWAP1 SSTORE PUSH32 0x62E78CEA01BEE320CD4E420270B5EA74000D11B0C9F74754EBDBFC544B05A258 PUSH2 0x1BD8 CALLER SWAP1 JUMP JUMPDEST PUSH1 0x2 PUSH1 0x7 SLOAD SUB PUSH2 0x1E62 JUMPI PUSH1 0x40 MLOAD PUSH4 0x3EE5AEB5 PUSH1 0xE0 SHL DUP2 MSTORE PUSH1 0x4 ADD PUSH1 0x40 MLOAD DUP1 SWAP2 SUB SWAP1 REVERT JUMPDEST PUSH1 0x2 PUSH1 0x7 SSTORE JUMP JUMPDEST PUSH0 CALLER PUSH2 0x69B DUP2 DUP6 DUP6 PUSH2 0x1A40 JUMP JUMPDEST PUSH1 0x1 PUSH1 0x1 PUSH1 0xA0 SHL SUB DUP5 AND PUSH2 0x1E9F JUMPI PUSH1 0x40 MLOAD PUSH4 0xE602DF05 PUSH1 0xE0 SHL DUP2 MSTORE PUSH0 PUSH1 0x4 DUP3 ADD MSTORE PUSH1 0x24 ADD PUSH2 0x7F4 JUMP JUMPDEST PUSH1 0x1 PUSH1 0x1 PUSH1 0xA0 SHL SUB DUP4 AND PUSH2 0x1EC8 JUMPI PUSH1 0x40 MLOAD PUSH4 0x4A1406B1 PUSH1 0xE1 SHL DUP2 MSTORE PUSH0 PUSH1 0x4 DUP3 ADD MSTORE PUSH1 0x24 ADD PUSH2 0x7F4 JUMP JUMPDEST PUSH1 0x1 PUSH1 0x1 PUSH1 0xA0 SHL SUB DUP1 DUP6 AND PUSH0 SWAP1 DUP2 MSTORE PUSH1 0x1 PUSH1 0x20 SWAP1 DUP2 MSTORE PUSH1 0x40 DUP1 DUP4 KECCAK256 SWAP4 DUP8 AND DUP4 MSTORE SWAP3 SWAP1 MSTORE KECCAK256 DUP3 SWAP1 SSTORE DUP1 ISZERO PUSH2 0x6EC JUMPI DUP3 PUSH1 0x1 PUSH1 0x1 PUSH1 0xA0 SHL SUB AND DUP5 PUSH1 0x1 PUSH1 0x1 PUSH1 0xA0 SHL SUB AND PUSH32 0x8C5BE1E5EBEC7D5BD14F71427D1E84F3DD0314C0F7B2291E5B200AC8C7C3B925 DUP5 PUSH1 0x40 MLOAD PUSH2 0x1F3A SWAP2 DUP2 MSTORE PUSH1 0x20 ADD SWAP1 JUMP JUMPDEST PUSH1 0x40 MLOAD DUP1 SWAP2 SUB SWAP1 LOG3 POP POP POP POP JUMP JUMPDEST PUSH1 0x1 PUSH1 0x1 PUSH1 0xA0 SHL SUB DUP4 AND PUSH2 0x1F72 JUMPI DUP1 PUSH1 0x2 PUSH0 DUP3 DUP3 SLOAD PUSH2 0x1F67 SWAP2 SWAP1 PUSH2 0x2774 JUMP JUMPDEST SWAP1 SWAP2 SSTORE POP PUSH2 0x1FE2 SWAP1 POP JUMP JUMPDEST PUSH1 0x1 PUSH1 0x1 PUSH1 0xA0 SHL SUB DUP4 AND PUSH0 SWAP1 DUP2 MSTORE PUSH1 0x20 DUP2 SWAP1 MSTORE PUSH1 0x40 SWAP1 KECCAK256 SLOAD DUP2 DUP2 LT ISZERO PUSH2 0x1FC4 JUMPI PUSH1 0x40 MLOAD PUSH4 0x391434E3 PUSH1 0xE2 SHL DUP2 MSTORE PUSH1 0x1 PUSH1 0x1 PUSH1 0xA0 SHL SUB DUP6 AND PUSH1 0x4 DUP3 ADD MSTORE PUSH1 0x24 DUP2 ADD DUP3 SWAP1 MSTORE PUSH1 0x44 DUP2 ADD DUP4 SWAP1 MSTORE PUSH1 0x64 ADD PUSH2 0x7F4 JUMP JUMPDEST PUSH1 0x1 PUSH1 0x1 PUSH1 0xA0 SHL SUB DUP5 AND PUSH0 SWAP1 DUP2 MSTORE PUSH1 0x20 DUP2 SWAP1 MSTORE PUSH1 0x40 SWAP1 KECCAK256 SWAP1 DUP3 SWAP1 SUB SWAP1 SSTORE JUMPDEST PUSH1 0x1 PUSH1 0x1 PUSH1 0xA0 SHL SUB DUP3 AND PUSH2 0x1FFE JUMPI PUSH1 0x2 DUP1 SLOAD DUP3 SWAP1 SUB SWAP1 SSTORE PUSH2 0x201C JUMP JUMPDEST PUSH1 0x1 PUSH1 0x1 PUSH1 0xA0 SHL SUB DUP3 AND PUSH0 SWAP1 DUP2 MSTORE PUSH1 0x20 DUP2 SWAP1 MSTORE PUSH1 0x40 SWAP1 KECCAK256 DUP1 SLOAD DUP3 ADD SWAP1 SSTORE JUMPDEST DUP2 PUSH1 0x1 PUSH1 0x1 PUSH1 0xA0 SHL SUB AND DUP4 PUSH1 0x1 PUSH1 0x1 PUSH1 0xA0 SHL SUB AND PUSH32 0xDDF252AD1BE2C89B69C2B068FC378DAA952BA7F163C4A11628F55A4DF523B3EF DUP4 PUSH1 0x40 MLOAD PUSH2 0xCC2 SWAP2 DUP2 MSTORE PUSH1 0x20 ADD SWAP1 JUMP JUMPDEST PUSH2 0x206B DUP3 DUP3 PUSH2 0x1275 JUMP JUMPDEST PUSH2 0x1C29 JUMPI PUSH1 0x40 MLOAD PUSH4 0xE2517D3F PUSH1 0xE0 SHL DUP2 MSTORE PUSH1 0x1 PUSH1 0x1 PUSH1 0xA0 SHL SUB DUP3 AND PUSH1 0x4 DUP3 ADD MSTORE PUSH1 0x24 DUP2 ADD DUP4 SWAP1 MSTORE PUSH1 0x44 ADD PUSH2 0x7F4 JUMP JUMPDEST PUSH1 0x6 SLOAD PUSH1 0xFF AND PUSH2 0x1E00 JUMPI PUSH1 0x40 MLOAD PUSH4 0x8DFC202B PUSH1 0xE0 SHL DUP2 MSTORE PUSH1 0x4 ADD PUSH1 0x40 MLOAD DUP1 SWAP2 SUB SWAP1 REVERT JUMPDEST PUSH0 PUSH1 0x20 DUP3 DUP5 SUB SLT ISZERO PUSH2 0x20CD JUMPI PUSH0 DUP1 REVERT JUMPDEST DUP2 CALLDATALOAD PUSH1 0x1 PUSH1 0x1 PUSH1 0xE0 SHL SUB NOT DUP2 AND DUP2 EQ PUSH2 0x20E4 JUMPI PUSH0 DUP1 REVERT JUMPDEST SWAP4 SWAP3 POP POP POP JUMP JUMPDEST PUSH0 JUMPDEST DUP4 DUP2 LT ISZERO PUSH2 0x2105 JUMPI DUP2 DUP2 ADD MLOAD DUP4 DUP3 ADD MSTORE PUSH1 0x20 ADD PUSH2 0x20ED JUMP JUMPDEST POP POP PUSH0 SWAP2 ADD MSTORE JUMP JUMPDEST PUSH0 DUP2 MLOAD DUP1 DUP5 MSTORE PUSH2 0x2124 DUP2 PUSH1 0x20 DUP7 ADD PUSH1 0x20 DUP7 ADD PUSH2 0x20EB JUMP JUMPDEST PUSH1 0x1F ADD PUSH1 0x1F NOT AND SWAP3 SWAP1 SWAP3 ADD PUSH1 0x20 ADD SWAP3 SWAP2 POP POP JUMP JUMPDEST PUSH1 0x20 DUP2 MSTORE PUSH0 PUSH2 0x20E4 PUSH1 0x20 DUP4 ADD DUP5 PUSH2 0x210D JUMP JUMPDEST DUP1 CALLDATALOAD PUSH1 0x1 PUSH1 0x1 PUSH1 0xA0 SHL SUB DUP2 AND DUP2 EQ PUSH2 0x2160 JUMPI PUSH0 DUP1 REVERT JUMPDEST SWAP2 SWAP1 POP JUMP JUMPDEST PUSH0 DUP1 PUSH1 0x40 DUP4 DUP6 SUB SLT ISZERO PUSH2 0x2176 JUMPI PUSH0 DUP1 REVERT JUMPDEST PUSH2 0x217F DUP4 PUSH2 0x214A JUMP JUMPDEST SWAP5 PUSH1 0x20 SWAP4 SWAP1 SWAP4 ADD CALLDATALOAD SWAP4 POP POP POP JUMP JUMPDEST PUSH0 DUP1 PUSH0 PUSH1 0x60 DUP5 DUP7 SUB SLT ISZERO PUSH2 0x219F JUMPI PUSH0 DUP1 REVERT JUMPDEST PUSH2 0x21A8 DUP5 PUSH2 0x214A JUMP JUMPDEST SWAP3 POP PUSH2 0x21B6 PUSH1 0x20 DUP6 ADD PUSH2 0x214A JUMP JUMPDEST SWAP2 POP PUSH1 0x40 DUP5 ADD CALLDATALOAD SWAP1 POP SWAP3 POP SWAP3 POP SWAP3 JUMP JUMPDEST PUSH0 PUSH1 0x20 DUP3 DUP5 SUB SLT ISZERO PUSH2 0x21D6 JUMPI PUSH0 DUP1 REVERT JUMPDEST POP CALLDATALOAD SWAP2 SWAP1 POP JUMP JUMPDEST PUSH0 DUP1 PUSH1 0x40 DUP4 DUP6 SUB SLT ISZERO PUSH2 0x21EE JUMPI PUSH0 DUP1 REVERT JUMPDEST DUP3 CALLDATALOAD SWAP2 POP PUSH2 0x21FE PUSH1 0x20 DUP5 ADD PUSH2 0x214A JUMP JUMPDEST SWAP1 POP SWAP3 POP SWAP3 SWAP1 POP JUMP JUMPDEST PUSH0 PUSH2 0x160 DUP14 DUP4 MSTORE DUP1 PUSH1 0x20 DUP5 ADD MSTORE PUSH2 0x2220 DUP2 DUP5 ADD DUP15 PUSH2 0x210D JUMP JUMPDEST PUSH1 0x1 PUSH1 0x1 PUSH1 0xA0 SHL SUB DUP14 DUP2 AND PUSH1 0x40 DUP7 ADD MSTORE DUP13 AND PUSH1 0x60 DUP6 ADD MSTORE PUSH1 0x80 DUP5 ADD DUP12 SWAP1 MSTORE DUP4 DUP2 SUB PUSH1 0xA0 DUP6 ADD MSTORE SWAP1 POP PUSH2 0x2252 DUP2 DUP11 PUSH2 0x210D JUMP JUMPDEST SWAP1 POP DUP3 DUP2 SUB PUSH1 0xC0 DUP5 ADD MSTORE PUSH2 0x2266 DUP2 DUP10 PUSH2 0x210D JUMP JUMPDEST SWAP7 ISZERO ISZERO PUSH1 0xE0 DUP5 ADD MSTORE POP POP SWAP3 ISZERO ISZERO PUSH2 0x100 DUP5 ADD MSTORE PUSH2 0x120 DUP4 ADD SWAP2 SWAP1 SWAP2 MSTORE PUSH2 0x140 SWAP1 SWAP2 ADD MSTORE SWAP8 SWAP7 POP POP POP POP POP POP POP JUMP JUMPDEST PUSH0 PUSH1 0x20 DUP3 DUP5 SUB SLT ISZERO PUSH2 0x22A4 JUMPI PUSH0 DUP1 REVERT JUMPDEST PUSH2 0x20E4 DUP3 PUSH2 0x214A JUMP JUMPDEST PUSH1 0x20 DUP1 DUP3 MSTORE DUP3 MLOAD DUP3 DUP3 ADD DUP2 SWAP1 MSTORE PUSH0 SWAP2 SWAP1 DUP5 DUP3 ADD SWAP1 PUSH1 0x40 DUP6 ADD SWAP1 DUP5 JUMPDEST DUP2 DUP2 LT ISZERO PUSH2 0x22E4 JUMPI DUP4 MLOAD DUP4 MSTORE SWAP3 DUP5 ADD SWAP3 SWAP2 DUP5 ADD SWAP2 PUSH1 0x1 ADD PUSH2 0x22C8 JUMP JUMPDEST POP SWAP1 SWAP7 SWAP6 POP POP POP POP POP POP JUMP JUMPDEST PUSH1 0x20 DUP2 MSTORE PUSH0 PUSH1 0x1 DUP1 PUSH1 0xA0 SHL SUB DUP1 DUP5 MLOAD AND PUSH1 0x20 DUP5 ADD MSTORE PUSH1 0x20 DUP5 ADD MLOAD PUSH1 0x40 DUP5 ADD MSTORE PUSH1 0x40 DUP5 ADD MLOAD PUSH1 0x60 DUP5 ADD MSTORE PUSH1 0x60 DUP5 ADD MLOAD PUSH1 0x80 DUP5 ADD MSTORE PUSH1 0x80 DUP5 ADD MLOAD PUSH1 0xE0 PUSH1 0xA0 DUP6 ADD MSTORE PUSH2 0x233D PUSH2 0x100 DUP6 ADD DUP3 PUSH2 0x210D JUMP JUMPDEST SWAP1 POP DUP2 PUSH1 0xA0 DUP7 ADD MLOAD AND PUSH1 0xC0 DUP6 ADD MSTORE PUSH1 0xC0 DUP6 ADD MLOAD PUSH1 0xE0 DUP6 ADD MSTORE DUP1 SWAP3 POP POP POP SWAP3 SWAP2 POP POP JUMP JUMPDEST PUSH4 0x4E487B71 PUSH1 0xE0 SHL PUSH0 MSTORE PUSH1 0x41 PUSH1 0x4 MSTORE PUSH1 0x24 PUSH0 REVERT JUMPDEST PUSH0 DUP3 PUSH1 0x1F DUP4 ADD SLT PUSH2 0x2383 JUMPI PUSH0 DUP1 REVERT JUMPDEST DUP2 CALLDATALOAD PUSH8 0xFFFFFFFFFFFFFFFF DUP1 DUP3 GT ISZERO PUSH2 0x239E JUMPI PUSH2 0x239E PUSH2 0x2360 JUMP JUMPDEST PUSH1 0x40 MLOAD PUSH1 0x1F DUP4 ADD PUSH1 0x1F NOT SWAP1 DUP2 AND PUSH1 0x3F ADD AND DUP2 ADD SWAP1 DUP3 DUP3 GT DUP2 DUP4 LT OR ISZERO PUSH2 0x23C6 JUMPI PUSH2 0x23C6 PUSH2 0x2360 JUMP JUMPDEST DUP2 PUSH1 0x40 MSTORE DUP4 DUP2 MSTORE DUP7 PUSH1 0x20 DUP6 DUP9 ADD ADD GT ISZERO PUSH2 0x23DE JUMPI PUSH0 DUP1 REVERT JUMPDEST DUP4 PUSH1 0x20 DUP8 ADD PUSH1 0x20 DUP4 ADD CALLDATACOPY PUSH0 PUSH1 0x20 DUP6 DUP4 ADD ADD MSTORE DUP1 SWAP5 POP POP POP POP POP SWAP3 SWAP2 POP POP JUMP JUMPDEST PUSH0 DUP1 PUSH0 DUP1 PUSH0 PUSH1 0xA0 DUP7 DUP9 SUB SLT ISZERO PUSH2 0x2411 JUMPI PUSH0 DUP1 REVERT JUMPDEST DUP6 CALLDATALOAD PUSH8 0xFFFFFFFFFFFFFFFF DUP1 DUP3 GT ISZERO PUSH2 0x2428 JUMPI PUSH0 DUP1 REVERT JUMPDEST PUSH2 0x2434 DUP10 DUP4 DUP11 ADD PUSH2 0x2374 JUMP JUMPDEST SWAP7 POP PUSH2 0x2442 PUSH1 0x20 DUP10 ADD PUSH2 0x214A JUMP JUMPDEST SWAP6 POP PUSH1 0x40 DUP9 ADD CALLDATALOAD SWAP2 POP DUP1 DUP3 GT ISZERO PUSH2 0x2457 JUMPI PUSH0 DUP1 REVERT JUMPDEST PUSH2 0x2463 DUP10 DUP4 DUP11 ADD PUSH2 0x2374 JUMP JUMPDEST SWAP5 POP PUSH1 0x60 DUP9 ADD CALLDATALOAD SWAP2 POP DUP1 DUP3 GT ISZERO PUSH2 0x2478 JUMPI PUSH0 DUP1 REVERT JUMPDEST POP PUSH2 0x2485 DUP9 DUP3 DUP10 ADD PUSH2 0x2374 JUMP JUMPDEST SWAP6 SWAP9 SWAP5 SWAP8 POP SWAP3 SWAP6 PUSH1 0x80 ADD CALLDATALOAD SWAP4 SWAP3 POP POP POP JUMP JUMPDEST PUSH0 PUSH1 0x20 DUP3 DUP5 SUB SLT ISZERO PUSH2 0x24A7 JUMPI PUSH0 DUP1 REVERT JUMPDEST DUP2 CALLDATALOAD PUSH8 0xFFFFFFFFFFFFFFFF DUP2 GT ISZERO PUSH2 0x24BD JUMPI PUSH0 DUP1 REVERT JUMPDEST PUSH2 0x24C9 DUP5 DUP3 DUP6 ADD PUSH2 0x2374 JUMP JUMPDEST SWAP5 SWAP4 POP POP POP POP JUMP JUMPDEST PUSH0 DUP1 PUSH1 0x40 DUP4 DUP6 SUB SLT ISZERO PUSH2 0x24E2 JUMPI PUSH0 DUP1 REVERT JUMPDEST PUSH2 0x24EB DUP4 PUSH2 0x214A JUMP JUMPDEST SWAP2 POP PUSH2 0x21FE PUSH1 0x20 DUP5 ADD PUSH2 0x214A JUMP JUMPDEST PUSH0 PUSH1 0x1 DUP1 PUSH1 0xA0 SHL SUB DUP1 DUP11 AND DUP4 MSTORE DUP9 PUSH1 0x20 DUP5 ADD MSTORE DUP8 PUSH1 0x40 DUP5 ADD MSTORE DUP7 PUSH1 0x60 DUP5 ADD MSTORE PUSH1 0xE0 PUSH1 0x80 DUP5 ADD MSTORE PUSH2 0x252C PUSH1 0xE0 DUP5 ADD DUP8 PUSH2 0x210D JUMP JUMPDEST SWAP5 AND PUSH1 0xA0 DUP4 ADD MSTORE POP PUSH1 0xC0 ADD MSTORE SWAP6 SWAP5 POP POP POP POP POP JUMP JUMPDEST PUSH1 0x1 DUP2 DUP2 SHR SWAP1 DUP3 AND DUP1 PUSH2 0x2555 JUMPI PUSH1 0x7F DUP3 AND SWAP2 POP JUMPDEST PUSH1 0x20 DUP3 LT DUP2 SUB PUSH2 0x2573 JUMPI PUSH4 0x4E487B71 PUSH1 0xE0 SHL PUSH0 MSTORE PUSH1 0x22 PUSH1 0x4 MSTORE PUSH1 0x24 PUSH0 REVERT JUMPDEST POP SWAP2 SWAP1 POP JUMP JUMPDEST PUSH4 0x4E487B71 PUSH1 0xE0 SHL PUSH0 MSTORE PUSH1 0x11 PUSH1 0x4 MSTORE PUSH1 0x24 PUSH0 REVERT JUMPDEST DUP2 DUP2 SUB DUP2 DUP2 GT ISZERO PUSH2 0x5F8 JUMPI PUSH2 0x5F8 PUSH2 0x2579 JUMP JUMPDEST PUSH1 0x20 DUP1 DUP3 MSTORE PUSH1 0xF SWAP1 DUP3 ADD MSTORE PUSH15 0x125B9D985B1A59081D195CDD081251 PUSH1 0x8A SHL PUSH1 0x40 DUP3 ADD MSTORE PUSH1 0x60 ADD SWAP1 JUMP JUMPDEST PUSH0 PUSH1 0x1 DUP3 ADD PUSH2 0x25DA JUMPI PUSH2 0x25DA PUSH2 0x2579 JUMP JUMPDEST POP PUSH1 0x1 ADD SWAP1 JUMP JUMPDEST PUSH4 0x4E487B71 PUSH1 0xE0 SHL PUSH0 MSTORE PUSH1 0x32 PUSH1 0x4 MSTORE PUSH1 0x24 PUSH0 REVERT JUMPDEST PUSH1 0x1F DUP3 GT ISZERO PUSH2 0x725 JUMPI PUSH0 DUP2 DUP2 MSTORE PUSH1 0x20 DUP2 KECCAK256 PUSH1 0x1F DUP6 ADD PUSH1 0x5 SHR DUP2 ADD PUSH1 0x20 DUP7 LT ISZERO PUSH2 0x261B JUMPI POP DUP1 JUMPDEST PUSH1 0x1F DUP6 ADD PUSH1 0x5 SHR DUP3 ADD SWAP2 POP JUMPDEST DUP2 DUP2 LT ISZERO PUSH2 0x263A JUMPI DUP3 DUP2 SSTORE PUSH1 0x1 ADD PUSH2 0x2627 JUMP JUMPDEST POP POP POP POP POP POP JUMP JUMPDEST DUP2 MLOAD PUSH8 0xFFFFFFFFFFFFFFFF DUP2 GT ISZERO PUSH2 0x265C JUMPI PUSH2 0x265C PUSH2 0x2360 JUMP JUMPDEST PUSH2 0x2670 DUP2 PUSH2 0x266A DUP5 SLOAD PUSH2 0x2541 JUMP JUMPDEST DUP5 PUSH2 0x25F5 JUMP JUMPDEST PUSH1 0x20 DUP1 PUSH1 0x1F DUP4 GT PUSH1 0x1 DUP2 EQ PUSH2 0x26A3 JUMPI PUSH0 DUP5 ISZERO PUSH2 0x268C JUMPI POP DUP6 DUP4 ADD MLOAD JUMPDEST PUSH0 NOT PUSH1 0x3 DUP7 SWAP1 SHL SHR NOT AND PUSH1 0x1 DUP6 SWAP1 SHL OR DUP6 SSTORE PUSH2 0x263A JUMP JUMPDEST PUSH0 DUP6 DUP2 MSTORE PUSH1 0x20 DUP2 KECCAK256 PUSH1 0x1F NOT DUP7 AND SWAP2 JUMPDEST DUP3 DUP2 LT ISZERO PUSH2 0x26D1 JUMPI DUP9 DUP7 ADD MLOAD DUP3 SSTORE SWAP5 DUP5 ADD SWAP5 PUSH1 0x1 SWAP1 SWAP2 ADD SWAP1 DUP5 ADD PUSH2 0x26B2 JUMP JUMPDEST POP DUP6 DUP3 LT ISZERO PUSH2 0x26EE JUMPI DUP8 DUP6 ADD MLOAD PUSH0 NOT PUSH1 0x3 DUP9 SWAP1 SHL PUSH1 0xF8 AND SHR NOT AND DUP2 SSTORE JUMPDEST POP POP POP POP POP PUSH1 0x1 SWAP1 DUP2 SHL ADD SWAP1 SSTORE POP JUMP JUMPDEST PUSH0 DUP3 MLOAD PUSH2 0x270F DUP2 DUP5 PUSH1 0x20 DUP8 ADD PUSH2 0x20EB JUMP JUMPDEST SWAP2 SWAP1 SWAP2 ADD SWAP3 SWAP2 POP POP JUMP JUMPDEST PUSH1 0x60 DUP2 MSTORE PUSH0 PUSH2 0x272B PUSH1 0x60 DUP4 ADD DUP7 PUSH2 0x210D JUMP JUMPDEST DUP5 PUSH1 0x20 DUP5 ADD MSTORE DUP3 DUP2 SUB PUSH1 0x40 DUP5 ADD MSTORE PUSH2 0x2743 DUP2 DUP6 PUSH2 0x210D JUMP JUMPDEST SWAP7 SWAP6 POP POP POP POP POP POP JUMP JUMPDEST DUP4 DUP2 MSTORE DUP3 PUSH1 0x20 DUP3 ADD MSTORE PUSH1 0x60 PUSH1 0x40 DUP3 ADD MSTORE PUSH0 PUSH2 0x276B PUSH1 0x60 DUP4 ADD DUP5 PUSH2 0x210D JUMP JUMPDEST SWAP6 SWAP5 POP POP POP POP POP JUMP JUMPDEST DUP1 DUP3 ADD DUP1 DUP3 GT ISZERO PUSH2 0x5F8 JUMPI PUSH2 0x5F8 PUSH2 0x2579 JUMP INVALID 0x4B CALLVALUE PUSH14 0x9AC223184C8768FAE9F0F9CC7825 0xDD 0x24 CREATE2 0xBA PUSH29 0x8C677C34451BA15ECA64A2646970667358221220C2D6AC0B3E6F5015E7 COINBASE INVALID EXTCODECOPY 0x2E 0x5E MSIZE 0xDF DUP10 DIV CALLCODE RETURNDATACOPY 0xCD SWAP16 DUP12 INVALID AND 0x25 0xE3 0xBA 0xC6 SDIV SWAP10 0xD2 PUSH5 0x736F6C6343 STOP ADDMOD EQ STOP CALLER "},"methodIdentifiers":{"AUDITOR_ROLE()":"6e1d616e","CLINICAL_ADMIN_ROLE()":"8f37a90f","CLINICIAN_ROLE()":"a5817e13","DEFAULT_ADMIN_ROLE()":"a217fddf","VALIDATOR_ROLE()":"c49baebe","allowance(address,address)":"dd62ed3e","approve(address,uint256)":"095ea7b3","approveClinicalTest(uint256)":"65143195","auditTrail(uint256)":"ddaf0929","balanceOf(address)":"70a08231","clinicalTests(uint256)":"6f17c8b4","clinicianTests(address,uint256)":"4a3b17b1","completeClinicalTest(uint256)":"4e6f13d3","createClinicalTest(string,address,string,string,uint256)":"9a2e6b84","decimals()":"313ce567","getAuditRecord(uint256)":"783b8bd0","getAuditTrailLength()":"49270315","getClinicalTest(uint256)":"4417da29","getClinicianTests(address)":"b213cb9d","getPatientTests(address)":"5b2801a4","getRoleAdmin(bytes32)":"248a9ca3","grantRole(bytes32,address)":"2f2ff15d","hasRole(bytes32,address)":"91d14854","mint(address,uint256)":"40c10f19","name()":"06fdde03","patientTests(address,uint256)":"4a84e104","pause()":"8456cb59","paused()":"5c975abb","renounceRole(bytes32,address)":"36568abe","revokeRole(bytes32,address)":"d547741f","supportsInterface(bytes4)":"01ffc9a7","symbol()":"95d89b41","testTypeCount(string)":"b9f83801","totalClinicalTests()":"4f7f6831","totalSupply()":"18160ddd","transfer(address,uint256)":"a9059cbb","transferFrom(address,address,uint256)":"23b872dd","unpause()":"3f4ba83a","validateClinicalTest(uint256)":"cbf37100","validatedTests()":"b3649a7e"}}}}}