{
  "_format": "hh3-artifact-1",
  "contractName": "CTBALAnalytics",
  "sourceName": "contracts/CTBALAnalytics.sol",
  "abi": [
    {
      "inputs": [
        {
          "internalType": "address",
          "name": "_ctbalToken",
          "type": "address"
        }
      ],
      "stateMutability": "nonpayable",
      "type": "constructor"
    },
    {
      "inputs": [],
      "name": "AccessControlBadConfirmation",
      "type": "error"
    },
    {
      "inputs": [
        {
          "internalType": "address",
          "name": "account",
          "type": "address"
        },
        {
          "internalType": "bytes32",
          "name": "neededRole",
          "type": "bytes32"
        }
      ],
      "name": "AccessControlUnauthorizedAccount",
      "type": "error"
    },
    {
      "inputs": [],
      "name": "ReentrancyGuardReentrantCall",
      "type": "error"
    },
    {
      "anonymous": false,
      "inputs": [
        {
          "indexed": false,
          "internalType": "uint256",
          "name": "timestamp",
          "type": "uint256"
        },
        {
          "indexed": false,
          "internalType": "address",
          "name": "updater",
          "type": "address"
        }
      ],
      "name": "MetricsUpdated",
      "type": "event"
    },
    {
      "anonymous": false,
      "inputs": [
        {
          "indexed": true,
          "internalType": "bytes32",
          "name": "role",
          "type": "bytes32"
        },
        {
          "indexed": true,
          "internalType": "bytes32",
          "name": "previousAdminRole",
          "type": "bytes32"
        },
        {
          "indexed": true,
          "internalType": "bytes32",
          "name": "newAdminRole",
          "type": "bytes32"
        }
      ],
      "name": "RoleAdminChanged",
      "type": "event"
    },
    {
      "anonymous": false,
      "inputs": [
        {
          "indexed": true,
          "internalType": "bytes32",
          "name": "role",
          "type": "bytes32"
        },
        {
          "indexed": true,
          "internalType": "address",
          "name": "account",
          "type": "address"
        },
        {
          "indexed": true,
          "internalType": "address",
          "name": "sender",
          "type": "address"
        }
      ],
      "name": "RoleGranted",
      "type": "event"
    },
    {
      "anonymous": false,
      "inputs": [
        {
          "indexed": true,
          "internalType": "bytes32",
          "name": "role",
          "type": "bytes32"
        },
        {
          "indexed": true,
          "internalType": "address",
          "name": "account",
          "type": "address"
        },
        {
          "indexed": true,
          "internalType": "address",
          "name": "sender",
          "type": "address"
        }
      ],
      "name": "RoleRevoked",
      "type": "event"
    },
    {
      "anonymous": false,
      "inputs": [
        {
          "indexed": false,
          "internalType": "uint256",
          "name": "timestamp",
          "type": "uint256"
        },
        {
          "indexed": false,
          "internalType": "uint256",
          "name": "testsCreated",
          "type": "uint256"
        },
        {
          "indexed": false,
          "internalType": "uint256",
          "name": "testsValidated",
          "type": "uint256"
        }
      ],
      "name": "TimeSeriesRecorded",
      "type": "event"
    },
    {
      "inputs": [],
      "name": "ANALYST_ROLE",
      "outputs": [
        {
          "internalType": "bytes32",
          "name": "",
          "type": "bytes32"
        }
      ],
      "stateMutability": "view",
      "type": "function"
    },
    {
      "inputs": [],
      "name": "DEFAULT_ADMIN_ROLE",
      "outputs": [
        {
          "internalType": "bytes32",
          "name": "",
          "type": "bytes32"
        }
      ],
      "stateMutability": "view",
      "type": "function"
    },
    {
      "inputs": [],
      "name": "ctbalToken",
      "outputs": [
        {
          "internalType": "contract CTBALToken",
          "name": "",
          "type": "address"
        }
      ],
      "stateMutability": "view",
      "type": "function"
    },
    {
      "inputs": [],
      "name": "getAllTestTypes",
      "outputs": [
        {
          "internalType": "string[]",
          "name": "",
          "type": "string[]"
        }
      ],
      "stateMutability": "view",
      "type": "function"
    },
    {
      "inputs": [
        {
          "internalType": "address",
          "name": "clinician",
          "type": "address"
        }
      ],
      "name": "getClinicianPerformance",
      "outputs": [
        {
          "internalType": "uint256",
          "name": "",
          "type": "uint256"
        }
      ],
      "stateMutability": "view",
      "type": "function"
    },
    {
      "inputs": [],
      "name": "getCompletionRate",
      "outputs": [
        {
          "internalType": "uint256",
          "name": "",
          "type": "uint256"
        }
      ],
      "stateMutability": "view",
      "type": "function"
    },
    {
      "inputs": [],
      "name": "getOverallMetrics",
      "outputs": [
        {
          "internalType": "uint256",
          "name": "totalTests",
          "type": "uint256"
        },
        {
          "internalType": "uint256",
          "name": "validatedTests",
          "type": "uint256"
        },
        {
          "internalType": "uint256",
          "name": "completedTests",
          "type": "uint256"
        },
        {
          "internalType": "uint256",
          "name": "totalTokensAllocated",
          "type": "uint256"
        },
        {
          "internalType": "uint256",
          "name": "totalTokensReleased",
          "type": "uint256"
        }
      ],
      "stateMutability": "view",
      "type": "function"
    },
    {
      "inputs": [
        {
          "internalType": "address",
          "name": "patient",
          "type": "address"
        }
      ],
      "name": "getPatientParticipation",
      "outputs": [
        {
          "internalType": "uint256",
          "name": "",
          "type": "uint256"
        }
      ],
      "stateMutability": "view",
      "type": "function"
    },
    {
      "inputs": [
        {
          "internalType": "bytes32",
          "name": "role",
          "type": "bytes32"
        }
      ],
      "name": "getRoleAdmin",
      "outputs": [
        {
          "internalType": "bytes32",
          "name": "",
          "type": "bytes32"
        }
      ],
      "stateMutability": "view",
      "type": "function"
    },
    {
      "inputs": [
        {
          "internalType": "string",
          "name": "testType",
          "type": "string"
        }
      ],
      "name": "getTestTypeMetrics",
      "outputs": [
        {
          "internalType": "uint256",
          "name": "",
          "type": "uint256"
        }
      ],
      "stateMutability": "view",
      "type": "function"
    },
    {
      "inputs": [
        {
          "internalType": "uint256",
          "name": "index",
          "type": "uint256"
        }
      ],
      "name": "getTimeSeriesData",
      "outputs": [
        {
          "components": [
            {
              "internalType": "uint256",
              "name": "timestamp",
              "type": "uint256"
            },
            {
              "internalType": "uint256",
              "name": "testsCreated",
              "type": "uint256"
            },
            {
              "internalType": "uint256",
              "name": "testsValidated",
              "type": "uint256"
            },
            {
              "internalType": "uint256",
              "name": "testsCompleted",
              "type": "uint256"
            },
            {
              "internalType": "uint256",
              "name": "tokensAllocated",
              "type": "uint256"
            }
          ],
          "internalType": "struct CTBALAnalytics.TimeSeriesData",
          "name": "",
          "type": "tuple"
        }
      ],
      "stateMutability": "view",
      "type": "function"
    },
    {
      "inputs": [],
      "name": "getTimeSeriesLength",
      "outputs": [
        {
          "internalType": "uint256",
          "name": "",
          "type": "uint256"
        }
      ],
      "stateMutability": "view",
      "type": "function"
    },
    {
      "inputs": [],
      "name": "getValidationRate",
      "outputs": [
        {
          "internalType": "uint256",
          "name": "",
          "type": "uint256"
        }
      ],
      "stateMutability": "view",
      "type": "function"
    },
    {
      "inputs": [
        {
          "internalType": "bytes32",
          "name": "role",
          "type": "bytes32"
        },
        {
          "internalType": "address",
          "name": "account",
          "type": "address"
        }
      ],
      "name": "grantRole",
      "outputs": [],
      "stateMutability": "nonpayable",
      "type": "function"
    },
    {
      "inputs": [
        {
          "internalType": "bytes32",
          "name": "role",
          "type": "bytes32"
        },
        {
          "internalType": "address",
          "name": "account",
          "type": "address"
        }
      ],
      "name": "hasRole",
      "outputs": [
        {
          "internalType": "bool",
          "name": "",
          "type": "bool"
        }
      ],
      "stateMutability": "view",
      "type": "function"
    },
    {
      "inputs": [],
      "name": "metrics",
      "outputs": [
        {
          "internalType": "uint256",
          "name": "totalTests",
          "type": "uint256"
        },
        {
          "internalType": "uint256",
          "name": "validatedTests",
          "type": "uint256"
        },
        {
          "internalType": "uint256",
          "name": "completedTests",
          "type": "uint256"
        },
        {
          "internalType": "uint256",
          "name": "totalTokensAllocated",
          "type": "uint256"
        },
        {
          "internalType": "uint256",
          "name": "totalTokensReleased",
          "type": "uint256"
        },
        {
          "internalType": "uint256",
          "name": "averageTestDuration",
          "type": "uint256"
        }
      ],
      "stateMutability": "view",
      "type": "function"
    },
    {
      "inputs": [
        {
          "internalType": "bytes32",
          "name": "role",
          "type": "bytes32"
        },
        {
          "internalType": "address",
          "name": "callerConfirmation",
          "type": "address"
        }
      ],
      "name": "renounceRole",
      "outputs": [],
      "stateMutability": "nonpayable",
      "type": "function"
    },
    {
      "inputs": [
        {
          "internalType": "bytes32",
          "name": "role",
          "type": "bytes32"
        },
        {
          "internalType": "address",
          "name": "account",
          "type": "address"
        }
      ],
      "name": "revokeRole",
      "outputs": [],
      "stateMutability": "nonpayable",
      "type": "function"
    },
    {
      "inputs": [
        {
          "internalType": "bytes4",
          "name": "interfaceId",
          "type": "bytes4"
        }
      ],
      "name": "supportsInterface",
      "outputs": [
        {
          "internalType": "bool",
          "name": "",
          "type": "bool"
        }
      ],
      "stateMutability": "view",
      "type": "function"
    },
    {
      "inputs": [
        {
          "internalType": "string",
          "name": "",
          "type": "string"
        }
      ],
      "name": "testTypeExists",
      "outputs": [
        {
          "internalType": "bool",
          "name": "",
          "type": "bool"
        }
      ],
      "stateMutability": "view",
      "type": "function"
    },
    {
      "inputs": [
        {
          "internalType": "uint256",
          "name": "",
          "type": "uint256"
        }
      ],
      "name": "testTypes",
      "outputs": [
        {
          "internalType": "string",
          "name": "",
          "type": "string"
        }
      ],
      "stateMutability": "view",
      "type": "function"
    },
    {
      "inputs": [
        {
          "internalType": "uint256",
          "name": "",
          "type": "uint256"
        }
      ],
      "name": "timeSeriesData",
      "outputs": [
        {
          "internalType": "uint256",
          "name": "timestamp",
          "type": "uint256"
        },
        {
          "internalType": "uint256",
          "name": "testsCreated",
          "type": "uint256"
        },
        {
          "internalType": "uint256",
          "name": "testsValidated",
          "type": "uint256"
        },
        {
          "internalType": "uint256",
          "name": "testsCompleted",
          "type": "uint256"
        },
        {
          "internalType": "uint256",
          "name": "tokensAllocated",
          "type": "uint256"
        }
      ],
      "stateMutability": "view",
      "type": "function"
    },
    {
      "inputs": [],
      "name": "updateMetrics",
      "outputs": [],
      "stateMutability": "nonpayable",
      "type": "function"
    }
  ],
  "bytecode": "0x608060405234801562000010575f80fd5b50604051620015ca380380620015ca83398101604081905262000033916200013f565b60018055600280546001600160a01b0319166001600160a01b0383161790556200005e5f3362000093565b506200008b7f708c6b3a1a43063fcff2ed11fff0d3410f7a7ac561e651ec7a63ecde338f76723362000093565b50506200016e565b5f828152602081815260408083206001600160a01b038516845290915281205460ff1662000136575f838152602081815260408083206001600160a01b03861684529091529020805460ff19166001179055620000ed3390565b6001600160a01b0316826001600160a01b0316847f2f8788117e7eff1d82e926ec794901d17c78024a50270940304540a733656f0d60405160405180910390a450600162000139565b505f5b92915050565b5f6020828403121562000150575f80fd5b81516001600160a01b038116811462000167575f80fd5b9392505050565b61144e806200017c5f395ff3fe608060405234801561000f575f80fd5b5060043610610148575f3560e01c8063682b4860116100bf578063af89580011610079578063af8958001461033f578063bbbb0a8f14610367578063d547741f1461038e578063ddea88ff146103a1578063df527f01146103b4578063e205f3bf14610408575f80fd5b8063682b48601461027a5780638cb079db146102b257806391d14854146102ba578063a04748f6146102cd578063a217fddf14610318578063af07d6f31461031f575f80fd5b80632587cfe8116101105780632587cfe814610202578063283772741461020a5780632f2ff15d1461021257806336568abe146102275780633961498e1461023a5780635501e9c71461024f575f80fd5b806301ffc9a71461014c5780630cdaecc61461017457806319644f561461018a5780631c43f491146101b8578063248a9ca3146101e0575b5f80fd5b61015f61015a366004610e62565b61041b565b60405190151581526020015b60405180910390f35b61017c610451565b60405190815260200161016b565b61015f610198366004610efc565b8051602081830181018051600e8252928201919093012091525460ff1681565b61017c6101c6366004610f8a565b6001600160a01b03165f908152600b602052604090205490565b61017c6101ee366004610fa5565b5f9081526020819052604090206001015490565b600c5461017c565b61017c610481565b610225610220366004610fbc565b6104a2565b005b610225610235366004610fbc565b6104cc565b610242610504565b60405161016b9190611037565b600254610262906001600160a01b031681565b6040516001600160a01b03909116815260200161016b565b6003546004546005546006546007545b604080519586526020860194909452928401919091526060830152608082015260a00161016b565b6102256105d8565b61015f6102c8366004610fbc565b610ac9565b6003546004546005546006546007546008546102eb95949392919086565b604080519687526020870195909552938501929092526060840152608083015260a082015260c00161016b565b61017c5f81565b61033261032d366004610fa5565b610af1565b60405161016b9190611097565b61017c61034d366004610f8a565b6001600160a01b03165f908152600a602052604090205490565b61017c7f708c6b3a1a43063fcff2ed11fff0d3410f7a7ac561e651ec7a63ecde338f767281565b61022561039c366004610fbc565b610b97565b61028a6103af366004610fa5565b610bbb565b6103c76103c2366004610fa5565b610bfa565b60405161016b91905f60a082019050825182526020830151602083015260408301516040830152606083015160608301526080830151608083015292915050565b61017c610416366004610efc565b610ccf565b5f6001600160e01b03198216637965db0b60e01b148061044b57506301ffc9a760e01b6001600160e01b03198316145b92915050565b6003545f90810361046157505f90565b6003546005546104729060646110bd565b61047c91906110d4565b905090565b6003545f90810361049157505f90565b6003546004546104729060646110bd565b5f828152602081905260409020600101546104bc81610cf9565b6104c68383610d03565b50505050565b6001600160a01b03811633146104f55760405163334bd91960e11b815260040160405180910390fd5b6104ff8282610d92565b505050565b6060600d805480602002602001604051908101604052809291908181526020015f905b828210156105cf578382905f5260205f20018054610544906110f3565b80601f0160208091040260200160405190810160405280929190818152602001828054610570906110f3565b80156105bb5780601f10610592576101008083540402835291602001916105bb565b820191905f5260205f20905b81548152906001019060200180831161059e57829003601f168201915b505050505081526020019060010190610527565b50505050905090565b7f708c6b3a1a43063fcff2ed11fff0d3410f7a7ac561e651ec7a63ecde338f767261060281610cf9565b61060a610dfb565b60025460408051634f7f683160e01b815290515f926001600160a01b031691634f7f68319160048083019260209291908290030181865afa158015610651573d5f803e3d5ffd5b505050506040513d601f19601f82011682018060405250810190610675919061112b565b90505f60025f9054906101000a90046001600160a01b03166001600160a01b031663b3649a7e6040518163ffffffff1660e01b8152600401602060405180830381865afa1580156106c8573d5f803e3d5ffd5b505050506040513d601f19601f820116820180604052508101906106ec919061112b565b90505f8080808060015b87811161091057600254604051634417da2960e01b8152600481018390525f918291829182918291829182916001600160a01b031690634417da29906024015f60405180830381865afa15801561074f573d5f803e3d5ffd5b505050506040513d5f823e601f3d908101601f1916820160405261077691908101906111ab565b509950995099505050975097509750975050808c61079491906112a2565b9b5081156107de578c6107a6816112b5565b9d506107b49050818c6112a2565b9a505f6107c185426112cd565b90506107cd818c6112a2565b9a50896107d9816112b5565b9a5050505b600e876040516107ee91906112e0565b9081526040519081900360200190205460ff1661087457600d80546001810182555f919091527fd7b6990105719101dabeb77144f2a3385c8033acd3af97e9423a695e81ad1eb5016108408882611348565b506001600e8860405161085391906112e0565b908152604051908190036020019020805491151560ff199092169190911790555b6040516009906108859089906112e0565b9081526040519081900360200190208054905f6108a1836112b5565b90915550506001600160a01b0386165f908152600a602052604081208054916108c9836112b5565b90915550506001600160a01b0385165f908152600b602052604081208054916108f1836112b5565b9190505550505050505050508080610908906112b5565b9150506106f6565b5060038790556004869055600585905560068490556007839055801561093e5761093a81836110d4565b6008555b6040805160a0810182524280825260208083018b81528385018b8152606085018b8152608086018b8152600c80546001810182555f9190915296517fdf6966c971051c3d54ec59162606531493a51404a002842f56009d7e5cf4a8c760059098029788015592517fdf6966c971051c3d54ec59162606531493a51404a002842f56009d7e5cf4a8c887015590517fdf6966c971051c3d54ec59162606531493a51404a002842f56009d7e5cf4a8c9860155517fdf6966c971051c3d54ec59162606531493a51404a002842f56009d7e5cf4a8ca850155517fdf6966c971051c3d54ec59162606531493a51404a002842f56009d7e5cf4a8cb90930192909255825190815233918101919091527fc5fc980bb7ef8a93ef7973337803a4ef609c9df988d7f7b7967ffe8ada11ee65910160405180910390a160408051428152602081018990529081018790527fa6f0afa613569a5301ec725543afbd95bcc3d90ad5484654a60fe0af154a75bf9060600160405180910390a150505050505050610ac660018055565b50565b5f918252602082815260408084206001600160a01b0393909316845291905290205460ff1690565b600d8181548110610b00575f80fd5b905f5260205f20015f915090508054610b18906110f3565b80601f0160208091040260200160405190810160405280929190818152602001828054610b44906110f3565b8015610b8f5780601f10610b6657610100808354040283529160200191610b8f565b820191905f5260205f20905b815481529060010190602001808311610b7257829003601f168201915b505050505081565b5f82815260208190526040902060010154610bb181610cf9565b6104c68383610d92565b600c8181548110610bca575f80fd5b5f918252602090912060059091020180546001820154600283015460038401546004909401549294509092909185565b610c276040518060a001604052805f81526020015f81526020015f81526020015f81526020015f81525090565b600c548210610c6d5760405162461bcd60e51b815260206004820152600d60248201526c092dcecc2d8d2c840d2dcc8caf609b1b60448201526064015b60405180910390fd5b600c8281548110610c8057610c80611404565b905f5260205f2090600502016040518060a00160405290815f82015481526020016001820154815260200160028201548152602001600382015481526020016004820154815250509050919050565b5f600360060182604051610ce391906112e0565b9081526020016040518091039020549050919050565b610ac68133610e25565b5f610d0e8383610ac9565b610d8b575f838152602081815260408083206001600160a01b03861684529091529020805460ff19166001179055610d433390565b6001600160a01b0316826001600160a01b0316847f2f8788117e7eff1d82e926ec794901d17c78024a50270940304540a733656f0d60405160405180910390a450600161044b565b505f61044b565b5f610d9d8383610ac9565b15610d8b575f838152602081815260408083206001600160a01b0386168085529252808320805460ff1916905551339286917ff6391f5c32d9c69d2a47ea670b442974b53935d1edc7fd64eb21e047a839171b9190a450600161044b565b600260015403610e1e57604051633ee5aeb560e01b815260040160405180910390fd5b6002600155565b610e2f8282610ac9565b610e5e5760405163e2517d3f60e01b81526001600160a01b038216600482015260248101839052604401610c64565b5050565b5f60208284031215610e72575f80fd5b81356001600160e01b031981168114610e89575f80fd5b9392505050565b634e487b7160e01b5f52604160045260245ffd5b604051601f8201601f1916810167ffffffffffffffff81118282101715610ecd57610ecd610e90565b604052919050565b5f67ffffffffffffffff821115610eee57610eee610e90565b50601f01601f191660200190565b5f60208284031215610f0c575f80fd5b813567ffffffffffffffff811115610f22575f80fd5b8201601f81018413610f32575f80fd5b8035610f45610f4082610ed5565b610ea4565b818152856020838501011115610f59575f80fd5b816020840160208301375f91810160200191909152949350505050565b6001600160a01b0381168114610ac6575f80fd5b5f60208284031215610f9a575f80fd5b8135610e8981610f76565b5f60208284031215610fb5575f80fd5b5035919050565b5f8060408385031215610fcd575f80fd5b823591506020830135610fdf81610f76565b809150509250929050565b5f5b83811015611004578181015183820152602001610fec565b50505f910152565b5f8151808452611023816020860160208601610fea565b601f01601f19169290920160200192915050565b5f602080830181845280855180835260408601915060408160051b87010192508387015f5b8281101561108a57603f1988860301845261107885835161100c565b9450928501929085019060010161105c565b5092979650505050505050565b602081525f610e89602083018461100c565b634e487b7160e01b5f52601160045260245ffd5b808202811582820484141761044b5761044b6110a9565b5f826110ee57634e487b7160e01b5f52601260045260245ffd5b500490565b600181811c9082168061110757607f821691505b60208210810361112557634e487b7160e01b5f52602260045260245ffd5b50919050565b5f6020828403121561113b575f80fd5b5051919050565b5f82601f830112611151575f80fd5b815161115f610f4082610ed5565b818152846020838601011115611173575f80fd5b611184826020830160208701610fea565b949350505050565b805161119781610f76565b919050565b80518015158114611197575f80fd5b5f805f805f805f805f805f6101608c8e0312156111c6575f80fd5b8b519a5060208c015167ffffffffffffffff8111156111e3575f80fd5b6111ef8e828f01611142565b9a50506111fe60408d0161118c565b985061120c60608d0161118c565b975060808c0151965060a08c015167ffffffffffffffff81111561122e575f80fd5b61123a8e828f01611142565b96505060c08c015167ffffffffffffffff811115611256575f80fd5b6112628e828f01611142565b95505061127160e08d0161119c565b93506112806101008d0161119c565b92506101208c015191506101408c015190509295989b509295989b9093969950565b8082018082111561044b5761044b6110a9565b5f600182016112c6576112c66110a9565b5060010190565b8181038181111561044b5761044b6110a9565b5f82516112f1818460208701610fea565b9190910192915050565b601f8211156104ff575f81815260208120601f850160051c810160208610156113215750805b601f850160051c820191505b818110156113405782815560010161132d565b505050505050565b815167ffffffffffffffff81111561136257611362610e90565b6113768161137084546110f3565b846112fb565b602080601f8311600181146113a9575f84156113925750858301515b5f19600386901b1c1916600185901b178555611340565b5f85815260208120601f198616915b828110156113d7578886015182559484019460019091019084016113b8565b50858210156113f457878501515f19600388901b60f8161c191681555b5050505050600190811b01905550565b634e487b7160e01b5f52603260045260245ffdfea264697066735822122000c3afa200e429220e26022ecf40e94a966b7f55a5997117112efe4e61192d8564736f6c63430008140033",
  "linkReferences": {},
  "deployedLinkReferences": {},
  "immutableReferences": {},
  "inputSourceName": "project/contracts/CTBALAnalytics.sol",
  "buildInfoId": "solc-0_8_20-e04bf9eaf32f8a1f8e8ae37a34a1911278b06389"
}