{
  "_format": "hh3-artifact-1",
  "contractName": "CTBALToken",
  "sourceName": "contracts/CTBALToken.sol",
  "abi": [
    {
      "inputs": [
        {
          "internalType": "string",
          "name": "name",
          "type": "string"
        },
        {
          "internalType": "string",
          "name": "symbol",
          "type": "string"
        },
        {
          "internalType": "uint256",
          "name": "initialSupply",
          "type": "uint256"
        }
      ],
      "stateMutability": "nonpayable",
      "type": "constructor"
    },
    {
      "inputs": [],
      "name": "AccessControlBadConfirmation",
      "type": "error"
    },
    {
      "inputs": [
        {
          "internalType": "address",
          "name": "account",
          "type": "address"
        },
        {
          "internalType": "bytes32",
          "name": "neededRole",
          "type": "bytes32"
        }
      ],
      "name": "AccessControlUnauthorizedAccount",
      "type": "error"
    },
    {
      "inputs": [
        {
          "internalType": "address",
          "name": "spender",
          "type": "address"
        },
        {
          "internalType": "uint256",
          "name": "allowance",
          "type": "uint256"
        },
        {
          "internalType": "uint256",
          "name": "needed",
          "type": "uint256"
        }
      ],
      "name": "ERC20InsufficientAllowance",
      "type": "error"
    },
    {
      "inputs": [
        {
          "internalType": "address",
          "name": "sender",
          "type": "address"
        },
        {
          "internalType": "uint256",
          "name": "balance",
          "type": "uint256"
        },
        {
          "internalType": "uint256",
          "name": "needed",
          "type": "uint256"
        }
      ],
      "name": "ERC20InsufficientBalance",
      "type": "error"
    },
    {
      "inputs": [
        {
          "internalType": "address",
          "name": "approver",
          "type": "address"
        }
      ],
      "name": "ERC20InvalidApprover",
      "type": "error"
    },
    {
      "inputs": [
        {
          "internalType": "address",
          "name": "receiver",
          "type": "address"
        }
      ],
      "name": "ERC20InvalidReceiver",
      "type": "error"
    },
    {
      "inputs": [
        {
          "internalType": "address",
          "name": "sender",
          "type": "address"
        }
      ],
      "name": "ERC20InvalidSender",
      "type": "error"
    },
    {
      "inputs": [
        {
          "internalType": "address",
          "name": "spender",
          "type": "address"
        }
      ],
      "name": "ERC20InvalidSpender",
      "type": "error"
    },
    {
      "inputs": [],
      "name": "EnforcedPause",
      "type": "error"
    },
    {
      "inputs": [],
      "name": "ExpectedPause",
      "type": "error"
    },
    {
      "inputs": [],
      "name": "ReentrancyGuardReentrantCall",
      "type": "error"
    },
    {
      "anonymous": false,
      "inputs": [
        {
          "indexed": true,
          "internalType": "address",
          "name": "owner",
          "type": "address"
        },
        {
          "indexed": true,
          "internalType": "address",
          "name": "spender",
          "type": "address"
        },
        {
          "indexed": false,
          "internalType": "uint256",
          "name": "value",
          "type": "uint256"
        }
      ],
      "name": "Approval",
      "type": "event"
    },
    {
      "anonymous": false,
      "inputs": [
        {
          "indexed": true,
          "internalType": "address",
          "name": "account",
          "type": "address"
        },
        {
          "indexed": false,
          "internalType": "uint256",
          "name": "previousBalance",
          "type": "uint256"
        },
        {
          "indexed": false,
          "internalType": "uint256",
          "name": "newBalance",
          "type": "uint256"
        },
        {
          "indexed": false,
          "internalType": "string",
          "name": "operation",
          "type": "string"
        },
        {
          "indexed": true,
          "internalType": "address",
          "name": "authorizer",
          "type": "address"
        }
      ],
      "name": "AuditRecorded",
      "type": "event"
    },
    {
      "anonymous": false,
      "inputs": [
        {
          "indexed": true,
          "internalType": "uint256",
          "name": "testId",
          "type": "uint256"
        },
        {
          "indexed": true,
          "internalType": "address",
          "name": "clinician",
          "type": "address"
        },
        {
          "indexed": false,
          "internalType": "uint256",
          "name": "timestamp",
          "type": "uint256"
        }
      ],
      "name": "ClinicalTestCompleted",
      "type": "event"
    },
    {
      "anonymous": false,
      "inputs": [
        {
          "indexed": true,
          "internalType": "uint256",
          "name": "testId",
          "type": "uint256"
        },
        {
          "indexed": true,
          "internalType": "address",
          "name": "clinician",
          "type": "address"
        },
        {
          "indexed": true,
          "internalType": "address",
          "name": "patient",
          "type": "address"
        },
        {
          "indexed": false,
          "internalType": "string",
          "name": "testType",
          "type": "string"
        },
        {
          "indexed": false,
          "internalType": "uint256",
          "name": "associatedTokens",
          "type": "uint256"
        },
        {
          "indexed": false,
          "internalType": "string",
          "name": "dataHash",
          "type": "string"
        }
      ],
      "name": "ClinicalTestCreated",
      "type": "event"
    },
    {
      "anonymous": false,
      "inputs": [
        {
          "indexed": true,
          "internalType": "uint256",
          "name": "testId",
          "type": "uint256"
        },
        {
          "indexed": true,
          "internalType": "address",
          "name": "validator",
          "type": "address"
        },
        {
          "indexed": false,
          "internalType": "uint256",
          "name": "timestamp",
          "type": "uint256"
        }
      ],
      "name": "ClinicalTestValidated",
      "type": "event"
    },
    {
      "anonymous": false,
      "inputs": [
        {
          "indexed": false,
          "internalType": "address",
          "name": "account",
          "type": "address"
        }
      ],
      "name": "Paused",
      "type": "event"
    },
    {
      "anonymous": false,
      "inputs": [
        {
          "indexed": true,
          "internalType": "bytes32",
          "name": "role",
          "type": "bytes32"
        },
        {
          "indexed": true,
          "internalType": "bytes32",
          "name": "previousAdminRole",
          "type": "bytes32"
        },
        {
          "indexed": true,
          "internalType": "bytes32",
          "name": "newAdminRole",
          "type": "bytes32"
        }
      ],
      "name": "RoleAdminChanged",
      "type": "event"
    },
    {
      "anonymous": false,
      "inputs": [
        {
          "indexed": true,
          "internalType": "bytes32",
          "name": "role",
          "type": "bytes32"
        },
        {
          "indexed": true,
          "internalType": "address",
          "name": "account",
          "type": "address"
        },
        {
          "indexed": true,
          "internalType": "address",
          "name": "sender",
          "type": "address"
        }
      ],
      "name": "RoleGranted",
      "type": "event"
    },
    {
      "anonymous": false,
      "inputs": [
        {
          "indexed": true,
          "internalType": "bytes32",
          "name": "role",
          "type": "bytes32"
        },
        {
          "indexed": true,
          "internalType": "address",
          "name": "account",
          "type": "address"
        },
        {
          "indexed": true,
          "internalType": "address",
          "name": "sender",
          "type": "address"
        }
      ],
      "name": "RoleRevoked",
      "type": "event"
    },
    {
      "anonymous": false,
      "inputs": [
        {
          "indexed": true,
          "internalType": "uint256",
          "name": "testId",
          "type": "uint256"
        },
        {
          "indexed": true,
          "internalType": "address",
          "name": "approver",
          "type": "address"
        },
        {
          "indexed": false,
          "internalType": "uint256",
          "name": "approvalCount",
          "type": "uint256"
        }
      ],
      "name": "TestApprovalReceived",
      "type": "event"
    },
    {
      "anonymous": false,
      "inputs": [
        {
          "indexed": true,
          "internalType": "address",
          "name": "from",
          "type": "address"
        },
        {
          "indexed": true,
          "internalType": "address",
          "name": "to",
          "type": "address"
        },
        {
          "indexed": false,
          "internalType": "uint256",
          "name": "value",
          "type": "uint256"
        }
      ],
      "name": "Transfer",
      "type": "event"
    },
    {
      "anonymous": false,
      "inputs": [
        {
          "indexed": false,
          "internalType": "address",
          "name": "account",
          "type": "address"
        }
      ],
      "name": "Unpaused",
      "type": "event"
    },
    {
      "inputs": [],
      "name": "AUDITOR_ROLE",
      "outputs": [
        {
          "internalType": "bytes32",
          "name": "",
          "type": "bytes32"
        }
      ],
      "stateMutability": "view",
      "type": "function"
    },
    {
      "inputs": [],
      "name": "CLINICAL_ADMIN_ROLE",
      "outputs": [
        {
          "internalType": "bytes32",
          "name": "",
          "type": "bytes32"
        }
      ],
      "stateMutability": "view",
      "type": "function"
    },
    {
      "inputs": [],
      "name": "CLINICIAN_ROLE",
      "outputs": [
        {
          "internalType": "bytes32",
          "name": "",
          "type": "bytes32"
        }
      ],
      "stateMutability": "view",
      "type": "function"
    },
    {
      "inputs": [],
      "name": "DEFAULT_ADMIN_ROLE",
      "outputs": [
        {
          "internalType": "bytes32",
          "name": "",
          "type": "bytes32"
        }
      ],
      "stateMutability": "view",
      "type": "function"
    },
    {
      "inputs": [],
      "name": "VALIDATOR_ROLE",
      "outputs": [
        {
          "internalType": "bytes32",
          "name": "",
          "type": "bytes32"
        }
      ],
      "stateMutability": "view",
      "type": "function"
    },
    {
      "inputs": [
        {
          "internalType": "address",
          "name": "owner",
          "type": "address"
        },
        {
          "internalType": "address",
          "name": "spender",
          "type": "address"
        }
      ],
      "name": "allowance",
      "outputs": [
        {
          "internalType": "uint256",
          "name": "",
          "type": "uint256"
        }
      ],
      "stateMutability": "view",
      "type": "function"
    },
    {
      "inputs": [
        {
          "internalType": "address",
          "name": "spender",
          "type": "address"
        },
        {
          "internalType": "uint256",
          "name": "value",
          "type": "uint256"
        }
      ],
      "name": "approve",
      "outputs": [
        {
          "internalType": "bool",
          "name": "",
          "type": "bool"
        }
      ],
      "stateMutability": "nonpayable",
      "type": "function"
    },
    {
      "inputs": [
        {
          "internalType": "uint256",
          "name": "testId",
          "type": "uint256"
        }
      ],
      "name": "approveClinicalTest",
      "outputs": [],
      "stateMutability": "nonpayable",
      "type": "function"
    },
    {
      "inputs": [
        {
          "internalType": "uint256",
          "name": "",
          "type": "uint256"
        }
      ],
      "name": "auditTrail",
      "outputs": [
        {
          "internalType": "address",
          "name": "account",
          "type": "address"
        },
        {
          "internalType": "uint256",
          "name": "previousBalance",
          "type": "uint256"
        },
        {
          "internalType": "uint256",
          "name": "newBalance",
          "type": "uint256"
        },
        {
          "internalType": "uint256",
          "name": "timestamp",
          "type": "uint256"
        },
        {
          "internalType": "string",
          "name": "operation",
          "type": "string"
        },
        {
          "internalType": "address",
          "name": "authorizer",
          "type": "address"
        },
        {
          "internalType": "uint256",
          "name": "testId",
          "type": "uint256"
        }
      ],
      "stateMutability": "view",
      "type": "function"
    },
    {
      "inputs": [
        {
          "internalType": "address",
          "name": "account",
          "type": "address"
        }
      ],
      "name": "balanceOf",
      "outputs": [
        {
          "internalType": "uint256",
          "name": "",
          "type": "uint256"
        }
      ],
      "stateMutability": "view",
      "type": "function"
    },
    {
      "inputs": [
        {
          "internalType": "uint256",
          "name": "",
          "type": "uint256"
        }
      ],
      "name": "clinicalTests",
      "outputs": [
        {
          "internalType": "uint256",
          "name": "testId",
          "type": "uint256"
        },
        {
          "internalType": "string",
          "name": "testType",
          "type": "string"
        },
        {
          "internalType": "address",
          "name": "clinician",
          "type": "address"
        },
        {
          "internalType": "address",
          "name": "patient",
          "type": "address"
        },
        {
          "internalType": "uint256",
          "name": "timestamp",
          "type": "uint256"
        },
        {
          "internalType": "string",
          "name": "dataHash",
          "type": "string"
        },
        {
          "internalType": "string",
          "name": "metadataHash",
          "type": "string"
        },
        {
          "internalType": "bool",
          "name": "validated",
          "type": "bool"
        },
        {
          "internalType": "bool",
          "name": "completed",
          "type": "bool"
        },
        {
          "internalType": "uint256",
          "name": "associatedTokens",
          "type": "uint256"
        },
        {
          "internalType": "uint256",
          "name": "approvalCount",
          "type": "uint256"
        }
      ],
      "stateMutability": "view",
      "type": "function"
    },
    {
      "inputs": [
        {
          "internalType": "address",
          "name": "",
          "type": "address"
        },
        {
          "internalType": "uint256",
          "name": "",
          "type": "uint256"
        }
      ],
      "name": "clinicianTests",
      "outputs": [
        {
          "internalType": "uint256",
          "name": "",
          "type": "uint256"
        }
      ],
      "stateMutability": "view",
      "type": "function"
    },
    {
      "inputs": [
        {
          "internalType": "uint256",
          "name": "testId",
          "type": "uint256"
        }
      ],
      "name": "completeClinicalTest",
      "outputs": [],
      "stateMutability": "nonpayable",
      "type": "function"
    },
    {
      "inputs": [
        {
          "internalType": "string",
          "name": "testType",
          "type": "string"
        },
        {
          "internalType": "address",
          "name": "patient",
          "type": "address"
        },
        {
          "internalType": "string",
          "name": "dataHash",
          "type": "string"
        },
        {
          "internalType": "string",
          "name": "metadataHash",
          "type": "string"
        },
        {
          "internalType": "uint256",
          "name": "tokenAllocation",
          "type": "uint256"
        }
      ],
      "name": "createClinicalTest",
      "outputs": [
        {
          "internalType": "uint256",
          "name": "",
          "type": "uint256"
        }
      ],
      "stateMutability": "nonpayable",
      "type": "function"
    },
    {
      "inputs": [],
      "name": "decimals",
      "outputs": [
        {
          "internalType": "uint8",
          "name": "",
          "type": "uint8"
        }
      ],
      "stateMutability": "view",
      "type": "function"
    },
    {
      "inputs": [
        {
          "internalType": "uint256",
          "name": "index",
          "type": "uint256"
        }
      ],
      "name": "getAuditRecord",
      "outputs": [
        {
          "components": [
            {
              "internalType": "address",
              "name": "account",
              "type": "address"
            },
            {
              "internalType": "uint256",
              "name": "previousBalance",
              "type": "uint256"
            },
            {
              "internalType": "uint256",
              "name": "newBalance",
              "type": "uint256"
            },
            {
              "internalType": "uint256",
              "name": "timestamp",
              "type": "uint256"
            },
            {
              "internalType": "string",
              "name": "operation",
              "type": "string"
            },
            {
              "internalType": "address",
              "name": "authorizer",
              "type": "address"
            },
            {
              "internalType": "uint256",
              "name": "testId",
              "type": "uint256"
            }
          ],
          "internalType": "struct CTBALToken.AuditRecord",
          "name": "",
          "type": "tuple"
        }
      ],
      "stateMutability": "view",
      "type": "function"
    },
    {
      "inputs": [],
      "name": "getAuditTrailLength",
      "outputs": [
        {
          "internalType": "uint256",
          "name": "",
          "type": "uint256"
        }
      ],
      "stateMutability": "view",
      "type": "function"
    },
    {
      "inputs": [
        {
          "internalType": "uint256",
          "name": "testId",
          "type": "uint256"
        }
      ],
      "name": "getClinicalTest",
      "outputs": [
        {
          "internalType": "uint256",
          "name": "id",
          "type": "uint256"
        },
        {
          "internalType": "string",
          "name": "testType",
          "type": "string"
        },
        {
          "internalType": "address",
          "name": "clinician",
          "type": "address"
        },
        {
          "internalType": "address",
          "name": "patient",
          "type": "address"
        },
        {
          "internalType": "uint256",
          "name": "timestamp",
          "type": "uint256"
        },
        {
          "internalType": "string",
          "name": "dataHash",
          "type": "string"
        },
        {
          "internalType": "string",
          "name": "metadataHash",
          "type": "string"
        },
        {
          "internalType": "bool",
          "name": "validated",
          "type": "bool"
        },
        {
          "internalType": "bool",
          "name": "completed",
          "type": "bool"
        },
        {
          "internalType": "uint256",
          "name": "associatedTokens",
          "type": "uint256"
        },
        {
          "internalType": "uint256",
          "name": "approvalCount",
          "type": "uint256"
        }
      ],
      "stateMutability": "view",
      "type": "function"
    },
    {
      "inputs": [
        {
          "internalType": "address",
          "name": "clinician",
          "type": "address"
        }
      ],
      "name": "getClinicianTests",
      "outputs": [
        {
          "internalType": "uint256[]",
          "name": "",
          "type": "uint256[]"
        }
      ],
      "stateMutability": "view",
      "type": "function"
    },
    {
      "inputs": [
        {
          "internalType": "address",
          "name": "patient",
          "type": "address"
        }
      ],
      "name": "getPatientTests",
      "outputs": [
        {
          "internalType": "uint256[]",
          "name": "",
          "type": "uint256[]"
        }
      ],
      "stateMutability": "view",
      "type": "function"
    },
    {
      "inputs": [
        {
          "internalType": "bytes32",
          "name": "role",
          "type": "bytes32"
        }
      ],
      "name": "getRoleAdmin",
      "outputs": [
        {
          "internalType": "bytes32",
          "name": "",
          "type": "bytes32"
        }
      ],
      "stateMutability": "view",
      "type": "function"
    },
    {
      "inputs": [
        {
          "internalType": "bytes32",
          "name": "role",
          "type": "bytes32"
        },
        {
          "internalType": "address",
          "name": "account",
          "type": "address"
        }
      ],
      "name": "grantRole",
      "outputs": [],
      "stateMutability": "nonpayable",
      "type": "function"
    },
    {
      "inputs": [
        {
          "internalType": "bytes32",
          "name": "role",
          "type": "bytes32"
        },
        {
          "internalType": "address",
          "name": "account",
          "type": "address"
        }
      ],
      "name": "hasRole",
      "outputs": [
        {
          "internalType": "bool",
          "name": "",
          "type": "bool"
        }
      ],
      "stateMutability": "view",
      "type": "function"
    },
    {
      "inputs": [
        {
          "internalType": "address",
          "name": "to",
          "type": "address"
        },
        {
          "internalType": "uint256",
          "name": "amount",
          "type": "uint256"
        }
      ],
      "name": "mint",
      "outputs": [],
      "stateMutability": "nonpayable",
      "type": "function"
    },
    {
      "inputs": [],
      "name": "name",
      "outputs": [
        {
          "internalType": "string",
          "name": "",
          "type": "string"
        }
      ],
      "stateMutability": "view",
      "type": "function"
    },
    {
      "inputs": [
        {
          "internalType": "address",
          "name": "",
          "type": "address"
        },
        {
          "internalType": "uint256",
          "name": "",
          "type": "uint256"
        }
      ],
      "name": "patientTests",
      "outputs": [
        {
          "internalType": "uint256",
          "name": "",
          "type": "uint256"
        }
      ],
      "stateMutability": "view",
      "type": "function"
    },
    {
      "inputs": [],
      "name": "pause",
      "outputs": [],
      "stateMutability": "nonpayable",
      "type": "function"
    },
    {
      "inputs": [],
      "name": "paused",
      "outputs": [
        {
          "internalType": "bool",
          "name": "",
          "type": "bool"
        }
      ],
      "stateMutability": "view",
      "type": "function"
    },
    {
      "inputs": [
        {
          "internalType": "bytes32",
          "name": "role",
          "type": "bytes32"
        },
        {
          "internalType": "address",
          "name": "callerConfirmation",
          "type": "address"
        }
      ],
      "name": "renounceRole",
      "outputs": [],
      "stateMutability": "nonpayable",
      "type": "function"
    },
    {
      "inputs": [
        {
          "internalType": "bytes32",
          "name": "role",
          "type": "bytes32"
        },
        {
          "internalType": "address",
          "name": "account",
          "type": "address"
        }
      ],
      "name": "revokeRole",
      "outputs": [],
      "stateMutability": "nonpayable",
      "type": "function"
    },
    {
      "inputs": [
        {
          "internalType": "bytes4",
          "name": "interfaceId",
          "type": "bytes4"
        }
      ],
      "name": "supportsInterface",
      "outputs": [
        {
          "internalType": "bool",
          "name": "",
          "type": "bool"
        }
      ],
      "stateMutability": "view",
      "type": "function"
    },
    {
      "inputs": [],
      "name": "symbol",
      "outputs": [
        {
          "internalType": "string",
          "name": "",
          "type": "string"
        }
      ],
      "stateMutability": "view",
      "type": "function"
    },
    {
      "inputs": [
        {
          "internalType": "string",
          "name": "",
          "type": "string"
        }
      ],
      "name": "testTypeCount",
      "outputs": [
        {
          "internalType": "uint256",
          "name": "",
          "type": "uint256"
        }
      ],
      "stateMutability": "view",
      "type": "function"
    },
    {
      "inputs": [],
      "name": "totalClinicalTests",
      "outputs": [
        {
          "internalType": "uint256",
          "name": "",
          "type": "uint256"
        }
      ],
      "stateMutability": "view",
      "type": "function"
    },
    {
      "inputs": [],
      "name": "totalSupply",
      "outputs": [
        {
          "internalType": "uint256",
          "name": "",
          "type": "uint256"
        }
      ],
      "stateMutability": "view",
      "type": "function"
    },
    {
      "inputs": [
        {
          "internalType": "address",
          "name": "to",
          "type": "address"
        },
        {
          "internalType": "uint256",
          "name": "amount",
          "type": "uint256"
        }
      ],
      "name": "transfer",
      "outputs": [
        {
          "internalType": "bool",
          "name": "",
          "type": "bool"
        }
      ],
      "stateMutability": "nonpayable",
      "type": "function"
    },
    {
      "inputs": [
        {
          "internalType": "address",
          "name": "from",
          "type": "address"
        },
        {
          "internalType": "address",
          "name": "to",
          "type": "address"
        },
        {
          "internalType": "uint256",
          "name": "value",
          "type": "uint256"
        }
      ],
      "name": "transferFrom",
      "outputs": [
        {
          "internalType": "bool",
          "name": "",
          "type": "bool"
        }
      ],
      "stateMutability": "nonpayable",
      "type": "function"
    },
    {
      "inputs": [],
      "name": "unpause",
      "outputs": [],
      "stateMutability": "nonpayable",
      "type": "function"
    },
    {
      "inputs": [
        {
          "internalType": "uint256",
          "name": "testId",
          "type": "uint256"
        }
      ],
      "name": "validateClinicalTest",
      "outputs": [],
      "stateMutability": "nonpayable",
      "type": "function"
    },
    {
      "inputs": [],
      "name": "validatedTests",
      "outputs": [
        {
          "internalType": "uint256",
          "name": "",
          "type": "uint256"
        }
      ],
      "stateMutability": "view",
      "type": "function"
    }
  ],
  "bytecode": "0x608060405234801562000010575f80fd5b5060405162002ea538038062002ea58339810160408190526200003391620003a4565b828260036200004383826200049e565b5060046200005282826200049e565b5050600160075550620000665f33620000c7565b50620000937f4b346d9ac223184c8768fae9f0f9cc7825dd24f5ba7c8c677c34451ba15eca6433620000c7565b50620000b933620000a76012600a62000673565b620000b390846200068a565b62000177565b50506001600d5550620006ba565b5f8281526005602090815260408083206001600160a01b038516845290915281205460ff166200016e575f8381526005602090815260408083206001600160a01b03861684529091529020805460ff19166001179055620001253390565b6001600160a01b0316826001600160a01b0316847f2f8788117e7eff1d82e926ec794901d17c78024a50270940304540a733656f0d60405160405180910390a450600162000171565b505f5b92915050565b6001600160a01b038216620001a65760405163ec442f0560e01b81525f60048201526024015b60405180910390fd5b620001b35f8383620001b7565b5050565b6001600160a01b038316620001e5578060025f828254620001d99190620006a4565b90915550620002579050565b6001600160a01b0383165f9081526020819052604090205481811015620002395760405163391434e360e21b81526001600160a01b038516600482015260248101829052604481018390526064016200019d565b6001600160a01b0384165f9081526020819052604090209082900390555b6001600160a01b038216620002755760028054829003905562000293565b6001600160a01b0382165f9081526020819052604090208054820190555b816001600160a01b0316836001600160a01b03167fddf252ad1be2c89b69c2b068fc378daa952ba7f163c4a11628f55a4df523b3ef83604051620002d991815260200190565b60405180910390a3505050565b634e487b7160e01b5f52604160045260245ffd5b5f82601f8301126200030a575f80fd5b81516001600160401b0380821115620003275762000327620002e6565b604051601f8301601f19908116603f01168101908282118183101715620003525762000352620002e6565b816040528381526020925086838588010111156200036e575f80fd5b5f91505b8382101562000391578582018301518183018401529082019062000372565b5f93810190920192909252949350505050565b5f805f60608486031215620003b7575f80fd5b83516001600160401b0380821115620003ce575f80fd5b620003dc87838801620002fa565b94506020860151915080821115620003f2575f80fd5b506200040186828701620002fa565b925050604084015190509250925092565b600181811c908216806200042757607f821691505b6020821081036200044657634e487b7160e01b5f52602260045260245ffd5b50919050565b601f82111562000499575f81815260208120601f850160051c81016020861015620004745750805b601f850160051c820191505b81811015620004955782815560010162000480565b5050505b505050565b81516001600160401b03811115620004ba57620004ba620002e6565b620004d281620004cb845462000412565b846200044c565b602080601f83116001811462000508575f8415620004f05750858301515b5f19600386901b1c1916600185901b17855562000495565b5f85815260208120601f198616915b82811015620005385788860151825594840194600190910190840162000517565b50858210156200055657878501515f19600388901b60f8161c191681555b5050505050600190811b01905550565b634e487b7160e01b5f52601160045260245ffd5b600181815b80851115620005ba57815f19048211156200059e576200059e62000566565b80851615620005ac57918102915b93841c93908002906200057f565b509250929050565b5f82620005d25750600162000171565b81620005e057505f62000171565b8160018114620005f95760028114620006045762000624565b600191505062000171565b60ff84111562000618576200061862000566565b50506001821b62000171565b5060208310610133831016604e8410600b841016171562000649575081810a62000171565b6200065583836200057a565b805f19048211156200066b576200066b62000566565b029392505050565b5f6200068360ff841683620005c2565b9392505050565b808202811582820484141762000171576200017162000566565b8082018082111562000171576200017162000566565b6127dd80620006c85f395ff3fe608060405234801561000f575f80fd5b506004361061023f575f3560e01c80636e1d616e11610135578063a5817e13116100b4578063c49baebe11610079578063c49baebe1461051d578063cbf3710014610544578063d547741f14610557578063dd62ed3e1461056a578063ddaf0929146105a2575f80fd5b8063a5817e131461049c578063a9059cbb146104c3578063b213cb9d146104d6578063b3649a7e146104e9578063b9f83801146104f2575f80fd5b80638f37a90f116100fa5780638f37a90f1461045357806391d148541461046757806395d89b411461047a5780639a2e6b8414610482578063a217fddf14610495575f80fd5b80636e1d616e146103de5780636f17c8b41461040557806370a0823114610418578063783b8bd01461042b5780638456cb591461044b575f80fd5b806340c10f19116101c15780634e6f13d3116101865780634e6f13d3146103845780634f7f6831146103975780635b2801a4146103a05780635c975abb146103c057806365143195146103cb575f80fd5b806340c10f19146103195780634417da291461032c57806349270315146103565780634a3b17b11461035e5780634a84e10414610371575f80fd5b8063248a9ca311610207578063248a9ca3146102b85780632f2ff15d146102da578063313ce567146102ef57806336568abe146102fe5780633f4ba83a14610311575f80fd5b806301ffc9a71461024357806306fdde031461026b578063095ea7b31461028057806318160ddd1461029357806323b872dd146102a5575b5f80fd5b6102566102513660046120bd565b6105c8565b60405190151581526020015b60405180910390f35b6102736105fe565b6040516102629190612138565b61025661028e366004612165565b61068e565b6002545b604051908152602001610262565b6102566102b336600461218d565b6106a5565b6102976102c63660046121c6565b5f9081526005602052604090206001015490565b6102ed6102e83660046121dd565b6106c8565b005b60405160128152602001610262565b6102ed61030c3660046121dd565b6106f2565b6102ed61072a565b6102ed610327366004612165565b61074c565b61033f61033a3660046121c6565b6107bb565b6040516102629b9a99989796959493929190612207565b600c54610297565b61029761036c366004612165565b610a23565b61029761037f366004612165565b610a4e565b6102ed6103923660046121c6565b610a67565b610297600e5481565b6103b36103ae366004612294565b610ccf565b60405161026291906122ad565b60065460ff16610256565b6102ed6103d93660046121c6565b610d38565b6102977f59a1c48e5837ad7a7f3dcedcbe129bf3249ec4fbf651fd4f5e2600ead39fe2f581565b61033f6104133660046121c6565b610e84565b610297610426366004612294565b611080565b61043e6104393660046121c6565b61109a565b60405161026291906122f0565b6102ed611256565b6102975f8051602061278883398151915281565b6102566104753660046121dd565b611275565b61027361129f565b6102976104903660046123fd565b6112ae565b6102975f81565b6102977fe497b4ad79a67650fca774cf0812e4505f07dd6d87a3c1afc29076ccc8bbcefe81565b6102566104d1366004612165565b611657565b6103b36104e4366004612294565b6116d0565b610297600f5481565b610297610500366004612497565b8051602081830181018051600b8252928201919093012091525481565b6102977f21702c8af46127c7fa207f89d0b0a8441bb32959a0ac7df790e9ab1a25c9892681565b6102ed6105523660046121c6565b611737565b6102ed6105653660046121dd565b6118b0565b6102976105783660046124d1565b6001600160a01b039182165f90815260016020908152604080832093909416825291909152205490565b6105b56105b03660046121c6565b6118d4565b60405161026297969594939291906124f9565b5f6001600160e01b03198216637965db0b60e01b14806105f857506301ffc9a760e01b6001600160e01b03198316145b92915050565b60606003805461060d90612541565b80601f016020809104026020016040519081016040528092919081815260200182805461063990612541565b80156106845780601f1061065b57610100808354040283529160200191610684565b820191905f5260205f20905b81548152906001019060200180831161066757829003601f168201915b5050505050905090565b5f3361069b8185856119bd565b5060019392505050565b5f336106b28582856119ca565b6106bd858585611a40565b506001949350505050565b5f828152600560205260409020600101546106e281611a9d565b6106ec8383611aa7565b50505050565b6001600160a01b038116331461071b5760405163334bd91960e11b815260040160405180910390fd5b6107258282611b38565b505050565b5f8051602061278883398151915261074181611a9d565b610749611ba3565b50565b5f8051602061278883398151915261076381611a9d565b61076d8383611bf5565b610725838361077b86611080565b610785919061258d565b61078e86611080565b6040518060400160405280600d81526020016c546f6b656e206d696e74696e6760981b815250335f611c2d565b5f60605f805f6060805f805f805f8c1180156107d85750600d548c105b6107fd5760405162461bcd60e51b81526004016107f4906125a0565b60405180910390fd5b5f8c81526008602081905260409091208054600282015460038301546004840154600785015495850154600a8601546001870180549798969790966001600160a01b03968716969095169460058a019360068b019360ff8084169461010090940416928a9061086b90612541565b80601f016020809104026020016040519081016040528092919081815260200182805461089790612541565b80156108e25780601f106108b9576101008083540402835291602001916108e2565b820191905f5260205f20905b8154815290600101906020018083116108c557829003601f168201915b505050505099508580546108f590612541565b80601f016020809104026020016040519081016040528092919081815260200182805461092190612541565b801561096c5780601f106109435761010080835404028352916020019161096c565b820191905f5260205f20905b81548152906001019060200180831161094f57829003601f168201915b5050505050955084805461097f90612541565b80601f01602080910402602001604051908101604052809291908181526020018280546109ab90612541565b80156109f65780601f106109cd576101008083540402835291602001916109f6565b820191905f5260205f20905b8154815290600101906020018083116109d957829003601f168201915b505050505094509b509b509b509b509b509b509b509b509b509b509b505091939597999b90929496989a50565b600a602052815f5260405f208181548110610a3c575f80fd5b905f5260205f20015f91509150505481565b6009602052815f5260405f208181548110610a3c575f80fd5b7fe497b4ad79a67650fca774cf0812e4505f07dd6d87a3c1afc29076ccc8bbcefe610a9181611a9d565b610a99611ddc565b5f82118015610aa95750600d5482105b610ac55760405162461bcd60e51b81526004016107f4906125a0565b5f828152600860205260409020600201546001600160a01b03163314610b1e5760405162461bcd60e51b815260206004820152600e60248201526d2737ba103a32b9ba1037bbb732b960911b60448201526064016107f4565b5f8281526008602052604090206007015460ff16610b735760405162461bcd60e51b815260206004820152601260248201527115195cdd081b9bdd081d985b1a59185d195960721b60448201526064016107f4565b5f82815260086020526040902060070154610100900460ff1615610bd25760405162461bcd60e51b815260206004820152601660248201527515195cdd08185b1c9958591e4818dbdb5c1b195d195960521b60448201526064016107f4565b5f82815260086020819052604090912060078101805461ff0019166101001790556003810154918101549091610c139130916001600160a01b031690611a40565b60038101546008820154610c92916001600160a01b031690610c3482611080565b610c3e919061258d565b6003840154610c55906001600160a01b0316611080565b6040518060400160405280601881526020017f436c696e6963616c207465737420636f6d706c6574696f6e00000000000000008152503388611c2d565b604051428152339084907ffbf860a58bb486670a4ab1d426433f88cf08e59ca817a52d7050d5cd6f7eee5c906020015b60405180910390a3505050565b6001600160a01b0381165f90815260096020908152604091829020805483518184028101840190945280845260609392830182828015610d2c57602002820191905f5260205f20905b815481526020019060010190808311610d18575b50505050509050919050565b7f21702c8af46127c7fa207f89d0b0a8441bb32959a0ac7df790e9ab1a25c98926610d6281611a9d565b610d6a611ddc565b5f82118015610d7a5750600d5482105b610d965760405162461bcd60e51b81526004016107f4906125a0565b5f82815260086020908152604080832033845260090190915290205460ff1615610df55760405162461bcd60e51b815260206004820152601060248201526f105b1c9958591e48185c1c1c9bdd995960821b60448201526064016107f4565b5f828152600860208181526040808420338552600981018352908420805460ff19166001179055858452919052600a01805491610e31836125c9565b90915550505f82815260086020908152604091829020600a01549151918252339184917fbfa63a3fd1a533e040d9abbba71dad5bd30ae49ba7650b37708bfd596826074791015b60405180910390a35050565b60086020525f908152604090208054600182018054919291610ea590612541565b80601f0160208091040260200160405190810160405280929190818152602001828054610ed190612541565b8015610f1c5780601f10610ef357610100808354040283529160200191610f1c565b820191905f5260205f20905b815481529060010190602001808311610eff57829003601f168201915b5050505060028301546003840154600485015460058601805495966001600160a01b03948516969490931694509092610f5490612541565b80601f0160208091040260200160405190810160405280929190818152602001828054610f8090612541565b8015610fcb5780601f10610fa257610100808354040283529160200191610fcb565b820191905f5260205f20905b815481529060010190602001808311610fae57829003601f168201915b505050505090806006018054610fe090612541565b80601f016020809104026020016040519081016040528092919081815260200182805461100c90612541565b80156110575780601f1061102e57610100808354040283529160200191611057565b820191905f5260205f20905b81548152906001019060200180831161103a57829003601f168201915b50505060078401546008850154600a90950154939460ff8083169561010090930416935091508b565b6001600160a01b03165f9081526020819052604090205490565b6110e66040518060e001604052805f6001600160a01b031681526020015f81526020015f81526020015f8152602001606081526020015f6001600160a01b031681526020015f81525090565b600c54821061112d5760405162461bcd60e51b8152602060048201526013602482015272092dcecc2d8d2c840c2eac8d2e840d2dcc8caf606b1b60448201526064016107f4565b600c8281548110611140576111406125e1565b905f5260205f2090600702016040518060e00160405290815f82015f9054906101000a90046001600160a01b03166001600160a01b03166001600160a01b031681526020016001820154815260200160028201548152602001600382015481526020016004820180546111b290612541565b80601f01602080910402602001604051908101604052809291908181526020018280546111de90612541565b80156112295780601f1061120057610100808354040283529160200191611229565b820191905f5260205f20905b81548152906001019060200180831161120c57829003601f168201915b505050918352505060058201546001600160a01b0316602082015260069091015460409091015292915050565b5f8051602061278883398151915261126d81611a9d565b610749611e02565b5f9182526005602090815260408084206001600160a01b0393909316845291905290205460ff1690565b60606004805461060d90612541565b5f7fe497b4ad79a67650fca774cf0812e4505f07dd6d87a3c1afc29076ccc8bbcefe6112d981611a9d565b6112e1611ddc565b6001600160a01b0386166113375760405162461bcd60e51b815260206004820152601760248201527f496e76616c69642070617469656e74206164647265737300000000000000000060448201526064016107f4565b5f87511161137c5760405162461bcd60e51b815260206004820152601260248201527115195cdd081d1e5c19481c995c5d5a5c995960721b60448201526064016107f4565b5f8551116113c15760405162461bcd60e51b815260206004820152601260248201527111185d18481a185cda081c995c5d5a5c995960721b60448201526064016107f4565b5f831161141a5760405162461bcd60e51b815260206004820152602160248201527f546f6b656e20616c6c6f636174696f6e206d75737420626520706f73697469766044820152606560f81b60648201526084016107f4565b8261142433611080565b10156114685760405162461bcd60e51b8152602060048201526013602482015272496e73756666696369656e7420746f6b656e7360681b60448201526064016107f4565b600d80549081905f611479836125c9565b90915550505f8181526008602052604090208181556001810161149c8a82612642565b50600281018054336001600160a01b0319918216179091556003820180549091166001600160a01b038a16179055426004820155600581016114de8882612642565b50600681016114ed8782612642565b5060078101805461ffff19169055600881018590555f600a8083018290556001600160a01b038a1682526009602090815260408084208054600181810183559186528386200187905533855292825280842080549384018155845292200183905551600b9061155d908b906126fe565b9081526040519081900360200190208054905f611579836125c9565b9091555050600e8054905f61158d836125c9565b919050555061159d333087611a40565b6115fb30866115ab30611080565b6115b5919061258d565b6115be30611080565b6040518060400160405280601a81526020017f436c696e6963616c207465737420746f6b656e20657363726f770000000000008152503387611c2d565b876001600160a01b0316336001600160a01b0316837f7e7721f707738e432843dbd16824401362df6792b22783dc84f559fa5b71b0208c898c60405161164393929190612719565b60405180910390a450979650505050505050565b5f611660611e3f565b611668611ddc565b5f61167284611080565b90505f61167f8585611e69565b905080156116c3576116c3858361169588611080565b6040518060400160405280600e81526020016d2a37b5b2b7103a3930b739b332b960911b815250335f611c2d565b9150506105f86001600755565b6001600160a01b0381165f908152600a6020908152604091829020805483518184028101840190945280845260609392830182828015610d2c57602002820191905f5260205f2090815481526020019060010190808311610d185750505050509050919050565b7f21702c8af46127c7fa207f89d0b0a8441bb32959a0ac7df790e9ab1a25c9892661176181611a9d565b611769611ddc565b5f821180156117795750600d5482105b6117955760405162461bcd60e51b81526004016107f4906125a0565b5f8281526008602052604090206007015460ff16156117ef5760405162461bcd60e51b815260206004820152601660248201527515195cdd08185b1c9958591e481d985b1a59185d195960521b60448201526064016107f4565b5f82815260086020526040902060070154610100900460ff161561184e5760405162461bcd60e51b815260206004820152601660248201527515195cdd08185b1c9958591e4818dbdb5c1b195d195960521b60448201526064016107f4565b5f828152600860205260408120600701805460ff19166001179055600f805491611877836125c9565b9091555050604051428152339083907ff0c06490c8fa424ac367bbedd8bc523e3a79283e498efb24c1be92b329662be890602001610e78565b5f828152600560205260409020600101546118ca81611a9d565b6106ec8383611b38565b600c81815481106118e3575f80fd5b5f918252602090912060079091020180546001820154600283015460038401546004850180546001600160a01b0390951696509294919390929061192690612541565b80601f016020809104026020016040519081016040528092919081815260200182805461195290612541565b801561199d5780601f106119745761010080835404028352916020019161199d565b820191905f5260205f20905b81548152906001019060200180831161198057829003601f168201915b50505050600583015460069093015491926001600160a01b031691905087565b6107258383836001611e76565b6001600160a01b038381165f908152600160209081526040808320938616835292905220545f198110156106ec5781811015611a3257604051637dc7a0d960e11b81526001600160a01b038416600482015260248101829052604481018390526064016107f4565b6106ec84848484035f611e76565b6001600160a01b038316611a6957604051634b637e8f60e11b81525f60048201526024016107f4565b6001600160a01b038216611a925760405163ec442f0560e01b81525f60048201526024016107f4565b610725838383611f48565b6107498133612061565b5f611ab28383611275565b611b31575f8381526005602090815260408083206001600160a01b03861684529091529020805460ff19166001179055611ae93390565b6001600160a01b0316826001600160a01b0316847f2f8788117e7eff1d82e926ec794901d17c78024a50270940304540a733656f0d60405160405180910390a45060016105f8565b505f6105f8565b5f611b438383611275565b15611b31575f8381526005602090815260408083206001600160a01b0386168085529252808320805460ff1916905551339286917ff6391f5c32d9c69d2a47ea670b442974b53935d1edc7fd64eb21e047a839171b9190a45060016105f8565b611bab61209a565b6006805460ff191690557f5db9ee0a495bf2e6ff9c91a7834c1ba4fdd244a5e8aa4e537bd38aeae4b073aa335b6040516001600160a01b03909116815260200160405180910390a1565b6001600160a01b038216611c1e5760405163ec442f0560e01b81525f60048201526024016107f4565b611c295f8383611f48565b5050565b6040805160e0810182526001600160a01b0388811682526020820188815292820187815242606084019081526080840188815287841660a086015260c08501879052600c80546001810182555f9190915285517fdf6966c971051c3d54ec59162606531493a51404a002842f56009d7e5cf4a8c7600790920291820180546001600160a01b0319169190961617855595517fdf6966c971051c3d54ec59162606531493a51404a002842f56009d7e5cf4a8c887015591517fdf6966c971051c3d54ec59162606531493a51404a002842f56009d7e5cf4a8c9860155517fdf6966c971051c3d54ec59162606531493a51404a002842f56009d7e5cf4a8ca85015551919290917fdf6966c971051c3d54ec59162606531493a51404a002842f56009d7e5cf4a8cb90910190611d619082612642565b5060a08201516005820180546001600160a01b0319166001600160a01b0392831617905560c090920151600690910155604051838216918816907fc70319605514c5368595995aef04a7403e90efc691d1b99058f1e817241cbbd890611dcc9089908990899061274d565b60405180910390a3505050505050565b60065460ff1615611e005760405163d93c066560e01b815260040160405180910390fd5b565b611e0a611ddc565b6006805460ff191660011790557f62e78cea01bee320cd4e420270b5ea74000d11b0c9f74754ebdbfc544b05a258611bd83390565b600260075403611e6257604051633ee5aeb560e01b815260040160405180910390fd5b6002600755565b5f3361069b818585611a40565b6001600160a01b038416611e9f5760405163e602df0560e01b81525f60048201526024016107f4565b6001600160a01b038316611ec857604051634a1406b160e11b81525f60048201526024016107f4565b6001600160a01b038085165f90815260016020908152604080832093871683529290522082905580156106ec57826001600160a01b0316846001600160a01b03167f8c5be1e5ebec7d5bd14f71427d1e84f3dd0314c0f7b2291e5b200ac8c7c3b92584604051611f3a91815260200190565b60405180910390a350505050565b6001600160a01b038316611f72578060025f828254611f679190612774565b90915550611fe29050565b6001600160a01b0383165f9081526020819052604090205481811015611fc45760405163391434e360e21b81526001600160a01b038516600482015260248101829052604481018390526064016107f4565b6001600160a01b0384165f9081526020819052604090209082900390555b6001600160a01b038216611ffe5760028054829003905561201c565b6001600160a01b0382165f9081526020819052604090208054820190555b816001600160a01b0316836001600160a01b03167fddf252ad1be2c89b69c2b068fc378daa952ba7f163c4a11628f55a4df523b3ef83604051610cc291815260200190565b61206b8282611275565b611c295760405163e2517d3f60e01b81526001600160a01b0382166004820152602481018390526044016107f4565b60065460ff16611e0057604051638dfc202b60e01b815260040160405180910390fd5b5f602082840312156120cd575f80fd5b81356001600160e01b0319811681146120e4575f80fd5b9392505050565b5f5b838110156121055781810151838201526020016120ed565b50505f910152565b5f81518084526121248160208601602086016120eb565b601f01601f19169290920160200192915050565b602081525f6120e4602083018461210d565b80356001600160a01b0381168114612160575f80fd5b919050565b5f8060408385031215612176575f80fd5b61217f8361214a565b946020939093013593505050565b5f805f6060848603121561219f575f80fd5b6121a88461214a565b92506121b66020850161214a565b9150604084013590509250925092565b5f602082840312156121d6575f80fd5b5035919050565b5f80604083850312156121ee575f80fd5b823591506121fe6020840161214a565b90509250929050565b5f6101608d83528060208401526122208184018e61210d565b6001600160a01b038d811660408601528c166060850152608084018b905283810360a08501529050612252818a61210d565b905082810360c0840152612266818961210d565b96151560e0840152505092151561010084015261012083019190915261014090910152979650505050505050565b5f602082840312156122a4575f80fd5b6120e48261214a565b602080825282518282018190525f9190848201906040850190845b818110156122e4578351835292840192918401916001016122c8565b50909695505050505050565b602081525f60018060a01b03808451166020840152602084015160408401526040840151606084015260608401516080840152608084015160e060a085015261233d61010085018261210d565b90508160a08601511660c085015260c085015160e0850152809250505092915050565b634e487b7160e01b5f52604160045260245ffd5b5f82601f830112612383575f80fd5b813567ffffffffffffffff8082111561239e5761239e612360565b604051601f8301601f19908116603f011681019082821181831017156123c6576123c6612360565b816040528381528660208588010111156123de575f80fd5b836020870160208301375f602085830101528094505050505092915050565b5f805f805f60a08688031215612411575f80fd5b853567ffffffffffffffff80821115612428575f80fd5b61243489838a01612374565b96506124426020890161214a565b95506040880135915080821115612457575f80fd5b61246389838a01612374565b94506060880135915080821115612478575f80fd5b5061248588828901612374565b95989497509295608001359392505050565b5f602082840312156124a7575f80fd5b813567ffffffffffffffff8111156124bd575f80fd5b6124c984828501612374565b949350505050565b5f80604083850312156124e2575f80fd5b6124eb8361214a565b91506121fe6020840161214a565b5f60018060a01b03808a16835288602084015287604084015286606084015260e0608084015261252c60e084018761210d565b941660a08301525060c0015295945050505050565b600181811c9082168061255557607f821691505b60208210810361257357634e487b7160e01b5f52602260045260245ffd5b50919050565b634e487b7160e01b5f52601160045260245ffd5b818103818111156105f8576105f8612579565b6020808252600f908201526e125b9d985b1a59081d195cdd081251608a1b604082015260600190565b5f600182016125da576125da612579565b5060010190565b634e487b7160e01b5f52603260045260245ffd5b601f821115610725575f81815260208120601f850160051c8101602086101561261b5750805b601f850160051c820191505b8181101561263a57828155600101612627565b505050505050565b815167ffffffffffffffff81111561265c5761265c612360565b6126708161266a8454612541565b846125f5565b602080601f8311600181146126a3575f841561268c5750858301515b5f19600386901b1c1916600185901b17855561263a565b5f85815260208120601f198616915b828110156126d1578886015182559484019460019091019084016126b2565b50858210156126ee57878501515f19600388901b60f8161c191681555b5050505050600190811b01905550565b5f825161270f8184602087016120eb565b9190910192915050565b606081525f61272b606083018661210d565b8460208401528281036040840152612743818561210d565b9695505050505050565b838152826020820152606060408201525f61276b606083018461210d565b95945050505050565b808201808211156105f8576105f861257956fe4b346d9ac223184c8768fae9f0f9cc7825dd24f5ba7c8c677c34451ba15eca64a2646970667358221220c2d6ac0b3e6f5015e741fe3c2e5e59df8904f23ecd9f8bfe1625e3bac60599d264736f6c63430008140033",
  "linkReferences": {},
  "deployedLinkReferences": {},
  "immutableReferences": {},
  "inputSourceName": "project/contracts/CTBALToken.sol",
  "buildInfoId": "solc-0_8_20-e04bf9eaf32f8a1f8e8ae37a34a1911278b06389"
}